{
  "address": "0x67e40d401286f21e92adbf8DB2D392a1af735A95",
  "abi": [
    {
      "inputs": [
        {
          "internalType": "contract ILiquidity",
          "name": "liquidity_",
          "type": "address"
        },
        {
          "internalType": "contract ILendingFactory",
          "name": "lendingFactory_",
          "type": "address"
        },
        {
          "internalType": "contract IWETH9",
          "name": "weth_",
          "type": "address"
        }
      ],
      "stateMutability": "nonpayable",
      "type": "constructor"
    },
    {
      "inputs": [
        {
          "internalType": "uint256",
          "name": "errorId_",
          "type": "uint256"
        }
      ],
      "name": "FluidLendingError",
      "type": "error"
    },
    {
      "inputs": [
        {
          "internalType": "uint256",
          "name": "errorId_",
          "type": "uint256"
        }
      ],
      "name": "FluidLiquidityCalcsError",
      "type": "error"
    },
    {
      "inputs": [
        {
          "internalType": "uint256",
          "name": "errorId_",
          "type": "uint256"
        }
      ],
      "name": "FluidSafeTransferError",
      "type": "error"
    },
    {
      "anonymous": false,
      "inputs": [
        {
          "indexed": true,
          "internalType": "address",
          "name": "owner",
          "type": "address"
        },
        {
          "indexed": true,
          "internalType": "address",
          "name": "spender",
          "type": "address"
        },
        {
          "indexed": false,
          "internalType": "uint256",
          "name": "value",
          "type": "uint256"
        }
      ],
      "name": "Approval",
      "type": "event"
    },
    {
      "anonymous": false,
      "inputs": [
        {
          "indexed": true,
          "internalType": "address",
          "name": "sender",
          "type": "address"
        },
        {
          "indexed": true,
          "internalType": "address",
          "name": "owner",
          "type": "address"
        },
        {
          "indexed": false,
          "internalType": "uint256",
          "name": "assets",
          "type": "uint256"
        },
        {
          "indexed": false,
          "internalType": "uint256",
          "name": "shares",
          "type": "uint256"
        }
      ],
      "name": "Deposit",
      "type": "event"
    },
    {
      "anonymous": false,
      "inputs": [
        {
          "indexed": false,
          "internalType": "uint256",
          "name": "assets",
          "type": "uint256"
        }
      ],
      "name": "LogRebalance",
      "type": "event"
    },
    {
      "anonymous": false,
      "inputs": [
        {
          "indexed": true,
          "internalType": "address",
          "name": "token",
          "type": "address"
        }
      ],
      "name": "LogRescueFunds",
      "type": "event"
    },
    {
      "anonymous": false,
      "inputs": [
        {
          "indexed": false,
          "internalType": "uint256",
          "name": "tokenExchangePrice",
          "type": "uint256"
        },
        {
          "indexed": false,
          "internalType": "uint256",
          "name": "liquidityExchangePrice",
          "type": "uint256"
        }
      ],
      "name": "LogUpdateRates",
      "type": "event"
    },
    {
      "anonymous": false,
      "inputs": [
        {
          "indexed": true,
          "internalType": "address",
          "name": "rebalancer",
          "type": "address"
        }
      ],
      "name": "LogUpdateRebalancer",
      "type": "event"
    },
    {
      "anonymous": false,
      "inputs": [
        {
          "indexed": true,
          "internalType": "contract ILendingRewardsRateModel",
          "name": "rewardsRateModel",
          "type": "address"
        }
      ],
      "name": "LogUpdateRewards",
      "type": "event"
    },
    {
      "anonymous": false,
      "inputs": [
        {
          "indexed": true,
          "internalType": "address",
          "name": "from",
          "type": "address"
        },
        {
          "indexed": true,
          "internalType": "address",
          "name": "to",
          "type": "address"
        },
        {
          "indexed": false,
          "internalType": "uint256",
          "name": "value",
          "type": "uint256"
        }
      ],
      "name": "Transfer",
      "type": "event"
    },
    {
      "anonymous": false,
      "inputs": [
        {
          "indexed": true,
          "internalType": "address",
          "name": "sender",
          "type": "address"
        },
        {
          "indexed": true,
          "internalType": "address",
          "name": "receiver",
          "type": "address"
        },
        {
          "indexed": true,
          "internalType": "address",
          "name": "owner",
          "type": "address"
        },
        {
          "indexed": false,
          "internalType": "uint256",
          "name": "assets",
          "type": "uint256"
        },
        {
          "indexed": false,
          "internalType": "uint256",
          "name": "shares",
          "type": "uint256"
        }
      ],
      "name": "Withdraw",
      "type": "event"
    },
    {
      "inputs": [],
      "name": "DOMAIN_SEPARATOR",
      "outputs": [
        {
          "internalType": "bytes32",
          "name": "",
          "type": "bytes32"
        }
      ],
      "stateMutability": "view",
      "type": "function"
    },
    {
      "inputs": [],
      "name": "NATIVE_TOKEN_ADDRESS",
      "outputs": [
        {
          "internalType": "address",
          "name": "",
          "type": "address"
        }
      ],
      "stateMutability": "view",
      "type": "function"
    },
    {
      "inputs": [
        {
          "internalType": "address",
          "name": "owner",
          "type": "address"
        },
        {
          "internalType": "address",
          "name": "spender",
          "type": "address"
        }
      ],
      "name": "allowance",
      "outputs": [
        {
          "internalType": "uint256",
          "name": "",
          "type": "uint256"
        }
      ],
      "stateMutability": "view",
      "type": "function"
    },
    {
      "inputs": [
        {
          "internalType": "address",
          "name": "spender",
          "type": "address"
        },
        {
          "internalType": "uint256",
          "name": "amount",
          "type": "uint256"
        }
      ],
      "name": "approve",
      "outputs": [
        {
          "internalType": "bool",
          "name": "",
          "type": "bool"
        }
      ],
      "stateMutability": "nonpayable",
      "type": "function"
    },
    {
      "inputs": [],
      "name": "asset",
      "outputs": [
        {
          "internalType": "address",
          "name": "",
          "type": "address"
        }
      ],
      "stateMutability": "view",
      "type": "function"
    },
    {
      "inputs": [
        {
          "internalType": "address",
          "name": "account",
          "type": "address"
        }
      ],
      "name": "balanceOf",
      "outputs": [
        {
          "internalType": "uint256",
          "name": "",
          "type": "uint256"
        }
      ],
      "stateMutability": "view",
      "type": "function"
    },
    {
      "inputs": [
        {
          "internalType": "uint256",
          "name": "shares_",
          "type": "uint256"
        }
      ],
      "name": "convertToAssets",
      "outputs": [
        {
          "internalType": "uint256",
          "name": "",
          "type": "uint256"
        }
      ],
      "stateMutability": "view",
      "type": "function"
    },
    {
      "inputs": [
        {
          "internalType": "uint256",
          "name": "assets_",
          "type": "uint256"
        }
      ],
      "name": "convertToShares",
      "outputs": [
        {
          "internalType": "uint256",
          "name": "",
          "type": "uint256"
        }
      ],
      "stateMutability": "view",
      "type": "function"
    },
    {
      "inputs": [],
      "name": "decimals",
      "outputs": [
        {
          "internalType": "uint8",
          "name": "",
          "type": "uint8"
        }
      ],
      "stateMutability": "view",
      "type": "function"
    },
    {
      "inputs": [
        {
          "internalType": "address",
          "name": "spender",
          "type": "address"
        },
        {
          "internalType": "uint256",
          "name": "subtractedValue",
          "type": "uint256"
        }
      ],
      "name": "decreaseAllowance",
      "outputs": [
        {
          "internalType": "bool",
          "name": "",
          "type": "bool"
        }
      ],
      "stateMutability": "nonpayable",
      "type": "function"
    },
    {
      "inputs": [
        {
          "internalType": "uint256",
          "name": "assets_",
          "type": "uint256"
        },
        {
          "internalType": "address",
          "name": "receiver_",
          "type": "address"
        }
      ],
      "name": "deposit",
      "outputs": [
        {
          "internalType": "uint256",
          "name": "shares_",
          "type": "uint256"
        }
      ],
      "stateMutability": "nonpayable",
      "type": "function"
    },
    {
      "inputs": [
        {
          "internalType": "uint256",
          "name": "assets_",
          "type": "uint256"
        },
        {
          "internalType": "address",
          "name": "receiver_",
          "type": "address"
        },
        {
          "internalType": "uint256",
          "name": "minAmountOut_",
          "type": "uint256"
        }
      ],
      "name": "deposit",
      "outputs": [
        {
          "internalType": "uint256",
          "name": "shares_",
          "type": "uint256"
        }
      ],
      "stateMutability": "nonpayable",
      "type": "function"
    },
    {
      "inputs": [
        {
          "internalType": "address",
          "name": "receiver_",
          "type": "address"
        },
        {
          "internalType": "uint256",
          "name": "minAmountOut_",
          "type": "uint256"
        }
      ],
      "name": "depositNative",
      "outputs": [
        {
          "internalType": "uint256",
          "name": "shares_",
          "type": "uint256"
        }
      ],
      "stateMutability": "payable",
      "type": "function"
    },
    {
      "inputs": [
        {
          "internalType": "address",
          "name": "receiver_",
          "type": "address"
        }
      ],
      "name": "depositNative",
      "outputs": [
        {
          "internalType": "uint256",
          "name": "shares_",
          "type": "uint256"
        }
      ],
      "stateMutability": "payable",
      "type": "function"
    },
    {
      "inputs": [
        {
          "internalType": "uint256",
          "name": "assets_",
          "type": "uint256"
        },
        {
          "internalType": "address",
          "name": "receiver_",
          "type": "address"
        },
        {
          "internalType": "uint256",
          "name": "minAmountOut_",
          "type": "uint256"
        },
        {
          "components": [
            {
              "components": [
                {
                  "internalType": "address",
                  "name": "token",
                  "type": "address"
                },
                {
                  "internalType": "uint160",
                  "name": "amount",
                  "type": "uint160"
                },
                {
                  "internalType": "uint48",
                  "name": "expiration",
                  "type": "uint48"
                },
                {
                  "internalType": "uint48",
                  "name": "nonce",
                  "type": "uint48"
                }
              ],
              "internalType": "struct IAllowanceTransfer.PermitDetails",
              "name": "details",
              "type": "tuple"
            },
            {
              "internalType": "address",
              "name": "spender",
              "type": "address"
            },
            {
              "internalType": "uint256",
              "name": "sigDeadline",
              "type": "uint256"
            }
          ],
          "internalType": "struct IAllowanceTransfer.PermitSingle",
          "name": "permit_",
          "type": "tuple"
        },
        {
          "internalType": "bytes",
          "name": "signature_",
          "type": "bytes"
        }
      ],
      "name": "depositWithSignature",
      "outputs": [
        {
          "internalType": "uint256",
          "name": "shares_",
          "type": "uint256"
        }
      ],
      "stateMutability": "nonpayable",
      "type": "function"
    },
    {
      "inputs": [
        {
          "internalType": "uint256",
          "name": "assets_",
          "type": "uint256"
        },
        {
          "internalType": "address",
          "name": "receiver_",
          "type": "address"
        },
        {
          "internalType": "uint256",
          "name": "minAmountOut_",
          "type": "uint256"
        },
        {
          "internalType": "uint256",
          "name": "deadline_",
          "type": "uint256"
        },
        {
          "internalType": "bytes",
          "name": "signature_",
          "type": "bytes"
        }
      ],
      "name": "depositWithSignatureEIP2612",
      "outputs": [
        {
          "internalType": "uint256",
          "name": "shares_",
          "type": "uint256"
        }
      ],
      "stateMutability": "nonpayable",
      "type": "function"
    },
    {
      "inputs": [],
      "name": "getData",
      "outputs": [
        {
          "internalType": "contract ILiquidity",
          "name": "liquidity_",
          "type": "address"
        },
        {
          "internalType": "contract ILendingFactory",
          "name": "lendingFactory_",
          "type": "address"
        },
        {
          "internalType": "contract ILendingRewardsRateModel",
          "name": "lendingRewardsRateModel_",
          "type": "address"
        },
        {
          "internalType": "contract IAllowanceTransfer",
          "name": "permit2_",
          "type": "address"
        },
        {
          "internalType": "address",
          "name": "rebalancer_",
          "type": "address"
        },
        {
          "internalType": "bool",
          "name": "rewardsActive_",
          "type": "bool"
        },
        {
          "internalType": "uint256",
          "name": "liquidityBalance_",
          "type": "uint256"
        },
        {
          "internalType": "uint256",
          "name": "liquidityExchangePrice_",
          "type": "uint256"
        },
        {
          "internalType": "uint256",
          "name": "tokenExchangePrice_",
          "type": "uint256"
        }
      ],
      "stateMutability": "view",
      "type": "function"
    },
    {
      "inputs": [
        {
          "internalType": "address",
          "name": "spender",
          "type": "address"
        },
        {
          "internalType": "uint256",
          "name": "addedValue",
          "type": "uint256"
        }
      ],
      "name": "increaseAllowance",
      "outputs": [
        {
          "internalType": "bool",
          "name": "",
          "type": "bool"
        }
      ],
      "stateMutability": "nonpayable",
      "type": "function"
    },
    {
      "inputs": [
        {
          "internalType": "address",
          "name": "",
          "type": "address"
        },
        {
          "internalType": "uint256",
          "name": "",
          "type": "uint256"
        },
        {
          "internalType": "bytes",
          "name": "",
          "type": "bytes"
        }
      ],
      "name": "liquidityCallback",
      "outputs": [],
      "stateMutability": "nonpayable",
      "type": "function"
    },
    {
      "inputs": [
        {
          "internalType": "address",
          "name": "",
          "type": "address"
        }
      ],
      "name": "maxDeposit",
      "outputs": [
        {
          "internalType": "uint256",
          "name": "",
          "type": "uint256"
        }
      ],
      "stateMutability": "view",
      "type": "function"
    },
    {
      "inputs": [
        {
          "internalType": "address",
          "name": "",
          "type": "address"
        }
      ],
      "name": "maxMint",
      "outputs": [
        {
          "internalType": "uint256",
          "name": "",
          "type": "uint256"
        }
      ],
      "stateMutability": "view",
      "type": "function"
    },
    {
      "inputs": [
        {
          "internalType": "address",
          "name": "owner_",
          "type": "address"
        }
      ],
      "name": "maxRedeem",
      "outputs": [
        {
          "internalType": "uint256",
          "name": "",
          "type": "uint256"
        }
      ],
      "stateMutability": "view",
      "type": "function"
    },
    {
      "inputs": [
        {
          "internalType": "address",
          "name": "owner_",
          "type": "address"
        }
      ],
      "name": "maxWithdraw",
      "outputs": [
        {
          "internalType": "uint256",
          "name": "",
          "type": "uint256"
        }
      ],
      "stateMutability": "view",
      "type": "function"
    },
    {
      "inputs": [],
      "name": "minDeposit",
      "outputs": [
        {
          "internalType": "uint256",
          "name": "",
          "type": "uint256"
        }
      ],
      "stateMutability": "view",
      "type": "function"
    },
    {
      "inputs": [
        {
          "internalType": "uint256",
          "name": "shares_",
          "type": "uint256"
        },
        {
          "internalType": "address",
          "name": "receiver_",
          "type": "address"
        },
        {
          "internalType": "uint256",
          "name": "maxAssets_",
          "type": "uint256"
        }
      ],
      "name": "mint",
      "outputs": [
        {
          "internalType": "uint256",
          "name": "assets_",
          "type": "uint256"
        }
      ],
      "stateMutability": "nonpayable",
      "type": "function"
    },
    {
      "inputs": [
        {
          "internalType": "uint256",
          "name": "shares_",
          "type": "uint256"
        },
        {
          "internalType": "address",
          "name": "receiver_",
          "type": "address"
        }
      ],
      "name": "mint",
      "outputs": [
        {
          "internalType": "uint256",
          "name": "assets_",
          "type": "uint256"
        }
      ],
      "stateMutability": "nonpayable",
      "type": "function"
    },
    {
      "inputs": [
        {
          "internalType": "uint256",
          "name": "shares_",
          "type": "uint256"
        },
        {
          "internalType": "address",
          "name": "receiver_",
          "type": "address"
        }
      ],
      "name": "mintNative",
      "outputs": [
        {
          "internalType": "uint256",
          "name": "assets_",
          "type": "uint256"
        }
      ],
      "stateMutability": "payable",
      "type": "function"
    },
    {
      "inputs": [
        {
          "internalType": "uint256",
          "name": "shares_",
          "type": "uint256"
        },
        {
          "internalType": "address",
          "name": "receiver_",
          "type": "address"
        },
        {
          "internalType": "uint256",
          "name": "maxAssets_",
          "type": "uint256"
        }
      ],
      "name": "mintNative",
      "outputs": [
        {
          "internalType": "uint256",
          "name": "assets_",
          "type": "uint256"
        }
      ],
      "stateMutability": "payable",
      "type": "function"
    },
    {
      "inputs": [
        {
          "internalType": "uint256",
          "name": "shares_",
          "type": "uint256"
        },
        {
          "internalType": "address",
          "name": "receiver_",
          "type": "address"
        },
        {
          "internalType": "uint256",
          "name": "maxAssets_",
          "type": "uint256"
        },
        {
          "components": [
            {
              "components": [
                {
                  "internalType": "address",
                  "name": "token",
                  "type": "address"
                },
                {
                  "internalType": "uint160",
                  "name": "amount",
                  "type": "uint160"
                },
                {
                  "internalType": "uint48",
                  "name": "expiration",
                  "type": "uint48"
                },
                {
                  "internalType": "uint48",
                  "name": "nonce",
                  "type": "uint48"
                }
              ],
              "internalType": "struct IAllowanceTransfer.PermitDetails",
              "name": "details",
              "type": "tuple"
            },
            {
              "internalType": "address",
              "name": "spender",
              "type": "address"
            },
            {
              "internalType": "uint256",
              "name": "sigDeadline",
              "type": "uint256"
            }
          ],
          "internalType": "struct IAllowanceTransfer.PermitSingle",
          "name": "permit_",
          "type": "tuple"
        },
        {
          "internalType": "bytes",
          "name": "signature_",
          "type": "bytes"
        }
      ],
      "name": "mintWithSignature",
      "outputs": [
        {
          "internalType": "uint256",
          "name": "assets_",
          "type": "uint256"
        }
      ],
      "stateMutability": "nonpayable",
      "type": "function"
    },
    {
      "inputs": [
        {
          "internalType": "uint256",
          "name": "shares_",
          "type": "uint256"
        },
        {
          "internalType": "address",
          "name": "receiver_",
          "type": "address"
        },
        {
          "internalType": "uint256",
          "name": "maxAssets_",
          "type": "uint256"
        },
        {
          "internalType": "uint256",
          "name": "deadline_",
          "type": "uint256"
        },
        {
          "internalType": "bytes",
          "name": "signature_",
          "type": "bytes"
        }
      ],
      "name": "mintWithSignatureEIP2612",
      "outputs": [
        {
          "internalType": "uint256",
          "name": "assets_",
          "type": "uint256"
        }
      ],
      "stateMutability": "nonpayable",
      "type": "function"
    },
    {
      "inputs": [],
      "name": "name",
      "outputs": [
        {
          "internalType": "string",
          "name": "",
          "type": "string"
        }
      ],
      "stateMutability": "view",
      "type": "function"
    },
    {
      "inputs": [
        {
          "internalType": "address",
          "name": "owner",
          "type": "address"
        }
      ],
      "name": "nonces",
      "outputs": [
        {
          "internalType": "uint256",
          "name": "",
          "type": "uint256"
        }
      ],
      "stateMutability": "view",
      "type": "function"
    },
    {
      "inputs": [
        {
          "internalType": "address",
          "name": "owner",
          "type": "address"
        },
        {
          "internalType": "address",
          "name": "spender",
          "type": "address"
        },
        {
          "internalType": "uint256",
          "name": "value",
          "type": "uint256"
        },
        {
          "internalType": "uint256",
          "name": "deadline",
          "type": "uint256"
        },
        {
          "internalType": "uint8",
          "name": "v",
          "type": "uint8"
        },
        {
          "internalType": "bytes32",
          "name": "r",
          "type": "bytes32"
        },
        {
          "internalType": "bytes32",
          "name": "s",
          "type": "bytes32"
        }
      ],
      "name": "permit",
      "outputs": [],
      "stateMutability": "nonpayable",
      "type": "function"
    },
    {
      "inputs": [
        {
          "internalType": "uint256",
          "name": "assets_",
          "type": "uint256"
        }
      ],
      "name": "previewDeposit",
      "outputs": [
        {
          "internalType": "uint256",
          "name": "",
          "type": "uint256"
        }
      ],
      "stateMutability": "view",
      "type": "function"
    },
    {
      "inputs": [
        {
          "internalType": "uint256",
          "name": "shares_",
          "type": "uint256"
        }
      ],
      "name": "previewMint",
      "outputs": [
        {
          "internalType": "uint256",
          "name": "",
          "type": "uint256"
        }
      ],
      "stateMutability": "view",
      "type": "function"
    },
    {
      "inputs": [
        {
          "internalType": "uint256",
          "name": "shares_",
          "type": "uint256"
        }
      ],
      "name": "previewRedeem",
      "outputs": [
        {
          "internalType": "uint256",
          "name": "",
          "type": "uint256"
        }
      ],
      "stateMutability": "view",
      "type": "function"
    },
    {
      "inputs": [
        {
          "internalType": "uint256",
          "name": "assets_",
          "type": "uint256"
        }
      ],
      "name": "previewWithdraw",
      "outputs": [
        {
          "internalType": "uint256",
          "name": "",
          "type": "uint256"
        }
      ],
      "stateMutability": "view",
      "type": "function"
    },
    {
      "inputs": [],
      "name": "rebalance",
      "outputs": [
        {
          "internalType": "uint256",
          "name": "assets_",
          "type": "uint256"
        }
      ],
      "stateMutability": "payable",
      "type": "function"
    },
    {
      "inputs": [
        {
          "internalType": "uint256",
          "name": "shares_",
          "type": "uint256"
        },
        {
          "internalType": "address",
          "name": "receiver_",
          "type": "address"
        },
        {
          "internalType": "address",
          "name": "owner_",
          "type": "address"
        },
        {
          "internalType": "uint256",
          "name": "minAmountOut_",
          "type": "uint256"
        }
      ],
      "name": "redeem",
      "outputs": [
        {
          "internalType": "uint256",
          "name": "assets_",
          "type": "uint256"
        }
      ],
      "stateMutability": "nonpayable",
      "type": "function"
    },
    {
      "inputs": [
        {
          "internalType": "uint256",
          "name": "shares_",
          "type": "uint256"
        },
        {
          "internalType": "address",
          "name": "receiver_",
          "type": "address"
        },
        {
          "internalType": "address",
          "name": "owner_",
          "type": "address"
        }
      ],
      "name": "redeem",
      "outputs": [
        {
          "internalType": "uint256",
          "name": "assets_",
          "type": "uint256"
        }
      ],
      "stateMutability": "nonpayable",
      "type": "function"
    },
    {
      "inputs": [
        {
          "internalType": "uint256",
          "name": "shares_",
          "type": "uint256"
        },
        {
          "internalType": "address",
          "name": "receiver_",
          "type": "address"
        },
        {
          "internalType": "address",
          "name": "owner_",
          "type": "address"
        },
        {
          "internalType": "uint256",
          "name": "minAmountOut_",
          "type": "uint256"
        }
      ],
      "name": "redeemNative",
      "outputs": [
        {
          "internalType": "uint256",
          "name": "assets_",
          "type": "uint256"
        }
      ],
      "stateMutability": "nonpayable",
      "type": "function"
    },
    {
      "inputs": [
        {
          "internalType": "uint256",
          "name": "shares_",
          "type": "uint256"
        },
        {
          "internalType": "address",
          "name": "receiver_",
          "type": "address"
        },
        {
          "internalType": "address",
          "name": "owner_",
          "type": "address"
        }
      ],
      "name": "redeemNative",
      "outputs": [
        {
          "internalType": "uint256",
          "name": "assets_",
          "type": "uint256"
        }
      ],
      "stateMutability": "nonpayable",
      "type": "function"
    },
    {
      "inputs": [
        {
          "internalType": "uint256",
          "name": "shares_",
          "type": "uint256"
        },
        {
          "internalType": "address",
          "name": "receiver_",
          "type": "address"
        },
        {
          "internalType": "address",
          "name": "owner_",
          "type": "address"
        },
        {
          "internalType": "uint256",
          "name": "minAmountOut_",
          "type": "uint256"
        },
        {
          "internalType": "uint256",
          "name": "deadline_",
          "type": "uint256"
        },
        {
          "internalType": "bytes",
          "name": "signature_",
          "type": "bytes"
        }
      ],
      "name": "redeemWithSignature",
      "outputs": [
        {
          "internalType": "uint256",
          "name": "assets_",
          "type": "uint256"
        }
      ],
      "stateMutability": "nonpayable",
      "type": "function"
    },
    {
      "inputs": [
        {
          "internalType": "uint256",
          "name": "shares_",
          "type": "uint256"
        },
        {
          "internalType": "address",
          "name": "receiver_",
          "type": "address"
        },
        {
          "internalType": "address",
          "name": "owner_",
          "type": "address"
        },
        {
          "internalType": "uint256",
          "name": "minAmountOut_",
          "type": "uint256"
        },
        {
          "internalType": "uint256",
          "name": "deadline_",
          "type": "uint256"
        },
        {
          "internalType": "bytes",
          "name": "signature_",
          "type": "bytes"
        }
      ],
      "name": "redeemWithSignatureNative",
      "outputs": [
        {
          "internalType": "uint256",
          "name": "assets_",
          "type": "uint256"
        }
      ],
      "stateMutability": "nonpayable",
      "type": "function"
    },
    {
      "inputs": [
        {
          "internalType": "address",
          "name": "token_",
          "type": "address"
        }
      ],
      "name": "rescueFunds",
      "outputs": [],
      "stateMutability": "nonpayable",
      "type": "function"
    },
    {
      "inputs": [],
      "name": "symbol",
      "outputs": [
        {
          "internalType": "string",
          "name": "",
          "type": "string"
        }
      ],
      "stateMutability": "view",
      "type": "function"
    },
    {
      "inputs": [],
      "name": "totalAssets",
      "outputs": [
        {
          "internalType": "uint256",
          "name": "",
          "type": "uint256"
        }
      ],
      "stateMutability": "view",
      "type": "function"
    },
    {
      "inputs": [],
      "name": "totalSupply",
      "outputs": [
        {
          "internalType": "uint256",
          "name": "",
          "type": "uint256"
        }
      ],
      "stateMutability": "view",
      "type": "function"
    },
    {
      "inputs": [
        {
          "internalType": "address",
          "name": "to",
          "type": "address"
        },
        {
          "internalType": "uint256",
          "name": "amount",
          "type": "uint256"
        }
      ],
      "name": "transfer",
      "outputs": [
        {
          "internalType": "bool",
          "name": "",
          "type": "bool"
        }
      ],
      "stateMutability": "nonpayable",
      "type": "function"
    },
    {
      "inputs": [
        {
          "internalType": "address",
          "name": "from",
          "type": "address"
        },
        {
          "internalType": "address",
          "name": "to",
          "type": "address"
        },
        {
          "internalType": "uint256",
          "name": "amount",
          "type": "uint256"
        }
      ],
      "name": "transferFrom",
      "outputs": [
        {
          "internalType": "bool",
          "name": "",
          "type": "bool"
        }
      ],
      "stateMutability": "nonpayable",
      "type": "function"
    },
    {
      "inputs": [],
      "name": "updateRates",
      "outputs": [
        {
          "internalType": "uint256",
          "name": "tokenExchangePrice_",
          "type": "uint256"
        },
        {
          "internalType": "uint256",
          "name": "liquidityExchangePrice_",
          "type": "uint256"
        }
      ],
      "stateMutability": "nonpayable",
      "type": "function"
    },
    {
      "inputs": [
        {
          "internalType": "address",
          "name": "newRebalancer_",
          "type": "address"
        }
      ],
      "name": "updateRebalancer",
      "outputs": [],
      "stateMutability": "nonpayable",
      "type": "function"
    },
    {
      "inputs": [
        {
          "internalType": "contract ILendingRewardsRateModel",
          "name": "rewardsRateModel_",
          "type": "address"
        }
      ],
      "name": "updateRewards",
      "outputs": [],
      "stateMutability": "nonpayable",
      "type": "function"
    },
    {
      "inputs": [
        {
          "internalType": "uint256",
          "name": "assets_",
          "type": "uint256"
        },
        {
          "internalType": "address",
          "name": "receiver_",
          "type": "address"
        },
        {
          "internalType": "address",
          "name": "owner_",
          "type": "address"
        },
        {
          "internalType": "uint256",
          "name": "maxSharesBurn_",
          "type": "uint256"
        }
      ],
      "name": "withdraw",
      "outputs": [
        {
          "internalType": "uint256",
          "name": "shares_",
          "type": "uint256"
        }
      ],
      "stateMutability": "nonpayable",
      "type": "function"
    },
    {
      "inputs": [
        {
          "internalType": "uint256",
          "name": "assets_",
          "type": "uint256"
        },
        {
          "internalType": "address",
          "name": "receiver_",
          "type": "address"
        },
        {
          "internalType": "address",
          "name": "owner_",
          "type": "address"
        }
      ],
      "name": "withdraw",
      "outputs": [
        {
          "internalType": "uint256",
          "name": "shares_",
          "type": "uint256"
        }
      ],
      "stateMutability": "nonpayable",
      "type": "function"
    },
    {
      "inputs": [
        {
          "internalType": "uint256",
          "name": "assets_",
          "type": "uint256"
        },
        {
          "internalType": "address",
          "name": "receiver_",
          "type": "address"
        },
        {
          "internalType": "address",
          "name": "owner_",
          "type": "address"
        }
      ],
      "name": "withdrawNative",
      "outputs": [
        {
          "internalType": "uint256",
          "name": "shares_",
          "type": "uint256"
        }
      ],
      "stateMutability": "nonpayable",
      "type": "function"
    },
    {
      "inputs": [
        {
          "internalType": "uint256",
          "name": "assets_",
          "type": "uint256"
        },
        {
          "internalType": "address",
          "name": "receiver_",
          "type": "address"
        },
        {
          "internalType": "address",
          "name": "owner_",
          "type": "address"
        },
        {
          "internalType": "uint256",
          "name": "maxSharesBurn_",
          "type": "uint256"
        }
      ],
      "name": "withdrawNative",
      "outputs": [
        {
          "internalType": "uint256",
          "name": "shares_",
          "type": "uint256"
        }
      ],
      "stateMutability": "nonpayable",
      "type": "function"
    },
    {
      "inputs": [
        {
          "internalType": "uint256",
          "name": "sharesToPermit_",
          "type": "uint256"
        },
        {
          "internalType": "uint256",
          "name": "assets_",
          "type": "uint256"
        },
        {
          "internalType": "address",
          "name": "receiver_",
          "type": "address"
        },
        {
          "internalType": "address",
          "name": "owner_",
          "type": "address"
        },
        {
          "internalType": "uint256",
          "name": "maxSharesBurn_",
          "type": "uint256"
        },
        {
          "internalType": "uint256",
          "name": "deadline_",
          "type": "uint256"
        },
        {
          "internalType": "bytes",
          "name": "signature_",
          "type": "bytes"
        }
      ],
      "name": "withdrawWithSignature",
      "outputs": [
        {
          "internalType": "uint256",
          "name": "shares_",
          "type": "uint256"
        }
      ],
      "stateMutability": "nonpayable",
      "type": "function"
    },
    {
      "inputs": [
        {
          "internalType": "uint256",
          "name": "sharesToPermit_",
          "type": "uint256"
        },
        {
          "internalType": "uint256",
          "name": "assets_",
          "type": "uint256"
        },
        {
          "internalType": "address",
          "name": "receiver_",
          "type": "address"
        },
        {
          "internalType": "address",
          "name": "owner_",
          "type": "address"
        },
        {
          "internalType": "uint256",
          "name": "maxSharesBurn_",
          "type": "uint256"
        },
        {
          "internalType": "uint256",
          "name": "deadline_",
          "type": "uint256"
        },
        {
          "internalType": "bytes",
          "name": "signature_",
          "type": "bytes"
        }
      ],
      "name": "withdrawWithSignatureNative",
      "outputs": [
        {
          "internalType": "uint256",
          "name": "shares_",
          "type": "uint256"
        }
      ],
      "stateMutability": "nonpayable",
      "type": "function"
    },
    {
      "stateMutability": "payable",
      "type": "receive"
    }
  ],
  "transactionHash": "0x819339a5118e20e1ce3edd262388a02551ef55279e8f2deb4f058b2ac0afa626",
  "args": [
    "0x52Ef3F34aE6Ed1B4B5044ee7Dc2b929461736254",
    "0x498E8cD451f255C7913DAa72Be24f57C602c4bE0",
    "0xC02aaA39b223FE8D0A0e5C4F27eAD9083C756Cc2"
  ],
  "numDeployments": 1,
  "bytecode": "0x6102206040523480156200001257600080fd5b5060405162005d6338038062005d638339810160408190526200003591620007e5565b8282828282828282826040518060400160405280600f81526020016e023363ab4b21024b73a32b932b9ba1608d1b815250846001600160a01b03166306fdde036040518163ffffffff1660e01b8152600401600060405180830381865afa158015620000a5573d6000803e3d6000fd5b505050506040513d6000823e601f3d908101601f19168201604052620000cf919081019062000875565b604051602001620000e29291906200092d565b60405160208183030381529060405280604051806040016040528060018152602001603160f81b8152506040518060400160405280600f81526020016e023363ab4b21024b73a32b932b9ba1608d1b815250876001600160a01b03166306fdde036040518163ffffffff1660e01b8152600401600060405180830381865afa15801562000173573d6000803e3d6000fd5b505050506040513d6000823e601f3d908101601f191682016040526200019d919081019062000875565b604051602001620001b09291906200092d565b60405160208183030381529060405260405180604001604052806002815260200161666960f01b815250886001600160a01b03166395d89b416040518163ffffffff1660e01b8152600401600060405180830381865afa15801562000219573d6000803e3d6000fd5b505050506040513d6000823e601f3d908101601f1916820160405262000243919081019062000875565b604051602001620002569291906200092d565b60408051601f198184030181529190526003620002748382620009e9565b506004620002838282620009e9565b5050825160208085019190912083518483012060e08290526101008190524660a0818152604080517f8b73c3c69bb8fe3d512ecc4cf759cc79239f7b179b0ffacaa9a75d522b39400f81880181905281830187905260608201869052608082019490945230818401528151808203909301835260c0019052805194019390932091935091906080523060c0526101205250506040805163313ce56760e01b815290516001600160a01b038616945063313ce5679350600480830193506020928290030181865afa1580156200035c573d6000803e3d6000fd5b505050506040513d601f19601f8201168201806040525081019062000382919062000ab5565b60ff166101a0526001600160a01b0390811661018090815292811661014090815291166101609081526040805173eeeeeeeeeeeeeeeeeeeeeeeeeeeeeeeeeeeeeeee60208281018290526005838501528351808403850181526060840185528051908201206101c05260808301829052600760a0808501919091528451808503909101815260c0840185528051908201206101e0523060e0840152600861010080850191909152845180850390910181526101208401855280519082012095830191909152818401949094528151808203909301835290930190925281519101206102005282620004738162000508565b826200047f8162000508565b826200048b8162000508565b50506008805460ff60a81b1916600160a81b17905550620004b09250506200053c9050565b600880546001600160401b03929092166001600160801b0319909216919091176ce8d4a5100000000000000000001764ffffffffff60801b1916600160801b4264ffffffffff16021790555062000b11945050505050565b6001600160a01b038116620005395760405163694bda1d60e01b8152614e2460048201526024015b60405180910390fd5b50565b6000620005c1610140516001600160a01b031663b5c736e46101c0516040518263ffffffff1660e01b81526004016200057791815260200190565b602060405180830381865afa15801562000595573d6000803e3d6000fd5b505050506040513d601f19601f82011682018060405250810190620005bb919062000ae1565b620005c7565b50919050565b6001600160401b03605b82901c811690609b83901c16811580620005e9575080155b156200060e57604051636a86ba8960e11b815262011171600482015260240162000530565b61ffff8316603a84901c6401ffffffff16428181039160ea87901c617fff1691148062000639575082155b80620006455750806001145b156200065357505050915091565b64496cebb80084840283020484019350617fff60db87901c169250826001036200067f57505050915091565b82600116600103620006d95760019290921c91826c7e37be2022c0914b268000000081620006b157620006b162000afb565b049250612710601e87901c613fff166b033b2e3c9fd0803ce800000085010204925062000706565b60019290921c916305f5e100601e87901c613fff166127108501026b033b2e3c9fd0803ce8000000020492505b80600116600103620007425760011c61271081016b033b2e3c9fd0803ce800000082028162000739576200073962000afb565b0490506200077b565b60011c61271081016b033b2e3c9fd0803ce800000082028162000769576200076962000afb565b046b033b2e3c9fd0803ce80000000390505b760a70c3c40a64e6c51999090b65f67d92400000000000008382026127100261ffff881691900402601087901c613fff16612710030292506801b5a660ea44b8000085840283020485019450505050915091565b6001600160a01b03811681146200053957600080fd5b600080600060608486031215620007fb57600080fd5b83516200080881620007cf565b60208501519093506200081b81620007cf565b60408501519092506200082e81620007cf565b809150509250925092565b634e487b7160e01b600052604160045260246000fd5b60005b838110156200086c57818101518382015260200162000852565b50506000910152565b6000602082840312156200088857600080fd5b81516001600160401b0380821115620008a057600080fd5b818401915084601f830112620008b557600080fd5b815181811115620008ca57620008ca62000839565b604051601f8201601f19908116603f01168101908382118183101715620008f557620008f562000839565b816040528281528760208487010111156200090f57600080fd5b620009228360208301602088016200084f565b979650505050505050565b60008351620009418184602088016200084f565b835190830190620009578183602088016200084f565b01949350505050565b600181811c908216806200097557607f821691505b602082108103620005c157634e487b7160e01b600052602260045260246000fd5b601f821115620009e457600081815260208120601f850160051c81016020861015620009bf5750805b601f850160051c820191505b81811015620009e057828155600101620009cb565b5050505b505050565b81516001600160401b0381111562000a055762000a0562000839565b62000a1d8162000a16845462000960565b8462000996565b602080601f83116001811462000a55576000841562000a3c5750858301515b600019600386901b1c1916600185901b178555620009e0565b600085815260208120601f198616915b8281101562000a865788860151825594840194600190910190840162000a65565b508582101562000aa55787850151600019600388901b60f8161c191681555b5050505050600190811b01905550565b60006020828403121562000ac857600080fd5b815160ff8116811462000ada57600080fd5b9392505050565b60006020828403121562000af457600080fd5b5051919050565b634e487b7160e01b600052601260045260246000fd5b60805160a05160c05160e05161010051610120516101405161016051610180516101a0516101c0516101e0516102005161512962000c3a600039600081816130550152613961015260006112b7015260006126720152600061050401526000818161056501528181611210015281816116de01528181611b610152818161222d01528181613376015281816133fa01528181613567015281816135e20152613638015260008181611095015261344e015260008181611073015281816113010152818161237d015281816123db015281816126b4015281816130190152818161381b015281816139a101528181613a8101526146ec01526000612f6901526000612fb801526000612f9301526000612eec01526000612f1601526000612f4001526151296000f3fe60806040526004361061038f5760003560e01c80637d7c2a1c116101dc578063ba08765211610102578063dd62ed3e116100a0578063e53b20171161006f578063e53b201714610b38578063eb26620c14610b58578063ef8b30f714610b78578063f5a35aaa14610b9857600080fd5b8063dd62ed3e14610a7d578063df2ebdbb14610ad0578063e083be2214610af8578063e359754814610b1857600080fd5b8063c6e6f592116100dc578063c6e6f592146109fd578063ce96cb7714610a1d578063d505accf14610a3d578063d905777e14610a5d57600080fd5b8063ba0876521461099d578063bc157ac1146109bd578063c63d75b6146109dd57600080fd5b80639f40a7b31161017a578063ad20750111610149578063ad2075011461091d578063b046a4491461093d578063b3d7f6b91461095d578063b460af941461097d57600080fd5b80639f40a7b31461089d578063a318c1a4146108bd578063a457c2d7146108dd578063a9059cbb146108fd57600080fd5b8063836a1040116101b6578063836a1040146108285780638c87483a1461084857806394bf804d1461086857806395d89b411461088857600080fd5b80637d7c2a1c146107ed5780637ecebe00146107f5578063805411871461081557600080fd5b806338d52e0f116102c157806341b3d1851161025f578063635c31c21161022e578063635c31c21461074a5780636e553f651461076a57806370a082311461078a578063740c955e146107cd57600080fd5b806341b3d185146106d35780634cdad506146106e857806350cc0f8f146107085780635fd619651461072857600080fd5b80633bc5de301161029b5780633bc5de30146105ea5780633c3821f4146106695780633f4c093014610693578063402d267d146106b357600080fd5b806338d52e0f1461055657806339509351146105aa5780633badef91146105ca57600080fd5b806318160ddd1161032e5780632ae06214116103085780632ae06214146104d0578063313ce567146104f057806333bb7f911461052e5780633644e5151461054157600080fd5b806318160ddd1461047b5780632126e91e1461049057806323b872dd146104b057600080fd5b806306fdde031161036a57806306fdde03146103e957806307a2d13a1461040b578063095ea7b31461042b5780630a28a4771461045b57600080fd5b8062acb7361461039b57806301e1d114146103c157806302279b4a146103d657600080fd5b3661039657005b600080fd5b6103ae6103a9366004614800565b610bb8565b6040519081526020015b60405180910390f35b3480156103cd57600080fd5b506103ae610c60565b6103ae6103e4366004614830565b610c9f565b3480156103f557600080fd5b506103fe610cbc565b6040516103b891906148c0565b34801561041757600080fd5b506103ae6104263660046148d3565b610d4e565b34801561043757600080fd5b5061044b610446366004614830565b610d76565b60405190151581526020016103b8565b34801561046757600080fd5b506103ae6104763660046148d3565b610d8e565b34801561048757600080fd5b506002546103ae565b34801561049c57600080fd5b506103ae6104ab3660046148ec565b610daf565b3480156104bc57600080fd5b5061044b6104cb36600461492e565b610e78565b3480156104dc57600080fd5b506103ae6104eb36600461496f565b610e9c565b3480156104fc57600080fd5b5060405160ff7f00000000000000000000000000000000000000000000000000000000000000001681526020016103b8565b6103ae61053c3660046149b7565b610ebd565b34801561054d57600080fd5b506103ae610f16565b34801561056257600080fd5b507f00000000000000000000000000000000000000000000000000000000000000005b60405173ffffffffffffffffffffffffffffffffffffffff90911681526020016103b8565b3480156105b657600080fd5b5061044b6105c5366004614830565b610f25565b3480156105d657600080fd5b506103ae6105e53660046148ec565b610f71565b3480156105f657600080fd5b506105ff61103f565b6040805173ffffffffffffffffffffffffffffffffffffffff9a8b168152988a1660208a0152968916968801969096529387166060870152959091166080850152151560a084015260c083019390935260e0820192909252610100810191909152610120016103b8565b34801561067557600080fd5b5061067e61112b565b604080519283526020830191909152016103b8565b34801561069f57600080fd5b506103ae6106ae366004614a1d565b611149565b3480156106bf57600080fd5b506103ae6106ce3660046149b7565b61128f565b3480156106df57600080fd5b506103ae6113b4565b3480156106f457600080fd5b506103ae6107033660046148d3565b6113c0565b34801561071457600080fd5b506103ae610723366004614a90565b6113cb565b34801561073457600080fd5b506107486107433660046149b7565b6114a3565b005b34801561075657600080fd5b506103ae610765366004614b1f565b611569565b34801561077657600080fd5b506103ae610785366004614800565b61167f565b34801561079657600080fd5b506103ae6107a53660046149b7565b73ffffffffffffffffffffffffffffffffffffffff1660009081526020819052604090205490565b3480156107d957600080fd5b506103ae6107e8366004614ba7565b611779565b6103ae61185e565b34801561080157600080fd5b506103ae6108103660046149b7565b6119a3565b6103ae610823366004614c2d565b6119ce565b34801561083457600080fd5b506103ae610843366004614c2d565b6119e6565b34801561085457600080fd5b506103ae610863366004614b1f565b6119f2565b34801561087457600080fd5b506103ae610883366004614800565b611b02565b34801561089457600080fd5b506103fe611c0c565b3480156108a957600080fd5b506103ae6108b836600461496f565b611c1b565b3480156108c957600080fd5b506103ae6108d836600461496f565b611c28565b3480156108e957600080fd5b5061044b6108f8366004614830565b611c41565b34801561090957600080fd5b5061044b610918366004614830565b611d12565b34801561092957600080fd5b50610748610938366004614c54565b611d20565b34801561094957600080fd5b506107486109583660046149b7565b611d56565b34801561096957600080fd5b506103ae6109783660046148d3565b611dd8565b34801561098957600080fd5b506103ae6109983660046148ec565b611df9565b3480156109a957600080fd5b506103ae6109b83660046148ec565b611e67565b3480156109c957600080fd5b506103ae6109d8366004614c2d565b611ed9565b3480156109e957600080fd5b506103ae6109f83660046149b7565b611ef1565b348015610a0957600080fd5b506103ae610a183660046148d3565b611f00565b348015610a2957600080fd5b506103ae610a383660046149b7565b611f21565b348015610a4957600080fd5b50610748610a58366004614cb0565b611f75565b348015610a6957600080fd5b506103ae610a783660046149b7565b612134565b348015610a8957600080fd5b506103ae610a98366004614d27565b73ffffffffffffffffffffffffffffffffffffffff918216600090815260016020908152604080832093909416825291909152205490565b348015610adc57600080fd5b5061058573eeeeeeeeeeeeeeeeeeeeeeeeeeeeeeeeeeeeeeee81565b348015610b0457600080fd5b506103ae610b13366004614a1d565b612172565b348015610b2457600080fd5b506103ae610b33366004614ba7565b61229f565b348015610b4457600080fd5b50610748610b533660046149b7565b61232b565b348015610b6457600080fd5b506103ae610b7336600461496f565b6124e6565b348015610b8457600080fd5b506103ae610b933660046148d3565b6124f3565b348015610ba457600080fd5b506103ae610bb3366004614a90565b6124fe565b6000610bc2612573565b610bcb83611dd8565b905080341015610c10576040517f694bda1d00000000000000000000000000000000000000000000000000000000815261520960048201526024015b60405180910390fd5b610c1982612611565b50600880547fffffffffffffffffffff00ffffffffffffffffffffffffffffffffffffffffff16750100000000000000000000000000000000000000000017905592915050565b600080610c73610c6e61264a565b61272a565b50905064e8d4a51000610c8560025490565b610c8f9083614d84565b610c999190614dca565b91505090565b6000610caa83610ebd565b9050610cb6818361290a565b92915050565b606060038054610ccb90614e05565b80601f0160208091040260200160405190810160405280929190818152602001828054610cf790614e05565b8015610d445780601f10610d1957610100808354040283529160200191610d44565b820191906000526020600020905b815481529060010190602001808311610d2757829003601f168201915b5050505050905090565b600080610d5c610c6e61264a565b509050610d6f838264e8d4a5100061294c565b9392505050565b600033610d84818585612988565b5060019392505050565b600080610d9c610c6e61264a565b509050610d6f8364e8d4a5100083612b3b565b6000610db9612573565b7fffffffffffffffffffffffffffffffffffffffffffffffffffffffffffffffff8403610dfc5733600090815260208190526040902054610df9906113c0565b93505b610e07848484612b7f565b90503373ffffffffffffffffffffffffffffffffffffffff831614610e3157610e31823383612b8c565b600880547fffffffffffffffffffff00ffffffffffffffffffffffffffffffffffffffffff1675010000000000000000000000000000000000000000001790559392505050565b600033610e86858285612b8c565b610e91858585612c63565b506001949350505050565b6000610ea9858585610f71565b9050610eb5818361290a565b949350505050565b6000610ec7612573565b610ed082612611565b600880547fffffffffffffffffffff00ffffffffffffffffffffffffffffffffffffffffff16750100000000000000000000000000000000000000000017905592915050565b6000610f20612ed2565b905090565b33600081815260016020908152604080832073ffffffffffffffffffffffffffffffffffffffff87168452909152812054909190610d849082908690610f6c908790614e52565b612988565b6000610f7b612573565b7fffffffffffffffffffffffffffffffffffffffffffffffffffffffffffffffff8403610fb5573360009081526020819052604090205493505b610fbe846113c0565b90506000610fcd828585612b7f565b90503373ffffffffffffffffffffffffffffffffffffffff841614610ff757610ff7833383612b8c565b50600880547fffffffffffffffffffff00ffffffffffffffffffffffffffffffffffffffffff1675010000000000000000000000000000000000000000001790559392505050565b600080600080600080600080600061105561264a565b915060006110628361272a565b6007546009546008549395509193507f0000000000000000000000000000000000000000000000000000000000000000927f00000000000000000000000000000000000000000000000000000000000000009273ffffffffffffffffffffffffffffffffffffffff928316926e22d473030f116ddee9f6b43ac78ba392911690760100000000000000000000000000000000000000000000900460ff168015611109575085155b611111613006565b995099509950995099509950995050909192939495969798565b60008061113661264a565b905061114381600161310a565b91509091565b600061115487611dd8565b9050600080600061119a86868080601f01602080910402602001604051908101604052809392919081815260200183838082843760009201919091525061329592505050565b6040517fd505accf00000000000000000000000000000000000000000000000000000000815233600482015230602482015260448101889052606481018b905260ff8416608482015260a4810183905260c48101829052929550909350915073ffffffffffffffffffffffffffffffffffffffff7f0000000000000000000000000000000000000000000000000000000000000000169063d505accf9060e401600060405180830381600087803b15801561125457600080fd5b505af1158015611268573d6000803e3d6000fd5b505050506112768a8a611b02565b935061128284896132c4565b5050509695505050505050565b6040517fb5c736e40000000000000000000000000000000000000000000000000000000081527f00000000000000000000000000000000000000000000000000000000000000006004820152600090819067ffffffffffffffff9073ffffffffffffffffffffffffffffffffffffffff7f0000000000000000000000000000000000000000000000000000000000000000169063b5c736e490602401602060405180830381865afa158015611348573d6000803e3d6000fd5b505050506040513d601f19601f8201168201806040525081019061136c9190614e65565b16600881901c60ff9091161b90506f7fffffffffffffffffffffffffffffff81900364e8d4a5100061139c61264a565b8202816113ab576113ab614d9b565b04949350505050565b6000610f206001611dd8565b6000610cb682610d4e565b60006113d5612573565b73ffffffffffffffffffffffffffffffffffffffff86163303611428576040517f694bda1d000000000000000000000000000000000000000000000000000000008152614e276004820152602401610c07565b611435868a868686613302565b611440888888613365565b905061144c81866132c4565b611457863383612b8c565b600880547fffffffffffffffffffff00ffffffffffffffffffffffffffffffffffffffffff16750100000000000000000000000000000000000000000017905598975050505050505050565b6114ab613420565b6114b361112b565b5050600780547fffffffffffffffffffffffff00000000000000000000000000000000000000001673ffffffffffffffffffffffffffffffffffffffff8316908117909155600880547fffffffffffffffffff00ffffffffffffffffffffffffffffffffffffffffffff16821515760100000000000000000000000000000000000000000000021790556040517fd14b198a72267efb36b8bbc193eb6d52a00d1f61799029250f6a520ad47be82d90600090a250565b6000611573612573565b6040517f2b67b5700000000000000000000000000000000000000000000000000000000081526e22d473030f116ddee9f6b43ac78ba390632b67b570906115c4903390889088908890600401614ee2565b600060405180830381600087803b1580156115de57600080fd5b505af11580156115f2573d6000803e3d6000fd5b505060408051600160208201523391810191909152611629925089915088906060015b60405160208183030381529060405261350a565b9050611635818661290a565b600880547fffffffffffffffffffff00ffffffffffffffffffffffffffffffffffffffffff1675010000000000000000000000000000000000000000001790559695505050505050565b6000611689612573565b7fffffffffffffffffffffffffffffffffffffffffffffffffffffffffffffffff8303611761576040517f70a082310000000000000000000000000000000000000000000000000000000081523360048201527f000000000000000000000000000000000000000000000000000000000000000073ffffffffffffffffffffffffffffffffffffffff16906370a0823190602401602060405180830381865afa15801561173a573d6000803e3d6000fd5b505050506040513d601f19601f8201168201806040525081019061175e9190614e65565b92505b60408051336020820152610e31918591859101611615565b6000611783612573565b73ffffffffffffffffffffffffffffffffffffffff861633036117d6576040517f694bda1d000000000000000000000000000000000000000000000000000000008152614e276004820152602401610c07565b6117df886113c0565b90506117eb818661290a565b6117f88689868686613302565b6000611805828989613365565b9050611812873383612b8c565b50600880547fffffffffffffffffffff00ffffffffffffffffffffffffffffffffffffffffff167501000000000000000000000000000000000000000000179055979650505050505050565b6000611868612573565b60095473ffffffffffffffffffffffffffffffffffffffff1633146118bd576040517f694bda1d000000000000000000000000000000000000000000000000000000008152614e2a6004820152602401610c07565b6118c5613006565b6118cd610c60565b6118d79190614f9c565b9050803410156118e8575034611903565b8034111561190357611903336118fe8334614f9c565b6136b8565b6040805160008082526020820190925261191e908390613817565b905061192b81600161310a565b506040518281527fe97ad8b810ae9d9e29aa69dc04d4ac2e3e71d65307830ccb97c8f876dfc439319060200160405180910390a150600880547fffffffffffffffffffff00ffffffffffffffffffffffffffffffffffffffffff16750100000000000000000000000000000000000000000017905590565b73ffffffffffffffffffffffffffffffffffffffff8116600090815260056020526040812054610cb6565b60006119da8484610bb8565b9050610d6f81836132c4565b60006119da8484611b02565b60006119fc612573565b611a0587611dd8565b9050611a1181866132c4565b6040517f2b67b5700000000000000000000000000000000000000000000000000000000081526e22d473030f116ddee9f6b43ac78ba390632b67b57090611a62903390889088908890600401614ee2565b600060405180830381600087803b158015611a7c57600080fd5b505af1158015611a90573d6000803e3d6000fd5b505060408051600160208201523391810191909152611ab792508391508890606001611615565b50600880547fffffffffffffffffffff00ffffffffffffffffffffffffffffffffffffffffff1675010000000000000000000000000000000000000000001790559695505050505050565b6000611b0c612573565b7fffffffffffffffffffffffffffffffffffffffffffffffffffffffffffffffff8303611be8576040517f70a082310000000000000000000000000000000000000000000000000000000081523360048201527f000000000000000000000000000000000000000000000000000000000000000073ffffffffffffffffffffffffffffffffffffffff16906370a0823190602401602060405180830381865afa158015611bbd573d6000803e3d6000fd5b505050506040513d601f19601f82011682018060405250810190611be19190614e65565b9050611bf4565b611bf183611dd8565b90505b60408051336020820152610c19918391859101611615565b606060048054610ccb90614e05565b6000610ea9858585611e67565b6000611c35858585611df9565b9050610eb581836132c4565b33600081815260016020908152604080832073ffffffffffffffffffffffffffffffffffffffff8716845290915281205490919083811015611d05576040517f08c379a000000000000000000000000000000000000000000000000000000000815260206004820152602560248201527f45524332303a2064656372656173656420616c6c6f77616e63652062656c6f7760448201527f207a65726f0000000000000000000000000000000000000000000000000000006064820152608401610c07565b610e918286868403612988565b600033610d84818585612c63565b6040517f694bda1d00000000000000000000000000000000000000000000000000000000815261520a6004820152602401610c07565b80611d60816138e5565b611d68613420565b600980547fffffffffffffffffffffffff00000000000000000000000000000000000000001673ffffffffffffffffffffffffffffffffffffffff84169081179091556040517fdb94ee7fd8b5bbf8f6d59e76731ff4b4f5a02ab3af1d3e0c774862cf96ff613b90600090a25050565b600080611de6610c6e61264a565b509050610d6f838264e8d4a51000612b3b565b6000611e03612573565b7fffffffffffffffffffffffffffffffffffffffffffffffffffffffffffffffff8403611e5c57611e596107038373ffffffffffffffffffffffffffffffffffffffff1660009081526020819052604090205490565b93505b610e07848484613365565b6000611e71612573565b7fffffffffffffffffffffffffffffffffffffffffffffffffffffffffffffffff8403611ec15773ffffffffffffffffffffffffffffffffffffffff821660009081526020819052604090205493505b611eca846113c0565b90506000610fcd828585613365565b6000611ee5848461167f565b9050610d6f818361290a565b6000610cb6610a18600061128f565b600080611f0e610c6e61264a565b509050610d6f8364e8d4a510008361294c565b600080611f2c613939565b90506000611f5f6104268573ffffffffffffffffffffffffffffffffffffffff1660009081526020819052604090205490565b9050808210611f6e5780610eb5565b5092915050565b83421115611fdf576040517f08c379a000000000000000000000000000000000000000000000000000000000815260206004820152601d60248201527f45524332305065726d69743a206578706972656420646561646c696e650000006044820152606401610c07565b60007f6e71edae12b1b97f4d1f60370fef10105fa2faae0126114a169c64845d6126c988888861200e8c613ab9565b60408051602081019690965273ffffffffffffffffffffffffffffffffffffffff94851690860152929091166060840152608083015260a082015260c0810186905260e001604051602081830303815290604052805190602001209050600061207682613aec565b9050600061208682878787613b55565b90508973ffffffffffffffffffffffffffffffffffffffff168173ffffffffffffffffffffffffffffffffffffffff161461211d576040517f08c379a000000000000000000000000000000000000000000000000000000000815260206004820152601e60248201527f45524332305065726d69743a20696e76616c6964207369676e617475726500006044820152606401610c07565b6121288a8a8a612988565b50505050505050505050565b600080612142610a18613939565b90506000611f5f8473ffffffffffffffffffffffffffffffffffffffff1660009081526020819052604090205490565b6000806000806121b786868080601f01602080910402602001604051908101604052809392919081815260200183838082843760009201919091525061329592505050565b6040517fd505accf000000000000000000000000000000000000000000000000000000008152336004820152306024820152604481018e9052606481018b905260ff8416608482015260a4810183905260c48101829052929550909350915073ffffffffffffffffffffffffffffffffffffffff7f0000000000000000000000000000000000000000000000000000000000000000169063d505accf9060e401600060405180830381600087803b15801561227157600080fd5b505af1158015612285573d6000803e3d6000fd5b505050506122938a8a61167f565b9350611282848961290a565b60006122a9612573565b73ffffffffffffffffffffffffffffffffffffffff861633036122fc576040517f694bda1d000000000000000000000000000000000000000000000000000000008152614e276004820152602401610c07565b612305886113c0565b9050612311818661290a565b61231e8689868686613302565b6000611805828989612b7f565b612333612573565b61233b613420565b7fffffffffffffffffffffffff111111111111111111111111111111111111111273ffffffffffffffffffffffffffffffffffffffff8216016123a7576123a27f0000000000000000000000000000000000000000000000000000000000000000476136b8565b612462565b6040517f70a082310000000000000000000000000000000000000000000000000000000081523060048201526124629082907f00000000000000000000000000000000000000000000000000000000000000009073ffffffffffffffffffffffffffffffffffffffff8316906370a0823190602401602060405180830381865afa158015612439573d6000803e3d6000fd5b505050506040513d601f19601f8201168201806040525081019061245d9190614e65565b613b7d565b60405173ffffffffffffffffffffffffffffffffffffffff8216907fdff2a3947bcf9fc0807b142e7c8497066db9183428b7bdbfb1fcd0f55c27a3df90600090a250600880547fffffffffffffffffffff00ffffffffffffffffffffffffffffffffffffffffff167501000000000000000000000000000000000000000000179055565b6000611c35858585610daf565b6000610cb682611f00565b6000612508612573565b73ffffffffffffffffffffffffffffffffffffffff8616330361255b576040517f694bda1d000000000000000000000000000000000000000000000000000000008152614e276004820152602401610c07565b612568868a868686613302565b611440888888612b7f565b6008547501000000000000000000000000000000000000000000900460ff166001146125cf576040517f694bda1d000000000000000000000000000000000000000000000000000000008152614e286004820152602401610c07565b600880547fffffffffffffffffffff00ffffffffffffffffffffffffffffffffffffffffff167502000000000000000000000000000000000000000000179055565b6000610cb63483835b6040519080825280601f01601f191660200182016040528015612644576020820181803683370190505b50613c21565b6040517fb5c736e40000000000000000000000000000000000000000000000000000000081527f000000000000000000000000000000000000000000000000000000000000000060048201526000906127249073ffffffffffffffffffffffffffffffffffffffff7f0000000000000000000000000000000000000000000000000000000000000000169063b5c736e490602401602060405180830381865afa1580156126fb573d6000803e3d6000fd5b505050506040513d601f19601f8201168201806040525081019061271f9190614e65565b613cca565b50919050565b600854600090819067ffffffffffffffff6801000000000000000082048116911680851015612789576040517f694bda1d000000000000000000000000000000000000000000000000000000008152614e2c6004820152602401610c07565b600854600090760100000000000000000000000000000000000000000000900460ff16156128c057600754600090819073ffffffffffffffffffffffffffffffffffffffff16635776409464e8d4a510006127e360025490565b6127ed9089614d84565b6127f79190614dca565b6040518263ffffffff1660e01b815260040161281591815260200190565b606060405180830381865afa158015612832573d6000803e3d6000fd5b505050506040513d601f19601f820116820180604052508101906128569190614fbf565b90975090925090506516bcc41e900082118061286f5750855b1561287957600091505b600854700100000000000000000000000000000000900464ffffffffff16818110156128a25750805b6301e133808142038402816128b9576128b9614d9b565b0493505050505b81828703655af3107a400002816128d9576128d9614d9b565b0401655af3107a40006128ec8285614d84565b6128f69190614dca565b6129009084614e52565b9450505050915091565b80821015612948576040517f694bda1d000000000000000000000000000000000000000000000000000000008152614e226004820152602401610c07565b5050565b6000827fffffffffffffffffffffffffffffffffffffffffffffffffffffffffffffffff048411830215820261298157600080fd5b5091020490565b73ffffffffffffffffffffffffffffffffffffffff8316612a2a576040517f08c379a0000000000000000000000000000000000000000000000000000000008152602060048201526024808201527f45524332303a20617070726f76652066726f6d20746865207a65726f2061646460448201527f72657373000000000000000000000000000000000000000000000000000000006064820152608401610c07565b73ffffffffffffffffffffffffffffffffffffffff8216612acd576040517f08c379a000000000000000000000000000000000000000000000000000000000815260206004820152602260248201527f45524332303a20617070726f766520746f20746865207a65726f20616464726560448201527f73730000000000000000000000000000000000000000000000000000000000006064820152608401610c07565b73ffffffffffffffffffffffffffffffffffffffff83811660008181526001602090815260408083209487168084529482529182902085905590518481527f8c5be1e5ebec7d5bd14f71427d1e84f3dd0314c0f7b2291e5b200ac8c7c3b925910160405180910390a3505050565b6000827fffffffffffffffffffffffffffffffffffffffffffffffffffffffffffffffff0484118302158202612b7057600080fd5b50910281810615159190040190565b6000610eb5848484613ed8565b73ffffffffffffffffffffffffffffffffffffffff8381166000908152600160209081526040808320938616835292905220547fffffffffffffffffffffffffffffffffffffffffffffffffffffffffffffffff8114612c5d5781811015612c50576040517f08c379a000000000000000000000000000000000000000000000000000000000815260206004820152601d60248201527f45524332303a20696e73756666696369656e7420616c6c6f77616e63650000006044820152606401610c07565b612c5d8484848403612988565b50505050565b73ffffffffffffffffffffffffffffffffffffffff8316612d06576040517f08c379a000000000000000000000000000000000000000000000000000000000815260206004820152602560248201527f45524332303a207472616e736665722066726f6d20746865207a65726f20616460448201527f64726573730000000000000000000000000000000000000000000000000000006064820152608401610c07565b73ffffffffffffffffffffffffffffffffffffffff8216612da9576040517f08c379a000000000000000000000000000000000000000000000000000000000815260206004820152602360248201527f45524332303a207472616e7366657220746f20746865207a65726f206164647260448201527f65737300000000000000000000000000000000000000000000000000000000006064820152608401610c07565b73ffffffffffffffffffffffffffffffffffffffff831660009081526020819052604090205481811015612e5f576040517f08c379a000000000000000000000000000000000000000000000000000000000815260206004820152602660248201527f45524332303a207472616e7366657220616d6f756e742065786365656473206260448201527f616c616e636500000000000000000000000000000000000000000000000000006064820152608401610c07565b73ffffffffffffffffffffffffffffffffffffffff848116600081815260208181526040808320878703905593871680835291849020805487019055925185815290927fddf252ad1be2c89b69c2b068fc378daa952ba7f163c4a11628f55a4df523b3ef910160405180910390a3612c5d565b60003073ffffffffffffffffffffffffffffffffffffffff7f000000000000000000000000000000000000000000000000000000000000000016148015612f3857507f000000000000000000000000000000000000000000000000000000000000000046145b15612f6257507f000000000000000000000000000000000000000000000000000000000000000090565b50604080517f00000000000000000000000000000000000000000000000000000000000000006020808301919091527f0000000000000000000000000000000000000000000000000000000000000000828401527f000000000000000000000000000000000000000000000000000000000000000060608301524660808301523060a0808401919091528351808403909101815260c0909201909252805191012090565b6000806130e467ffffffffffffffff60017f000000000000000000000000000000000000000000000000000000000000000073ffffffffffffffffffffffffffffffffffffffff1663b5c736e47f00000000000000000000000000000000000000000000000000000000000000006040518263ffffffff1660e01b815260040161309291815260200190565b602060405180830381865afa1580156130af573d6000803e3d6000fd5b505050506040513d601f19601f820116820180604052508101906130d39190614e65565b901c16600860ff9082901c91161b90565b905064e8d4a510006130f461264a565b82028161310357613103614d9b565b0491505090565b6000806131168461272a565b6008549193509150760100000000000000000000000000000000000000000000900460ff16806131435750825b156132605760085467ffffffffffffffff680100000000000000009091048116111561319f576040517f694bda1d000000000000000000000000000000000000000000000000000000008152614e296004820152602401610c07565b6008805467ffffffffffffffff8681167fffffffffffffffffffffff00000000000000000000000000000000000000000090921668010000000000000000918616919091027fffffffffffffffffffffff0000000000ffffffffffffffff00000000000000001617177001000000000000000000000000000000004264ffffffffff160217905560408051838152602081018690527f9dd85e9767d796973b86c6ccf3a294429cfd5e3e93fa23ac388b9277bb8283fd910160405180910390a15b8015611f6e57600880547fffffffffffffffffff00ffffffffffffffffffffffffffffffffffffffffffff1690555092915050565b600080600083516041146132a857600080fd5b5050506020810151604082015160609092015160001a92909190565b80821115612948576040517f694bda1d000000000000000000000000000000000000000000000000000000008152614e236004820152602401610c07565b600080600061334685858080601f01602080910402602001604051908101604052809392919081815260200183838082843760009201919091525061329592505050565b92509250925061335b88338989878787611f75565b5050505050505050565b6000613372843084613ed8565b90507f000000000000000000000000000000000000000000000000000000000000000073ffffffffffffffffffffffffffffffffffffffff1663d0e30db0856040518263ffffffff1660e01b81526004016000604051808303818588803b1580156133dc57600080fd5b505af11580156133f0573d6000803e3d6000fd5b5050505050610d6f7f00000000000000000000000000000000000000000000000000000000000000008486613b7d565b6040517f2520e7ff0000000000000000000000000000000000000000000000000000000081523360048201527f000000000000000000000000000000000000000000000000000000000000000073ffffffffffffffffffffffffffffffffffffffff1690632520e7ff90602401602060405180830381865afa1580156134aa573d6000803e3d6000fd5b505050506040513d601f19601f820116820180604052508101906134ce9190614ff4565b613508576040517f694bda1d000000000000000000000000000000000000000000000000000000008152614e266004820152602401610c07565b565b60006020825111156135dd576040517f36c7851600000000000000000000000000000000000000000000000000000000815233600482015230602482015273ffffffffffffffffffffffffffffffffffffffff80861660448301527f00000000000000000000000000000000000000000000000000000000000000001660648201526e22d473030f116ddee9f6b43ac78ba3906336c7851690608401600060405180830381600087803b1580156135c057600080fd5b505af11580156135d4573d6000803e3d6000fd5b50505050613609565b6136097f0000000000000000000000000000000000000000000000000000000000000000333087613f7e565b6040517f2e1a7d4d000000000000000000000000000000000000000000000000000000008152600481018590527f000000000000000000000000000000000000000000000000000000000000000073ffffffffffffffffffffffffffffffffffffffff1690632e1a7d4d90602401600060405180830381600087803b15801561369157600080fd5b505af11580156136a5573d6000803e3d6000fd5b50610eb59250869150859050600061261a565b80471015613722576040517f08c379a000000000000000000000000000000000000000000000000000000000815260206004820152601d60248201527f416464726573733a20696e73756666696369656e742062616c616e63650000006044820152606401610c07565b60008273ffffffffffffffffffffffffffffffffffffffff168260405160006040518083038185875af1925050503d806000811461377c576040519150601f19603f3d011682016040523d82523d6000602084013e613781565b606091505b5050905080613812576040517f08c379a000000000000000000000000000000000000000000000000000000000815260206004820152603a60248201527f416464726573733a20756e61626c6520746f2073656e642076616c75652c207260448201527f6563697069656e74206d617920686176652072657665727465640000000000006064820152608401610c07565b505050565b60007f000000000000000000000000000000000000000000000000000000000000000073ffffffffffffffffffffffffffffffffffffffff1663ad967e158473eeeeeeeeeeeeeeeeeeeeeeeeeeeeeeeeeeeeeeee61387487614045565b6000806000896040518863ffffffff1660e01b815260040161389b9695949392919061500f565b604080518083038185885af11580156138b8573d6000803e3d6000fd5b50505050506040513d601f19601f820116820180604052508101906138dd9190615068565b509392505050565b73ffffffffffffffffffffffffffffffffffffffff8116613936576040517f694bda1d000000000000000000000000000000000000000000000000000000008152614e246004820152602401610c07565b50565b6040517fb5c736e40000000000000000000000000000000000000000000000000000000081527f00000000000000000000000000000000000000000000000000000000000000006004820152600090819073ffffffffffffffffffffffffffffffffffffffff7f0000000000000000000000000000000000000000000000000000000000000000169063b5c736e490602401602060405180830381865afa1580156139e8573d6000803e3d6000fd5b505050506040513d601f19601f82011682018060405250810190613a0c9190614e65565b9050600981901c66ffffffffffffff16600182901c60ff161b613a2f82826140fb565b92506000613a3b61264a565b64e8d4a51000948102859004949202919091049050828111613a5e576000613a68565b613a688382614f9c565b925073ffffffffffffffffffffffffffffffffffffffff7f00000000000000000000000000000000000000000000000000000000000000001631838111613aaf5780613ab1565b835b935050505090565b73ffffffffffffffffffffffffffffffffffffffff81166000908152600560205260409020805460018101825590612724565b6000610cb6613af9612ed2565b836040517f19010000000000000000000000000000000000000000000000000000000000006020820152602281018390526042810182905260009060620160405160208183030381529060405280519060200120905092915050565b6000806000613b668787878761418f565b91509150613b738161427e565b5095945050505050565b60006040517fa9059cbb00000000000000000000000000000000000000000000000000000000815273ffffffffffffffffffffffffffffffffffffffff84166004820152826024820152602060006044836000895af13d15601f3d1160016000511416171691505080612c5d576040517fdee51a8a0000000000000000000000000000000000000000000000000000000081526201155a6004820152602401610c07565b600082613c2d816138e5565b6000613c398685613817565b9050613c4681600061310a565b905080613c5864e8d4a5100088614d84565b613c629190614dca565b9250613c6e8584614431565b604080518781526020810185905273ffffffffffffffffffffffffffffffffffffffff87169133917fdcbc1c05240f31ff3ad067ef1ee35ce4997762752e3a095284754544f4c709d7910160405180910390a350509392505050565b67ffffffffffffffff605b82901c811690609b83901c16811580613cec575080155b15613d28576040517fd50d7512000000000000000000000000000000000000000000000000000000008152620111716004820152602401610c07565b61ffff8316603a84901c6401ffffffff16428181039160ea87901c617fff16911480613d52575082155b80613d5d5750806001145b15613d6a57505050915091565b64496cebb80084840283020484019350617fff60db87901c16925082600103613d9557505050915091565b82600116600103613dea5760019290921c91826c7e37be2022c0914b268000000081613dc357613dc3614d9b565b049250612710601e87901c613fff166b033b2e3c9fd0803ce8000000850102049250613e17565b60019290921c916305f5e100601e87901c613fff166127108501026b033b2e3c9fd0803ce8000000020492505b80600116600103613e4e5760011c61271081016b033b2e3c9fd0803ce8000000820281613e4657613e46614d9b565b049050613e84565b60011c61271081016b033b2e3c9fd0803ce8000000820281613e7257613e72614d9b565b046b033b2e3c9fd0803ce80000000390505b760a70c3c40a64e6c51999090b65f67d92400000000000008382026127100261ffff881691900402601087901c613fff16612710030292506801b5a660ea44b8000085840283020485019450505050915091565b600082613ee4816138e5565b613f0764e8d4a51000613eff613ef861264a565b600061310a565b879190612b3b565b9150613f138383614524565b613f1d85856146e8565b50604080518681526020810184905273ffffffffffffffffffffffffffffffffffffffff808616929087169133917ffbde797d201c681b91056529119e0b02407c7bb96a4a2c75c01fc9667232c8db910160405180910390a4509392505050565b60006040517f23b872dd00000000000000000000000000000000000000000000000000000000815273ffffffffffffffffffffffffffffffffffffffff8516600482015273ffffffffffffffffffffffffffffffffffffffff841660248201528260448201526020600060648360008a5af13d15601f3d116001600051141617169150508061403e576040517fdee51a8a000000000000000000000000000000000000000000000000000000008152620115596004820152602401610c07565b5050505050565b60007f7fffffffffffffffffffffffffffffffffffffffffffffffffffffffffffffff8211156140f7576040517f08c379a000000000000000000000000000000000000000000000000000000000815260206004820152602860248201527f53616665436173743a2076616c756520646f65736e27742066697420696e206160448201527f6e20696e743235360000000000000000000000000000000000000000000000006064820152608401610c07565b5090565b600066ffffffffffffff604984901c1660ff604185901c161b808203614125576000915050610cb6565b612710613fff60a286901c168402046401ffffffff608186901c16420362ffffff60b087901c166141568284614d84565b6141609190614dca565b9050808311614170576000614174565b8083035b93505080840383811115614186578093505b50505092915050565b6000807f7fffffffffffffffffffffffffffffff5d576e7357a4501ddfe92f46681b20a08311156141c65750600090506003614275565b6040805160008082526020820180845289905260ff881692820192909252606081018690526080810185905260019060a0016020604051602081039080840390855afa15801561421a573d6000803e3d6000fd5b50506040517fffffffffffffffffffffffffffffffffffffffffffffffffffffffffffffffe0015191505073ffffffffffffffffffffffffffffffffffffffff811661426e57600060019250925050614275565b9150600090505b94509492505050565b60008160048111156142925761429261508c565b0361429a5750565b60018160048111156142ae576142ae61508c565b03614315576040517f08c379a000000000000000000000000000000000000000000000000000000000815260206004820152601860248201527f45434453413a20696e76616c6964207369676e617475726500000000000000006044820152606401610c07565b60028160048111156143295761432961508c565b03614390576040517f08c379a000000000000000000000000000000000000000000000000000000000815260206004820152601f60248201527f45434453413a20696e76616c6964207369676e6174757265206c656e677468006044820152606401610c07565b60038160048111156143a4576143a461508c565b03613936576040517f08c379a000000000000000000000000000000000000000000000000000000000815260206004820152602260248201527f45434453413a20696e76616c6964207369676e6174757265202773272076616c60448201527f75650000000000000000000000000000000000000000000000000000000000006064820152608401610c07565b73ffffffffffffffffffffffffffffffffffffffff82166144ae576040517f08c379a000000000000000000000000000000000000000000000000000000000815260206004820152601f60248201527f45524332303a206d696e7420746f20746865207a65726f2061646472657373006044820152606401610c07565b80600260008282546144c09190614e52565b909155505073ffffffffffffffffffffffffffffffffffffffff8216600081815260208181526040808320805486019055518481527fddf252ad1be2c89b69c2b068fc378daa952ba7f163c4a11628f55a4df523b3ef910160405180910390a35050565b73ffffffffffffffffffffffffffffffffffffffff82166145c7576040517f08c379a000000000000000000000000000000000000000000000000000000000815260206004820152602160248201527f45524332303a206275726e2066726f6d20746865207a65726f2061646472657360448201527f73000000000000000000000000000000000000000000000000000000000000006064820152608401610c07565b73ffffffffffffffffffffffffffffffffffffffff82166000908152602081905260409020548181101561467d576040517f08c379a000000000000000000000000000000000000000000000000000000000815260206004820152602260248201527f45524332303a206275726e20616d6f756e7420657863656564732062616c616e60448201527f63650000000000000000000000000000000000000000000000000000000000006064820152608401610c07565b73ffffffffffffffffffffffffffffffffffffffff83166000818152602081815260408083208686039055600280548790039055518581529192917fddf252ad1be2c89b69c2b068fc378daa952ba7f163c4a11628f55a4df523b3ef910160405180910390a3505050565b60007f000000000000000000000000000000000000000000000000000000000000000073ffffffffffffffffffffffffffffffffffffffff1663ad967e1573eeeeeeeeeeeeeeeeeeeeeeeeeeeeeeeeeeeeeeee61474486614045565b61474d906150bb565b60408051600080825260208201928390527fffffffff0000000000000000000000000000000000000000000000000000000060e087901b1690925261479c93929190889082906024810161500f565b60408051808303816000875af11580156147ba573d6000803e3d6000fd5b505050506040513d601f19601f820116820180604052508101906138dd9190615068565b73ffffffffffffffffffffffffffffffffffffffff8116811461393657600080fd5b6000806040838503121561481357600080fd5b823591506020830135614825816147de565b809150509250929050565b6000806040838503121561484357600080fd5b823561484e816147de565b946020939093013593505050565b6000815180845260005b8181101561488257602081850181015186830182015201614866565b5060006020828601015260207fffffffffffffffffffffffffffffffffffffffffffffffffffffffffffffffe0601f83011685010191505092915050565b602081526000610d6f602083018461485c565b6000602082840312156148e557600080fd5b5035919050565b60008060006060848603121561490157600080fd5b833592506020840135614913816147de565b91506040840135614923816147de565b809150509250925092565b60008060006060848603121561494357600080fd5b833561494e816147de565b9250602084013561495e816147de565b929592945050506040919091013590565b6000806000806080858703121561498557600080fd5b843593506020850135614997816147de565b925060408501356149a7816147de565b9396929550929360600135925050565b6000602082840312156149c957600080fd5b8135610d6f816147de565b60008083601f8401126149e657600080fd5b50813567ffffffffffffffff8111156149fe57600080fd5b602083019150836020828501011115614a1657600080fd5b9250929050565b60008060008060008060a08789031215614a3657600080fd5b863595506020870135614a48816147de565b94506040870135935060608701359250608087013567ffffffffffffffff811115614a7257600080fd5b614a7e89828a016149d4565b979a9699509497509295939492505050565b60008060008060008060008060e0898b031215614aac57600080fd5b88359750602089013596506040890135614ac5816147de565b95506060890135614ad5816147de565b94506080890135935060a0890135925060c089013567ffffffffffffffff811115614aff57600080fd5b614b0b8b828c016149d4565b999c989b5096995094979396929594505050565b600080600080600080868803610140811215614b3a57600080fd5b873596506020880135614b4c816147de565b95506040880135945060c07fffffffffffffffffffffffffffffffffffffffffffffffffffffffffffffffa082011215614b8557600080fd5b5060608701925061012087013567ffffffffffffffff811115614a7257600080fd5b600080600080600080600060c0888a031215614bc257600080fd5b873596506020880135614bd4816147de565b95506040880135614be4816147de565b9450606088013593506080880135925060a088013567ffffffffffffffff811115614c0e57600080fd5b614c1a8a828b016149d4565b989b979a50959850939692959293505050565b600080600060608486031215614c4257600080fd5b83359250602084013561495e816147de565b60008060008060608587031215614c6a57600080fd5b8435614c75816147de565b935060208501359250604085013567ffffffffffffffff811115614c9857600080fd5b614ca4878288016149d4565b95989497509550505050565b600080600080600080600060e0888a031215614ccb57600080fd5b8735614cd6816147de565b96506020880135614ce6816147de565b95506040880135945060608801359350608088013560ff81168114614d0a57600080fd5b9699959850939692959460a0840135945060c09093013592915050565b60008060408385031215614d3a57600080fd5b8235614d45816147de565b91506020830135614825816147de565b7f4e487b7100000000000000000000000000000000000000000000000000000000600052601160045260246000fd5b8082028115828204841417610cb657610cb6614d55565b7f4e487b7100000000000000000000000000000000000000000000000000000000600052601260045260246000fd5b600082614e00577f4e487b7100000000000000000000000000000000000000000000000000000000600052601260045260246000fd5b500490565b600181811c90821680614e1957607f821691505b602082108103612724577f4e487b7100000000000000000000000000000000000000000000000000000000600052602260045260246000fd5b80820180821115610cb657610cb6614d55565b600060208284031215614e7757600080fd5b5051919050565b803565ffffffffffff81168114614e9457600080fd5b919050565b8183528181602085013750600060208284010152600060207fffffffffffffffffffffffffffffffffffffffffffffffffffffffffffffffe0601f840116840101905092915050565b600061010073ffffffffffffffffffffffffffffffffffffffff80881684528635614f0c816147de565b8181166020860152506020870135614f23816147de565b818116604086015250614f3860408801614e7e565b65ffffffffffff808216606087015280614f5460608b01614e7e565b16608087015250506080870135614f6a816147de565b81811660a0860152505060a086013560c08401528060e0840152614f918184018587614e99565b979650505050505050565b81810381811115610cb657610cb6614d55565b80518015158114614e9457600080fd5b600080600060608486031215614fd457600080fd5b83519250614fe460208501614faf565b9150604084015190509250925092565b60006020828403121561500657600080fd5b610d6f82614faf565b600073ffffffffffffffffffffffffffffffffffffffff8089168352876020840152866040840152808616606084015280851660808401525060c060a083015261505c60c083018461485c565b98975050505050505050565b6000806040838503121561507b57600080fd5b505080516020909101519092909150565b7f4e487b7100000000000000000000000000000000000000000000000000000000600052602160045260246000fd5b60007f800000000000000000000000000000000000000000000000000000000000000082036150ec576150ec614d55565b506000039056fea2646970667358221220edff329c71e333e08e114551f2b8f84114123408f2c5806c03633f98ae51553064736f6c63430008150033"
}