{
  "address": "0x848da34E32Af5606fAC8B431f67705A8a7347433",
  "abi": [
    {
      "inputs": [
        {
          "components": [
            {
              "internalType": "address",
              "name": "liquidity",
              "type": "address"
            },
            {
              "internalType": "address",
              "name": "factory",
              "type": "address"
            },
            {
              "internalType": "address",
              "name": "adminImplementation",
              "type": "address"
            },
            {
              "internalType": "address",
              "name": "secondaryImplementation",
              "type": "address"
            },
            {
              "internalType": "address",
              "name": "supplyToken",
              "type": "address"
            },
            {
              "internalType": "address",
              "name": "borrowToken",
              "type": "address"
            },
            {
              "internalType": "uint8",
              "name": "supplyDecimals",
              "type": "uint8"
            },
            {
              "internalType": "uint8",
              "name": "borrowDecimals",
              "type": "uint8"
            },
            {
              "internalType": "uint256",
              "name": "vaultId",
              "type": "uint256"
            },
            {
              "internalType": "bytes32",
              "name": "liquidityTotalSupplySlot",
              "type": "bytes32"
            },
            {
              "internalType": "bytes32",
              "name": "liquidityTotalBorrowSlot",
              "type": "bytes32"
            },
            {
              "internalType": "bytes32",
              "name": "liquiditySupplyExchangePriceSlot",
              "type": "bytes32"
            },
            {
              "internalType": "bytes32",
              "name": "liquidityBorrowExchangePriceSlot",
              "type": "bytes32"
            },
            {
              "internalType": "bytes32",
              "name": "liquidityUserSupplySlot",
              "type": "bytes32"
            },
            {
              "internalType": "bytes32",
              "name": "liquidityUserBorrowSlot",
              "type": "bytes32"
            }
          ],
          "internalType": "struct Structs.ConstantViews",
          "name": "constants_",
          "type": "tuple"
        }
      ],
      "stateMutability": "nonpayable",
      "type": "constructor"
    },
    {
      "inputs": [
        {
          "internalType": "uint256",
          "name": "colLiquidated",
          "type": "uint256"
        },
        {
          "internalType": "uint256",
          "name": "debtLiquidated",
          "type": "uint256"
        }
      ],
      "name": "FluidLiquidateResult",
      "type": "error"
    },
    {
      "inputs": [
        {
          "internalType": "uint256",
          "name": "errorId_",
          "type": "uint256"
        }
      ],
      "name": "FluidLiquidityCalcsError",
      "type": "error"
    },
    {
      "inputs": [
        {
          "internalType": "uint256",
          "name": "errorId_",
          "type": "uint256"
        }
      ],
      "name": "FluidSafeTransferError",
      "type": "error"
    },
    {
      "inputs": [
        {
          "internalType": "uint256",
          "name": "errorId_",
          "type": "uint256"
        }
      ],
      "name": "FluidVaultError",
      "type": "error"
    },
    {
      "anonymous": false,
      "inputs": [
        {
          "indexed": false,
          "internalType": "uint256",
          "name": "colAbsorbedRaw_",
          "type": "uint256"
        },
        {
          "indexed": false,
          "internalType": "uint256",
          "name": "debtAbsorbedRaw_",
          "type": "uint256"
        }
      ],
      "name": "LogAbsorb",
      "type": "event"
    },
    {
      "anonymous": false,
      "inputs": [
        {
          "indexed": false,
          "internalType": "address",
          "name": "liquidator_",
          "type": "address"
        },
        {
          "indexed": false,
          "internalType": "uint256",
          "name": "colAmt_",
          "type": "uint256"
        },
        {
          "indexed": false,
          "internalType": "uint256",
          "name": "debtAmt_",
          "type": "uint256"
        },
        {
          "indexed": false,
          "internalType": "address",
          "name": "to_",
          "type": "address"
        }
      ],
      "name": "LogLiquidate",
      "type": "event"
    },
    {
      "anonymous": false,
      "inputs": [
        {
          "indexed": false,
          "internalType": "address",
          "name": "user_",
          "type": "address"
        },
        {
          "indexed": false,
          "internalType": "uint256",
          "name": "nftId_",
          "type": "uint256"
        },
        {
          "indexed": false,
          "internalType": "int256",
          "name": "colAmt_",
          "type": "int256"
        },
        {
          "indexed": false,
          "internalType": "int256",
          "name": "debtAmt_",
          "type": "int256"
        },
        {
          "indexed": false,
          "internalType": "address",
          "name": "to_",
          "type": "address"
        }
      ],
      "name": "LogOperate",
      "type": "event"
    },
    {
      "anonymous": false,
      "inputs": [
        {
          "indexed": false,
          "internalType": "int256",
          "name": "colAmt_",
          "type": "int256"
        },
        {
          "indexed": false,
          "internalType": "int256",
          "name": "debtAmt_",
          "type": "int256"
        }
      ],
      "name": "LogRebalance",
      "type": "event"
    },
    {
      "anonymous": false,
      "inputs": [
        {
          "indexed": false,
          "internalType": "uint256",
          "name": "supplyExPrice_",
          "type": "uint256"
        },
        {
          "indexed": false,
          "internalType": "uint256",
          "name": "borrowExPrice_",
          "type": "uint256"
        }
      ],
      "name": "LogUpdateExchangePrice",
      "type": "event"
    },
    {
      "stateMutability": "nonpayable",
      "type": "fallback"
    },
    {
      "inputs": [],
      "name": "LIQUIDITY",
      "outputs": [
        {
          "internalType": "contract ILiquidity",
          "name": "",
          "type": "address"
        }
      ],
      "stateMutability": "view",
      "type": "function"
    },
    {
      "inputs": [],
      "name": "VAULT_FACTORY",
      "outputs": [
        {
          "internalType": "contract IVaultFactory",
          "name": "",
          "type": "address"
        }
      ],
      "stateMutability": "view",
      "type": "function"
    },
    {
      "inputs": [],
      "name": "VAULT_ID",
      "outputs": [
        {
          "internalType": "uint256",
          "name": "",
          "type": "uint256"
        }
      ],
      "stateMutability": "view",
      "type": "function"
    },
    {
      "inputs": [],
      "name": "absorb",
      "outputs": [],
      "stateMutability": "nonpayable",
      "type": "function"
    },
    {
      "inputs": [],
      "name": "constantsView",
      "outputs": [
        {
          "components": [
            {
              "internalType": "address",
              "name": "liquidity",
              "type": "address"
            },
            {
              "internalType": "address",
              "name": "factory",
              "type": "address"
            },
            {
              "internalType": "address",
              "name": "adminImplementation",
              "type": "address"
            },
            {
              "internalType": "address",
              "name": "secondaryImplementation",
              "type": "address"
            },
            {
              "internalType": "address",
              "name": "supplyToken",
              "type": "address"
            },
            {
              "internalType": "address",
              "name": "borrowToken",
              "type": "address"
            },
            {
              "internalType": "uint8",
              "name": "supplyDecimals",
              "type": "uint8"
            },
            {
              "internalType": "uint8",
              "name": "borrowDecimals",
              "type": "uint8"
            },
            {
              "internalType": "uint256",
              "name": "vaultId",
              "type": "uint256"
            },
            {
              "internalType": "bytes32",
              "name": "liquidityTotalSupplySlot",
              "type": "bytes32"
            },
            {
              "internalType": "bytes32",
              "name": "liquidityTotalBorrowSlot",
              "type": "bytes32"
            },
            {
              "internalType": "bytes32",
              "name": "liquiditySupplyExchangePriceSlot",
              "type": "bytes32"
            },
            {
              "internalType": "bytes32",
              "name": "liquidityBorrowExchangePriceSlot",
              "type": "bytes32"
            },
            {
              "internalType": "bytes32",
              "name": "liquidityUserSupplySlot",
              "type": "bytes32"
            },
            {
              "internalType": "bytes32",
              "name": "liquidityUserBorrowSlot",
              "type": "bytes32"
            }
          ],
          "internalType": "struct Structs.ConstantViews",
          "name": "constantsView_",
          "type": "tuple"
        }
      ],
      "stateMutability": "view",
      "type": "function"
    },
    {
      "inputs": [
        {
          "internalType": "int256",
          "name": "positionTick_",
          "type": "int256"
        },
        {
          "internalType": "uint256",
          "name": "positionTickId_",
          "type": "uint256"
        },
        {
          "internalType": "uint256",
          "name": "positionRawDebt_",
          "type": "uint256"
        },
        {
          "internalType": "uint256",
          "name": "tickData_",
          "type": "uint256"
        }
      ],
      "name": "fetchLatestPosition",
      "outputs": [
        {
          "internalType": "int256",
          "name": "",
          "type": "int256"
        },
        {
          "internalType": "uint256",
          "name": "",
          "type": "uint256"
        },
        {
          "internalType": "uint256",
          "name": "positionRawCol_",
          "type": "uint256"
        },
        {
          "internalType": "uint256",
          "name": "branchId_",
          "type": "uint256"
        },
        {
          "internalType": "uint256",
          "name": "branchData_",
          "type": "uint256"
        }
      ],
      "stateMutability": "view",
      "type": "function"
    },
    {
      "inputs": [
        {
          "internalType": "uint256",
          "name": "debtAmt_",
          "type": "uint256"
        },
        {
          "internalType": "uint256",
          "name": "colPerUnitDebt_",
          "type": "uint256"
        },
        {
          "internalType": "address",
          "name": "to_",
          "type": "address"
        },
        {
          "internalType": "bool",
          "name": "absorb_",
          "type": "bool"
        }
      ],
      "name": "liquidate",
      "outputs": [
        {
          "internalType": "uint256",
          "name": "actualDebtAmt_",
          "type": "uint256"
        },
        {
          "internalType": "uint256",
          "name": "actualColAmt_",
          "type": "uint256"
        }
      ],
      "stateMutability": "payable",
      "type": "function"
    },
    {
      "inputs": [
        {
          "internalType": "address",
          "name": "token_",
          "type": "address"
        },
        {
          "internalType": "uint256",
          "name": "amount_",
          "type": "uint256"
        },
        {
          "internalType": "bytes",
          "name": "data_",
          "type": "bytes"
        }
      ],
      "name": "liquidityCallback",
      "outputs": [],
      "stateMutability": "nonpayable",
      "type": "function"
    },
    {
      "inputs": [
        {
          "internalType": "uint256",
          "name": "nftId_",
          "type": "uint256"
        },
        {
          "internalType": "int256",
          "name": "newCol_",
          "type": "int256"
        },
        {
          "internalType": "int256",
          "name": "newDebt_",
          "type": "int256"
        },
        {
          "internalType": "address",
          "name": "to_",
          "type": "address"
        }
      ],
      "name": "operate",
      "outputs": [
        {
          "internalType": "uint256",
          "name": "",
          "type": "uint256"
        },
        {
          "internalType": "int256",
          "name": "",
          "type": "int256"
        },
        {
          "internalType": "int256",
          "name": "",
          "type": "int256"
        }
      ],
      "stateMutability": "payable",
      "type": "function"
    },
    {
      "inputs": [
        {
          "internalType": "bytes32",
          "name": "slot_",
          "type": "bytes32"
        }
      ],
      "name": "readFromStorage",
      "outputs": [
        {
          "internalType": "uint256",
          "name": "result_",
          "type": "uint256"
        }
      ],
      "stateMutability": "view",
      "type": "function"
    },
    {
      "inputs": [],
      "name": "rebalance",
      "outputs": [
        {
          "internalType": "int256",
          "name": "supplyAmt_",
          "type": "int256"
        },
        {
          "internalType": "int256",
          "name": "borrowAmt_",
          "type": "int256"
        }
      ],
      "stateMutability": "payable",
      "type": "function"
    },
    {
      "inputs": [
        {
          "internalType": "uint256",
          "name": "vaultVariables2_",
          "type": "uint256"
        }
      ],
      "name": "updateExchangePrices",
      "outputs": [
        {
          "internalType": "uint256",
          "name": "liqSupplyExPrice_",
          "type": "uint256"
        },
        {
          "internalType": "uint256",
          "name": "liqBorrowExPrice_",
          "type": "uint256"
        },
        {
          "internalType": "uint256",
          "name": "vaultSupplyExPrice_",
          "type": "uint256"
        },
        {
          "internalType": "uint256",
          "name": "vaultBorrowExPrice_",
          "type": "uint256"
        }
      ],
      "stateMutability": "view",
      "type": "function"
    },
    {
      "inputs": [],
      "name": "updateExchangePricesOnStorage",
      "outputs": [
        {
          "internalType": "uint256",
          "name": "liqSupplyExPrice_",
          "type": "uint256"
        },
        {
          "internalType": "uint256",
          "name": "liqBorrowExPrice_",
          "type": "uint256"
        },
        {
          "internalType": "uint256",
          "name": "vaultSupplyExPrice_",
          "type": "uint256"
        },
        {
          "internalType": "uint256",
          "name": "vaultBorrowExPrice_",
          "type": "uint256"
        }
      ],
      "stateMutability": "nonpayable",
      "type": "function"
    }
  ],
  "transactionHash": "0x7470c7816614127b8717d3cd3f34eafbbb05d73315599d1b918e27ac361bf83d",
  "args": [
    {
      "liquidity": "0x52Ef3F34aE6Ed1B4B5044ee7Dc2b929461736254",
      "factory": "0x9c6a8398C7d29FAE02A0Ba4a63b89210b4D2Fc41",
      "adminImplementation": "0x9AFF540e533e14130C4029517CaF3a9fa6091137",
      "secondaryImplementation": "0xc129fb486d15Ea335942d6A08B29Ef5A75B12763",
      "supplyToken": "0x7f39C581F595B53c5cb19bD0b3f8dA6c935E2Ca0",
      "borrowToken": "0xEeeeeEeeeEeEeeEeEeEeeEEEeeeeEeeeeeeeEEeE",
      "supplyDecimals": 18,
      "borrowDecimals": 18,
      "vaultId": 2,
      "liquidityTotalSupplySlot": "0x94416004645a626907820dc10a83f0e7e82fe5572b44e84e877643ce205ff0ed",
      "liquidityTotalBorrowSlot": "0xb2084a3e4595ccf007fb44245853374aaf0de960074375e8e0fb334712e94d0e",
      "liquiditySupplyExchangePriceSlot": "0xc24eaceff5753c99066a839532d708a8661af7a9b01d44d0cd915c53969eb725",
      "liquidityBorrowExchangePriceSlot": "0xa1829a9003092132f585b6ccdd167c19fe9774dbdea4260287e8a8e8ca8185d7",
      "liquidityUserSupplySlot": "0xd7a3cde608b75c7df6dfabfa266344f1ebebdfd8ea58aa7f06728a37823f4b16",
      "liquidityUserBorrowSlot": "0xbf03b8a0388603fdfac7f95c0b4a8677fd0f007d67e31e9adaf60d240823ac47"
    }
  ],
  "numDeployments": 1,
  "bytecode": "0x6102606040523480156200001257600080fd5b5060405162005da138038062005da18339810160408190526200003591620002c5565b80516001600160a01b0390811661014081815260208401518316610160908152610100808601516101809081526080808801518716905260a0808801518716905260c08088015160ff90811690915260e0808901519091169052610120808801516101a0908152948801516101c0908152938801516101e0819052918801516102005293870151610220529186015161024052604080870151861690915260608601519094169091526000805466100000004000001781559251632d71cdb960e21b815263b5c736e491620001109160040190815260200190565b602060405180830381865afa1580156200012e573d6000803e3d6000fd5b505050506040513d601f19601f82011682018060405250810190620001549190620003cb565b6101405161020051604051632d71cdb960e21b8152605b9390931c6001600160401b031693506000926001600160a01b039092169163b5c736e491620001a09160040190815260200190565b602060405180830381865afa158015620001be573d6000803e3d6000fd5b505050506040513d601f19601f82011682018060405250810190620001e49190620003cb565b609b1c6001600160401b0316905064e8d4a510008210806200020a575064e8d4a5100081105b1562000231576040516330090e6560e11b8152617924600482015260240160405180910390fd5b60401b177ce8d4a51000000000e8d4a51000000000000000000000000000000000001760085550620003e5565b6040516101e081016001600160401b03811182821017156200029057634e487b7160e01b600052604160045260246000fd5b60405290565b80516001600160a01b0381168114620002ae57600080fd5b919050565b805160ff81168114620002ae57600080fd5b60006101e08284031215620002d957600080fd5b620002e36200025e565b620002ee8362000296565b8152620002fe6020840162000296565b6020820152620003116040840162000296565b6040820152620003246060840162000296565b6060820152620003376080840162000296565b60808201526200034a60a0840162000296565b60a08201526200035d60c08401620002b3565b60c08201526200037060e08401620002b3565b60e0820152610100838101519082015261012080840151908201526101408084015190820152610160808401519082015261018080840151908201526101a080840151908201526101c0928301519281019290925250919050565b600060208284031215620003de57600080fd5b5051919050565b60805160a05160c05160e05161010051610120516101405161016051610180516101a0516101c0516101e0516102005161022051610240516158066200059b600039600061074c0152600081816107250152611a6c0152600081816106fe01526123a70152600081816106d70152612268015260006106b001526000610689015260008181610458015281816106620152610bf201526000818161010d015281816101c7015281816103830152818161054b01528181610c1e0152610d0e0152600081816104240152818161052601528181611a9201528181611bbc01528181611e2501528181611f4401528181612029015281816122ad015281816123d101528181613b0a01528181613bf701528181613e080152613ebd01526000818161059a015281816128050152613eee01526000818161028b01526105730152600061063b015260006106130152600081816105ea01528181610a1501528181611d5b01528181611e62015281816120670152818161294601528181613a700152613b320152600081816105c20152818161096f01528181611c2301528181611c6801528181611f820152613c1e01526158066000f3fe6080604052600436106100d25760003560e01c8063540acabc1161007f578063ad20750111610059578063ad207501146104b8578063b5c736e4146104d8578063b7791bf2146104f7578063ebd93ac61461077d576100d2565b8063540acabc146104465780637d7c2a1c146104885780638433ea22146104a5576100d2565b8063103f2907116100b0578063103f29071461037157806322348cc7146103ca5780632861c7d114610412576100d2565b806302161887146102e9578063032d22761461032357806309f0d8cb14610351575b3480156100de57600080fd5b506040517f4502d0630000000000000000000000000000000000000000000000000000000081523360048201527f000000000000000000000000000000000000000000000000000000000000000073ffffffffffffffffffffffffffffffffffffffff1690634502d06390602401602060405180830381865afa158015610169573d6000803e3d6000fd5b505050506040513d601f19601f8201168201806040525081019061018d91906151ba565b8061024757506040517fe04c8e5d0000000000000000000000000000000000000000000000000000000081523360048201523060248201527f000000000000000000000000000000000000000000000000000000000000000073ffffffffffffffffffffffffffffffffffffffff169063e04c8e5d90604401602060405180830381865afa158015610223573d6000803e3d6000fd5b505050506040513d601f19601f8201168201806040525081019061024791906151ba565b610286576040517f60121cca00000000000000000000000000000000000000000000000000000000815261792560048201526024015b60405180910390fd5b6102e77f00000000000000000000000000000000000000000000000000000000000000006000368080601f01602080910402602001604051908101604052809392919081815260200183838082843760009201919091525061079292505050565b005b3480156102f557600080fd5b506102fe6107de565b6040805194855260208501939093529183015260608201526080015b60405180910390f35b6103366103313660046151f9565b6108d2565b6040805193845260208401929092529082015260600161031a565b34801561035d57600080fd5b506102fe61036c36600461523a565b61223d565b34801561037d57600080fd5b506103a57f000000000000000000000000000000000000000000000000000000000000000081565b60405173ffffffffffffffffffffffffffffffffffffffff909116815260200161031a565b3480156103d657600080fd5b506103ea6103e5366004615253565b612522565b604080519586526020860194909452928401919091526060830152608082015260a00161031a565b34801561041e57600080fd5b506103a57f000000000000000000000000000000000000000000000000000000000000000081565b34801561045257600080fd5b5061047a7f000000000000000000000000000000000000000000000000000000000000000081565b60405190815260200161031a565b6104906127fb565b6040805192835260208301919091520161031a565b6104906104b3366004615285565b612881565b3480156104c457600080fd5b506102e76104d33660046152c4565b613df0565b3480156104e457600080fd5b5061047a6104f336600461523a565b5490565b34801561050357600080fd5b50604080516101e08101825273ffffffffffffffffffffffffffffffffffffffff7f0000000000000000000000000000000000000000000000000000000000000000811682527f0000000000000000000000000000000000000000000000000000000000000000811660208301527f00000000000000000000000000000000000000000000000000000000000000008116828401527f0000000000000000000000000000000000000000000000000000000000000000811660608301527f0000000000000000000000000000000000000000000000000000000000000000811660808301527f00000000000000000000000000000000000000000000000000000000000000001660a082015260ff7f0000000000000000000000000000000000000000000000000000000000000000811660c08301527f00000000000000000000000000000000000000000000000000000000000000001660e08201527f00000000000000000000000000000000000000000000000000000000000000006101008201527f00000000000000000000000000000000000000000000000000000000000000006101208201527f00000000000000000000000000000000000000000000000000000000000000006101408201527f00000000000000000000000000000000000000000000000000000000000000006101608201527f00000000000000000000000000000000000000000000000000000000000000006101808201527f00000000000000000000000000000000000000000000000000000000000000006101a08201527f00000000000000000000000000000000000000000000000000000000000000006101c0820152905161031a919061534d565b34801561078957600080fd5b506102e7613ee9565b6060600080835160208501865af43d6040519250601f19601f6020830101168301604052808352806000602085013e8115600181036107d557816000803e816000fd5b50505092915050565b6000806000806107ef60015461223d565b9296509094509250905067ffffffffffffffff841180610816575067ffffffffffffffff83115b80610828575067ffffffffffffffff82115b8061083a575067ffffffffffffffff81115b15610875576040517f60121cca00000000000000000000000000000000000000000000000000000000815261792d600482015260240161027d565b604083811b8517608084901b1760c083901b17600855517fcde545703e0372175cadfff811d67c32910c3dcb33199679b3271c4106afdf9a906108c49084908490918252602082015260400190565b60405180910390a190919293565b60008054819081906001811682036108f05760018117600055610926565b6040517f60121cca000000000000000000000000000000000000000000000000000000008152617919600482015260240161027d565b86158015610932575085155b1561096d576040517f60121cca00000000000000000000000000000000000000000000000000000000815261791a600482015260240161027d565b7f000000000000000000000000000000000000000000000000000000000000000073ffffffffffffffffffffffffffffffffffffffff1673eeeeeeeeeeeeeeeeeeeeeeeeeeeeeeeeeeeeeeee1480156109c65750600087135b15610a0d57348714610a08576040517f60121cca00000000000000000000000000000000000000000000000000000000815261791b600482015260240161027d565b610aa6565b3415610aa6577f000000000000000000000000000000000000000000000000000000000000000073ffffffffffffffffffffffffffffffffffffffff1673eeeeeeeeeeeeeeeeeeeeeeeeeeeeeeeeeeeeeeee148015610a6c5750600086125b610aa6576040517f60121cca00000000000000000000000000000000000000000000000000000000815261791b600482015260240161027d565b610b26604051806102000160405280600081526020016000815260200160008152602001600081526020016000815260200160008152602001600081526020016000815260200160008152602001600081526020016000815260200160008152602001600081526020016000815260200160008152602001600081525090565b600154610100820152600282901c620fffff166000808215610b735782600116600114610b6457610b5f600184901c6207ffff166154e1565b610b95565b6207ffff600184901c16610b95565b7f80000000000000000000000000000000000000000000000000000000000000005b61014085015260008c9003610cc7577f800000000000000000000000000000000000000000000000000000000000000060c08501526040517f94bf804d0000000000000000000000000000000000000000000000000000000081527f000000000000000000000000000000000000000000000000000000000000000060048201523360248201527f000000000000000000000000000000000000000000000000000000000000000073ffffffffffffffffffffffffffffffffffffffff16906394bf804d906044016020604051808303816000875af1158015610c7c573d6000803e3d6000fd5b505050506040513d601f19601f82011682018060405250810190610ca09190615519565b9b50847a040000000000000000000000000000000000000000000000000000019450610eeb565b60008b1280610cd6575060008a135b8015610da757506040517f6352211e000000000000000000000000000000000000000000000000000000008152600481018d905233907f000000000000000000000000000000000000000000000000000000000000000073ffffffffffffffffffffffffffffffffffffffff1690636352211e90602401602060405180830381865afa158015610d6a573d6000803e3d6000fd5b505050506040513d601f19601f82011682018060405250810190610d8e9190615532565b73ffffffffffffffffffffffffffffffffffffffff1614155b15610de2576040517f60121cca00000000000000000000000000000000000000000000000000000000815261791c600482015260240161027d565b60008c8152600360205260408120549350839003610e30576040517f60121cca000000000000000000000000000000000000000000000000000000008152617923600482015260240161027d565b66ffffffffffffff603584901c811660ff602d86901c81169190911b6060870152607585901c909116606d85901c9182161b60a086015267ffffffffffffffff16915060018084169003610ea9577f800000000000000000000000000000000000000000000000000000000000000060c0850152610eeb565b82600216600214610ecb57610ec6600284901c6207ffff166154e1565b610ed6565b6207ffff600284901c165b60c0850152601583901c62ffffff1660e08501525b7f80000000000000000000000000000000000000000000000000000000000000008460c0015113156111ee5760608460600151610f2e8660c0015160020b613f4d565b610f38919061554f565b901c608085015260c0840151600090815260056020526040902054925060018084161480610f7257508360e0015162ffffff600185901c16115b1561109a57610f8f8460c001518560e00151866080015186612522565b6101c089015260608801919091526080870182905260c087019290925260a086015191935011156110635767ffffffffffffffff6034856101c00151901c16925060ff8316600884901c901b9250836080015183610fed9190615566565b92506064831015610ffd57606492505b603461100e846038600860016141c7565b6101c086015160008581526007602052604090207ffffffffffffffffffffffffffffffffffff0000000000000000fffffffffffff9091169190921b17905560a08401516080850180519190910390526111e6565b83608001518460a00151600a5461107a9190615579565b6110849190615566565b600a5560006080850181905260608501526111e6565b67ffffffffffffffff601984901c169150816000036110e9576040517f60121cca00000000000000000000000000000000000000000000000000000000815261791d600482015260240161027d565b60ff8216600883901c901b915081846080015110611108576000611110565b836080015182035b91506019611123836038600860006141c7565b901b6301ffffff841617600560008660c001518152602001908152602001600020819055508160000361118c578361014001518460c00151036111785761116f846101400151866142f0565b61014086015294505b6111878460c0015160006144cb565b6111cc565b6127108210156111cc576040517f60121cca000000000000000000000000000000000000000000000000000000008152617931600482015260240161027d565b8360a00151846080018181516111e29190615566565b9052505b600060a08501525b60c0840151604085015260608401518452608084015160208501526101008401516112189061223d565b6101a08801526101808701525061016085015260008b13156112be5761018084015161124964e8d4a510008d61554f565b61125391906155bb565b846060018181516112649190615579565b90525060608401516fffffffffffffffffffffffffffffffff10156112b9576040517f60121cca00000000000000000000000000000000000000000000000000000000815261792f600482015260240161027d565b6113ba565b60008b12156113ba577f80000000000000000000000000000000000000000000000000000000000000008b13156113775761018084015160019061130764e8d4a510008e6155cf565b611311919061561b565b61131b9190615683565b905083606001518161132c906154e1565b1115611368576040517f60121cca000000000000000000000000000000000000000000000000000000008152617926600482015260240161027d565b606084018051820190526113ba565b64e8d4a510008461018001518560600151611392919061554f565b61139c91906155bb565b6113a5906154e1565b6113b09060016156aa565b600060608601529a505b60008a131561148a576101a08401516113d864e8d4a510008c61554f565b6113e291906155bb565b6113ed906001615579565b92506127106103ff6052866101000151901c168461140b919061554f565b61141591906155bb565b61141f9084615579565b846080018181516114309190615579565b90525060808401516fffffffffffffffffffffffffffffffff1015611485576040517f60121cca00000000000000000000000000000000000000000000000000000000815261792f600482015260240161027d565b611598565b60008a1215611598577f80000000000000000000000000000000000000000000000000000000000000008a1315611554576101a08401516114d064e8d4a510008c6155cf565b6114da919061561b565b6114e59060016156aa565b90508360800151816114f6906154e1565b1115611532576040517f60121cca000000000000000000000000000000000000000000000000000000008152617927600482015260240161027d565b61153b816154e1565b8460800181815161154c9190615566565b905250611598565b600164e8d4a51000856101a001518660800151611571919061554f565b61157b91906155bb565b611584906154e1565b61158e9190615683565b6000608086015299505b8a1580156115a4575089155b156115df576040517f60121cca00000000000000000000000000000000000000000000000000000000815261791a600482015260240161027d565b608084015115611730576115fb8460600151856080015161453e565b60a0880152608087015260e086015260c085018190526101408501511361172b5760008460c00151126116395760018460c00151901b60011761164c565b60018460c00151611649906154e1565b901b5b92508460021660000361168957600283901b857fffffffffffffffffffffffffffffffffffffffffffffffffffffffffffc0000016179450611757565b61169e603486901c633fffffff166001615579565b6000818152600760205260409020780fffffffc00000000000000000000000000000000000000000609088901b167afffff000000000000000000000000000000000000000000000000060c289901b161790557ffffffffffffffffffffffffffffffffffffffffffffc00000000000000000000909516600284901b17601686901b17603486901b179491505b611757565b7f800000000000000000000000000000000000000000000000000000000000000060c08501525b60008b1280611766575060008a135b1561194f5773ffffffffffffffffffffffffffffffffffffffff891661178a573398505b60808401511561194f576060846101000151901c73ffffffffffffffffffffffffffffffffffffffff1663e6aa216c6040518163ffffffff1660e01b8152600401602060405180830381865afa1580156117e8573d6000803e3d6000fd5b505050506040513d601f19601f8201168201806040525081019061180c9190615519565b9250836101a0015184610180015184611825919061554f565b61182f91906155bb565b92506103e86103ff6020866101000151901c168461184d919061554f565b61185791906155bb565b9150722cd76fe086b93ce2f768a00b22a0000000000082106118a6576c010000000000000000000000006118976b033b2e3c9fd0803ce8000000846155bb565b6118a1919061554f565b6118d4565b6b033b2e3c9fd0803ce80000006118ca6c010000000000000000000000008461554f565b6118d491906155bb565b91506118df826146d9565b5080915050808460c00151131561194f578360c001518460400151131580611914575083602001518460a00151856080015103115b1561194f576040517f60121cca00000000000000000000000000000000000000000000000000000000815261791e600482015260240161027d565b7f80000000000000000000000000000000000000000000000000000000000000008460c0015113156119b25760008460c00151126119985760018460c00151901b6001176119ab565b60018460c001516119a8906154e1565b901b5b92506119b7565b600092505b60a0840151606d906119ce906038600860006141c7565b6060860151911b90602d906119e8906038600860006141c7565b60e0870151911b9060151b600186901b8615611a05576000611a08565b60015b60ff1617171717600360008e81526020019081526020016000208190555060008b1215611bb157610100840151603e1c6103ff1692508215611bb1576040517fb5c736e40000000000000000000000000000000000000000000000000000000081527f000000000000000000000000000000000000000000000000000000000000000060048201527f000000000000000000000000000000000000000000000000000000000000000073ffffffffffffffffffffffffffffffffffffffff169063b5c736e490602401602060405180830381865afa158015611aee573d6000803e3d6000fd5b505050506040513d601f19601f82011682018060405250810190611b129190615519565b6101e0850181905266ffffffffffffff600982901c1660ff600183901c161b9250611b3d9083614a88565b9050600081138015611b76575083610160015164e8d4a510008c6000030281611b6857611b6861558c565b05816103e885810385020503125b15611bb1576040517f60121cca000000000000000000000000000000000000000000000000000000008152617928600482015260240161027d565b60008b1315611d2f577f000000000000000000000000000000000000000000000000000000000000000073ffffffffffffffffffffffffffffffffffffffff1663ad967e1573eeeeeeeeeeeeeeeeeeeeeeeeeeeeeeeeeeeeeeee73ffffffffffffffffffffffffffffffffffffffff167f000000000000000000000000000000000000000000000000000000000000000073ffffffffffffffffffffffffffffffffffffffff1614611c64576000611c66565b345b7f00000000000000000000000000000000000000000000000000000000000000008e600080600033604051602001611cba919073ffffffffffffffffffffffffffffffffffffffff91909116815260200190565b6040516020818303038152906040526040518863ffffffff1660e01b8152600401611cea96959493929190615736565b604080518083038185885af1158015611d07573d6000803e3d6000fd5b50505050506040513d601f19601f82011682018060405250810190611d2c919061578f565b50505b60008a1215611f29577fffffffffffffffffffffffff11111111111111111111111111111111111111127f000000000000000000000000000000000000000000000000000000000000000073ffffffffffffffffffffffffffffffffffffffff1601611e1e5789600003925082341115611ddb576040513390348086146108fc029190869003906000818181858888f19350505050158015611dd5573d6000803e3d6000fd5b50611e23565b82341015611e19576040517f60121cca00000000000000000000000000000000000000000000000000000000815261791b600482015260240161027d565b611e23565b600092505b7f000000000000000000000000000000000000000000000000000000000000000073ffffffffffffffffffffffffffffffffffffffff1663ad967e15847f000000000000000000000000000000000000000000000000000000000000000060008e60008033604051602001611eb4919073ffffffffffffffffffffffffffffffffffffffff91909116815260200190565b6040516020818303038152906040526040518863ffffffff1660e01b8152600401611ee496959493929190615736565b604080518083038185885af1158015611f01573d6000803e3d6000fd5b50505050506040513d601f19601f82011682018060405250810190611f26919061578f565b50505b60008b121561200e57604080516000808252602082019092527f000000000000000000000000000000000000000000000000000000000000000073ffffffffffffffffffffffffffffffffffffffff169163ad967e15917f0000000000000000000000000000000000000000000000000000000000000000918f918e9082906040518763ffffffff1660e01b8152600401611fc996959493929190615736565b60408051808303816000875af1158015611fe7573d6000803e3d6000fd5b505050506040513d601f19601f8201168201806040525081019061200b919061578f565b50505b60008a13156120f457604080516000808252602082019092527f000000000000000000000000000000000000000000000000000000000000000073ffffffffffffffffffffffffffffffffffffffff169163ad967e15917f000000000000000000000000000000000000000000000000000000000000000091908e9082908f906040518763ffffffff1660e01b81526004016120af96959493929190615736565b60408051808303816000875af11580156120cd573d6000803e3d6000fd5b505050506040513d601f19601f820116820180604052508101906120f1919061578f565b50505b67ffffffffffffffff605286901c1692508360000151846060015160ff8516600886901c901b6121249190615579565b61212e9190615566565b925067ffffffffffffffff609286901c16915083602001518460a00151856080015161215a9190615566565b61216d90600885901c60ff86161b615579565b6121779190615566565b9150609261218a836038600860016141c7565b901b605261219d856038600860006141c7565b901b7ffffffffffffc00000000000000000000000000000003ffffffffffffffffffff8716171760005560408051338152602081018e90529081018c9052606081018b905273ffffffffffffffffffffffffffffffffffffffff8a1660808201527ffef64760e30a41b9d5ba7dd65ff7236a61d89ed8b44c67a29e84db1a67513a1c9060a00160405180910390a150999a98995096979650505050505050565b6008546040517fb5c736e40000000000000000000000000000000000000000000000000000000081527f00000000000000000000000000000000000000000000000000000000000000006004820152600091829167ffffffffffffffff608083901c169160c081901c91612333907f000000000000000000000000000000000000000000000000000000000000000073ffffffffffffffffffffffffffffffffffffffff169063b5c736e4906024015b602060405180830381865afa15801561230a573d6000803e3d6000fd5b505050506040513d601f19601f8201168201806040525081019061232e9190615519565b614b1a565b50945067ffffffffffffffff81168086101561237f576040517f60121cca000000000000000000000000000000000000000000000000000000008152617932600482015260240161027d565b6040517fb5c736e40000000000000000000000000000000000000000000000000000000081527f00000000000000000000000000000000000000000000000000000000000000006004820152612415907f000000000000000000000000000000000000000000000000000000000000000073ffffffffffffffffffffffffffffffffffffffff169063b5c736e4906024016122ed565b955050604082901c67ffffffffffffffff1680861015612465576040517f60121cca000000000000000000000000000000000000000000000000000000008152617932600482015260240161027d565b600061271061ffff8a16670de0b6b3a7640000858b670de0b6b3a764000002816124915761249161558c565b040302816124a1576124a161558c565b049050600061271061ffff60108c901c16670de0b6b3a7640000858b670de0b6b3a764000002816124d4576124d461558c565b040302816124e4576124e461558c565b049050670de0b6b3a76400008783020487019650670de0b6b3a7640000818702816125115761251161558c565b048601955050505050509193509193565b600080808080868180600189901c62ffffff168b9003612568575050601a87901c633fffffff169250603887901c6603ffffffffffff166001601989901c8116146125bf565b60008c8152600660205260408120600360028e0181810660550292918491048152602081019190915260400160002054901c600181811c633fffffff169750601f82901c6603ffffffffffff169450908116149150505b60008581526007602052604090205493508015612602577f80000000000000000000000000000000000000000000000000000000000000009b50600099506127e7565b8360031660020361266c5761262482607486901c6603ffffffffffff16614d28565b91506001612634600f6023615579565b6001901b6126429190615566565b821461266c5760a69390931c633fffffff1660008181526007602052604090205490945092612602565b836003166003148061269857506001612687600f6023615579565b6001901b6126959190615566565b82145b156126c9577f80000000000000000000000000000000000000000000000000000000000000009b50600099506127e7565b6126e18a607486901c6603ffffffffffff1684614dad565b9950606483048a11156126fe5761271061270f8b02049950612703565b600099505b89156127c3578360041660041461272b57612726600385901c6207ffff166154e1565b612736565b6207ffff600385901c165b9b5060006127468d60020b613f4d565b9050600061271f6127598361271061554f565b61276391906155bb565b9050633fffffff601687901c811661277b8385615566565b612785919061554f565b61278f91906155bb565b6127999082615579565b6127b06c010000000000000000000000008e61554f565b6127ba91906155bb565b975050506127e7565b7f80000000000000000000000000000000000000000000000000000000000000009b505b8b8a97509750505050945094509450945094565b60008060006128617f00000000000000000000000000000000000000000000000000000000000000006000368080601f01602080910402602001604051908101604052809392919081815260200183838082843760009201919091525061079292505050565b905080806020019051810190612877919061578f565b9094909350915050565b6000806128b66040518060a0016040528060008152602001600081526020016000815260200160008152602001600081525090565b60008054906001821690036108f057600181176000558715806128e857506fffffffffffffffffffffffffffffffff88115b15612923576040517f60121cca00000000000000000000000000000000000000000000000000000000815261792e600482015260240161027d565b7fffffffffffffffffffffffff11111111111111111111111111111111111111127f000000000000000000000000000000000000000000000000000000000000000073ffffffffffffffffffffffffffffffffffffffff16016129c2578734146129bd576040517f60121cca000000000000000000000000000000000000000000000000000000008152617920600482015260240161027d565b6129fe565b34156129fe576040517f60121cca000000000000000000000000000000000000000000000000000000008152617920600482015260240161027d565b6001548252600281901c620fffff16600003612a4a576040517f60121cca00000000000000000000000000000000000000000000000000000000815261791f600482015260240161027d565b8151612a559061223d565b90919250909150836060018460800182815250828152505050612ad26040518061018001604052806000815260200160008152602001600081526020016000815260200160008152602001600081526020016000815260200160008152602001600081526020016000815260200160008152602001600081525090565b612b0b6040518060c001604052806000815260200160008152602001600081526020016000815260200160008152602001600081525090565b601683901c633fffffff16808252600090815260076020908152604082205490830181905260741c6603ffffffffffff166060830181905281908103612b59576603ffffffffc00060608401525b602083015160c41c620fffff1691508115612ba55781600116600114612b9057612b8b600183901c6207ffff166154e1565b612b9b565b6207ffff600183901c165b6080840152612bcc565b7f800000000000000000000000000000000000000000000000000000000000000060808401525b84600416600414612bee57612be9600386901c6207ffff166154e1565b612bf9565b6207ffff600386901c165b60c08501526002851615612c0e576002612c11565b60015b60ff1684610100018181525050612c5e6040518060e00160405280600081526020016000815260200160008152602001600081526020016000815260200160008152602001600081525090565b60c085015181528651604080517fe6aa216c000000000000000000000000000000000000000000000000000000008152905160609290921c9163e6aa216c916004808201926020929091908290030181865afa158015612cc2573d6000803e3d6000fd5b505050506040513d601f19601f82011682018060405250810190612ce69190615519565b92508660800151876060015184612cfd919061554f565b612d0791906155bb565b9250612d2a83760a70c3c40a64e6c51999090b65f67d92400000000000006155bb565b875190925061271090612d449060481c6103ff1682615579565b612d4e908461554f565b612d5891906155bb565b6060860152722cd76fe086b93ce2f768a00b22a000000000008310612daa576c01000000000000000000000000612d9b6b033b2e3c9fd0803ce8000000856155bb565b612da5919061554f565b612dd8565b6b033b2e3c9fd0803ce8000000612dce6c010000000000000000000000008561554f565b612dd891906155bb565b87519093506103e890612df290602a1c6103ff168561554f565b612dfc91906155bb565b9150612e07826146d9565b50602088015286516103e890612e249060341c6103ff168561554f565b612e2e91906155bb565b9150612e39826146d9565b5060408801526080870151612e5364e8d4a510008f61554f565b612e5d91906155bb565b85528915612ef25760025485516fffffffffffffffffffffffffffffffff8216945060809190911c9250831115612ed75784518390612e9c908461554f565b612ea691906155bb565b60a08601819052612eb79083615566565b855160808088018290526000885282901b94039384176002559150612ef2565b6000600255845183900385526080850183905260a085018290525b86602001518560c00151138015612f11575086604001518560c0015113155b1561392a5784511561392a576040805160c081018252600080825260208201819052918101829052606081018290526080810182905260a081018290528190680100000000000000009060008960c0015112612f82576101008960c0015181612f7c57612f7c61558c565b05612f9f565b60016101008a60c0015160010181612f9c57612f9c61558c565b05035b60408201528451612fb29060020b613f4d565b6040860152610100890151600103612fdd57604085015160e08a015260c0890151602082015261302f565b61271f85604001516127100281612ff657612ff661558c565b046060860181905260408601518190036080870181905260208a015160161c633fffffff90811660c08901819052909102040160e08a01525b88610100015160010361309f5760c0890180516000908152600560205260408082205460608c01518c5194518452919092206301fffffe8316601a9490941b9390931760389190911b1760011790915566ffffffffffffff602182901c1660ff601983901c161b975095506130c2565b67ffffffffffffffff60348960200151901c16965060ff8716600888901c901b96505b86896020018181516130d49190615579565b90525060e08901516130f36c010000000000000000000000008961554f565b6130fd91906155bb565b8960400181815161310e9190615579565b90525060c0890151602082015114801561312d57508861010001516001145b8061313a57506080810151155b156132725780608001516000036131635760408082015160009081526004602052205460808201525b8861010001516001036131ba57604081015160c08a015160009081036101009283020190910160608301819052608083018051821b90911c9081905290036131ba5760408082015160009081526004602052908120555b6080810151156131e85760016131d38260800151614df2565b60408301516101000201036020820152613272565b60208b015160408201516131fe906101006155cf565b121561322f577f80000000000000000000000000000000000000000000000000000000000000006020820152613272565b604080820180517fffffffffffffffffffffffffffffffffffffffffffffffffffffffffffffffff019081905260009081526004602052205460808201526131ba565b8060200151886080015113801561329057508a602001518860800151135b156132ad5760808801516101208a015260026101608a01526132e9565b8a60200151816020015113156132d55760208101516101208a015260016101608a01526132e9565b60208b01516101208a015260036101608a01525b6132fa89610120015160020b613f4d565b604086015261016089015160020361338e5761271f856040015161271002816133255761332561558c565b046060860181905260408087015191909103608087019081526020808b015160a61c633fffffff908116600090815260079092529290205460a08b0181905260161c821660c0880181905290510260608701519190040160a086018190526101408a01526133ab565b604085015160a086018190526101408a0152633fffffff60c08601525b6b033b2e3c9fd0803ce80000006c010000000000000000000000008a61014001518b606001516133db919061554f565b6133e5919061561b565b6133ef9190615683565b60208a015160e08b01516101408c015161340a90839061554f565b61341491906155bb565b61341e9190615683565b613434906b033b2e3c9fd0803ce80000006155cf565b61343e919061561b565b93506b033b2e3c9fd0803ce800000089606001518561345d919061554f565b61346791906155bb565b89519093508410158061347f57508861016001516003145b1561373f576080810151604080830151600090815260046020522055885184106135a457885160608a01519094506b033b2e3c9fd0803ce8000000906134c5908661554f565b6134cf91906155bb565b92508289604001516134e19190615566565b6c01000000000000000000000000858b602001516134ff9190615566565b613509919061554f565b61351391906155bb565b965061351e876146d9565b60608701819052600191909101865261271061271f8202046040870181905281900360808701819052908803633fffffff028161355d5761355d61558c565b0460c086018190521561359757633fffffff8560c0015114613583578460c0015161359a565b6135926001633fffffff615566565b61359a565b60015b60c08601526135bf565b6101208901516135b59060016156aa565b8552600160c08601525b60208901516135ce8582615566565b6135d8908461554f565b6135e291906155bb565b915083896080018181516135f69190615579565b90525060208901805185919061360d908390615566565b90525060a089018051849190613624908390615579565b90525060408901805184919061363b908390615566565b905250606088015161364d9083614ea8565b6060890152602089015160641115613695576040517f60121cca000000000000000000000000000000000000000000000000000000008152617930600482015260240161027d565b84516000136136ab578451600190811b176136bc565b84516001906136b9906154e1565b901b5b606089015160208b015191975060741b906034906136df906038600860016141c7565b901b60168760c00151901b600289901b60a6808d60200151901c901b60011717171717600760008a6000015181526020019081526020016000208190555060168860000151901b600287901b6034808d901c901b60021717179950613925565b8851849003895260208901516137558582615566565b61375f908461554f565b61376991906155bb565b9150838960800181815161377d9190615579565b905250602089018051859190613794908390615566565b90525060a0890180518491906137ab908390615579565b9052506040890180518491906137c2908390615566565b90525060608801516137d49083614ea8565b60608901526101608901516801000000000000000092506002036138fe57633fffffff60a68960200151901c1696508760a00151955060006603ffffffffffff607488901c16905060006138358a6060015183614f5390919063ffffffff16565b6020808c0180518d516000908152600790935260409092207fffffffffffffffffffffffc00000000000000000000000000000000000000000909216607484901b17600217909155998b5298889052506060890181905260c487901c620fffff169788156138d457886001166001146138bf576138ba60018a901c6207ffff166154e1565b6138ca565b6207ffff60018a901c165b60808b01526138fb565b7f800000000000000000000000000000000000000000000000000000000000000060808b01525b50505b61012089015160c08a01526101608901516101008a015261014089015160e08a015261302f565b505050505b64e8d4a5100087608001518660800151613944919061554f565b61394e91906155bb565b985064e8d4a5100087606001518660a0015161396a919061554f565b61397491906155bb565b97508c89111561399857613988898e6155bb565b613992908961554f565b97508c98505b8b896139ac8a670de0b6b3a764000061554f565b6139b691906155bb565b10156139f2576040517f60121cca000000000000000000000000000000000000000000000000000000008152617921600482015260240161027d565b73ffffffffffffffffffffffffffffffffffffffff8b1661dead03613a4d576040517fcc36aa4400000000000000000000000000000000000000000000000000000000815260048101899052602481018a905260440161027d565b7fffffffffffffffffffffffff11111111111111111111111111111111111111127f000000000000000000000000000000000000000000000000000000000000000073ffffffffffffffffffffffffffffffffffffffff1601613aee5788925034891015613ae957604051339034808c146108fc0291908c9003906000818181858888f19350505050158015613ae7573d6000803e3d6000fd5b505b613af3565b600092505b73ffffffffffffffffffffffffffffffffffffffff7f00000000000000000000000000000000000000000000000000000000000000001663ad967e15847f00000000000000000000000000000000000000000000000000000000000000006000613b5c8e6154e1565b604080513360208201526000918291016040516020818303038152906040526040518863ffffffff1660e01b8152600401613b9c96959493929190615736565b604080518083038185885af1158015613bb9573d6000803e3d6000fd5b50505050506040513d601f19601f82011682018060405250810190613bde919061578f565b505073ffffffffffffffffffffffffffffffffffffffff7f00000000000000000000000000000000000000000000000000000000000000001663ad967e157f0000000000000000000000000000000000000000000000000000000000000000613c468b6154e1565b60008f81806040519080825280601f01601f191660200182016040528015613c75576020820181803683370190505b506040518763ffffffff1660e01b8152600401613c9796959493929190615736565b60408051808303816000875af1158015613cb5573d6000803e3d6000fd5b505050506040513d601f19601f82011682018060405250810190613cd9919061578f565b505067ffffffffffffffff605287901c1692508460a0015160ff8416600885901c901b613d069190615566565b925067ffffffffffffffff609287901c169150846080015160ff8316600884901c901b613d339190615566565b91506092613d46836038600860016141c7565b901b6052613d59856038600860006141c7565b7ffffffffffffc00000000000000000000000000000003ffffffffffffffffffff8916911b171760005560408051338152602081018a90529081018a905273ffffffffffffffffffffffffffffffffffffffff8c1660608201527f80fd9cc6b1821f4a510e45ffce6852ea3404807b5d3d833ffa85664408afcb669060800160405180910390a15050505050505094509492505050565b3373ffffffffffffffffffffffffffffffffffffffff7f00000000000000000000000000000000000000000000000000000000000000001614613e63576040517f60121cca000000000000000000000000000000000000000000000000000000008152617929600482015260240161027d565b600054600116600003613ea6576040517f60121cca00000000000000000000000000000000000000000000000000000000815261792a600482015260240161027d565b6000613eb4828401846157b3565b9050613ee285827f000000000000000000000000000000000000000000000000000000000000000087614ff1565b5050505050565b613f4a7f00000000000000000000000000000000000000000000000000000000000000006000368080601f01602080910402602001604051908101604052809392919081815260200183838082843760009201919091525061079292505050565b50565b600060ff82901d80831803618000811115613f6757600080fd5b7001000000000000000000000000000000006001821615613f9557506fff9dd7de423466c20352b1246ce4856f5b6002821615613fb4576fff3bd55f4488ad277531fa1c725a66d00260801c5b6004821615613fd3576ffe78410fd6498b73cb96a6917f8532590260801c5b6008821615613ff2576ffcf2d9987c9be178ad5bfeffaa1232730260801c5b6010821615614011576ff9ef02c4529258b057769680fc6601b30260801c5b6020821615614030576ff402d288133a85a17784a411f7aba0820260801c5b604082161561404f576fe895615b5beb6386553757b0352bda900260801c5b608082161561406e576fd34f17a00ffa00a8309940a15930391a0260801c5b61010082161561408e576fae6b7961714e20548d88ea5123f9a0ff0260801c5b6102008216156140ae576f76d6461f27082d74e0feed3b388c0ca10260801c5b6104008216156140ce576f372a3bfe0745d8b6b19d985d9a8b85bb0260801c5b6108008216156140ee576f0be32cbee48979763cf7247dd7bb539d0260801c5b61100082161561410d576e8d4f70c9ff4924dac37612d1e2921e0260801c5b61200082161561412b576d4e009ae5519380809a02ca7aec770260801c5b614000821615614147576b17c45e641b6e95dee056ff100260801c5b61800082161561415f57670234df96a9058b8e0260801c5b600091507f800000000000000000000000000000000000000000000000000000000000000084166141bd577fffffffffffffffffffffffffffffffffffffffffffffffffffffffffffffffff0463ffffffff8116156141bd57600191505b60201c0192915050565b600080856fffffffffffffffffffffffffffffffff8111156141ea5760809150811c5b67ffffffffffffffff811115614202576040918201911c5b63ffffffff811115614216576020918201911c5b61ffff811115614228576010918201911c5b60ff811115614239576008918201911c5b600f81111561424a576004918201911c5b600381111561425b576002918201911c5b600181111561426b576001820191505b8015614278576001820191505b50848110156142845750835b848103905085811c600082118416156142d357600181019050806001871b036142d357506001908101907fffffffffffffffffffffffffffffffffffffffffffffffffffffffffffffffff86011b5b6001851b82106142e257600080fd5b90931b909201949350505050565b601681901c633fffffff166000818152600760205260408120549091829182600160c483901c8116900361432e575060c581901c6207ffff1661436d565b61434060c583901c6207ffff166154e1565b90508060000361436d57507f80000000000000000000000000000000000000000000000000000000000000005b6000614378886150b1565b90508082136143875780614389565b815b94507f800000000000000000000000000000000000000000000000000000000000000085036143dc57867fffffffffffffffffffffffffffffffffffffffffffffffffffffffffffc000011696506144bd565b8085036144575760008512156144245760036143f7866154e1565b901b877fffffffffffffffffffffffffffffffffffffffffffffffffffffffffffc00001161796506144bd565b600385901b877fffffffffffffffffffffffffffffffffffffffffffffffffffffffffffc00001166004171796506144bd565b6000848152600760205260408120556034614473600186615566565b7ffffffffffffffffffffffffffffffffffffffffffffc00000000000000000001909816623ffffc60c286901c1617660fffffffc00000609086901c161797901b96909617600217955b869550505050509250929050565b60008083126144de5761010083056144e9565b600161010084820105035b90506101008102830382614511576000828152600460205260409020546001821b1916614526565b6000828152600460205260409020546001821b175b60009283526004602052604090922091909155505050565b6000808080808661455c6c010000000000000000000000008861554f565b61456691906155bb565b9050614571816146d9565b60019091019550905061271061271f82020490506060614591888361554f565b901c925061459f8684615566565b600086815260056020526040812054600181901c62ffffff16965091935085158015906145cd575060018216155b1561460e5766ffffffffffffff602183901c1660ff601984901c161b6145f38682615579565b915080600003614608576146088860016144cb565b50614662565b851561464e576000878152600660209081526040808320600360028b0181810486529190935292208054601986901c929093066055029190911b90911790555b8560010195508490506146628760016144cb565b6127108110156146a2576040517f60121cca000000000000000000000000000000000000000000000000000000008152617931600482015260240161027d565b60196146b3826038600860006141c7565b6000898152600560205260409020911b600188901b179055509497939650919450925050565b600080630234df978310747404d7d4ad31563734c38ac9470122ab59e13959658411171561470657600080fd5b6c01000000000000000000000000831060008161473957506c01000000000000000000000000670de0b6b3a76400008502045b81156147595750730de0b6b3a76400000000000000000000000000008490045b70064a15ff8393a411eb34e204376632d9d98110614799576180008417935070064a15ff8393a411eb34e204376632d9d9670de0b6b3a764000082020490505b6b957b047623f2bcd4ff5d774b81106147cf57614000841793506b957b047623f2bcd4ff5d774b670de0b6b3a764000082020490505b692d8bd5cde65011ec9e6b81106148015761200084179350692d8bd5cde65011ec9e6b670de0b6b3a764000082020490505b68192426fa80246d685e8110614831576110008417935068192426fa80246d685e670de0b6b3a764000082020490505b68012add20499adfef878110614861576108008417935068012add20499adfef87670de0b6b3a764000082020490505b674066d040a2ae1b68811061488f5761040084179350674066d040a2ae1b68670de0b6b3a764000082020490505b671de54b93d43adadc81106148bd5761020084179350671de54b93d43adadc670de0b6b3a764000082020490505b67145e6661d2df8dae81106148eb576101008417935067145e6661d2df8dae670de0b6b3a764000082020490505b6710d01965707688168110614918576080841793506710d0196570768816670de0b6b3a764000082020490505b670f4666878f97c595811061494557604084179350670f4666878f97c595670de0b6b3a764000082020490505b670e8f44d5e0932ad9811061497257602084179350670e8f44d5e0932ad9670de0b6b3a764000082020490505b670e36f1dd94086460811061499f57601084179350670e36f1dd94086460670de0b6b3a764000082020490505b670e0b921bcbbde5b981106149cc57600884179350670e0b921bcbbde5b9670de0b6b3a764000082020490505b670df613f5dfb63e6481106149f957600484179350670df613f5dfb63e64670de0b6b3a764000082020490505b670deb613b742ae4008110614a2657600284179350670deb613b742ae400670de0b6b3a764000082020490505b670de60af19e8dc0008110614a5357600184179350670de60af19e8dc000670de0b6b3a764000082020490505b81614a685780670de0b6b3a764000086020492505b8115614a8157921992670de60af19e8dc0008582020492505b5050915091565b600066ffffffffffffff604984901c1660ff604185901c161b808203614ab2576000915050614b14565b612710613fff60a286901c168402046401ffffffff608186901c16420362ffffff60b087901c16614ae3828461554f565b614aed91906155bb565b9050808311614afd576000614b01565b8083035b935050808403838111156107d557925050505b92915050565b67ffffffffffffffff605b82901c811690609b83901c16811580614b3c575080155b15614b78576040517fd50d751200000000000000000000000000000000000000000000000000000000815262011171600482015260240161027d565b61ffff8316603a84901c6401ffffffff16428181039160ea87901c617fff16911480614ba2575082155b80614bad5750806001145b15614bba57505050915091565b64496cebb80084840283020484019350617fff60db87901c16925082600103614be557505050915091565b82600116600103614c3a5760019290921c91826c7e37be2022c0914b268000000081614c1357614c1361558c565b049250612710601e87901c613fff166b033b2e3c9fd0803ce8000000850102049250614c67565b60019290921c916305f5e100601e87901c613fff166127108501026b033b2e3c9fd0803ce8000000020492505b80600116600103614c9e5760011c61271081016b033b2e3c9fd0803ce8000000820281614c9657614c9661558c565b049050614cd4565b60011c61271081016b033b2e3c9fd0803ce8000000820281614cc257614cc261558c565b046b033b2e3c9fd0803ce80000000390505b760a70c3c40a64e6c51999090b65f67d92400000000000008382026127100261ffff881691900402601087901c613fff16612710030292506801b5a660ea44b8000085840283020485019450505050915091565b6000600f83811c9083901c0281681fffffffffffffffff8211614d4c576022614d4f565b60235b91821c919050617fff8481168682160182017fffffffffffffffffffffffffffffffffffffffffffffffffffffffffffffc00001908111614d9b5780600f84901b179350505050614b14565b506603ffffffffffff95945050505050565b6000617fff838116908316036081811015614de557600f83811c821b9085901c860281614ddc57614ddc61558c565b04915050614deb565b60009150505b9392505050565b6000816fffffffffffffffffffffffffffffffff831115614e145760809150811c5b67ffffffffffffffff811115614e2c576040918201911c5b63ffffffff811115614e40576020918201911c5b61ffff811115614e52576010918201911c5b60ff811115614e63576008918201911c5b600f811115614e74576004918201911c5b6003811115614e85576002918201911c5b6001811115614e95576001820191505b8015614ea2576001820191505b50919050565b6000600f83901c8202816c03ffffffffffffffffffffffff8211614eef576c01ffffffffffffffffffffffff8211614ee857614ee382614df2565b614ef2565b6062614ef2565b60635b7fffffffffffffffffffffffffffffffffffffffffffffffffffffffffffffff9d7fffffffffffffffffffffffffffffffffffffffffffffffffffffffffffffffdd82019390931c600f1b617fff9690961695909501909401019392505050565b600080600f83901c7fffffffffffffffffffffffffffffffffffffffffffffffff0000000000000000603186901b1681614f8f57614f8f61558c565b0490506000604082901c600114614fa7576040614faa565b60415b617fff94851695909416840194909403613f9d017fffffffffffffffffffffffffffffffffffffffffffffffffffffffffffffffdd939093011c600f1b9190911792915050565b60006040517f23b872dd00000000000000000000000000000000000000000000000000000000815273ffffffffffffffffffffffffffffffffffffffff8516600482015273ffffffffffffffffffffffffffffffffffffffff841660248201528260448201526020600060648360008a5af13d15601f3d1160016000511416171691505080613ee2576040517fdee51a8a00000000000000000000000000000000000000000000000000000000815262011559600482015260240161027d565b60008060008084126150c75761010084056150d2565b600161010085820105035b600081815260046020526040812054919350859003610100808502919091010190811b811c91505b811561511957600161510b83614df2565b8461010002010393506151a4565b7fffffffffffffffffffffffffffffffffffffffffffffffffffffffffffffffff8301927fffffffffffffffffffffffffffffffffffffffffffffffffffffffffffffff7f0360010161518e577f800000000000000000000000000000000000000000000000000000000000000093506151a4565b60008381526004602052604090205491506150fa565b505050919050565b8015158114613f4a57600080fd5b6000602082840312156151cc57600080fd5b8151614deb816151ac565b73ffffffffffffffffffffffffffffffffffffffff81168114613f4a57600080fd5b6000806000806080858703121561520f57600080fd5b843593506020850135925060408501359150606085013561522f816151d7565b939692955090935050565b60006020828403121561524c57600080fd5b5035919050565b6000806000806080858703121561526957600080fd5b5050823594602084013594506040840135936060013592509050565b6000806000806080858703121561529b57600080fd5b843593506020850135925060408501356152b4816151d7565b9150606085013561522f816151ac565b600080600080606085870312156152da57600080fd5b84356152e5816151d7565b935060208501359250604085013567ffffffffffffffff8082111561530957600080fd5b818701915087601f83011261531d57600080fd5b81358181111561532c57600080fd5b88602082850101111561533e57600080fd5b95989497505060200194505050565b815173ffffffffffffffffffffffffffffffffffffffff1681526101e081016020830151615393602084018273ffffffffffffffffffffffffffffffffffffffff169052565b5060408301516153bb604084018273ffffffffffffffffffffffffffffffffffffffff169052565b5060608301516153e3606084018273ffffffffffffffffffffffffffffffffffffffff169052565b50608083015161540b608084018273ffffffffffffffffffffffffffffffffffffffff169052565b5060a083015161543360a084018273ffffffffffffffffffffffffffffffffffffffff169052565b5060c083015161544860c084018260ff169052565b5060e083015161545d60e084018260ff169052565b50610100838101519083015261012080840151908301526101408084015190830152610160808401519083015261018080840151908301526101a080840151908301526101c092830151929091019190915290565b7f4e487b7100000000000000000000000000000000000000000000000000000000600052601160045260246000fd5b60007f80000000000000000000000000000000000000000000000000000000000000008203615512576155126154b2565b5060000390565b60006020828403121561552b57600080fd5b5051919050565b60006020828403121561554457600080fd5b8151614deb816151d7565b8082028115828204841417614b1457614b146154b2565b81810381811115614b1457614b146154b2565b80820180821115614b1457614b146154b2565b7f4e487b7100000000000000000000000000000000000000000000000000000000600052601260045260246000fd5b6000826155ca576155ca61558c565b500490565b808202600082127f800000000000000000000000000000000000000000000000000000000000000084141615615607576156076154b2565b8181058314821517614b1457614b146154b2565b60008261562a5761562a61558c565b7fffffffffffffffffffffffffffffffffffffffffffffffffffffffffffffffff83147f80000000000000000000000000000000000000000000000000000000000000008314161561567e5761567e6154b2565b500590565b81810360008312801583831316838312821617156156a3576156a36154b2565b5092915050565b80820182811260008312801582168215821617156156ca576156ca6154b2565b505092915050565b6000815180845260005b818110156156f8576020818501810151868301820152016156dc565b5060006020828601015260207fffffffffffffffffffffffffffffffffffffffffffffffffffffffffffffffe0601f83011685010191505092915050565b600073ffffffffffffffffffffffffffffffffffffffff8089168352876020840152866040840152808616606084015280851660808401525060c060a083015261578360c08301846156d2565b98975050505050505050565b600080604083850312156157a257600080fd5b505080516020909101519092909150565b6000602082840312156157c557600080fd5b8135614deb816151d756fea26469706673582212206b2b9fb199f43f6aebe271015fbf250cfdb584444c47f8ca6072e4e33d68490864736f6c63430008150033"
}