{
  "address": "0x5d2a3305e86E5fC52FbCf216aAC9bB5453Faa1D8",
  "abi": [
    {
      "inputs": [
        {
          "internalType": "uint256",
          "name": "nativeTokenMaxBorrowLimitCap_",
          "type": "uint256"
        }
      ],
      "stateMutability": "nonpayable",
      "type": "constructor"
    },
    {
      "inputs": [
        {
          "internalType": "uint256",
          "name": "errorId_",
          "type": "uint256"
        }
      ],
      "name": "FluidLiquidityCalcsError",
      "type": "error"
    },
    {
      "inputs": [
        {
          "internalType": "uint256",
          "name": "errorId_",
          "type": "uint256"
        }
      ],
      "name": "FluidLiquidityError",
      "type": "error"
    },
    {
      "anonymous": false,
      "inputs": [],
      "name": "BorrowRateMaxCap",
      "type": "event"
    },
    {
      "anonymous": false,
      "inputs": [
        {
          "indexed": true,
          "internalType": "uint256",
          "name": "newStatus",
          "type": "uint256"
        }
      ],
      "name": "LogChangeStatus",
      "type": "event"
    },
    {
      "anonymous": false,
      "inputs": [
        {
          "indexed": true,
          "internalType": "address",
          "name": "token",
          "type": "address"
        },
        {
          "indexed": true,
          "internalType": "uint256",
          "name": "amount",
          "type": "uint256"
        }
      ],
      "name": "LogCollectRevenue",
      "type": "event"
    },
    {
      "anonymous": false,
      "inputs": [
        {
          "indexed": false,
          "internalType": "address",
          "name": "user",
          "type": "address"
        },
        {
          "indexed": false,
          "internalType": "address[]",
          "name": "supplyTokens",
          "type": "address[]"
        },
        {
          "indexed": false,
          "internalType": "address[]",
          "name": "borrowTokens",
          "type": "address[]"
        }
      ],
      "name": "LogPauseUser",
      "type": "event"
    },
    {
      "anonymous": false,
      "inputs": [
        {
          "indexed": false,
          "internalType": "address",
          "name": "user",
          "type": "address"
        },
        {
          "indexed": false,
          "internalType": "address[]",
          "name": "supplyTokens",
          "type": "address[]"
        },
        {
          "indexed": false,
          "internalType": "address[]",
          "name": "borrowTokens",
          "type": "address[]"
        }
      ],
      "name": "LogUnpauseUser",
      "type": "event"
    },
    {
      "anonymous": false,
      "inputs": [
        {
          "components": [
            {
              "internalType": "address",
              "name": "addr",
              "type": "address"
            },
            {
              "internalType": "bool",
              "name": "value",
              "type": "bool"
            }
          ],
          "indexed": false,
          "internalType": "struct Structs.AddressBool[]",
          "name": "authsStatus",
          "type": "tuple[]"
        }
      ],
      "name": "LogUpdateAuths",
      "type": "event"
    },
    {
      "anonymous": false,
      "inputs": [
        {
          "indexed": true,
          "internalType": "address",
          "name": "token",
          "type": "address"
        },
        {
          "indexed": true,
          "internalType": "uint256",
          "name": "supplyExchangePrice",
          "type": "uint256"
        },
        {
          "indexed": true,
          "internalType": "uint256",
          "name": "borrowExchangePrice",
          "type": "uint256"
        },
        {
          "indexed": false,
          "internalType": "uint256",
          "name": "borrowRate",
          "type": "uint256"
        },
        {
          "indexed": false,
          "internalType": "uint256",
          "name": "utilization",
          "type": "uint256"
        }
      ],
      "name": "LogUpdateExchangePrices",
      "type": "event"
    },
    {
      "anonymous": false,
      "inputs": [
        {
          "components": [
            {
              "internalType": "address",
              "name": "addr",
              "type": "address"
            },
            {
              "internalType": "bool",
              "name": "value",
              "type": "bool"
            }
          ],
          "indexed": false,
          "internalType": "struct Structs.AddressBool[]",
          "name": "guardiansStatus",
          "type": "tuple[]"
        }
      ],
      "name": "LogUpdateGuardians",
      "type": "event"
    },
    {
      "anonymous": false,
      "inputs": [
        {
          "components": [
            {
              "internalType": "address",
              "name": "token",
              "type": "address"
            },
            {
              "internalType": "uint256",
              "name": "kink",
              "type": "uint256"
            },
            {
              "internalType": "uint256",
              "name": "rateAtUtilizationZero",
              "type": "uint256"
            },
            {
              "internalType": "uint256",
              "name": "rateAtUtilizationKink",
              "type": "uint256"
            },
            {
              "internalType": "uint256",
              "name": "rateAtUtilizationMax",
              "type": "uint256"
            }
          ],
          "indexed": false,
          "internalType": "struct Structs.RateDataV1Params[]",
          "name": "tokenRateDatas",
          "type": "tuple[]"
        }
      ],
      "name": "LogUpdateRateDataV1s",
      "type": "event"
    },
    {
      "anonymous": false,
      "inputs": [
        {
          "components": [
            {
              "internalType": "address",
              "name": "token",
              "type": "address"
            },
            {
              "internalType": "uint256",
              "name": "kink1",
              "type": "uint256"
            },
            {
              "internalType": "uint256",
              "name": "kink2",
              "type": "uint256"
            },
            {
              "internalType": "uint256",
              "name": "rateAtUtilizationZero",
              "type": "uint256"
            },
            {
              "internalType": "uint256",
              "name": "rateAtUtilizationKink1",
              "type": "uint256"
            },
            {
              "internalType": "uint256",
              "name": "rateAtUtilizationKink2",
              "type": "uint256"
            },
            {
              "internalType": "uint256",
              "name": "rateAtUtilizationMax",
              "type": "uint256"
            }
          ],
          "indexed": false,
          "internalType": "struct Structs.RateDataV2Params[]",
          "name": "tokenRateDatas",
          "type": "tuple[]"
        }
      ],
      "name": "LogUpdateRateDataV2s",
      "type": "event"
    },
    {
      "anonymous": false,
      "inputs": [
        {
          "indexed": true,
          "internalType": "address",
          "name": "revenueCollector",
          "type": "address"
        }
      ],
      "name": "LogUpdateRevenueCollector",
      "type": "event"
    },
    {
      "anonymous": false,
      "inputs": [
        {
          "components": [
            {
              "internalType": "address",
              "name": "token",
              "type": "address"
            },
            {
              "internalType": "uint256",
              "name": "fee",
              "type": "uint256"
            },
            {
              "internalType": "uint256",
              "name": "threshold",
              "type": "uint256"
            }
          ],
          "indexed": false,
          "internalType": "struct Structs.TokenConfig[]",
          "name": "tokenConfigs",
          "type": "tuple[]"
        }
      ],
      "name": "LogUpdateTokenConfigs",
      "type": "event"
    },
    {
      "anonymous": false,
      "inputs": [
        {
          "components": [
            {
              "internalType": "address",
              "name": "user",
              "type": "address"
            },
            {
              "internalType": "address",
              "name": "token",
              "type": "address"
            },
            {
              "internalType": "uint8",
              "name": "mode",
              "type": "uint8"
            },
            {
              "internalType": "uint256",
              "name": "expandPercent",
              "type": "uint256"
            },
            {
              "internalType": "uint256",
              "name": "expandDuration",
              "type": "uint256"
            },
            {
              "internalType": "uint256",
              "name": "baseDebtCeiling",
              "type": "uint256"
            },
            {
              "internalType": "uint256",
              "name": "maxDebtCeiling",
              "type": "uint256"
            }
          ],
          "indexed": false,
          "internalType": "struct Structs.UserBorrowConfig[]",
          "name": "userBorrowConfigs",
          "type": "tuple[]"
        }
      ],
      "name": "LogUpdateUserBorrowConfigs",
      "type": "event"
    },
    {
      "anonymous": false,
      "inputs": [
        {
          "components": [
            {
              "internalType": "address",
              "name": "addr",
              "type": "address"
            },
            {
              "internalType": "uint256",
              "name": "value",
              "type": "uint256"
            }
          ],
          "indexed": false,
          "internalType": "struct Structs.AddressUint256[]",
          "name": "userClasses",
          "type": "tuple[]"
        }
      ],
      "name": "LogUpdateUserClasses",
      "type": "event"
    },
    {
      "anonymous": false,
      "inputs": [
        {
          "components": [
            {
              "internalType": "address",
              "name": "user",
              "type": "address"
            },
            {
              "internalType": "address",
              "name": "token",
              "type": "address"
            },
            {
              "internalType": "uint8",
              "name": "mode",
              "type": "uint8"
            },
            {
              "internalType": "uint256",
              "name": "expandPercent",
              "type": "uint256"
            },
            {
              "internalType": "uint256",
              "name": "expandDuration",
              "type": "uint256"
            },
            {
              "internalType": "uint256",
              "name": "baseWithdrawalLimit",
              "type": "uint256"
            }
          ],
          "indexed": false,
          "internalType": "struct Structs.UserSupplyConfig[]",
          "name": "userSupplyConfigs",
          "type": "tuple[]"
        }
      ],
      "name": "LogUpdateUserSupplyConfigs",
      "type": "event"
    },
    {
      "inputs": [],
      "name": "NATIVE_TOKEN_MAX_BORROW_LIMIT_CAP",
      "outputs": [
        {
          "internalType": "uint256",
          "name": "",
          "type": "uint256"
        }
      ],
      "stateMutability": "view",
      "type": "function"
    },
    {
      "inputs": [
        {
          "internalType": "uint256",
          "name": "newStatus_",
          "type": "uint256"
        }
      ],
      "name": "changeStatus",
      "outputs": [],
      "stateMutability": "nonpayable",
      "type": "function"
    },
    {
      "inputs": [
        {
          "internalType": "address[]",
          "name": "tokens_",
          "type": "address[]"
        }
      ],
      "name": "collectRevenue",
      "outputs": [],
      "stateMutability": "nonpayable",
      "type": "function"
    },
    {
      "inputs": [
        {
          "internalType": "address",
          "name": "user_",
          "type": "address"
        },
        {
          "internalType": "address[]",
          "name": "supplyTokens_",
          "type": "address[]"
        },
        {
          "internalType": "address[]",
          "name": "borrowTokens_",
          "type": "address[]"
        }
      ],
      "name": "pauseUser",
      "outputs": [],
      "stateMutability": "nonpayable",
      "type": "function"
    },
    {
      "inputs": [
        {
          "internalType": "address",
          "name": "user_",
          "type": "address"
        },
        {
          "internalType": "address[]",
          "name": "supplyTokens_",
          "type": "address[]"
        },
        {
          "internalType": "address[]",
          "name": "borrowTokens_",
          "type": "address[]"
        }
      ],
      "name": "unpauseUser",
      "outputs": [],
      "stateMutability": "nonpayable",
      "type": "function"
    },
    {
      "inputs": [
        {
          "components": [
            {
              "internalType": "address",
              "name": "addr",
              "type": "address"
            },
            {
              "internalType": "bool",
              "name": "value",
              "type": "bool"
            }
          ],
          "internalType": "struct Structs.AddressBool[]",
          "name": "authsStatus_",
          "type": "tuple[]"
        }
      ],
      "name": "updateAuths",
      "outputs": [],
      "stateMutability": "nonpayable",
      "type": "function"
    },
    {
      "inputs": [
        {
          "internalType": "address[]",
          "name": "tokens_",
          "type": "address[]"
        }
      ],
      "name": "updateExchangePrices",
      "outputs": [
        {
          "internalType": "uint256[]",
          "name": "supplyExchangePrices_",
          "type": "uint256[]"
        },
        {
          "internalType": "uint256[]",
          "name": "borrowExchangePrices_",
          "type": "uint256[]"
        }
      ],
      "stateMutability": "nonpayable",
      "type": "function"
    },
    {
      "inputs": [
        {
          "components": [
            {
              "internalType": "address",
              "name": "addr",
              "type": "address"
            },
            {
              "internalType": "bool",
              "name": "value",
              "type": "bool"
            }
          ],
          "internalType": "struct Structs.AddressBool[]",
          "name": "guardiansStatus_",
          "type": "tuple[]"
        }
      ],
      "name": "updateGuardians",
      "outputs": [],
      "stateMutability": "nonpayable",
      "type": "function"
    },
    {
      "inputs": [
        {
          "components": [
            {
              "internalType": "address",
              "name": "token",
              "type": "address"
            },
            {
              "internalType": "uint256",
              "name": "kink",
              "type": "uint256"
            },
            {
              "internalType": "uint256",
              "name": "rateAtUtilizationZero",
              "type": "uint256"
            },
            {
              "internalType": "uint256",
              "name": "rateAtUtilizationKink",
              "type": "uint256"
            },
            {
              "internalType": "uint256",
              "name": "rateAtUtilizationMax",
              "type": "uint256"
            }
          ],
          "internalType": "struct Structs.RateDataV1Params[]",
          "name": "tokensRateData_",
          "type": "tuple[]"
        }
      ],
      "name": "updateRateDataV1s",
      "outputs": [],
      "stateMutability": "nonpayable",
      "type": "function"
    },
    {
      "inputs": [
        {
          "components": [
            {
              "internalType": "address",
              "name": "token",
              "type": "address"
            },
            {
              "internalType": "uint256",
              "name": "kink1",
              "type": "uint256"
            },
            {
              "internalType": "uint256",
              "name": "kink2",
              "type": "uint256"
            },
            {
              "internalType": "uint256",
              "name": "rateAtUtilizationZero",
              "type": "uint256"
            },
            {
              "internalType": "uint256",
              "name": "rateAtUtilizationKink1",
              "type": "uint256"
            },
            {
              "internalType": "uint256",
              "name": "rateAtUtilizationKink2",
              "type": "uint256"
            },
            {
              "internalType": "uint256",
              "name": "rateAtUtilizationMax",
              "type": "uint256"
            }
          ],
          "internalType": "struct Structs.RateDataV2Params[]",
          "name": "tokensRateData_",
          "type": "tuple[]"
        }
      ],
      "name": "updateRateDataV2s",
      "outputs": [],
      "stateMutability": "nonpayable",
      "type": "function"
    },
    {
      "inputs": [
        {
          "internalType": "address",
          "name": "revenueCollector_",
          "type": "address"
        }
      ],
      "name": "updateRevenueCollector",
      "outputs": [],
      "stateMutability": "nonpayable",
      "type": "function"
    },
    {
      "inputs": [
        {
          "components": [
            {
              "internalType": "address",
              "name": "token",
              "type": "address"
            },
            {
              "internalType": "uint256",
              "name": "fee",
              "type": "uint256"
            },
            {
              "internalType": "uint256",
              "name": "threshold",
              "type": "uint256"
            }
          ],
          "internalType": "struct Structs.TokenConfig[]",
          "name": "tokenConfigs_",
          "type": "tuple[]"
        }
      ],
      "name": "updateTokenConfigs",
      "outputs": [],
      "stateMutability": "nonpayable",
      "type": "function"
    },
    {
      "inputs": [
        {
          "components": [
            {
              "internalType": "address",
              "name": "user",
              "type": "address"
            },
            {
              "internalType": "address",
              "name": "token",
              "type": "address"
            },
            {
              "internalType": "uint8",
              "name": "mode",
              "type": "uint8"
            },
            {
              "internalType": "uint256",
              "name": "expandPercent",
              "type": "uint256"
            },
            {
              "internalType": "uint256",
              "name": "expandDuration",
              "type": "uint256"
            },
            {
              "internalType": "uint256",
              "name": "baseDebtCeiling",
              "type": "uint256"
            },
            {
              "internalType": "uint256",
              "name": "maxDebtCeiling",
              "type": "uint256"
            }
          ],
          "internalType": "struct Structs.UserBorrowConfig[]",
          "name": "userBorrowConfigs_",
          "type": "tuple[]"
        }
      ],
      "name": "updateUserBorrowConfigs",
      "outputs": [],
      "stateMutability": "nonpayable",
      "type": "function"
    },
    {
      "inputs": [
        {
          "components": [
            {
              "internalType": "address",
              "name": "addr",
              "type": "address"
            },
            {
              "internalType": "uint256",
              "name": "value",
              "type": "uint256"
            }
          ],
          "internalType": "struct Structs.AddressUint256[]",
          "name": "userClasses_",
          "type": "tuple[]"
        }
      ],
      "name": "updateUserClasses",
      "outputs": [],
      "stateMutability": "nonpayable",
      "type": "function"
    },
    {
      "inputs": [
        {
          "components": [
            {
              "internalType": "address",
              "name": "user",
              "type": "address"
            },
            {
              "internalType": "address",
              "name": "token",
              "type": "address"
            },
            {
              "internalType": "uint8",
              "name": "mode",
              "type": "uint8"
            },
            {
              "internalType": "uint256",
              "name": "expandPercent",
              "type": "uint256"
            },
            {
              "internalType": "uint256",
              "name": "expandDuration",
              "type": "uint256"
            },
            {
              "internalType": "uint256",
              "name": "baseWithdrawalLimit",
              "type": "uint256"
            }
          ],
          "internalType": "struct Structs.UserSupplyConfig[]",
          "name": "userSupplyConfigs_",
          "type": "tuple[]"
        }
      ],
      "name": "updateUserSupplyConfigs",
      "outputs": [],
      "stateMutability": "nonpayable",
      "type": "function"
    }
  ],
  "args": [
    "100000000000000000000000000"
  ],
  "numDeployments": 2,
  "solcInputHash": "a6aa1ee25f49d296a5af1b7359ecde08",
  "bytecode": "0x60a06040523480156200001157600080fd5b5060405162005a6438038062005a6483398101604081905262000034916200006e565b600180558060008190036200006457604051636e55c17160e11b8152612716600482015260240160405180910390fd5b6080525062000088565b6000602082840312156200008157600080fd5b5051919050565b6080516159b9620000ab600039600081816101e501526107ce01526159b96000f3fe608060405234801561001057600080fd5b50600436106100f55760003560e01c8063a5eb43ef11610097578063e8025d7711610066578063e8025d77146101cd578063eae2c8f1146101e0578063ec0484011461021a578063f4bfa0001461022d57600080fd5b8063a5eb43ef14610181578063ac862bfa14610194578063c2da75f0146101a7578063dd4cbf6b146101ba57600080fd5b80633f66feff116100d35780633f66feff146101355780633fad77fc1461014857806354bb0c1d1461015b5780639dde59771461016e57600080fd5b806301b88f86146100fa57806302c6bb6a1461010f57806338b7e8e714610122575b600080fd5b61010d610108366004614d76565b61024e565b005b61010d61011d366004614e76565b6110f2565b61010d610130366004614f5b565b611bb7565b61010d61014336600461501c565b61201a565b61010d61015636600461505e565b6121a5565b61010d6101693660046150c1565b61240a565b61010d61017c3660046150e3565b6124fa565b61010d61018f36600461501c565b612747565b61010d6101a236600461518b565b6128aa565b61010d6101b536600461501c565b612bec565b61010d6101c83660046151c1565b612dc1565b61010d6101db366004615242565b613233565b6102077f000000000000000000000000000000000000000000000000000000000000000081565b6040519081526020015b60405180910390f35b61010d6102283660046151c1565b613349565b61024061023b36600461518b565b613727565b604051610211929190615296565b336000908152600260205260409020546001908116148015906102ae5750336102957fb53127684a568b3173ae13b9f8a6016e243e63b6e8ee1178d6a717850b5d61035490565b73ffffffffffffffffffffffffffffffffffffffff1614155b156102ee576040517fdcab82e200000000000000000000000000000000000000000000000000000000815261271360048201526024015b60405180910390fd5b6000806000806000806000805b88518110156110b05761032a898281518110610319576103196152c4565b60200260200101516000015161384a565b61035089828151811061033f5761033f6152c4565b60200260200101516020015161384a565b600560008a8381518110610366576103666152c4565b60200260200101516020015173ffffffffffffffffffffffffffffffffffffffff1673ffffffffffffffffffffffffffffffffffffffff168152602001908152602001600020546000036103ea576040517fdcab82e200000000000000000000000000000000000000000000000000000000815261271a60048201526024016102e5565b60018982815181106103fe576103fe6152c4565b60200260200101516040015160ff1611806104525750888181518110610426576104266152c4565b602002602001015160c00151898281518110610444576104446152c4565b602002602001015160a00151115b8061047a575088818151811061046a5761046a6152c4565b6020026020010151608001516000145b156104b5576040517fdcab82e200000000000000000000000000000000000000000000000000000000815261271660048201526024016102e5565b613fff8982815181106104ca576104ca6152c4565b6020026020010151606001511115610512576040517fdcab82e200000000000000000000000000000000000000000000000000000000815261272660048201526024016102e5565b62ffffff898281518110610528576105286152c4565b6020026020010151608001511115610570576040517fdcab82e200000000000000000000000000000000000000000000000000000000815261272760048201526024016102e5565b888181518110610582576105826152c4565b602002602001015160a00151600014806105b957508881815181106105a9576105a96152c4565b602002602001015160c001516000145b156105f4576040517fdcab82e200000000000000000000000000000000000000000000000000000000815261271560048201526024016102e5565b888181518110610606576106066152c4565b602002602001015160c00151898281518110610624576106246152c4565b602002602001015160a0015111806106c65750888181518110610649576106496152c4565b602002602001015160a00151898281518110610667576106676152c4565b602002602001015160c0015111801561069d5750600089828151811061068f5761068f6152c4565b602002602001015160600151115b80156106c657508881815181106106b6576106b66152c4565b6020026020010151608001516000145b8061080e575073eeeeeeeeeeeeeeeeeeeeeeeeeeeeeeeeeeeeeeee73ffffffffffffffffffffffffffffffffffffffff16898281518110610709576107096152c4565b60200260200101516020015173ffffffffffffffffffffffffffffffffffffffff16146107cc57888181518110610742576107426152c4565b60200260200101516020015173ffffffffffffffffffffffffffffffffffffffff166318160ddd6040518163ffffffff1660e01b8152600401602060405180830381865afa158015610798573d6000803e3d6000fd5b505050506040513d601f19601f820116820180604052508101906107bc91906152f3565b6107c790600a61533b565b6107ee565b7f00000000000000000000000000000000000000000000000000000000000000005b898281518110610800576108006152c4565b602002602001015160c00151115b15610849576040517fdcab82e200000000000000000000000000000000000000000000000000000000815261271660048201526024016102e5565b610880600a600860008c8581518110610864576108646152c4565b602002602001015160c001516138d7909392919063ffffffff16565b898281518110610892576108926152c4565b602002602001015160c00181815250506108d9600a600860008c85815181106108bd576108bd6152c4565b602002602001015160a001516138d7909392919063ffffffff16565b8982815181106108eb576108eb6152c4565b602002602001015160a0018181525050600960008a8381518110610911576109116152c4565b60200260200101516000015173ffffffffffffffffffffffffffffffffffffffff1673ffffffffffffffffffffffffffffffffffffffff16815260200190815260200160002060008a838151811061096b5761096b6152c4565b60200260200101516020015173ffffffffffffffffffffffffffffffffffffffff1673ffffffffffffffffffffffffffffffffffffffff16815260200190815260200160002054975087600014806109ef5750600188161580156109ef57508881815181106109dc576109dc6152c4565b60200260200101516040015160ff166000145b80610a285750876001166001148015610a285750888181518110610a1557610a156152c4565b60200260200101516040015160ff166001145b15610bbd5760da898281518110610a4157610a416152c4565b602002602001015160c00151901b60c88a8381518110610a6357610a636152c4565b602002602001015160a00151901b60b08b8481518110610a8557610a856152c4565b602002602001015160800151901b60a28c8581518110610aa757610aa76152c4565b602002602001015160600151901b8c8581518110610ac757610ac76152c4565b60200260200101516040015160ff168c7ffffff0000000000000000003fffffffffffffffffffffffffffffffffffffffe161717171717600960008b8481518110610b1457610b146152c4565b60200260200101516000015173ffffffffffffffffffffffffffffffffffffffff1673ffffffffffffffffffffffffffffffffffffffff16815260200190815260200160002060008b8481518110610b6e57610b6e6152c4565b60200260200101516020015173ffffffffffffffffffffffffffffffffffffffff1673ffffffffffffffffffffffffffffffffffffffff168152602001908152602001600020819055506110a8565b610be3898281518110610bd257610bd26152c4565b602002602001015160200151613a00565b5050610c4a600560008b8481518110610bfe57610bfe6152c4565b60200260200101516020015173ffffffffffffffffffffffffffffffffffffffff1673ffffffffffffffffffffffffffffffffffffffff16815260200190815260200160002054613b42565b905080925050600760008a8381518110610c6657610c666152c4565b60200260200101516020015173ffffffffffffffffffffffffffffffffffffffff1673ffffffffffffffffffffffffffffffffffffffff168152602001908152602001600020549650610ccf67ffffffffffffffff608089901c16600860ff9082901c91161b90565b955060c887901c60ff60c089901c161b945067ffffffffffffffff600189901c16935060ff8416600885901c901b935067ffffffffffffffff604189901c16925060ff8316600884901c901b9250876001166000148015610d505750888181518110610d3d57610d3d6152c4565b60200260200101516040015160ff166001145b15610dae57838511610d63576000610d6d565b610d6d8486615358565b9450610d7f8464e8d4a5100084613d50565b935081610d9164e8d4a510008561533b565b610d9b919061539a565b9250610da784876153d5565b9550610e3b565b876001166001148015610de15750888181518110610dce57610dce6152c4565b60200260200101516040015160ff166000145b15610e3b57838611610df4576000610dfe565b610dfe8487615358565b9550610e10848364e8d4a51000613d50565b935064e8d4a51000610e22838561533b565b610e2c919061539a565b9250610e3884866153d5565b94505b610e4a846038600860016138d7565b9350610e5b836038600860006138d7565b925060da898281518110610e7157610e716152c4565b602002602001015160c00151901b60c88a8381518110610e9357610e936152c4565b602002602001015160a00151901b60b08b8481518110610eb557610eb56152c4565b602002602001015160800151901b60a28c8581518110610ed757610ed76152c4565b602002602001015160600151901b604187901b600189901b8e8781518110610f0157610f016152c4565b60200260200101516040015160ff168e7ffffff0000000000000000003fffffffe000000000000000000000000000000001617171717171717600960008b8481518110610f5057610f506152c4565b60200260200101516000015173ffffffffffffffffffffffffffffffffffffffff1673ffffffffffffffffffffffffffffffffffffffff16815260200190815260200160002060008b8481518110610faa57610faa6152c4565b60209081029190910181015181015173ffffffffffffffffffffffffffffffffffffffff16825281019190915260400160002055610fed866038600860016138d7565b9550610ffe856038600860016138d7565b945060c085901b608087901b886fffffffffffffffffffffffffffffffff161717600760008b8481518110611035576110356152c4565b60200260200101516020015173ffffffffffffffffffffffffffffffffffffffff1673ffffffffffffffffffffffffffffffffffffffff168152602001908152602001600020819055506110a5898281518110611094576110946152c4565b602002602001015160200151613d94565b50505b6001016102fb565b507f4a3d512075def8d38b63e79dacfdab217654f641be2b2f7d638b67b2515df7c0886040516110e091906153e8565b60405180910390a15050505050505050565b336000908152600260205260409020546001908116148015906111525750336111397fb53127684a568b3173ae13b9f8a6016e243e63b6e8ee1178d6a717850b5d61035490565b73ffffffffffffffffffffffffffffffffffffffff1614155b1561118d576040517fdcab82e200000000000000000000000000000000000000000000000000000000815261271360048201526024016102e5565b6000806000806000806000805b8851811015611b87576111b8898281518110610319576103196152c4565b6111cd89828151811061033f5761033f6152c4565b600560008a83815181106111e3576111e36152c4565b60200260200101516020015173ffffffffffffffffffffffffffffffffffffffff1673ffffffffffffffffffffffffffffffffffffffff16815260200190815260200160002054600003611267576040517fdcab82e200000000000000000000000000000000000000000000000000000000815261271a60048201526024016102e5565b600189828151811061127b5761127b6152c4565b60200260200101516040015160ff1611806112b357508881815181106112a3576112a36152c4565b6020026020010151608001516000145b156112ee576040517fdcab82e200000000000000000000000000000000000000000000000000000000815261271660048201526024016102e5565b612710898281518110611303576113036152c4565b602002602001015160600151111561134b576040517fdcab82e200000000000000000000000000000000000000000000000000000000815261272460048201526024016102e5565b62ffffff898281518110611361576113616152c4565b60200260200101516080015111156113a9576040517fdcab82e200000000000000000000000000000000000000000000000000000000815261272560048201526024016102e5565b8881815181106113bb576113bb6152c4565b602002602001015160a00151600003611404576040517fdcab82e200000000000000000000000000000000000000000000000000000000815261271560048201526024016102e5565b61141f600a600860008c85815181106108bd576108bd6152c4565b898281518110611431576114316152c4565b602002602001015160a0018181525050600860008a8381518110611457576114576152c4565b60200260200101516000015173ffffffffffffffffffffffffffffffffffffffff1673ffffffffffffffffffffffffffffffffffffffff16815260200190815260200160002060008a83815181106114b1576114b16152c4565b60200260200101516020015173ffffffffffffffffffffffffffffffffffffffff1673ffffffffffffffffffffffffffffffffffffffff16815260200190815260200160002054975087600014806115355750600188161580156115355750888181518110611522576115226152c4565b60200260200101516040015160ff166000145b8061156e575087600116600114801561156e575088818151811061155b5761155b6152c4565b60200260200101516040015160ff166001145b156116e05760c8898281518110611587576115876152c4565b602002602001015160a00151901b60b08a83815181106115a9576115a96152c4565b602002602001015160800151901b60a28b84815181106115cb576115cb6152c4565b602002602001015160600151901b8b84815181106115eb576115eb6152c4565b60200260200101516040015160ff168b7ffffffffffc00000000000003fffffffffffffffffffffffffffffffffffffffe1617171717600860008b8481518110611637576116376152c4565b60200260200101516000015173ffffffffffffffffffffffffffffffffffffffff1673ffffffffffffffffffffffffffffffffffffffff16815260200190815260200160002060008b8481518110611691576116916152c4565b60200260200101516020015173ffffffffffffffffffffffffffffffffffffffff1673ffffffffffffffffffffffffffffffffffffffff16815260200190815260200160002081905550611b7f565b6116f5898281518110610bd257610bd26152c4565b5050611710600560008b8481518110610bfe57610bfe6152c4565b5080925050600760008a838151811061172b5761172b6152c4565b60200260200101516020015173ffffffffffffffffffffffffffffffffffffffff1673ffffffffffffffffffffffffffffffffffffffff16815260200190815260200160002054965061179067ffffffffffffffff8816600860ff9082901c91161b90565b955066ffffffffffffff604888901c1660ff604089901c161b945067ffffffffffffffff600189901c16935060ff8416600885901c901b935067ffffffffffffffff604189901c16925060ff8316600884901c901b925087600116600014801561181a5750888181518110611807576118076152c4565b60200260200101516040015160ff166001145b156118825783851161182d576000611837565b6118378486615358565b94508161184964e8d4a510008661533b565b611853919061539a565b93508161186564e8d4a510008561533b565b61186f919061539a565b925061187b84876153d5565b9550611919565b8760011660011480156118b557508881815181106118a2576118a26152c4565b60200260200101516040015160ff166000145b15611919578386116118c85760006118d2565b6118d28487615358565b955064e8d4a510006118e4838661533b565b6118ee919061539a565b935064e8d4a51000611900838561533b565b61190a919061539a565b925061191684866153d5565b94505b611928846038600860006138d7565b9350611939836038600860006138d7565b925060c889828151811061194f5761194f6152c4565b602002602001015160a00151901b60b08a8381518110611971576119716152c4565b602002602001015160800151901b60a28b8481518110611993576119936152c4565b602002602001015160600151901b604186901b600188901b8d86815181106119bd576119bd6152c4565b60200260200101516040015160ff168d7ffffffffffc00000000000003fffffffe0000000000000000000000000000000016171717171717600860008b8481518110611a0b57611a0b6152c4565b60200260200101516000015173ffffffffffffffffffffffffffffffffffffffff1673ffffffffffffffffffffffffffffffffffffffff16815260200190815260200160002060008b8481518110611a6557611a656152c4565b60200260200101516020015173ffffffffffffffffffffffffffffffffffffffff1673ffffffffffffffffffffffffffffffffffffffff16815260200190815260200160002081905550611ac9603860086000896138d7909392919063ffffffff16565b9550611ada856038600860006138d7565b9450604085901b86887fffffffffffffffffffffffffffffffff00000000000000000000000000000000161717600760008b8481518110611b1d57611b1d6152c4565b60200260200101516020015173ffffffffffffffffffffffffffffffffffffffff1673ffffffffffffffffffffffffffffffffffffffff16815260200190815260200160002081905550611b7c898281518110611094576110946152c4565b50505b60010161119a565b507f614e3525ec8c152da9319cd9038950346a4a042d3c6810a7f3ffddc34347bdb0886040516110e09190615486565b33600090815260026020526040902054600190811614801590611c17575033611bfe7fb53127684a568b3173ae13b9f8a6016e243e63b6e8ee1178d6a717850b5d61035490565b73ffffffffffffffffffffffffffffffffffffffff1614155b15611c52576040517fdcab82e200000000000000000000000000000000000000000000000000000000815261271360048201526024016102e5565b8060008080805b84811015611fd857611c91878783818110611c7657611c766152c4565b611c8c92602060609092020190810191506150c1565b61384a565b60066000888884818110611ca757611ca76152c4565b611cbd92602060609092020190810191506150c1565b73ffffffffffffffffffffffffffffffffffffffff1673ffffffffffffffffffffffffffffffffffffffff16815260200190815260200160002054600003611d35576040517fdcab82e200000000000000000000000000000000000000000000000000000000815261271a60048201526024016102e5565b612710878783818110611d4a57611d4a6152c4565b905060600201602001351115611d90576040517fdcab82e200000000000000000000000000000000000000000000000000000000815261272260048201526024016102e5565b6101f4878783818110611da557611da56152c4565b905060600201604001351115611deb576040517fdcab82e200000000000000000000000000000000000000000000000000000000815261272360048201526024016102e5565b60056000888884818110611e0157611e016152c4565b611e1792602060609092020190810191506150c1565b73ffffffffffffffffffffffffffffffffffffffff1673ffffffffffffffffffffffffffffffffffffffff16815260200190815260200160002054935067ffffffffffffffff605b85901c16925067ffffffffffffffff609b85901c169150600083118015611e865750600082115b15611ef657611e9484613b42565b909350915067ffffffffffffffff831180611eb6575067ffffffffffffffff82115b15611ef1576040517fdcab82e200000000000000000000000000000000000000000000000000000000815261272860048201526024016102e5565b611f07565b64e8d4a51000925064e8d4a5100091505b609b82901b605b84901b42603a1b602c8a8a86818110611f2957611f296152c4565b90506060020160400135901b60108b8b87818110611f4957611f496152c4565b90506060020160200135901b887ffffffffff80000000000000000000000000000000000000000000fffc000ffff16171717171760056000898985818110611f9357611f936152c4565b611fa992602060609092020190810191506150c1565b73ffffffffffffffffffffffffffffffffffffffff168152602081019190915260400160002055600101611c59565b507f935dc52ba6fc3b924e07e0b50ec101774cee19dd16838ba0af3e0428abed3c86868660405161200a92919061550d565b60405180910390a1505050505050565b336120437fb53127684a568b3173ae13b9f8a6016e243e63b6e8ee1178d6a717850b5d61035490565b73ffffffffffffffffffffffffffffffffffffffff1614612094576040517fdcab82e200000000000000000000000000000000000000000000000000000000815261271260048201526024016102e5565b8060005b81811015612166576120d08484838181106120b5576120b56152c4565b6120cb92602060409092020190810191506150c1565b614128565b8383828181106120e2576120e26152c4565b90506040020160200160208101906120fa9190615589565b612105576000612108565b60015b60ff1660026000868685818110612121576121216152c4565b61213792602060409092020190810191506150c1565b73ffffffffffffffffffffffffffffffffffffffff168152602081019190915260400160002055600101612098565b507fb694cde8b4bf47e7f5845bb4374f98c5b29bbbaa5208ea679121cecb5d8fd3e083836040516121989291906155a6565b60405180910390a1505050565b336000908152600260205260409020546001908116148015906122055750336121ec7fb53127684a568b3173ae13b9f8a6016e243e63b6e8ee1178d6a717850b5d61035490565b73ffffffffffffffffffffffffffffffffffffffff1614155b15612240576040517fdcab82e200000000000000000000000000000000000000000000000000000000815261271360048201526024016102e5565b806000805b828110156123ca57612278858583818110612262576122626152c4565b611c8c92602060a09092020190810191506150c1565b6006600086868481811061228e5761228e6152c4565b6122a492602060a09092020190810191506150c1565b73ffffffffffffffffffffffffffffffffffffffff16815260208101919091526040016000205491508115612306576123038585838181106122e8576122e86152c4565b6122fe92602060a09092020190810191506150c1565b613a00565b50505b61233685858381811061231b5761231b6152c4565b905060a002018036038101906123319190615608565b614179565b6006600087878581811061234c5761234c6152c4565b61236292602060a09092020190810191506150c1565b73ffffffffffffffffffffffffffffffffffffffff16815260208101919091526040016000205581156123c2576123bf8585838181106123a4576123a46152c4565b6123ba92602060a09092020190810191506150c1565b613d94565b50505b600101612245565b507f1f953465aa7f3f2478d38b6c2a9cfcfbda846398254e278f614d586d527d902c84846040516123fc92919061567d565b60405180910390a150505050565b336124337fb53127684a568b3173ae13b9f8a6016e243e63b6e8ee1178d6a717850b5d61035490565b73ffffffffffffffffffffffffffffffffffffffff1614612484576040517fdcab82e200000000000000000000000000000000000000000000000000000000815261271260048201526024016102e5565b61248d81614128565b600080547fffffffffffffffffffffffff00000000000000000000000000000000000000001673ffffffffffffffffffffffffffffffffffffffff8316908117825560405190917fde3dd47a9a762713b4a9813a037ab6f57e36569d8b0ec4ddb285d8a61878b5b491a250565b3360009081526002602052604090205460019081161480159061255a5750336125417fb53127684a568b3173ae13b9f8a6016e243e63b6e8ee1178d6a717850b5d61035490565b73ffffffffffffffffffffffffffffffffffffffff1614155b15612595576040517fdcab82e200000000000000000000000000000000000000000000000000000000815261271360048201526024016102e5565b806000805b82811015612715576125cd8585838181106125b7576125b76152c4565b611c8c92602060e09092020190810191506150c1565b600660008686848181106125e3576125e36152c4565b6125f992602060e09092020190810191506150c1565b73ffffffffffffffffffffffffffffffffffffffff168152602081019190915260400160002054915081156126565761265385858381811061263d5761263d6152c4565b6122fe92602060e09092020190810191506150c1565b50505b61268685858381811061266b5761266b6152c4565b905060e0020180360381019061268191906156f2565b6142ee565b6006600087878581811061269c5761269c6152c4565b6126b292602060e09092020190810191506150c1565b73ffffffffffffffffffffffffffffffffffffffff168152602081019190915260400160002055811561270d5761270a8585838181106126f4576126f46152c4565b6123ba92602060e09092020190810191506150c1565b50505b60010161259a565b507ff96f9120f802331b6220bac68c2ab90cce6c8a8f9fed548d72dd092ad1899bf984846040516123fc92919061575d565b336127707fb53127684a568b3173ae13b9f8a6016e243e63b6e8ee1178d6a717850b5d61035490565b73ffffffffffffffffffffffffffffffffffffffff16146127c1576040517fdcab82e200000000000000000000000000000000000000000000000000000000815261271260048201526024016102e5565b8060005b81811015612878576127e28484838181106120b5576120b56152c4565b8383828181106127f4576127f46152c4565b905060400201602001602081019061280c9190615589565b61281757600061281a565b60015b60ff1660036000868685818110612833576128336152c4565b61284992602060409092020190810191506150c1565b73ffffffffffffffffffffffffffffffffffffffff1681526020810191909152604001600020556001016127c5565b507f530db3bf9b4b0c4f296fe1d9e21620b91db0a8bdcaca4cf1e6dc9844739405c183836040516121989291906155a6565b60005473ffffffffffffffffffffffffffffffffffffffff16806128fe576040517fdcab82e200000000000000000000000000000000000000000000000000000000815261271b60048201526024016102e5565b8160005b81811015612be55761293485858381811061291f5761291f6152c4565b9050602002016020810190611c8c91906150c1565b600073eeeeeeeeeeeeeeeeeeeeeeeeeeeeeeeeeeeeeeee86868481811061295d5761295d6152c4565b905060200201602081019061297291906150c1565b73ffffffffffffffffffffffffffffffffffffffff161490506000612b23600760008989878181106129a6576129a66152c4565b90506020020160208101906129bb91906150c1565b73ffffffffffffffffffffffffffffffffffffffff1673ffffffffffffffffffffffffffffffffffffffff16815260200190815260200160002054600560008a8a88818110612a0c57612a0c6152c4565b9050602002016020810190612a2191906150c1565b73ffffffffffffffffffffffffffffffffffffffff1673ffffffffffffffffffffffffffffffffffffffff1681526020019081526020016000205484612b1d57898987818110612a7357612a736152c4565b9050602002016020810190612a8891906150c1565b6040517f70a0823100000000000000000000000000000000000000000000000000000000815230600482015273ffffffffffffffffffffffffffffffffffffffff91909116906370a0823190602401602060405180830381865afa158015612af4573d6000803e3d6000fd5b505050506040513d601f19601f82011682018060405250810190612b1891906152f3565b6144f1565b476144f1565b90508015612b71578115612b4057612b3b858261455a565b612b71565b612b71878785818110612b5557612b556152c4565b9050602002016020810190612b6a91906150c1565b86836146b9565b80878785818110612b8457612b846152c4565b9050602002016020810190612b9991906150c1565b73ffffffffffffffffffffffffffffffffffffffff167f7ded56fbc1e1a41c85fd5fb3d0ce91eafc72414b7f06ed356c1d921823d4c37c60405160405180910390a35050600101612902565b5050505050565b33600090815260026020526040902054600190811614801590612c4c575033612c337fb53127684a568b3173ae13b9f8a6016e243e63b6e8ee1178d6a717850b5d61035490565b73ffffffffffffffffffffffffffffffffffffffff1614155b15612c87576040517fdcab82e200000000000000000000000000000000000000000000000000000000815261271360048201526024016102e5565b8060005b81811015612d8f576001848483818110612ca757612ca76152c4565b905060400201602001351115612ced576040517fdcab82e200000000000000000000000000000000000000000000000000000000815261271660048201526024016102e5565b612d18848483818110612d0257612d026152c4565b611c8c92602060409092020190810191506150c1565b838382818110612d2a57612d2a6152c4565b9050604002016020013560046000868685818110612d4a57612d4a6152c4565b612d6092602060409092020190810191506150c1565b73ffffffffffffffffffffffffffffffffffffffff168152602081019190915260400160002055600101612c8b565b507f9ccbc3483d75ae36da94213ac30ac0a047e1226ef3435d004cd501608e5b388b83836040516121989291906157e6565b33600090815260036020526040902054600190811614801590612e21575033612e087fb53127684a568b3173ae13b9f8a6016e243e63b6e8ee1178d6a717850b5d61035490565b73ffffffffffffffffffffffffffffffffffffffff1614155b15612e5c576040517fdcab82e200000000000000000000000000000000000000000000000000000000815261271460048201526024016102e5565b612e658561384a565b73ffffffffffffffffffffffffffffffffffffffff8516600090815260046020526040902054600103612ec8576040517fdcab82e200000000000000000000000000000000000000000000000000000000815261271760048201526024016102e5565b600083801561305a5760005b8181101561305857612ef187878381811061291f5761291f6152c4565b73ffffffffffffffffffffffffffffffffffffffff8816600090815260086020526040812090888884818110612f2957612f296152c4565b9050602002016020810190612f3e91906150c1565b73ffffffffffffffffffffffffffffffffffffffff1673ffffffffffffffffffffffffffffffffffffffff16815260200190815260200160002054925082600003612fb9576040517fdcab82e200000000000000000000000000000000000000000000000000000000815261271960048201526024016102e5565b73ffffffffffffffffffffffffffffffffffffffff881660009081526008602052604081207f8000000000000000000000000000000000000000000000000000000000000000851791898985818110613014576130146152c4565b905060200201602081019061302991906150c1565b73ffffffffffffffffffffffffffffffffffffffff168152602081019190915260400160002055600101612ed4565b505b508180156131eb5760005b818110156131e95761308285858381811061291f5761291f6152c4565b73ffffffffffffffffffffffffffffffffffffffff88166000908152600960205260408120908686848181106130ba576130ba6152c4565b90506020020160208101906130cf91906150c1565b73ffffffffffffffffffffffffffffffffffffffff1673ffffffffffffffffffffffffffffffffffffffff1681526020019081526020016000205492508260000361314a576040517fdcab82e200000000000000000000000000000000000000000000000000000000815261271960048201526024016102e5565b73ffffffffffffffffffffffffffffffffffffffff881660009081526009602052604081207f80000000000000000000000000000000000000000000000000000000000000008517918787858181106131a5576131a56152c4565b90506020020160208101906131ba91906150c1565b73ffffffffffffffffffffffffffffffffffffffff168152602081019190915260400160002055600101613065565b505b7f6686e5bb0cc56cbc9aa2b434eb18009891bf411d6d3f961fdfe70be336ca45288787878787604051613222959493929190615886565b60405180910390a150505050505050565b3360009081526002602052604090205460019081161480159061329357503361327a7fb53127684a568b3173ae13b9f8a6016e243e63b6e8ee1178d6a717850b5d61035490565b73ffffffffffffffffffffffffffffffffffffffff1614155b156132ce576040517fdcab82e200000000000000000000000000000000000000000000000000000000815261271360048201526024016102e5565b8015806132db5750600281115b15613316576040517fdcab82e200000000000000000000000000000000000000000000000000000000815261271660048201526024016102e5565b600181905560405181907fb33384c8a450936b9fba178db857f03fb9865a40d166aa2f9d439a9fdddfbe2290600090a250565b336000908152600360205260409020546001908116148015906133a95750336133907fb53127684a568b3173ae13b9f8a6016e243e63b6e8ee1178d6a717850b5d61035490565b73ffffffffffffffffffffffffffffffffffffffff1614155b156133e4576040517fdcab82e200000000000000000000000000000000000000000000000000000000815261271460048201526024016102e5565b6133ed8561384a565b600083801561356f5760005b8181101561356d5761341687878381811061291f5761291f6152c4565b73ffffffffffffffffffffffffffffffffffffffff881660009081526008602052604081209088888481811061344e5761344e6152c4565b905060200201602081019061346391906150c1565b73ffffffffffffffffffffffffffffffffffffffff1681526020810191909152604001600020549250600160ff84901c146134ce576040517fdcab82e200000000000000000000000000000000000000000000000000000000815261271860048201526024016102e5565b73ffffffffffffffffffffffffffffffffffffffff881660009081526008602052604081207f7fffffffffffffffffffffffffffffffffffffffffffffffffffffffffffffff851691898985818110613529576135296152c4565b905060200201602081019061353e91906150c1565b73ffffffffffffffffffffffffffffffffffffffff1681526020810191909152604001600020556001016133f9565b505b508180156136f05760005b818110156136ee5761359785858381811061291f5761291f6152c4565b73ffffffffffffffffffffffffffffffffffffffff88166000908152600960205260408120908686848181106135cf576135cf6152c4565b90506020020160208101906135e491906150c1565b73ffffffffffffffffffffffffffffffffffffffff1681526020810191909152604001600020549250600160ff84901c1461364f576040517fdcab82e200000000000000000000000000000000000000000000000000000000815261271860048201526024016102e5565b73ffffffffffffffffffffffffffffffffffffffff881660009081526009602052604081207f7fffffffffffffffffffffffffffffffffffffffffffffffffffffffffffffff8516918787858181106136aa576136aa6152c4565b90506020020160208101906136bf91906150c1565b73ffffffffffffffffffffffffffffffffffffffff16815260208101919091526040016000205560010161357a565b505b7facd30ef49b8fd1b51bbefff95071c5b0257180a7778c9c0fa4eb77a8842e290d8787878787604051613222959493929190615886565b606080828067ffffffffffffffff81111561374457613744614c4e565b60405190808252806020026020018201604052801561376d578160200160208202803683370190505b5092508067ffffffffffffffff81111561378957613789614c4e565b6040519080825280602002602001820160405280156137b2578160200160208202803683370190505b50915060005b81811015613841576137d586868381811061291f5761291f6152c4565b6137ff8686838181106137ea576137ea6152c4565b90506020020160208101906123ba91906150c1565b858381518110613811576138116152c4565b6020026020010185848151811061382a5761382a6152c4565b6020908102919091010191909152526001016137b8565b50509250929050565b73ffffffffffffffffffffffffffffffffffffffff81163b158015613899575073ffffffffffffffffffffffffffffffffffffffff811673eeeeeeeeeeeeeeeeeeeeeeeeeeeeeeeeeeeeeeee14155b156138d4576040517fdcab82e200000000000000000000000000000000000000000000000000000000815261272a60048201526024016102e5565b50565b600080856fffffffffffffffffffffffffffffffff8111156138fa5760809150811c5b67ffffffffffffffff811115613912576040918201911c5b63ffffffff811115613926576020918201911c5b61ffff811115613938576010918201911c5b60ff811115613949576008918201911c5b600f81111561395a576004918201911c5b600381111561396b576002918201911c5b600181111561397b576001820191505b8015613988576001820191505b50848110156139945750835b848103905085811c600082118416156139e357600181019050806001871b036139e357506001908101907fffffffffffffffffffffffffffffffffffffffffffffffffffffffffffffffff86011b5b6001851b82106139f257600080fd5b90931b909201949350505050565b73ffffffffffffffffffffffffffffffffffffffff81166000908152600560205260408120548190613a3181613b42565b909350915067ffffffffffffffff831180613a53575067ffffffffffffffff82115b15613a8e576040517fdcab82e200000000000000000000000000000000000000000000000000000000815261272860048201526024016102e5565b73ffffffffffffffffffffffffffffffffffffffff8416600081815260056020526040908190207ffffffffff80000000000000000000000000000000000000003ffffffffffffff841642603a1b17605b87901b17609b86901b17905551839185917f96c40bed7fc8d0ac41633a3bd47f254f0b0076e5df70975c51d23514bc49d3b890613b349061ffff871690601e88901c613fff1690918252602082015260400190565b60405180910390a450915091565b67ffffffffffffffff605b82901c811690609b83901c16811580613b64575080155b15613ba0576040517fd50d75120000000000000000000000000000000000000000000000000000000081526201117160048201526024016102e5565b61ffff8316603a84901c6401ffffffff16428181039160ea87901c617fff16911480613bca575082155b80613bd55750806001145b15613be257505050915091565b64496cebb80084840283020484019350617fff60db87901c16925082600103613c0d57505050915091565b82600116600103613c625760019290921c91826c7e37be2022c0914b268000000081613c3b57613c3b61536b565b049250612710601e87901c613fff166b033b2e3c9fd0803ce8000000850102049250613c8f565b60019290921c916305f5e100601e87901c613fff166127108501026b033b2e3c9fd0803ce8000000020492505b80600116600103613cc65760011c61271081016b033b2e3c9fd0803ce8000000820281613cbe57613cbe61536b565b049050613cfc565b60011c61271081016b033b2e3c9fd0803ce8000000820281613cea57613cea61536b565b046b033b2e3c9fd0803ce80000000390505b760a70c3c40a64e6c51999090b65f67d92400000000000008382026127100261ffff881691900402601087901c613fff16612710030292506801b5a660ea44b8000085840283020485019450505050915091565b6000827fffffffffffffffffffffffffffffffffffffffffffffffffffffffffffffffff0484118302158202613d8557600080fd5b50910281810615159190040190565b73ffffffffffffffffffffffffffffffffffffffff81166000908152600560205260408120548190613dc581613b42565b73ffffffffffffffffffffffffffffffffffffffff861660009081526007602052604081205492955090935064e8d4a51000613e1386600885901c66ffffffffffffff1660ff86161b61533b565b613e1d919061539a565b9050600064e8d4a51000613e4786608886901c66ffffffffffffff16608087901c60ff161b61533b565b613e51919061539a565b9050600066ffffffffffffff604885901c1660ff604086901c161b9050600060c885901c60ff60c087901c161b9050600080851180613e905750600083115b15613ec357613e9f83866153d5565b612710613eac84876153d5565b613eb6919061533b565b613ec0919061539a565b90505b82851115613eed57600185613eda6127108661533b565b613ee4919061539a565b901b9450613f2f565b82851015613f1a57600183613f046127108861533b565b613f0e919061539a565b901b6001179450613f2f565b8415613f2a57614e209450613f2f565b600094505b81841115613f5957600184613f466127108561533b565b613f50919061539a565b901b9350613f9b565b81841015613f8657600182613f706127108761533b565b613f7a919061539a565b901b6001179350613f9b565b8315613f9657614e209350613f9b565b600093505b73ffffffffffffffffffffffffffffffffffffffff8a16600090815260066020526040812054613fcb9083614746565b905067ffffffffffffffff8a1180613fea575067ffffffffffffffff89115b15614025576040517fdcab82e200000000000000000000000000000000000000000000000000000000815261272860048201526024016102e5565b613fff821115614065576040517fdcab82e200000000000000000000000000000000000000000000000000000000815261272960048201526024016102e5565b73ffffffffffffffffffffffffffffffffffffffff8b16600081815260056020526040908190207ffe000000000000000000000000000000000000000000000003fff0003fff00008b168417601e86901b1742603a1b17605b8e901b17609b8d901b1760db8a901b1760ea89901b179055518a918c917f96c40bed7fc8d0ac41633a3bd47f254f0b0076e5df70975c51d23514bc49d3b8906141139086908890918252602082015260400190565b60405180910390a45050505050505050915091565b73ffffffffffffffffffffffffffffffffffffffff81166138d4576040517fdcab82e200000000000000000000000000000000000000000000000000000000815261271160048201526024016102e5565b600061ffff826040015111156141bf576040517fdcab82e200000000000000000000000000000000000000000000000000000000815261271c60048201526024016102e5565b61ffff82606001511115614203576040517fdcab82e200000000000000000000000000000000000000000000000000000000815261271d60048201526024016102e5565b61ffff82608001511115614247576040517fdcab82e200000000000000000000000000000000000000000000000000000000815261271e60048201526024016102e5565b6020820151158061425e5750612710826020015110155b80614270575081606001518260400151115b80614282575081608001518260600151115b156142bd576040517fdcab82e200000000000000000000000000000000000000000000000000000000815261271660048201526024016102e5565b60348260800151901b60248360600151901b60148460200151901b60048560400151901b6001171717179050919050565b600061ffff82606001511115614334576040517fdcab82e200000000000000000000000000000000000000000000000000000000815261271c60048201526024016102e5565b61ffff82608001511115614378576040517fdcab82e200000000000000000000000000000000000000000000000000000000815261271f60048201526024016102e5565b61ffff8260a0015111156143bc576040517fdcab82e200000000000000000000000000000000000000000000000000000000815261272060048201526024016102e5565b61ffff8260c001511115614400576040517fdcab82e200000000000000000000000000000000000000000000000000000000815261272160048201526024016102e5565b602082015115806144175750612710826020015110155b8061442a57508160400151826020015110155b8061443b5750612710826040015110155b8061444d575081608001518260600151115b8061445f57508160a001518260800151115b8061447157508160c001518260a00151115b156144ac576040517fdcab82e200000000000000000000000000000000000000000000000000000000815261271660048201526024016102e5565b60548260c00151901b60448360a00151901b60348460400151901b60248560800151901b60148660200151901b60048760600151901b60021717171717179050919050565b60008060006144ff85613b42565b91509150600061450f87846147ef565b9050801561454c576145218783614842565b61452b90866153d5565b935080841161453b576000614545565b6145458185615358565b9350614550565b8493505b5050509392505050565b804710156145c4576040517f08c379a000000000000000000000000000000000000000000000000000000000815260206004820152601d60248201527f416464726573733a20696e73756666696369656e742062616c616e636500000060448201526064016102e5565b60008273ffffffffffffffffffffffffffffffffffffffff168260405160006040518083038185875af1925050503d806000811461461e576040519150601f19603f3d011682016040523d82523d6000602084013e614623565b606091505b50509050806146b4576040517f08c379a000000000000000000000000000000000000000000000000000000000815260206004820152603a60248201527f416464726573733a20756e61626c6520746f2073656e642076616c75652c207260448201527f6563697069656e74206d6179206861766520726576657274656400000000000060648201526084016102e5565b505050565b6040805173ffffffffffffffffffffffffffffffffffffffff8416602482015260448082018490528251808303909101815260649091019091526020810180517bffffffffffffffffffffffffffffffffffffffffffffffffffffffff167fa9059cbb000000000000000000000000000000000000000000000000000000001790526146b490849061487c565b6000600f831660018190036147665761475f8484614988565b91506147af565b806002036147785761475f8484614a35565b6040517fd50d75120000000000000000000000000000000000000000000000000000000081526201117260048201526024016102e5565b61ffff8211156147e85760405161ffff92507fe41708b2641eb1f7442f6a1e760ae5098fd7ba9f85e0c101513add0fbb27bcd790600090a15b5092915050565b66ffffffffffffff604883901c811660ff604085901c81169190911b91600885901c169084161b64e8d4a51000614826848361533b565b614830919061539a565b61483a90836153d5565b949350505050565b60c882901c60ff60c084901c81169190911b9066ffffffffffffff608885901c16608085901c9091161b64e8d4a51000614826848361533b565b60006148de826040518060400160405280602081526020017f5361666545524332303a206c6f772d6c6576656c2063616c6c206661696c65648152508573ffffffffffffffffffffffffffffffffffffffff16614add9092919063ffffffff16565b8051909150156146b457808060200190518101906148fc91906158d5565b6146b4576040517f08c379a000000000000000000000000000000000000000000000000000000000815260206004820152602a60248201527f5361666545524332303a204552433230206f7065726174696f6e20646964206e60448201527f6f7420737563636565640000000000000000000000000000000000000000000060648201526084016102e5565b600080808080601487901c61ffff16808710156149c15761ffff600489901c16945061ffff602489901c169350600092508091506149e0565b61ffff602489901c16945061ffff603489901c16935080925061271091505b60008084840364e8d4a5100088880302816149fd576149fd61536b565b04905084810264e8d4a51000880203915064e8d4a51000828a83020181614a2657614a2661536b565b049a9950505050505050505050565b600080808080601487901c61ffff1680871015614a6e5761ffff600489901c16945061ffff602489901c169350600092508091506149e0565b603488901c61ffff1680881015614aa05761ffff60248a901c16955061ffff60448a901c169450819350809250614abf565b61ffff60448a901c16955061ffff60548a901c16945080935061271092505b5060008084840364e8d4a5100088880302816149fd576149fd61536b565b606061483a8484600085856000808673ffffffffffffffffffffffffffffffffffffffff168587604051614b119190615916565b60006040518083038185875af1925050503d8060008114614b4e576040519150601f19603f3d011682016040523d82523d6000602084013e614b53565b606091505b5091509150614b6487838387614b6f565b979650505050505050565b60608315614c05578251600003614bfe5773ffffffffffffffffffffffffffffffffffffffff85163b614bfe576040517f08c379a000000000000000000000000000000000000000000000000000000000815260206004820152601d60248201527f416464726573733a2063616c6c20746f206e6f6e2d636f6e747261637400000060448201526064016102e5565b508161483a565b61483a8383815115614c1a5781518083602001fd5b806040517f08c379a00000000000000000000000000000000000000000000000000000000081526004016102e59190615932565b7f4e487b7100000000000000000000000000000000000000000000000000000000600052604160045260246000fd5b60405160e0810167ffffffffffffffff81118282101715614ca057614ca0614c4e565b60405290565b60405160c0810167ffffffffffffffff81118282101715614ca057614ca0614c4e565b604051601f82017fffffffffffffffffffffffffffffffffffffffffffffffffffffffffffffffe016810167ffffffffffffffff81118282101715614d1057614d10614c4e565b604052919050565b600067ffffffffffffffff821115614d3257614d32614c4e565b5060051b60200190565b803573ffffffffffffffffffffffffffffffffffffffff81168114614d6057600080fd5b919050565b803560ff81168114614d6057600080fd5b60006020808385031215614d8957600080fd5b823567ffffffffffffffff811115614da057600080fd5b8301601f81018513614db157600080fd5b8035614dc4614dbf82614d18565b614cc9565b81815260e09182028301840191848201919088841115614de357600080fd5b938501935b83851015614e6a5780858a031215614e005760008081fd5b614e08614c7d565b614e1186614d3c565b8152614e1e878701614d3c565b878201526040614e2f818801614d65565b90820152606086810135908201526080808701359082015260a0808701359082015260c0808701359082015283529384019391850191614de8565b50979650505050505050565b60006020808385031215614e8957600080fd5b823567ffffffffffffffff811115614ea057600080fd5b8301601f81018513614eb157600080fd5b8035614ebf614dbf82614d18565b81815260c09182028301840191848201919088841115614ede57600080fd5b938501935b83851015614e6a5780858a031215614efb5760008081fd5b614f03614ca6565b614f0c86614d3c565b8152614f19878701614d3c565b878201526040614f2a818801614d65565b90820152606086810135908201526080808701359082015260a0808701359082015283529384019391850191614ee3565b60008060208385031215614f6e57600080fd5b823567ffffffffffffffff80821115614f8657600080fd5b818501915085601f830112614f9a57600080fd5b813581811115614fa957600080fd5b866020606083028501011115614fbe57600080fd5b60209290920196919550909350505050565b60008083601f840112614fe257600080fd5b50813567ffffffffffffffff811115614ffa57600080fd5b6020830191508360208260061b850101111561501557600080fd5b9250929050565b6000806020838503121561502f57600080fd5b823567ffffffffffffffff81111561504657600080fd5b61505285828601614fd0565b90969095509350505050565b6000806020838503121561507157600080fd5b823567ffffffffffffffff8082111561508957600080fd5b818501915085601f83011261509d57600080fd5b8135818111156150ac57600080fd5b86602060a083028501011115614fbe57600080fd5b6000602082840312156150d357600080fd5b6150dc82614d3c565b9392505050565b600080602083850312156150f657600080fd5b823567ffffffffffffffff8082111561510e57600080fd5b818501915085601f83011261512257600080fd5b81358181111561513157600080fd5b86602060e083028501011115614fbe57600080fd5b60008083601f84011261515857600080fd5b50813567ffffffffffffffff81111561517057600080fd5b6020830191508360208260051b850101111561501557600080fd5b6000806020838503121561519e57600080fd5b823567ffffffffffffffff8111156151b557600080fd5b61505285828601615146565b6000806000806000606086880312156151d957600080fd5b6151e286614d3c565b9450602086013567ffffffffffffffff808211156151ff57600080fd5b61520b89838a01615146565b9096509450604088013591508082111561522457600080fd5b5061523188828901615146565b969995985093965092949392505050565b60006020828403121561525457600080fd5b5035919050565b600081518084526020808501945080840160005b8381101561528b5781518752958201959082019060010161526f565b509495945050505050565b6040815260006152a9604083018561525b565b82810360208401526152bb818561525b565b95945050505050565b7f4e487b7100000000000000000000000000000000000000000000000000000000600052603260045260246000fd5b60006020828403121561530557600080fd5b5051919050565b7f4e487b7100000000000000000000000000000000000000000000000000000000600052601160045260246000fd5b80820281158282048414176153525761535261530c565b92915050565b818103818111156153525761535261530c565b7f4e487b7100000000000000000000000000000000000000000000000000000000600052601260045260246000fd5b6000826153d0577f4e487b7100000000000000000000000000000000000000000000000000000000600052601260045260246000fd5b500490565b808201808211156153525761535261530c565b602080825282518282018190526000919060409081850190868401855b82811015615479578151805173ffffffffffffffffffffffffffffffffffffffff90811686528782015116878601528581015160ff1686860152606080820151908601526080808201519086015260a0808201519086015260c0908101519085015260e09093019290850190600101615405565b5091979650505050505050565b602080825282518282018190526000919060409081850190868401855b82811015615479578151805173ffffffffffffffffffffffffffffffffffffffff90811686528782015116878601528581015160ff1686860152606080820151908601526080808201519086015260a0908101519085015260c090930192908501906001016154a3565b6020808252818101839052600090604080840186845b8781101561556e5773ffffffffffffffffffffffffffffffffffffffff61554983614d3c565b1683528185013585840152838201358484015260609283019290910190600101615523565b5090979650505050505050565b80151581146138d457600080fd5b60006020828403121561559b57600080fd5b81356150dc8161557b565b6020808252818101839052600090604080840186845b8781101561556e5773ffffffffffffffffffffffffffffffffffffffff6155e283614d3c565b168352848201356155f28161557b565b15158386015291830191908301906001016155bc565b600060a0828403121561561a57600080fd5b60405160a0810181811067ffffffffffffffff8211171561563d5761563d614c4e565b60405261564983614d3c565b8152602083013560208201526040830135604082015260608301356060820152608083013560808201528091505092915050565b6020808252818101839052600090604080840186845b8781101561556e5773ffffffffffffffffffffffffffffffffffffffff6156b983614d3c565b16835281850135858401528382013584840152606080830135908401526080808301359084015260a09283019290910190600101615693565b600060e0828403121561570457600080fd5b61570c614c7d565b61571583614d3c565b81526020830135602082015260408301356040820152606083013560608201526080830135608082015260a083013560a082015260c083013560c08201528091505092915050565b6020808252818101839052600090604080840186845b8781101561556e5773ffffffffffffffffffffffffffffffffffffffff61579983614d3c565b16835281850135858401528382013584840152606080830135908401526080808301359084015260a0808301359084015260c0808301359084015260e09283019290910190600101615773565b6020808252818101839052600090604080840186845b8781101561556e5773ffffffffffffffffffffffffffffffffffffffff61582283614d3c565b168352818501358584015291830191908301906001016157fc565b8183526000602080850194508260005b8581101561528b5773ffffffffffffffffffffffffffffffffffffffff61587383614d3c565b168752958201959082019060010161584d565b73ffffffffffffffffffffffffffffffffffffffff861681526060602082015260006158b660608301868861583d565b82810360408401526158c981858761583d565b98975050505050505050565b6000602082840312156158e757600080fd5b81516150dc8161557b565b60005b8381101561590d5781810151838201526020016158f5565b50506000910152565b600082516159288184602087016158f2565b9190910192915050565b60208152600082518060208401526159518160408501602087016158f2565b601f017fffffffffffffffffffffffffffffffffffffffffffffffffffffffffffffffe016919091016040019291505056fea26469706673582212204b9483211a75d01652fbdd1854aaf648e5669f3b41477a1b830bf12dc631f50c64736f6c63430008150033",
  "devdoc": {
    "kind": "dev",
    "methods": {
      "changeStatus(uint256)": {
        "params": {
          "newStatus_": "new status        status = 2 -> pause, status = 1 -> resume."
        }
      },
      "collectRevenue(address[])": {
        "params": {
          "tokens_": "array of tokens to collect revenue for"
        }
      },
      "pauseUser(address,address[],address[])": {
        "params": {
          "borrowTokens_": "token addresses to pause borrowings for",
          "supplyTokens_": "token addresses to pause withdrawals for",
          "user_": "address of user to pause operations for"
        }
      },
      "unpauseUser(address,address[],address[])": {
        "params": {
          "borrowTokens_": "token addresses to unpause borrowings for",
          "supplyTokens_": "token addresses to unpause withdrawals for",
          "user_": "address of user to unpause operations for"
        }
      },
      "updateAuths((address,bool)[])": {
        "params": {
          "authsStatus_": "array of structs setting allowed status for an address.                     status true => add auth, false => remove auth"
        }
      },
      "updateExchangePrices(address[])": {
        "params": {
          "tokens_": "tokens to update exchange prices for"
        },
        "returns": {
          "borrowExchangePrices_": "new borrow rates of overall system for each token",
          "supplyExchangePrices_": "new supply rates of overall system for each token"
        }
      },
      "updateGuardians((address,bool)[])": {
        "params": {
          "guardiansStatus_": "array of structs setting allowed status for an address.                         status true => add guardian, false => remove guardian"
        }
      },
      "updateRateDataV1s((address,uint256,uint256,uint256,uint256)[])": {
        "params": {
          "tokensRateData_": "array of RateDataV1Params with rate data to set for each token"
        }
      },
      "updateRateDataV2s((address,uint256,uint256,uint256,uint256,uint256,uint256)[])": {
        "params": {
          "tokensRateData_": "array of RateDataV2Params with rate data to set for each token"
        }
      },
      "updateRevenueCollector(address)": {
        "params": {
          "revenueCollector_": "new revenue collector address"
        }
      },
      "updateTokenConfigs((address,uint256,uint256)[])": {
        "params": {
          "tokenConfigs_": "contains token address, fee & utilization threshold"
        }
      },
      "updateUserBorrowConfigs((address,address,uint8,uint256,uint256,uint256,uint256)[])": {
        "params": {
          "userBorrowConfigs_": "struct array containing user borrow config, see `UserBorrowConfig` struct for more info"
        }
      },
      "updateUserClasses((address,uint256)[])": {
        "params": {
          "userClasses_": "struct array of uint256 value to assign for each user address"
        }
      },
      "updateUserSupplyConfigs((address,address,uint8,uint256,uint256,uint256)[])": {
        "params": {
          "userSupplyConfigs_": "struct array containing user supply config, see `UserSupplyConfig` struct for more info"
        }
      }
    },
    "title": "Fluid Liquidity AdminModule",
    "version": 1
  },
  "userdoc": {
    "events": {
      "BorrowRateMaxCap()": {
        "notice": "emitted if the calculated borrow rate surpassed max borrow rate (16 bits) and was capped at maximum value 65535"
      },
      "LogChangeStatus(uint256)": {
        "notice": "emitted when status is changed (paused / unpaused)"
      },
      "LogCollectRevenue(address,uint256)": {
        "notice": "emitted when revenue is collected"
      },
      "LogPauseUser(address,address[],address[])": {
        "notice": "emitted when a user gets certain tokens paused"
      },
      "LogUnpauseUser(address,address[],address[])": {
        "notice": "emitted when a user gets certain tokens unpaused"
      },
      "LogUpdateAuths((address,bool)[])": {
        "notice": "emitted when allowed auths are updated"
      },
      "LogUpdateExchangePrices(address,uint256,uint256,uint256,uint256)": {
        "notice": "emitted when exchange prices and borrow rate are updated"
      },
      "LogUpdateGuardians((address,bool)[])": {
        "notice": "emitted when allowed guardians are updated"
      },
      "LogUpdateRateDataV1s((address,uint256,uint256,uint256,uint256)[])": {
        "notice": "emitted when token rate data is updated with rate data v1"
      },
      "LogUpdateRateDataV2s((address,uint256,uint256,uint256,uint256,uint256,uint256)[])": {
        "notice": "emitted when token rate data is updated with rate data v2"
      },
      "LogUpdateRevenueCollector(address)": {
        "notice": "emitted when revenue collector address is updated"
      },
      "LogUpdateTokenConfigs((address,uint256,uint256)[])": {
        "notice": "emitted when token configs are updated"
      },
      "LogUpdateUserBorrowConfigs((address,address,uint8,uint256,uint256,uint256,uint256)[])": {
        "notice": "emitted when user borrow configs are updated"
      },
      "LogUpdateUserClasses((address,uint256)[])": {
        "notice": "emitted when user classes are updated"
      },
      "LogUpdateUserSupplyConfigs((address,address,uint8,uint256,uint256,uint256)[])": {
        "notice": "emitted when user supply configs are updated"
      }
    },
    "kind": "user",
    "methods": {
      "changeStatus(uint256)": {
        "notice": "changes current status, e.g. for pausing or unpausing all user operations. Only callable by Auths."
      },
      "collectRevenue(address[])": {
        "notice": "collects revenue for tokens to configured revenueCollector address."
      },
      "pauseUser(address,address[],address[])": {
        "notice": "pause operations for a particular user in class 0 (class 1 users can't be paused by guardians). Only callable by Guardians."
      },
      "unpauseUser(address,address[],address[])": {
        "notice": "unpause operations for a particular user in class 0 (class 1 users can't be paused by guardians). Only callable by Guardians."
      },
      "updateAuths((address,bool)[])": {
        "notice": "adds/removes auths. Auths generally could be contracts which can have restricted actions defined on contract.         auths can be helpful in reducing governance overhead where it's not needed."
      },
      "updateExchangePrices(address[])": {
        "notice": "gets the current updated exchange prices for n tokens and updates all prices, rates related data in storage."
      },
      "updateGuardians((address,bool)[])": {
        "notice": "adds/removes guardians. Only callable by Governance."
      },
      "updateRateDataV1s((address,uint256,uint256,uint256,uint256)[])": {
        "notice": "update tokens rate data version 1. Only callable by Auths."
      },
      "updateRateDataV2s((address,uint256,uint256,uint256,uint256,uint256,uint256)[])": {
        "notice": "update tokens rate data version 2. Only callable by Auths."
      },
      "updateRevenueCollector(address)": {
        "notice": "changes the revenue collector address (contract that is sent revenue). Only callable by Governance."
      },
      "updateTokenConfigs((address,uint256,uint256)[])": {
        "notice": "updates token configs: fee charge on borrowers interest & storage update utilization threshold.         Only callable by Auths."
      },
      "updateUserBorrowConfigs((address,address,uint8,uint256,uint256,uint256,uint256)[])": {
        "notice": "setting user borrow configs per token basis. Eg: with interest or interest-free and automated limits.         Only callable by Auths."
      },
      "updateUserClasses((address,uint256)[])": {
        "notice": "updates user classes: 0 is for new protocols, 1 is for established protocols.         Only callable by Auths."
      },
      "updateUserSupplyConfigs((address,address,uint8,uint256,uint256,uint256)[])": {
        "notice": "sets user supply configs per token basis. Eg: with interest or interest-free and automated limits.         Only callable by Auths."
      }
    },
    "notice": "Fluid Liquidity auth protected methods to configure things such as: guardians, auths, governance, revenue, token configs, allowances etc. Accessibility of methods is restricted to Governance, Auths or Guardians. Governance is Auth & Governance by default",
    "version": 1
  },
  "storageLayout": {
    "storage": [
      {
        "astId": 11902,
        "contract": "contracts/liquidity/adminModule/main.sol:AdminModule",
        "label": "_revenueCollector",
        "offset": 0,
        "slot": "0",
        "type": "t_address"
      },
      {
        "astId": 11905,
        "contract": "contracts/liquidity/adminModule/main.sol:AdminModule",
        "label": "_status",
        "offset": 0,
        "slot": "1",
        "type": "t_uint256"
      },
      {
        "astId": 11910,
        "contract": "contracts/liquidity/adminModule/main.sol:AdminModule",
        "label": "_isAuth",
        "offset": 0,
        "slot": "2",
        "type": "t_mapping(t_address,t_uint256)"
      },
      {
        "astId": 11915,
        "contract": "contracts/liquidity/adminModule/main.sol:AdminModule",
        "label": "_isGuardian",
        "offset": 0,
        "slot": "3",
        "type": "t_mapping(t_address,t_uint256)"
      },
      {
        "astId": 11920,
        "contract": "contracts/liquidity/adminModule/main.sol:AdminModule",
        "label": "_userClass",
        "offset": 0,
        "slot": "4",
        "type": "t_mapping(t_address,t_uint256)"
      },
      {
        "astId": 11925,
        "contract": "contracts/liquidity/adminModule/main.sol:AdminModule",
        "label": "_exchangePricesAndConfig",
        "offset": 0,
        "slot": "5",
        "type": "t_mapping(t_address,t_uint256)"
      },
      {
        "astId": 11930,
        "contract": "contracts/liquidity/adminModule/main.sol:AdminModule",
        "label": "_rateData",
        "offset": 0,
        "slot": "6",
        "type": "t_mapping(t_address,t_uint256)"
      },
      {
        "astId": 11935,
        "contract": "contracts/liquidity/adminModule/main.sol:AdminModule",
        "label": "_totalAmounts",
        "offset": 0,
        "slot": "7",
        "type": "t_mapping(t_address,t_uint256)"
      },
      {
        "astId": 11942,
        "contract": "contracts/liquidity/adminModule/main.sol:AdminModule",
        "label": "_userSupplyData",
        "offset": 0,
        "slot": "8",
        "type": "t_mapping(t_address,t_mapping(t_address,t_uint256))"
      },
      {
        "astId": 11949,
        "contract": "contracts/liquidity/adminModule/main.sol:AdminModule",
        "label": "_userBorrowData",
        "offset": 0,
        "slot": "9",
        "type": "t_mapping(t_address,t_mapping(t_address,t_uint256))"
      }
    ],
    "types": {
      "t_address": {
        "encoding": "inplace",
        "label": "address",
        "numberOfBytes": "20"
      },
      "t_mapping(t_address,t_mapping(t_address,t_uint256))": {
        "encoding": "mapping",
        "key": "t_address",
        "label": "mapping(address => mapping(address => uint256))",
        "numberOfBytes": "32",
        "value": "t_mapping(t_address,t_uint256)"
      },
      "t_mapping(t_address,t_uint256)": {
        "encoding": "mapping",
        "key": "t_address",
        "label": "mapping(address => uint256)",
        "numberOfBytes": "32",
        "value": "t_uint256"
      },
      "t_uint256": {
        "encoding": "inplace",
        "label": "uint256",
        "numberOfBytes": "32"
      }
    }
  }
}