{
  "address": "0x52bfA1AcA98c7D4F08C25915e88e34abE937A698",
  "abi": [
    {
      "inputs": [
        {
          "internalType": "uint8",
          "name": "mainSource_",
          "type": "uint8"
        },
        {
          "components": [
            {
              "internalType": "uint8",
              "name": "hops",
              "type": "uint8"
            },
            {
              "components": [
                {
                  "internalType": "contract IChainlinkAggregatorV3",
                  "name": "feed",
                  "type": "address"
                },
                {
                  "internalType": "bool",
                  "name": "invertRate",
                  "type": "bool"
                },
                {
                  "internalType": "uint256",
                  "name": "token0Decimals",
                  "type": "uint256"
                }
              ],
              "internalType": "struct ChainlinkOracleImpl.ChainlinkFeedData",
              "name": "feed1",
              "type": "tuple"
            },
            {
              "components": [
                {
                  "internalType": "contract IChainlinkAggregatorV3",
                  "name": "feed",
                  "type": "address"
                },
                {
                  "internalType": "bool",
                  "name": "invertRate",
                  "type": "bool"
                },
                {
                  "internalType": "uint256",
                  "name": "token0Decimals",
                  "type": "uint256"
                }
              ],
              "internalType": "struct ChainlinkOracleImpl.ChainlinkFeedData",
              "name": "feed2",
              "type": "tuple"
            },
            {
              "components": [
                {
                  "internalType": "contract IChainlinkAggregatorV3",
                  "name": "feed",
                  "type": "address"
                },
                {
                  "internalType": "bool",
                  "name": "invertRate",
                  "type": "bool"
                },
                {
                  "internalType": "uint256",
                  "name": "token0Decimals",
                  "type": "uint256"
                }
              ],
              "internalType": "struct ChainlinkOracleImpl.ChainlinkFeedData",
              "name": "feed3",
              "type": "tuple"
            }
          ],
          "internalType": "struct ChainlinkOracleImpl.ChainlinkConstructorParams",
          "name": "chainlinkParams_",
          "type": "tuple"
        },
        {
          "components": [
            {
              "internalType": "contract IRedstoneOracle",
              "name": "oracle",
              "type": "address"
            },
            {
              "internalType": "bool",
              "name": "invertRate",
              "type": "bool"
            },
            {
              "internalType": "uint256",
              "name": "token0Decimals",
              "type": "uint256"
            }
          ],
          "internalType": "struct RedstoneOracleImpl.RedstoneOracleData",
          "name": "redstoneOracle_",
          "type": "tuple"
        }
      ],
      "stateMutability": "nonpayable",
      "type": "constructor"
    },
    {
      "inputs": [
        {
          "internalType": "uint256",
          "name": "errorId_",
          "type": "uint256"
        }
      ],
      "name": "FluidOracleError",
      "type": "error"
    },
    {
      "inputs": [],
      "name": "FALLBACK_ORACLE_MAIN_SOURCE",
      "outputs": [
        {
          "internalType": "uint8",
          "name": "",
          "type": "uint8"
        }
      ],
      "stateMutability": "view",
      "type": "function"
    },
    {
      "inputs": [],
      "name": "chainlinkOracleData",
      "outputs": [
        {
          "internalType": "uint256",
          "name": "chainlinkExchangeRate_",
          "type": "uint256"
        },
        {
          "internalType": "contract IChainlinkAggregatorV3",
          "name": "chainlinkFeed1_",
          "type": "address"
        },
        {
          "internalType": "bool",
          "name": "chainlinkInvertRate1_",
          "type": "bool"
        },
        {
          "internalType": "uint256",
          "name": "chainlinkExchangeRate1_",
          "type": "uint256"
        },
        {
          "internalType": "contract IChainlinkAggregatorV3",
          "name": "chainlinkFeed2_",
          "type": "address"
        },
        {
          "internalType": "bool",
          "name": "chainlinkInvertRate2_",
          "type": "bool"
        },
        {
          "internalType": "uint256",
          "name": "chainlinkExchangeRate2_",
          "type": "uint256"
        },
        {
          "internalType": "contract IChainlinkAggregatorV3",
          "name": "chainlinkFeed3_",
          "type": "address"
        },
        {
          "internalType": "bool",
          "name": "chainlinkInvertRate3_",
          "type": "bool"
        },
        {
          "internalType": "uint256",
          "name": "chainlinkExchangeRate3_",
          "type": "uint256"
        }
      ],
      "stateMutability": "view",
      "type": "function"
    },
    {
      "inputs": [],
      "name": "getExchangeRate",
      "outputs": [
        {
          "internalType": "uint256",
          "name": "exchangeRate_",
          "type": "uint256"
        }
      ],
      "stateMutability": "view",
      "type": "function"
    },
    {
      "inputs": [],
      "name": "redstoneOracleData",
      "outputs": [
        {
          "internalType": "uint256",
          "name": "redstoneExchangeRate_",
          "type": "uint256"
        },
        {
          "internalType": "contract IRedstoneOracle",
          "name": "redstoneOracle_",
          "type": "address"
        },
        {
          "internalType": "bool",
          "name": "redstoneInvertRate_",
          "type": "bool"
        }
      ],
      "stateMutability": "view",
      "type": "function"
    }
  ],
  "transactionHash": "0xe8a2e325fe35a1c7f6a33480c42f2fd4ffc10f49ea219b3486d2c55cda5cebd0",
  "args": [
    1,
    {
      "hops": 1,
      "feed1": {
        "feed": "0x986b5e1e1755e3c2440e960477f25201b0a8bbd4",
        "invertRate": true,
        "token0Decimals": 6
      },
      "feed2": {
        "feed": "0x0000000000000000000000000000000000000000",
        "invertRate": false,
        "token0Decimals": 0
      },
      "feed3": {
        "feed": "0x0000000000000000000000000000000000000000",
        "invertRate": false,
        "token0Decimals": 0
      }
    },
    {
      "oracle": "0x0000000000000000000000000000000000000000",
      "invertRate": false,
      "token0Decimals": 0
    }
  ],
  "numDeployments": 1,
  "solcInputHash": "a6aa1ee25f49d296a5af1b7359ecde08",
  "bytecode": "0x6102c060405261dead610100523480156200001957600080fd5b5060405162001538380380620015388339810160408190526200003c916200051f565b805183908390839082906001600160a01b0316156200005c578162000088565b6040518060600160405280610100516001600160a01b0316815260200160001515815260200160018152505b80516001600160a01b03161580620000a257506040810151155b15620000ca5760405163c82fc46560e01b815261fa0160048201526024015b60405180910390fd5b80516001600160a01b039081166080526020820151151560a0526101005182518216911614620001195760408101516200010690601b62000624565b6200011390600a6200073d565b6200011c565b60015b60c0526101005181516001600160a01b039081169116146200015d5760408101516200014a90601b62000752565b6200015790600a6200073d565b62000160565b60015b60e052508051600160ff90911610806200018157506003816000015160ff16115b80620001aa57506020810151516001600160a01b03161580620001aa5750602081015160400151155b80620001e557506001816000015160ff16118015620001e557506040810151516001600160a01b03161580620001e557506040808201510151155b806200022157506002816000015160ff161180156200022157506060810151516001600160a01b03161580620002215750606081015160400151155b15620002455760405163c82fc46560e01b815261ee496004820152602401620000c1565b60208082018051516001600160a01b03908116610120526040808501805151831661014052606086018051519093166101605283518501511515610180525184015115156101a05290519092015115156101c052510151620002a990601b62000624565b620002b690600a6200073d565b6101e052602081015160400151620002d090601b62000752565b620002dd90600a6200073d565b610200528051600160ff90911611620002f85760016200031a565b60408082015101516200030d90601b62000624565b6200031a90600a6200073d565b610220528051600160ff909116116200033557600162000357565b60408082015101516200034a90601b62000752565b6200035790600a6200073d565b610240528051600260ff909116116200037257600162000395565b6060810151604001516200038890601b62000624565b6200039590600a6200073d565b610260528051600260ff90911611620003b0576001620003d3565b606081015160400151620003c690601b62000752565b620003d390600a6200073d565b6102805250600160ff84161080620003ee575060038360ff16115b15620004125760405163c82fc46560e01b815261fde96004820152602401620000c1565b505060ff166102a0525062000768915050565b805160ff811681146200043757600080fd5b919050565b604051606081016001600160401b03811182821017156200046d57634e487b7160e01b600052604160045260246000fd5b60405290565b604051608081016001600160401b03811182821017156200046d57634e487b7160e01b600052604160045260246000fd5b6001600160a01b0381168114620004ba57600080fd5b50565b805180151581146200043757600080fd5b600060608284031215620004e157600080fd5b620004eb6200043c565b90508151620004fa81620004a4565b81526200050a60208301620004bd565b60208201526040820151604082015292915050565b60008060008385036101c08112156200053757600080fd5b620005428562000425565b9350610140601f19820112156200055857600080fd5b6200056262000473565b620005706020870162000425565b8152620005818760408801620004ce565b6020820152620005958760a08801620004ce565b6040820152620005aa876101008801620004ce565b606082015280935050606061015f1982011215620005c757600080fd5b50620005d26200043c565b610160850151620005e381620004a4565b8152620005f46101808601620004bd565b60208201526101a094909401516040850152509093909250565b634e487b7160e01b600052601160045260246000fd5b818103818111156200063a576200063a6200060e565b92915050565b600181815b80851115620006815781600019048211156200066557620006656200060e565b808516156200067357918102915b93841c939080029062000645565b509250929050565b6000826200069a575060016200063a565b81620006a9575060006200063a565b8160018114620006c25760028114620006cd57620006ed565b60019150506200063a565b60ff841115620006e157620006e16200060e565b50506001821b6200063a565b5060208310610133831016604e8410600b841016171562000712575081810a6200063a565b6200071e838362000640565b80600019048211156200073557620007356200060e565b029392505050565b60006200074b838362000689565b9392505050565b808201808211156200063a576200063a6200060e565b60805160a05160c05160e05161010051610120516101405161016051610180516101a0516101c0516101e05161020051610220516102405161026051610280516102a051610c58620008e06000396000818160580152818161095401526109870152600081816103e701526107210152600081816103c601526107000152600081816102f5015261062a0152600081816102d4015261060901526000818161020b01526105470152600081816101ea0152610526015260008181610344015281816103a501526106df015260008181610252015281816102b301526105e8015260008181610184015281816101c90152610505015260008181610323015281816103840152818161066e01526106be015260008181610231015281816102920152818161057701526105c7015260008181610163015281816101a801526104e401526000505060006108fc0152600061092b01526000818161046601526108d201526000818161044301526108230152610c586000f3fe608060405234801561001057600080fd5b506004361061004c5760003560e01c80633437eac4146100515780637557ca411461008757806388c35209146100fa578063e6aa216c14610134575b600080fd5b60405160ff7f00000000000000000000000000000000000000000000000000000000000000001681526020015b60405180910390f35b61008f61014a565b604080519a8b5273ffffffffffffffffffffffffffffffffffffffff998a1660208c0152971515978a01979097526060890195909552928616608088015290151560a087015260c086015290921660e08401529015156101008301526101208201526101400161007e565b610102610433565b6040805193845273ffffffffffffffffffffffffffffffffffffffff909216602084015215159082015260600161007e565b61013c61048b565b60405190815260200161007e565b6000806000806000806000806000806101616104dd565b7f00000000000000000000000000000000000000000000000000000000000000007f000000000000000000000000000000000000000000000000000000000000000061022f7f00000000000000000000000000000000000000000000000000000000000000007f00000000000000000000000000000000000000000000000000000000000000007f00000000000000000000000000000000000000000000000000000000000000007f000000000000000000000000000000000000000000000000000000000000000061075e565b7f00000000000000000000000000000000000000000000000000000000000000007f000000000000000000000000000000000000000000000000000000000000000073ffffffffffffffffffffffffffffffffffffffff82161561031e576103197f00000000000000000000000000000000000000000000000000000000000000007f00000000000000000000000000000000000000000000000000000000000000007f00000000000000000000000000000000000000000000000000000000000000007f000000000000000000000000000000000000000000000000000000000000000061075e565b610321565b60005b7f00000000000000000000000000000000000000000000000000000000000000007f000000000000000000000000000000000000000000000000000000000000000073ffffffffffffffffffffffffffffffffffffffff8216156104105761040b7f00000000000000000000000000000000000000000000000000000000000000007f00000000000000000000000000000000000000000000000000000000000000007f00000000000000000000000000000000000000000000000000000000000000007f000000000000000000000000000000000000000000000000000000000000000061075e565b610413565b60005b995099509950995099509950995099509950995090919293949596979899565b600080600061044061081f565b937f000000000000000000000000000000000000000000000000000000000000000093507f000000000000000000000000000000000000000000000000000000000000000092509050565b6000610495610950565b9050806000036104da576040517fc82fc465000000000000000000000000000000000000000000000000000000008152620101d1600482015260240160405180910390fd5b90565b600061056b7f00000000000000000000000000000000000000000000000000000000000000007f00000000000000000000000000000000000000000000000000000000000000007f00000000000000000000000000000000000000000000000000000000000000007f000000000000000000000000000000000000000000000000000000000000000061075e565b90508015806105ae57507f000000000000000000000000000000000000000000000000000000000000000073ffffffffffffffffffffffffffffffffffffffff16155b156105b65790565b6105c2601b600a610b35565b61064e7f00000000000000000000000000000000000000000000000000000000000000007f00000000000000000000000000000000000000000000000000000000000000007f00000000000000000000000000000000000000000000000000000000000000007f000000000000000000000000000000000000000000000000000000000000000061075e565b6106589083610b48565b6106629190610b5f565b90508015806106a557507f000000000000000000000000000000000000000000000000000000000000000073ffffffffffffffffffffffffffffffffffffffff16155b156106ad5790565b6106b9601b600a610b35565b6107457f00000000000000000000000000000000000000000000000000000000000000007f00000000000000000000000000000000000000000000000000000000000000007f00000000000000000000000000000000000000000000000000000000000000007f000000000000000000000000000000000000000000000000000000000000000061075e565b61074f9083610b48565b6107599190610b5f565b905090565b60008473ffffffffffffffffffffffffffffffffffffffff1663feaf968c6040518163ffffffff1660e01b815260040160a060405180830381865afa9250505080156107e5575060408051601f3d9081017fffffffffffffffffffffffffffffffffffffffffffffffffffffffffffffffe01682019092526107e291810190610bb9565b60015b6107f157506000610817565b881561080d576108018488610b5f565b95505050505050610817565b6108018885610b48565b949350505050565b60007f000000000000000000000000000000000000000000000000000000000000000073ffffffffffffffffffffffffffffffffffffffff1663e6aa216c6040518163ffffffff1660e01b8152600401602060405180830381865afa9250505080156108c6575060408051601f3d9081017fffffffffffffffffffffffffffffffffffffffffffffffffffffffffffffffe01682019092526108c391810190610c09565b60015b6108d05750600090565b7f00000000000000000000000000000000000000000000000000000000000000001561092657610920817f0000000000000000000000000000000000000000000000000000000000000000610b5f565b91505090565b6109207f000000000000000000000000000000000000000000000000000000000000000082610b48565b60007f000000000000000000000000000000000000000000000000000000000000000060ff16600103610985576107596104dd565b7f000000000000000000000000000000000000000000000000000000000000000060ff166002036109ca576109b86104dd565b9050806000036104da5761075961081f565b6109d261081f565b9050806000036104da576107596104dd565b7f4e487b7100000000000000000000000000000000000000000000000000000000600052601160045260246000fd5b600181815b80851115610a6c57817fffffffffffffffffffffffffffffffffffffffffffffffffffffffffffffffff04821115610a5257610a526109e4565b80851615610a5f57918102915b93841c9390800290610a18565b509250929050565b600082610a8357506001610b2f565b81610a9057506000610b2f565b8160018114610aa65760028114610ab057610acc565b6001915050610b2f565b60ff841115610ac157610ac16109e4565b50506001821b610b2f565b5060208310610133831016604e8410600b8410161715610aef575081810a610b2f565b610af98383610a13565b807fffffffffffffffffffffffffffffffffffffffffffffffffffffffffffffffff04821115610b2b57610b2b6109e4565b0290505b92915050565b6000610b418383610a74565b9392505050565b8082028115828204841417610b2f57610b2f6109e4565b600082610b95577f4e487b7100000000000000000000000000000000000000000000000000000000600052601260045260246000fd5b500490565b805169ffffffffffffffffffff81168114610bb457600080fd5b919050565b600080600080600060a08688031215610bd157600080fd5b610bda86610b9a565b9450602086015193506040860151925060608601519150610bfd60808701610b9a565b90509295509295909350565b600060208284031215610c1b57600080fd5b505191905056fea26469706673582212206d13ecf43d351468b1ea6f1151fbc22724aaba5f43d73f52ea5e63f31da2201764736f6c63430008150033",
  "devdoc": {
    "kind": "dev",
    "methods": {
      "constructor": {
        "params": {
          "chainlinkParams_": "chainlink Oracle constructor params struct.",
          "mainSource_": "which oracle to use as main source: 1 = Chainlink, 2 = Redstone (other one is fallback).",
          "redstoneOracle_": "Redstone Oracle data. (address can be set to zero address if using Chainlink only)"
        }
      }
    },
    "title": "Chainlink / Redstone Oracle (with fallback)",
    "version": 1
  },
  "userdoc": {
    "kind": "user",
    "methods": {
      "FALLBACK_ORACLE_MAIN_SOURCE()": {
        "notice": "which oracle to use as main source: 1 = Chainlink, 2 = Redstone (other one is fallback)."
      },
      "chainlinkOracleData()": {
        "notice": "returns all Chainlink oracle related data as utility for easy off-chain use / block explorer in a single view method"
      },
      "constructor": {
        "notice": "sets the main source, Chainlink Oracle and Redstone Oracle data."
      },
      "getExchangeRate()": {
        "notice": "Get the `exchangeRate_` between the underlying asset and the peg asset in 1e27"
      },
      "redstoneOracleData()": {
        "notice": "returns all Redstone oracle related data as utility for easy off-chain use / block explorer in a single view method"
      }
    },
    "notice": "Gets the exchange rate between the underlying asset and the peg asset by using:          the price from a Chainlink price feed or a Redstone Oracle with one of them being used as main source and          the other one acting as a fallback if the main source fails for any reason. Reverts if fetched rate is 0.",
    "version": 1
  },
  "storageLayout": {
    "storage": [],
    "types": null
  }
}