{
  "address": "0x7f47B1CEd85F5d773cd68cA606ed6F0fee381046",
  "abi": [
    {
      "inputs": [
        {
          "internalType": "contract ILiquidity",
          "name": "liquidity_",
          "type": "address"
        },
        {
          "internalType": "contract ILendingFactory",
          "name": "lendingFactory_",
          "type": "address"
        },
        {
          "internalType": "contract IERC20",
          "name": "asset_",
          "type": "address"
        }
      ],
      "stateMutability": "nonpayable",
      "type": "constructor"
    },
    {
      "inputs": [
        {
          "internalType": "uint256",
          "name": "errorId_",
          "type": "uint256"
        }
      ],
      "name": "FluidLendingError",
      "type": "error"
    },
    {
      "inputs": [
        {
          "internalType": "uint256",
          "name": "errorId_",
          "type": "uint256"
        }
      ],
      "name": "FluidLiquidityCalcsError",
      "type": "error"
    },
    {
      "inputs": [
        {
          "internalType": "uint256",
          "name": "errorId_",
          "type": "uint256"
        }
      ],
      "name": "FluidSafeTransferError",
      "type": "error"
    },
    {
      "anonymous": false,
      "inputs": [
        {
          "indexed": true,
          "internalType": "address",
          "name": "owner",
          "type": "address"
        },
        {
          "indexed": true,
          "internalType": "address",
          "name": "spender",
          "type": "address"
        },
        {
          "indexed": false,
          "internalType": "uint256",
          "name": "value",
          "type": "uint256"
        }
      ],
      "name": "Approval",
      "type": "event"
    },
    {
      "anonymous": false,
      "inputs": [
        {
          "indexed": true,
          "internalType": "address",
          "name": "sender",
          "type": "address"
        },
        {
          "indexed": true,
          "internalType": "address",
          "name": "owner",
          "type": "address"
        },
        {
          "indexed": false,
          "internalType": "uint256",
          "name": "assets",
          "type": "uint256"
        },
        {
          "indexed": false,
          "internalType": "uint256",
          "name": "shares",
          "type": "uint256"
        }
      ],
      "name": "Deposit",
      "type": "event"
    },
    {
      "anonymous": false,
      "inputs": [
        {
          "indexed": false,
          "internalType": "uint256",
          "name": "assets",
          "type": "uint256"
        }
      ],
      "name": "LogRebalance",
      "type": "event"
    },
    {
      "anonymous": false,
      "inputs": [
        {
          "indexed": true,
          "internalType": "address",
          "name": "token",
          "type": "address"
        }
      ],
      "name": "LogRescueFunds",
      "type": "event"
    },
    {
      "anonymous": false,
      "inputs": [
        {
          "indexed": false,
          "internalType": "uint256",
          "name": "tokenExchangePrice",
          "type": "uint256"
        },
        {
          "indexed": false,
          "internalType": "uint256",
          "name": "liquidityExchangePrice",
          "type": "uint256"
        }
      ],
      "name": "LogUpdateRates",
      "type": "event"
    },
    {
      "anonymous": false,
      "inputs": [
        {
          "indexed": true,
          "internalType": "address",
          "name": "rebalancer",
          "type": "address"
        }
      ],
      "name": "LogUpdateRebalancer",
      "type": "event"
    },
    {
      "anonymous": false,
      "inputs": [
        {
          "indexed": true,
          "internalType": "contract ILendingRewardsRateModel",
          "name": "rewardsRateModel",
          "type": "address"
        }
      ],
      "name": "LogUpdateRewards",
      "type": "event"
    },
    {
      "anonymous": false,
      "inputs": [
        {
          "indexed": true,
          "internalType": "address",
          "name": "from",
          "type": "address"
        },
        {
          "indexed": true,
          "internalType": "address",
          "name": "to",
          "type": "address"
        },
        {
          "indexed": false,
          "internalType": "uint256",
          "name": "value",
          "type": "uint256"
        }
      ],
      "name": "Transfer",
      "type": "event"
    },
    {
      "anonymous": false,
      "inputs": [
        {
          "indexed": true,
          "internalType": "address",
          "name": "sender",
          "type": "address"
        },
        {
          "indexed": true,
          "internalType": "address",
          "name": "receiver",
          "type": "address"
        },
        {
          "indexed": true,
          "internalType": "address",
          "name": "owner",
          "type": "address"
        },
        {
          "indexed": false,
          "internalType": "uint256",
          "name": "assets",
          "type": "uint256"
        },
        {
          "indexed": false,
          "internalType": "uint256",
          "name": "shares",
          "type": "uint256"
        }
      ],
      "name": "Withdraw",
      "type": "event"
    },
    {
      "inputs": [],
      "name": "DOMAIN_SEPARATOR",
      "outputs": [
        {
          "internalType": "bytes32",
          "name": "",
          "type": "bytes32"
        }
      ],
      "stateMutability": "view",
      "type": "function"
    },
    {
      "inputs": [
        {
          "internalType": "address",
          "name": "owner",
          "type": "address"
        },
        {
          "internalType": "address",
          "name": "spender",
          "type": "address"
        }
      ],
      "name": "allowance",
      "outputs": [
        {
          "internalType": "uint256",
          "name": "",
          "type": "uint256"
        }
      ],
      "stateMutability": "view",
      "type": "function"
    },
    {
      "inputs": [
        {
          "internalType": "address",
          "name": "spender",
          "type": "address"
        },
        {
          "internalType": "uint256",
          "name": "amount",
          "type": "uint256"
        }
      ],
      "name": "approve",
      "outputs": [
        {
          "internalType": "bool",
          "name": "",
          "type": "bool"
        }
      ],
      "stateMutability": "nonpayable",
      "type": "function"
    },
    {
      "inputs": [],
      "name": "asset",
      "outputs": [
        {
          "internalType": "address",
          "name": "",
          "type": "address"
        }
      ],
      "stateMutability": "view",
      "type": "function"
    },
    {
      "inputs": [
        {
          "internalType": "address",
          "name": "account",
          "type": "address"
        }
      ],
      "name": "balanceOf",
      "outputs": [
        {
          "internalType": "uint256",
          "name": "",
          "type": "uint256"
        }
      ],
      "stateMutability": "view",
      "type": "function"
    },
    {
      "inputs": [
        {
          "internalType": "uint256",
          "name": "shares_",
          "type": "uint256"
        }
      ],
      "name": "convertToAssets",
      "outputs": [
        {
          "internalType": "uint256",
          "name": "",
          "type": "uint256"
        }
      ],
      "stateMutability": "view",
      "type": "function"
    },
    {
      "inputs": [
        {
          "internalType": "uint256",
          "name": "assets_",
          "type": "uint256"
        }
      ],
      "name": "convertToShares",
      "outputs": [
        {
          "internalType": "uint256",
          "name": "",
          "type": "uint256"
        }
      ],
      "stateMutability": "view",
      "type": "function"
    },
    {
      "inputs": [],
      "name": "decimals",
      "outputs": [
        {
          "internalType": "uint8",
          "name": "",
          "type": "uint8"
        }
      ],
      "stateMutability": "view",
      "type": "function"
    },
    {
      "inputs": [
        {
          "internalType": "address",
          "name": "spender",
          "type": "address"
        },
        {
          "internalType": "uint256",
          "name": "subtractedValue",
          "type": "uint256"
        }
      ],
      "name": "decreaseAllowance",
      "outputs": [
        {
          "internalType": "bool",
          "name": "",
          "type": "bool"
        }
      ],
      "stateMutability": "nonpayable",
      "type": "function"
    },
    {
      "inputs": [
        {
          "internalType": "uint256",
          "name": "assets_",
          "type": "uint256"
        },
        {
          "internalType": "address",
          "name": "receiver_",
          "type": "address"
        }
      ],
      "name": "deposit",
      "outputs": [
        {
          "internalType": "uint256",
          "name": "shares_",
          "type": "uint256"
        }
      ],
      "stateMutability": "nonpayable",
      "type": "function"
    },
    {
      "inputs": [
        {
          "internalType": "uint256",
          "name": "assets_",
          "type": "uint256"
        },
        {
          "internalType": "address",
          "name": "receiver_",
          "type": "address"
        },
        {
          "internalType": "uint256",
          "name": "minAmountOut_",
          "type": "uint256"
        }
      ],
      "name": "deposit",
      "outputs": [
        {
          "internalType": "uint256",
          "name": "shares_",
          "type": "uint256"
        }
      ],
      "stateMutability": "nonpayable",
      "type": "function"
    },
    {
      "inputs": [
        {
          "internalType": "uint256",
          "name": "assets_",
          "type": "uint256"
        },
        {
          "internalType": "address",
          "name": "receiver_",
          "type": "address"
        },
        {
          "internalType": "uint256",
          "name": "minAmountOut_",
          "type": "uint256"
        },
        {
          "components": [
            {
              "components": [
                {
                  "internalType": "address",
                  "name": "token",
                  "type": "address"
                },
                {
                  "internalType": "uint160",
                  "name": "amount",
                  "type": "uint160"
                },
                {
                  "internalType": "uint48",
                  "name": "expiration",
                  "type": "uint48"
                },
                {
                  "internalType": "uint48",
                  "name": "nonce",
                  "type": "uint48"
                }
              ],
              "internalType": "struct IAllowanceTransfer.PermitDetails",
              "name": "details",
              "type": "tuple"
            },
            {
              "internalType": "address",
              "name": "spender",
              "type": "address"
            },
            {
              "internalType": "uint256",
              "name": "sigDeadline",
              "type": "uint256"
            }
          ],
          "internalType": "struct IAllowanceTransfer.PermitSingle",
          "name": "permit_",
          "type": "tuple"
        },
        {
          "internalType": "bytes",
          "name": "signature_",
          "type": "bytes"
        }
      ],
      "name": "depositWithSignature",
      "outputs": [
        {
          "internalType": "uint256",
          "name": "shares_",
          "type": "uint256"
        }
      ],
      "stateMutability": "nonpayable",
      "type": "function"
    },
    {
      "inputs": [
        {
          "internalType": "uint256",
          "name": "assets_",
          "type": "uint256"
        },
        {
          "internalType": "address",
          "name": "receiver_",
          "type": "address"
        },
        {
          "internalType": "uint256",
          "name": "minAmountOut_",
          "type": "uint256"
        },
        {
          "internalType": "uint256",
          "name": "deadline_",
          "type": "uint256"
        },
        {
          "internalType": "bytes",
          "name": "signature_",
          "type": "bytes"
        }
      ],
      "name": "depositWithSignatureEIP2612",
      "outputs": [
        {
          "internalType": "uint256",
          "name": "shares_",
          "type": "uint256"
        }
      ],
      "stateMutability": "nonpayable",
      "type": "function"
    },
    {
      "inputs": [],
      "name": "getData",
      "outputs": [
        {
          "internalType": "contract ILiquidity",
          "name": "liquidity_",
          "type": "address"
        },
        {
          "internalType": "contract ILendingFactory",
          "name": "lendingFactory_",
          "type": "address"
        },
        {
          "internalType": "contract ILendingRewardsRateModel",
          "name": "lendingRewardsRateModel_",
          "type": "address"
        },
        {
          "internalType": "contract IAllowanceTransfer",
          "name": "permit2_",
          "type": "address"
        },
        {
          "internalType": "address",
          "name": "rebalancer_",
          "type": "address"
        },
        {
          "internalType": "bool",
          "name": "rewardsActive_",
          "type": "bool"
        },
        {
          "internalType": "uint256",
          "name": "liquidityBalance_",
          "type": "uint256"
        },
        {
          "internalType": "uint256",
          "name": "liquidityExchangePrice_",
          "type": "uint256"
        },
        {
          "internalType": "uint256",
          "name": "tokenExchangePrice_",
          "type": "uint256"
        }
      ],
      "stateMutability": "view",
      "type": "function"
    },
    {
      "inputs": [
        {
          "internalType": "address",
          "name": "spender",
          "type": "address"
        },
        {
          "internalType": "uint256",
          "name": "addedValue",
          "type": "uint256"
        }
      ],
      "name": "increaseAllowance",
      "outputs": [
        {
          "internalType": "bool",
          "name": "",
          "type": "bool"
        }
      ],
      "stateMutability": "nonpayable",
      "type": "function"
    },
    {
      "inputs": [
        {
          "internalType": "address",
          "name": "token_",
          "type": "address"
        },
        {
          "internalType": "uint256",
          "name": "amount_",
          "type": "uint256"
        },
        {
          "internalType": "bytes",
          "name": "data_",
          "type": "bytes"
        }
      ],
      "name": "liquidityCallback",
      "outputs": [],
      "stateMutability": "nonpayable",
      "type": "function"
    },
    {
      "inputs": [
        {
          "internalType": "address",
          "name": "",
          "type": "address"
        }
      ],
      "name": "maxDeposit",
      "outputs": [
        {
          "internalType": "uint256",
          "name": "",
          "type": "uint256"
        }
      ],
      "stateMutability": "view",
      "type": "function"
    },
    {
      "inputs": [
        {
          "internalType": "address",
          "name": "",
          "type": "address"
        }
      ],
      "name": "maxMint",
      "outputs": [
        {
          "internalType": "uint256",
          "name": "",
          "type": "uint256"
        }
      ],
      "stateMutability": "view",
      "type": "function"
    },
    {
      "inputs": [
        {
          "internalType": "address",
          "name": "owner_",
          "type": "address"
        }
      ],
      "name": "maxRedeem",
      "outputs": [
        {
          "internalType": "uint256",
          "name": "",
          "type": "uint256"
        }
      ],
      "stateMutability": "view",
      "type": "function"
    },
    {
      "inputs": [
        {
          "internalType": "address",
          "name": "owner_",
          "type": "address"
        }
      ],
      "name": "maxWithdraw",
      "outputs": [
        {
          "internalType": "uint256",
          "name": "",
          "type": "uint256"
        }
      ],
      "stateMutability": "view",
      "type": "function"
    },
    {
      "inputs": [],
      "name": "minDeposit",
      "outputs": [
        {
          "internalType": "uint256",
          "name": "",
          "type": "uint256"
        }
      ],
      "stateMutability": "view",
      "type": "function"
    },
    {
      "inputs": [
        {
          "internalType": "uint256",
          "name": "shares_",
          "type": "uint256"
        },
        {
          "internalType": "address",
          "name": "receiver_",
          "type": "address"
        },
        {
          "internalType": "uint256",
          "name": "maxAssets_",
          "type": "uint256"
        }
      ],
      "name": "mint",
      "outputs": [
        {
          "internalType": "uint256",
          "name": "assets_",
          "type": "uint256"
        }
      ],
      "stateMutability": "nonpayable",
      "type": "function"
    },
    {
      "inputs": [
        {
          "internalType": "uint256",
          "name": "shares_",
          "type": "uint256"
        },
        {
          "internalType": "address",
          "name": "receiver_",
          "type": "address"
        }
      ],
      "name": "mint",
      "outputs": [
        {
          "internalType": "uint256",
          "name": "assets_",
          "type": "uint256"
        }
      ],
      "stateMutability": "nonpayable",
      "type": "function"
    },
    {
      "inputs": [
        {
          "internalType": "uint256",
          "name": "shares_",
          "type": "uint256"
        },
        {
          "internalType": "address",
          "name": "receiver_",
          "type": "address"
        },
        {
          "internalType": "uint256",
          "name": "maxAssets_",
          "type": "uint256"
        },
        {
          "components": [
            {
              "components": [
                {
                  "internalType": "address",
                  "name": "token",
                  "type": "address"
                },
                {
                  "internalType": "uint160",
                  "name": "amount",
                  "type": "uint160"
                },
                {
                  "internalType": "uint48",
                  "name": "expiration",
                  "type": "uint48"
                },
                {
                  "internalType": "uint48",
                  "name": "nonce",
                  "type": "uint48"
                }
              ],
              "internalType": "struct IAllowanceTransfer.PermitDetails",
              "name": "details",
              "type": "tuple"
            },
            {
              "internalType": "address",
              "name": "spender",
              "type": "address"
            },
            {
              "internalType": "uint256",
              "name": "sigDeadline",
              "type": "uint256"
            }
          ],
          "internalType": "struct IAllowanceTransfer.PermitSingle",
          "name": "permit_",
          "type": "tuple"
        },
        {
          "internalType": "bytes",
          "name": "signature_",
          "type": "bytes"
        }
      ],
      "name": "mintWithSignature",
      "outputs": [
        {
          "internalType": "uint256",
          "name": "assets_",
          "type": "uint256"
        }
      ],
      "stateMutability": "nonpayable",
      "type": "function"
    },
    {
      "inputs": [
        {
          "internalType": "uint256",
          "name": "shares_",
          "type": "uint256"
        },
        {
          "internalType": "address",
          "name": "receiver_",
          "type": "address"
        },
        {
          "internalType": "uint256",
          "name": "maxAssets_",
          "type": "uint256"
        },
        {
          "internalType": "uint256",
          "name": "deadline_",
          "type": "uint256"
        },
        {
          "internalType": "bytes",
          "name": "signature_",
          "type": "bytes"
        }
      ],
      "name": "mintWithSignatureEIP2612",
      "outputs": [
        {
          "internalType": "uint256",
          "name": "assets_",
          "type": "uint256"
        }
      ],
      "stateMutability": "nonpayable",
      "type": "function"
    },
    {
      "inputs": [],
      "name": "name",
      "outputs": [
        {
          "internalType": "string",
          "name": "",
          "type": "string"
        }
      ],
      "stateMutability": "view",
      "type": "function"
    },
    {
      "inputs": [
        {
          "internalType": "address",
          "name": "owner",
          "type": "address"
        }
      ],
      "name": "nonces",
      "outputs": [
        {
          "internalType": "uint256",
          "name": "",
          "type": "uint256"
        }
      ],
      "stateMutability": "view",
      "type": "function"
    },
    {
      "inputs": [
        {
          "internalType": "address",
          "name": "owner",
          "type": "address"
        },
        {
          "internalType": "address",
          "name": "spender",
          "type": "address"
        },
        {
          "internalType": "uint256",
          "name": "value",
          "type": "uint256"
        },
        {
          "internalType": "uint256",
          "name": "deadline",
          "type": "uint256"
        },
        {
          "internalType": "uint8",
          "name": "v",
          "type": "uint8"
        },
        {
          "internalType": "bytes32",
          "name": "r",
          "type": "bytes32"
        },
        {
          "internalType": "bytes32",
          "name": "s",
          "type": "bytes32"
        }
      ],
      "name": "permit",
      "outputs": [],
      "stateMutability": "nonpayable",
      "type": "function"
    },
    {
      "inputs": [
        {
          "internalType": "uint256",
          "name": "assets_",
          "type": "uint256"
        }
      ],
      "name": "previewDeposit",
      "outputs": [
        {
          "internalType": "uint256",
          "name": "",
          "type": "uint256"
        }
      ],
      "stateMutability": "view",
      "type": "function"
    },
    {
      "inputs": [
        {
          "internalType": "uint256",
          "name": "shares_",
          "type": "uint256"
        }
      ],
      "name": "previewMint",
      "outputs": [
        {
          "internalType": "uint256",
          "name": "",
          "type": "uint256"
        }
      ],
      "stateMutability": "view",
      "type": "function"
    },
    {
      "inputs": [
        {
          "internalType": "uint256",
          "name": "shares_",
          "type": "uint256"
        }
      ],
      "name": "previewRedeem",
      "outputs": [
        {
          "internalType": "uint256",
          "name": "",
          "type": "uint256"
        }
      ],
      "stateMutability": "view",
      "type": "function"
    },
    {
      "inputs": [
        {
          "internalType": "uint256",
          "name": "assets_",
          "type": "uint256"
        }
      ],
      "name": "previewWithdraw",
      "outputs": [
        {
          "internalType": "uint256",
          "name": "",
          "type": "uint256"
        }
      ],
      "stateMutability": "view",
      "type": "function"
    },
    {
      "inputs": [],
      "name": "rebalance",
      "outputs": [
        {
          "internalType": "uint256",
          "name": "assets_",
          "type": "uint256"
        }
      ],
      "stateMutability": "payable",
      "type": "function"
    },
    {
      "inputs": [
        {
          "internalType": "uint256",
          "name": "shares_",
          "type": "uint256"
        },
        {
          "internalType": "address",
          "name": "receiver_",
          "type": "address"
        },
        {
          "internalType": "address",
          "name": "owner_",
          "type": "address"
        },
        {
          "internalType": "uint256",
          "name": "minAmountOut_",
          "type": "uint256"
        }
      ],
      "name": "redeem",
      "outputs": [
        {
          "internalType": "uint256",
          "name": "assets_",
          "type": "uint256"
        }
      ],
      "stateMutability": "nonpayable",
      "type": "function"
    },
    {
      "inputs": [
        {
          "internalType": "uint256",
          "name": "shares_",
          "type": "uint256"
        },
        {
          "internalType": "address",
          "name": "receiver_",
          "type": "address"
        },
        {
          "internalType": "address",
          "name": "owner_",
          "type": "address"
        }
      ],
      "name": "redeem",
      "outputs": [
        {
          "internalType": "uint256",
          "name": "assets_",
          "type": "uint256"
        }
      ],
      "stateMutability": "nonpayable",
      "type": "function"
    },
    {
      "inputs": [
        {
          "internalType": "uint256",
          "name": "shares_",
          "type": "uint256"
        },
        {
          "internalType": "address",
          "name": "receiver_",
          "type": "address"
        },
        {
          "internalType": "address",
          "name": "owner_",
          "type": "address"
        },
        {
          "internalType": "uint256",
          "name": "minAmountOut_",
          "type": "uint256"
        },
        {
          "internalType": "uint256",
          "name": "deadline_",
          "type": "uint256"
        },
        {
          "internalType": "bytes",
          "name": "signature_",
          "type": "bytes"
        }
      ],
      "name": "redeemWithSignature",
      "outputs": [
        {
          "internalType": "uint256",
          "name": "assets_",
          "type": "uint256"
        }
      ],
      "stateMutability": "nonpayable",
      "type": "function"
    },
    {
      "inputs": [
        {
          "internalType": "address",
          "name": "token_",
          "type": "address"
        }
      ],
      "name": "rescueFunds",
      "outputs": [],
      "stateMutability": "nonpayable",
      "type": "function"
    },
    {
      "inputs": [],
      "name": "symbol",
      "outputs": [
        {
          "internalType": "string",
          "name": "",
          "type": "string"
        }
      ],
      "stateMutability": "view",
      "type": "function"
    },
    {
      "inputs": [],
      "name": "totalAssets",
      "outputs": [
        {
          "internalType": "uint256",
          "name": "",
          "type": "uint256"
        }
      ],
      "stateMutability": "view",
      "type": "function"
    },
    {
      "inputs": [],
      "name": "totalSupply",
      "outputs": [
        {
          "internalType": "uint256",
          "name": "",
          "type": "uint256"
        }
      ],
      "stateMutability": "view",
      "type": "function"
    },
    {
      "inputs": [
        {
          "internalType": "address",
          "name": "to",
          "type": "address"
        },
        {
          "internalType": "uint256",
          "name": "amount",
          "type": "uint256"
        }
      ],
      "name": "transfer",
      "outputs": [
        {
          "internalType": "bool",
          "name": "",
          "type": "bool"
        }
      ],
      "stateMutability": "nonpayable",
      "type": "function"
    },
    {
      "inputs": [
        {
          "internalType": "address",
          "name": "from",
          "type": "address"
        },
        {
          "internalType": "address",
          "name": "to",
          "type": "address"
        },
        {
          "internalType": "uint256",
          "name": "amount",
          "type": "uint256"
        }
      ],
      "name": "transferFrom",
      "outputs": [
        {
          "internalType": "bool",
          "name": "",
          "type": "bool"
        }
      ],
      "stateMutability": "nonpayable",
      "type": "function"
    },
    {
      "inputs": [],
      "name": "updateRates",
      "outputs": [
        {
          "internalType": "uint256",
          "name": "tokenExchangePrice_",
          "type": "uint256"
        },
        {
          "internalType": "uint256",
          "name": "liquidityExchangePrice_",
          "type": "uint256"
        }
      ],
      "stateMutability": "nonpayable",
      "type": "function"
    },
    {
      "inputs": [
        {
          "internalType": "address",
          "name": "newRebalancer_",
          "type": "address"
        }
      ],
      "name": "updateRebalancer",
      "outputs": [],
      "stateMutability": "nonpayable",
      "type": "function"
    },
    {
      "inputs": [
        {
          "internalType": "contract ILendingRewardsRateModel",
          "name": "rewardsRateModel_",
          "type": "address"
        }
      ],
      "name": "updateRewards",
      "outputs": [],
      "stateMutability": "nonpayable",
      "type": "function"
    },
    {
      "inputs": [
        {
          "internalType": "uint256",
          "name": "assets_",
          "type": "uint256"
        },
        {
          "internalType": "address",
          "name": "receiver_",
          "type": "address"
        },
        {
          "internalType": "address",
          "name": "owner_",
          "type": "address"
        },
        {
          "internalType": "uint256",
          "name": "maxSharesBurn_",
          "type": "uint256"
        }
      ],
      "name": "withdraw",
      "outputs": [
        {
          "internalType": "uint256",
          "name": "shares_",
          "type": "uint256"
        }
      ],
      "stateMutability": "nonpayable",
      "type": "function"
    },
    {
      "inputs": [
        {
          "internalType": "uint256",
          "name": "assets_",
          "type": "uint256"
        },
        {
          "internalType": "address",
          "name": "receiver_",
          "type": "address"
        },
        {
          "internalType": "address",
          "name": "owner_",
          "type": "address"
        }
      ],
      "name": "withdraw",
      "outputs": [
        {
          "internalType": "uint256",
          "name": "shares_",
          "type": "uint256"
        }
      ],
      "stateMutability": "nonpayable",
      "type": "function"
    },
    {
      "inputs": [
        {
          "internalType": "uint256",
          "name": "sharesToPermit_",
          "type": "uint256"
        },
        {
          "internalType": "uint256",
          "name": "assets_",
          "type": "uint256"
        },
        {
          "internalType": "address",
          "name": "receiver_",
          "type": "address"
        },
        {
          "internalType": "address",
          "name": "owner_",
          "type": "address"
        },
        {
          "internalType": "uint256",
          "name": "maxSharesBurn_",
          "type": "uint256"
        },
        {
          "internalType": "uint256",
          "name": "deadline_",
          "type": "uint256"
        },
        {
          "internalType": "bytes",
          "name": "signature_",
          "type": "bytes"
        }
      ],
      "name": "withdrawWithSignature",
      "outputs": [
        {
          "internalType": "uint256",
          "name": "shares_",
          "type": "uint256"
        }
      ],
      "stateMutability": "nonpayable",
      "type": "function"
    }
  ],
  "transactionHash": "0x578ed77bb5d30932a48631b936c4caed80c9745507e2ce8a80852da77a78cc42",
  "args": [
    "0x52Ef3F34aE6Ed1B4B5044ee7Dc2b929461736254",
    "0x498E8cD451f255C7913DAa72Be24f57C602c4bE0",
    "0xA0b86991c6218b36c1d19D4a2e9Eb0cE3606eB48"
  ],
  "numDeployments": 1,
  "bytecode": "0x6102206040523480156200001257600080fd5b50604051620057c9380380620057c98339810160408190526200003591620007ff565b8282828282826040518060400160405280600f81526020016e023363ab4b21024b73a32b932b9ba1608d1b815250846001600160a01b03166306fdde036040518163ffffffff1660e01b8152600401600060405180830381865afa158015620000a2573d6000803e3d6000fd5b505050506040513d6000823e601f3d908101601f19168201604052620000cc91908101906200088f565b604051602001620000df92919062000947565b60405160208183030381529060405280604051806040016040528060018152602001603160f81b8152506040518060400160405280600f81526020016e023363ab4b21024b73a32b932b9ba1608d1b815250876001600160a01b03166306fdde036040518163ffffffff1660e01b8152600401600060405180830381865afa15801562000170573d6000803e3d6000fd5b505050506040513d6000823e601f3d908101601f191682016040526200019a91908101906200088f565b604051602001620001ad92919062000947565b60405160208183030381529060405260405180604001604052806002815260200161666960f01b815250886001600160a01b03166395d89b416040518163ffffffff1660e01b8152600401600060405180830381865afa15801562000216573d6000803e3d6000fd5b505050506040513d6000823e601f3d908101601f191682016040526200024091908101906200088f565b6040516020016200025392919062000947565b60408051601f19818403018152919052600362000271838262000a03565b50600462000280828262000a03565b5050825160208085019190912083518483012060e08290526101008190524660a0818152604080517f8b73c3c69bb8fe3d512ecc4cf759cc79239f7b179b0ffacaa9a75d522b39400f81880181905281830187905260608201869052608082019490945230818401528151808203909301835260c0019052805194019390932091935091906080523060c0526101205250506040805163313ce56760e01b815290516001600160a01b038616945063313ce5679350600480830193506020928290030181865afa15801562000359573d6000803e3d6000fd5b505050506040513d601f19601f820116820180604052508101906200037f919062000acf565b60ff166101a0526001600160a01b038082166101805283811661014052821661016052620003f06005620003b36101805190565b604080516001600160a01b038316602082015290810183905260009060600160405160208183030381529060405280519060200120905092915050565b6101c052620004056007620003b36101805190565b6101e0526200047b6008306200041b6101805190565b604080516001600160a01b039384166020808301919091528183019590955281518082038301815260608201835280519086012092909316608084015260a0808401929092528051808403909201825260c0909201909152805191012090565b61020052508491506200049090508162000522565b826200049c8162000522565b82620004a88162000522565b50506008805460ff60a81b1916600160a81b17905550620004cd925050620005569050565b600880546001600160401b03929092166001600160801b0319909216919091176ce8d4a5100000000000000000001764ffffffffff60801b1916600160801b4264ffffffffff16021790555062000b2b915050565b6001600160a01b038116620005535760405163694bda1d60e01b8152614e2460048201526024015b60405180910390fd5b50565b6000620005db610140516001600160a01b031663b5c736e46101c0516040518263ffffffff1660e01b81526004016200059191815260200190565b602060405180830381865afa158015620005af573d6000803e3d6000fd5b505050506040513d601f19601f82011682018060405250810190620005d5919062000afb565b620005e1565b50919050565b6001600160401b03605b82901c811690609b83901c1681158062000603575080155b156200062857604051636a86ba8960e11b81526201117160048201526024016200054a565b61ffff8316603a84901c6401ffffffff16428181039160ea87901c617fff1691148062000653575082155b806200065f5750806001145b156200066d57505050915091565b64496cebb80084840283020484019350617fff60db87901c169250826001036200069957505050915091565b82600116600103620006f35760019290921c91826c7e37be2022c0914b268000000081620006cb57620006cb62000b15565b049250612710601e87901c613fff166b033b2e3c9fd0803ce800000085010204925062000720565b60019290921c916305f5e100601e87901c613fff166127108501026b033b2e3c9fd0803ce8000000020492505b806001166001036200075c5760011c61271081016b033b2e3c9fd0803ce800000082028162000753576200075362000b15565b04905062000795565b60011c61271081016b033b2e3c9fd0803ce800000082028162000783576200078362000b15565b046b033b2e3c9fd0803ce80000000390505b760a70c3c40a64e6c51999090b65f67d92400000000000008382026127100261ffff881691900402601087901c613fff16612710030292506801b5a660ea44b8000085840283020485019450505050915091565b6001600160a01b03811681146200055357600080fd5b6000806000606084860312156200081557600080fd5b83516200082281620007e9565b60208501519093506200083581620007e9565b60408501519092506200084881620007e9565b809150509250925092565b634e487b7160e01b600052604160045260246000fd5b60005b83811015620008865781810151838201526020016200086c565b50506000910152565b600060208284031215620008a257600080fd5b81516001600160401b0380821115620008ba57600080fd5b818401915084601f830112620008cf57600080fd5b815181811115620008e457620008e462000853565b604051601f8201601f19908116603f011681019083821181831017156200090f576200090f62000853565b816040528281528760208487010111156200092957600080fd5b6200093c83602083016020880162000869565b979650505050505050565b600083516200095b81846020880162000869565b8351908301906200097181836020880162000869565b01949350505050565b600181811c908216806200098f57607f821691505b602082108103620005db57634e487b7160e01b600052602260045260246000fd5b601f821115620009fe57600081815260208120601f850160051c81016020861015620009d95750805b601f850160051c820191505b81811015620009fa57828155600101620009e5565b5050505b505050565b81516001600160401b0381111562000a1f5762000a1f62000853565b62000a378162000a3084546200097a565b84620009b0565b602080601f83116001811462000a6f576000841562000a565750858301515b600019600386901b1c1916600185901b178555620009fa565b600085815260208120601f198616915b8281101562000aa05788860151825594840194600190910190840162000a7f565b508582101562000abf5787850151600019600388901b60f8161c191681555b5050505050600190811b01905550565b60006020828403121562000ae257600080fd5b815160ff8116811462000af457600080fd5b9392505050565b60006020828403121562000b0e57600080fd5b5051919050565b634e487b7160e01b600052601260045260246000fd5b60805160a05160c05160e05161010051610120516101405161016051610180516101a0516101c0516101e05161020051614b6062000c6960003960008181612cd4015261351901526000610e29015260006123460152600061041b01526000818161048101528181610d8201528181611255015281816117330152818161198f01528181611a6101528181611b71015281816121520152818161333d01528181613bbf0152613ee4015260008181610c07015261315a015260008181610be501528181610e730152818161196501528181611a8301528181611b41015281816122080152818161238801528181612c98015281816133010152818161355901528181613b830152613eb901526000612be801526000612c3701526000612c1201526000612b6b01526000612b9501526000612bbf0152614b606000f3fe6080604052600436106103135760003560e01c80637ecebe001161019a578063b460af94116100e1578063d505accf1161008a578063e083be2211610064578063e083be221461099e578063e53b2017146109be578063ef8b30f7146109de57600080fd5b8063d505accf1461090b578063d905777e1461092b578063dd62ed3e1461094b57600080fd5b8063c63d75b6116100bb578063c63d75b6146108ab578063c6e6f592146108cb578063ce96cb77146108eb57600080fd5b8063b460af941461084b578063ba0876521461086b578063bc157ac11461088b57600080fd5b8063a318c1a411610143578063ad2075011161011d578063ad207501146107eb578063b046a4491461080b578063b3d7f6b91461082b57600080fd5b8063a318c1a41461078b578063a457c2d7146107ab578063a9059cbb146107cb57600080fd5b806394bf804d1161017457806394bf804d1461073657806395d89b41146107565780639f40a7b31461076b57600080fd5b80637ecebe00146106d6578063836a1040146106f65780638c87483a1461071657600080fd5b80633c3821f41161025e5780635fd619651161020757806370a08231116101e157806370a082311461066b578063740c955e146106ae5780637d7c2a1c146106ce57600080fd5b80635fd6196514610609578063635c31c21461062b5780636e553f651461064b57600080fd5b806341b3d1851161023857806341b3d185146105b45780634cdad506146105c957806350cc0f8f146105e957600080fd5b80633c3821f41461054a5780633f4c093014610574578063402d267d1461059457600080fd5b806323b872dd116102c057806338d52e0f1161029a57806338d52e0f1461045a57806339509351146104ab5780633bc5de30146104cb57600080fd5b806323b872dd146103e7578063313ce567146104075780633644e5151461044557600080fd5b8063095ea7b3116102f1578063095ea7b3146103825780630a28a477146103b257806318160ddd146103d257600080fd5b806301e1d1141461031857806306fdde031461034057806307a2d13a14610362575b600080fd5b34801561032457600080fd5b5061032d6109fe565b6040519081526020015b60405180910390f35b34801561034c57600080fd5b50610355610a3d565b6040516103379190614257565b34801561036e57600080fd5b5061032d61037d36600461426a565b610acf565b34801561038e57600080fd5b506103a261039d3660046142a5565b610af7565b6040519015158152602001610337565b3480156103be57600080fd5b5061032d6103cd36600461426a565b610b11565b3480156103de57600080fd5b5060025461032d565b3480156103f357600080fd5b506103a26104023660046142d1565b610b32565b34801561041357600080fd5b5060405160ff7f0000000000000000000000000000000000000000000000000000000000000000168152602001610337565b34801561045157600080fd5b5061032d610b56565b34801561046657600080fd5b5060405173ffffffffffffffffffffffffffffffffffffffff7f0000000000000000000000000000000000000000000000000000000000000000168152602001610337565b3480156104b757600080fd5b506103a26104c63660046142a5565b610b65565b3480156104d757600080fd5b506104e0610bb1565b6040805173ffffffffffffffffffffffffffffffffffffffff9a8b168152988a1660208a0152968916968801969096529387166060870152959091166080850152151560a084015260c083019390935260e082019290925261010081019190915261012001610337565b34801561055657600080fd5b5061055f610c9d565b60408051928352602083019190915201610337565b34801561058057600080fd5b5061032d61058f36600461435b565b610cbb565b3480156105a057600080fd5b5061032d6105af3660046143ce565b610e01565b3480156105c057600080fd5b5061032d610f26565b3480156105d557600080fd5b5061032d6105e436600461426a565b610f32565b3480156105f557600080fd5b5061032d6106043660046143eb565b610f3d565b34801561061557600080fd5b506106296106243660046143ce565b61101a565b005b34801561063757600080fd5b5061032d61064636600461447a565b6110e0565b34801561065757600080fd5b5061032d610666366004614502565b6111f6565b34801561067757600080fd5b5061032d6106863660046143ce565b73ffffffffffffffffffffffffffffffffffffffff1660009081526020819052604090205490565b3480156106ba57600080fd5b5061032d6106c9366004614532565b611337565b61032d61141c565b3480156106e257600080fd5b5061032d6106f13660046143ce565b611581565b34801561070257600080fd5b5061032d6107113660046145b8565b6115ac565b34801561072257600080fd5b5061032d61073136600461447a565b6115c4565b34801561074257600080fd5b5061032d610751366004614502565b6116d4565b34801561076257600080fd5b50610355611825565b34801561077757600080fd5b5061032d6107863660046145df565b611834565b34801561079757600080fd5b5061032d6107a63660046145df565b611855565b3480156107b757600080fd5b506103a26107c63660046142a5565b61186e565b3480156107d757600080fd5b506103a26107e63660046142a5565b61193f565b3480156107f757600080fd5b50610629610806366004614627565b61194d565b34801561081757600080fd5b506106296108263660046143ce565b611beb565b34801561083757600080fd5b5061032d61084636600461426a565b611c6d565b34801561085757600080fd5b5061032d610866366004614683565b611c8e565b34801561087757600080fd5b5061032d610886366004614683565b611d26565b34801561089757600080fd5b5061032d6108a63660046145b8565b611e0a565b3480156108b757600080fd5b5061032d6108c63660046143ce565b611e22565b3480156108d757600080fd5b5061032d6108e636600461426a565b611e31565b3480156108f757600080fd5b5061032d6109063660046143ce565b611e52565b34801561091757600080fd5b506106296109263660046146c5565b611ea6565b34801561093757600080fd5b5061032d6109463660046143ce565b612059565b34801561095757600080fd5b5061032d61096636600461473c565b73ffffffffffffffffffffffffffffffffffffffff918216600090815260016020908152604080832093909416825291909152205490565b3480156109aa57600080fd5b5061032d6109b936600461435b565b612097565b3480156109ca57600080fd5b506106296109d93660046143ce565b6121c4565b3480156109ea57600080fd5b5061032d6109f936600461426a565b612313565b600080610a11610a0c61231e565b6123fe565b50905064e8d4a51000610a2360025490565b610a2d9083614799565b610a3791906147df565b91505090565b606060038054610a4c9061481a565b80601f0160208091040260200160405190810160405280929190818152602001828054610a789061481a565b8015610ac55780601f10610a9a57610100808354040283529160200191610ac5565b820191906000526020600020905b815481529060010190602001808311610aa857829003601f168201915b5050505050905090565b600080610add610a0c61231e565b509050610af0838264e8d4a510006125de565b9392505050565b600033610b0581858561261a565b60019150505b92915050565b600080610b1f610a0c61231e565b509050610af08364e8d4a51000836127cd565b600033610b40858285612811565b610b4b8585856128e2565b506001949350505050565b6000610b60612b51565b905090565b33600081815260016020908152604080832073ffffffffffffffffffffffffffffffffffffffff87168452909152812054909190610b059082908690610bac908790614867565b61261a565b6000806000806000806000806000610bc761231e565b91506000610bd4836123fe565b6007546009546008549395509193507f0000000000000000000000000000000000000000000000000000000000000000927f00000000000000000000000000000000000000000000000000000000000000009273ffffffffffffffffffffffffffffffffffffffff928316926e22d473030f116ddee9f6b43ac78ba392911690760100000000000000000000000000000000000000000000900460ff168015610c7b575085155b610c83612c85565b995099509950995099509950995050909192939495969798565b600080610ca861231e565b9050610cb5816001612d89565b91509091565b6000610cc687611c6d565b90506000806000610d0c86868080601f016020809104026020016040519081016040528093929190818152602001838380828437600092019190915250612f1492505050565b6040517fd505accf00000000000000000000000000000000000000000000000000000000815233600482015230602482015260448101889052606481018b905260ff8416608482015260a4810183905260c48101829052929550909350915073ffffffffffffffffffffffffffffffffffffffff7f0000000000000000000000000000000000000000000000000000000000000000169063d505accf9060e401600060405180830381600087803b158015610dc657600080fd5b505af1158015610dda573d6000803e3d6000fd5b50505050610de88a8a6116d4565b9350610df48489612f43565b5050509695505050505050565b6040517fb5c736e40000000000000000000000000000000000000000000000000000000081527f00000000000000000000000000000000000000000000000000000000000000006004820152600090819067ffffffffffffffff9073ffffffffffffffffffffffffffffffffffffffff7f0000000000000000000000000000000000000000000000000000000000000000169063b5c736e490602401602060405180830381865afa158015610eba573d6000803e3d6000fd5b505050506040513d601f19601f82011682018060405250810190610ede919061487a565b16600881901c60ff9091161b90506f7fffffffffffffffffffffffffffffff81900364e8d4a51000610f0e61231e565b820281610f1d57610f1d6147b0565b04949350505050565b6000610b606001611c6d565b6000610b0b82610acf565b6000610f47612f85565b73ffffffffffffffffffffffffffffffffffffffff86163303610f9f576040517f694bda1d000000000000000000000000000000000000000000000000000000008152614e2760048201526024015b60405180910390fd5b610fac868a868686613023565b610fb7888888613086565b9050610fc38186612f43565b610fce863383612811565b600880547fffffffffffffffffffff00ffffffffffffffffffffffffffffffffffffffffff16750100000000000000000000000000000000000000000017905598975050505050505050565b61102261312c565b61102a610c9d565b5050600780547fffffffffffffffffffffffff00000000000000000000000000000000000000001673ffffffffffffffffffffffffffffffffffffffff8316908117909155600880547fffffffffffffffffff00ffffffffffffffffffffffffffffffffffffffffffff16821515760100000000000000000000000000000000000000000000021790556040517fd14b198a72267efb36b8bbc193eb6d52a00d1f61799029250f6a520ad47be82d90600090a250565b60006110ea612f85565b6040517f2b67b5700000000000000000000000000000000000000000000000000000000081526e22d473030f116ddee9f6b43ac78ba390632b67b5709061113b9033908890889088906004016148f7565b600060405180830381600087803b15801561115557600080fd5b505af1158015611169573d6000803e3d6000fd5b5050604080516001602082015233918101919091526111a0925089915088906060015b604051602081830303815290604052613216565b90506111ac81866132bf565b600880547fffffffffffffffffffff00ffffffffffffffffffffffffffffffffffffffffff1675010000000000000000000000000000000000000000001790559695505050505050565b6000611200612f85565b7fffffffffffffffffffffffffffffffffffffffffffffffffffffffffffffffff83036112d8576040517f70a082310000000000000000000000000000000000000000000000000000000081523360048201527f000000000000000000000000000000000000000000000000000000000000000073ffffffffffffffffffffffffffffffffffffffff16906370a0823190602401602060405180830381865afa1580156112b1573d6000803e3d6000fd5b505050506040513d601f19601f820116820180604052508101906112d5919061487a565b92505b604080513360208201526112f091859185910161118c565b600880547fffffffffffffffffffff00ffffffffffffffffffffffffffffffffffffffffff1675010000000000000000000000000000000000000000001790559392505050565b6000611341612f85565b73ffffffffffffffffffffffffffffffffffffffff86163303611394576040517f694bda1d000000000000000000000000000000000000000000000000000000008152614e276004820152602401610f96565b61139d88610f32565b90506113a981866132bf565b6113b68689868686613023565b60006113c3828989613086565b90506113d0873383612811565b50600880547fffffffffffffffffffff00ffffffffffffffffffffffffffffffffffffffffff167501000000000000000000000000000000000000000000179055979650505050505050565b6000611426612f85565b60095473ffffffffffffffffffffffffffffffffffffffff16331461147b576040517f694bda1d000000000000000000000000000000000000000000000000000000008152614e2a6004820152602401610f96565b34156114b7576040517f694bda1d000000000000000000000000000000000000000000000000000000008152614e2b6004820152602401610f96565b6114bf612c85565b6114c76109fe565b6114d191906149b1565b604080513360208201529192506000916114fc918491016040516020818303038152906040526132fd565b9050611509816001612d89565b506040518281527fe97ad8b810ae9d9e29aa69dc04d4ac2e3e71d65307830ccb97c8f876dfc439319060200160405180910390a150600880547fffffffffffffffffffff00ffffffffffffffffffffffffffffffffffffffffff16750100000000000000000000000000000000000000000017905590565b73ffffffffffffffffffffffffffffffffffffffff8116600090815260056020526040812054610b0b565b60006115b884846116d4565b9050610af08183612f43565b60006115ce612f85565b6115d787611c6d565b90506115e38186612f43565b6040517f2b67b5700000000000000000000000000000000000000000000000000000000081526e22d473030f116ddee9f6b43ac78ba390632b67b570906116349033908890889088906004016148f7565b600060405180830381600087803b15801561164e57600080fd5b505af1158015611662573d6000803e3d6000fd5b5050604080516001602082015233918101919091526116899250839150889060600161118c565b50600880547fffffffffffffffffffff00ffffffffffffffffffffffffffffffffffffffffff1675010000000000000000000000000000000000000000001790559695505050505050565b60006116de612f85565b7fffffffffffffffffffffffffffffffffffffffffffffffffffffffffffffffff83036117ba576040517f70a082310000000000000000000000000000000000000000000000000000000081523360048201527f000000000000000000000000000000000000000000000000000000000000000073ffffffffffffffffffffffffffffffffffffffff16906370a0823190602401602060405180830381865afa15801561178f573d6000803e3d6000fd5b505050506040513d601f19601f820116820180604052508101906117b3919061487a565b90506117c6565b6117c383611c6d565b90505b604080513360208201526117de91839185910161118c565b50600880547fffffffffffffffffffff00ffffffffffffffffffffffffffffffffffffffffff16750100000000000000000000000000000000000000000017905592915050565b606060048054610a4c9061481a565b6000611841858585611d26565b905061184d81836132bf565b949350505050565b6000611862858585611c8e565b905061184d8183612f43565b33600081815260016020908152604080832073ffffffffffffffffffffffffffffffffffffffff8716845290915281205490919083811015611932576040517f08c379a000000000000000000000000000000000000000000000000000000000815260206004820152602560248201527f45524332303a2064656372656173656420616c6c6f77616e63652062656c6f7760448201527f207a65726f0000000000000000000000000000000000000000000000000000006064820152608401610f96565b610b4b828686840361261a565b600033610b058185856128e2565b3373ffffffffffffffffffffffffffffffffffffffff7f0000000000000000000000000000000000000000000000000000000000000000161415806119de57507f000000000000000000000000000000000000000000000000000000000000000073ffffffffffffffffffffffffffffffffffffffff168473ffffffffffffffffffffffffffffffffffffffff1614155b80611a0857506008547501000000000000000000000000000000000000000000900460ff16600214155b15611a43576040517f694bda1d000000000000000000000000000000000000000000000000000000008152614e266004820152602401610f96565b6020819003611aae576000611a5a828401846143ce565b9050611aa87f0000000000000000000000000000000000000000000000000000000000000000827f0000000000000000000000000000000000000000000000000000000000000000876133d6565b50611be5565b600080611abd838501856149d2565b9150915081611afc576040517f694bda1d000000000000000000000000000000000000000000000000000000008152614e246004820152602401610f96565b6040517f36c7851600000000000000000000000000000000000000000000000000000000815273ffffffffffffffffffffffffffffffffffffffff80831660048301527f00000000000000000000000000000000000000000000000000000000000000008116602483015280871660448301527f00000000000000000000000000000000000000000000000000000000000000001660648201526e22d473030f116ddee9f6b43ac78ba3906336c7851690608401600060405180830381600087803b158015611bca57600080fd5b505af1158015611bde573d6000803e3d6000fd5b5050505050505b50505050565b80611bf58161349d565b611bfd61312c565b600980547fffffffffffffffffffffffff00000000000000000000000000000000000000001673ffffffffffffffffffffffffffffffffffffffff84169081179091556040517fdb94ee7fd8b5bbf8f6d59e76731ff4b4f5a02ab3af1d3e0c774862cf96ff613b90600090a25050565b600080611c7b610a0c61231e565b509050610af0838264e8d4a510006127cd565b6000611c98612f85565b7fffffffffffffffffffffffffffffffffffffffffffffffffffffffffffffffff8403611cf157611cee6105e48373ffffffffffffffffffffffffffffffffffffffff1660009081526020819052604090205490565b93505b611cfc848484613086565b90503373ffffffffffffffffffffffffffffffffffffffff8316146112f0576112f0823383612811565b6000611d30612f85565b7fffffffffffffffffffffffffffffffffffffffffffffffffffffffffffffffff8403611d805773ffffffffffffffffffffffffffffffffffffffff821660009081526020819052604090205493505b611d8984610f32565b90506000611d98828585613086565b90503373ffffffffffffffffffffffffffffffffffffffff841614611dc257611dc2833383612811565b50600880547fffffffffffffffffffff00ffffffffffffffffffffffffffffffffffffffffff1675010000000000000000000000000000000000000000001790559392505050565b6000611e1684846111f6565b9050610af081836132bf565b6000610b0b6108e66000610e01565b600080611e3f610a0c61231e565b509050610af08364e8d4a51000836125de565b600080611e5d6134f1565b90506000611e9061037d8573ffffffffffffffffffffffffffffffffffffffff1660009081526020819052604090205490565b9050808210611e9f578061184d565b5092915050565b83421115611f10576040517f08c379a000000000000000000000000000000000000000000000000000000000815260206004820152601d60248201527f45524332305065726d69743a206578706972656420646561646c696e650000006044820152606401610f96565b60007f6e71edae12b1b97f4d1f60370fef10105fa2faae0126114a169c64845d6126c9888888611f3f8c613645565b60408051602081019690965273ffffffffffffffffffffffffffffffffffffffff94851690860152929091166060840152608083015260a082015260c0810186905260e0016040516020818303038152906040528051906020012090506000611fa782613678565b90506000611fb7828787876136e1565b90508973ffffffffffffffffffffffffffffffffffffffff168173ffffffffffffffffffffffffffffffffffffffff161461204e576040517f08c379a000000000000000000000000000000000000000000000000000000000815260206004820152601e60248201527f45524332305065726d69743a20696e76616c6964207369676e617475726500006044820152606401610f96565b611bde8a8a8a61261a565b6000806120676108e66134f1565b90506000611e908473ffffffffffffffffffffffffffffffffffffffff1660009081526020819052604090205490565b6000806000806120dc86868080601f016020809104026020016040519081016040528093929190818152602001838380828437600092019190915250612f1492505050565b6040517fd505accf000000000000000000000000000000000000000000000000000000008152336004820152306024820152604481018e9052606481018b905260ff8416608482015260a4810183905260c48101829052929550909350915073ffffffffffffffffffffffffffffffffffffffff7f0000000000000000000000000000000000000000000000000000000000000000169063d505accf9060e401600060405180830381600087803b15801561219657600080fd5b505af11580156121aa573d6000803e3d6000fd5b505050506121b88a8a6111f6565b9350610df484896132bf565b6121cc612f85565b6121d461312c565b6040517f70a0823100000000000000000000000000000000000000000000000000000000815230600482015261228f9082907f00000000000000000000000000000000000000000000000000000000000000009073ffffffffffffffffffffffffffffffffffffffff8316906370a0823190602401602060405180830381865afa158015612266573d6000803e3d6000fd5b505050506040513d601f19601f8201168201806040525081019061228a919061487a565b613709565b60405173ffffffffffffffffffffffffffffffffffffffff8216907fdff2a3947bcf9fc0807b142e7c8497066db9183428b7bdbfb1fcd0f55c27a3df90600090a250600880547fffffffffffffffffffff00ffffffffffffffffffffffffffffffffffffffffff167501000000000000000000000000000000000000000000179055565b6000610b0b82611e31565b6040517fb5c736e40000000000000000000000000000000000000000000000000000000081527f000000000000000000000000000000000000000000000000000000000000000060048201526000906123f89073ffffffffffffffffffffffffffffffffffffffff7f0000000000000000000000000000000000000000000000000000000000000000169063b5c736e490602401602060405180830381865afa1580156123cf573d6000803e3d6000fd5b505050506040513d601f19601f820116820180604052508101906123f3919061487a565b6137ad565b50919050565b600854600090819067ffffffffffffffff680100000000000000008204811691168085101561245d576040517f694bda1d000000000000000000000000000000000000000000000000000000008152614e2c6004820152602401610f96565b600854600090760100000000000000000000000000000000000000000000900460ff161561259457600754600090819073ffffffffffffffffffffffffffffffffffffffff16635776409464e8d4a510006124b760025490565b6124c19089614799565b6124cb91906147df565b6040518263ffffffff1660e01b81526004016124e991815260200190565b606060405180830381865afa158015612506573d6000803e3d6000fd5b505050506040513d601f19601f8201168201806040525081019061252a91906149f0565b90975090925090506516bcc41e90008211806125435750855b1561254d57600091505b600854700100000000000000000000000000000000900464ffffffffff16818110156125765750805b6301e1338081420384028161258d5761258d6147b0565b0493505050505b81828703655af3107a400002816125ad576125ad6147b0565b0401655af3107a40006125c08285614799565b6125ca91906147df565b6125d49084614867565b9450505050915091565b6000827fffffffffffffffffffffffffffffffffffffffffffffffffffffffffffffffff048411830215820261261357600080fd5b5091020490565b73ffffffffffffffffffffffffffffffffffffffff83166126bc576040517f08c379a0000000000000000000000000000000000000000000000000000000008152602060048201526024808201527f45524332303a20617070726f76652066726f6d20746865207a65726f2061646460448201527f72657373000000000000000000000000000000000000000000000000000000006064820152608401610f96565b73ffffffffffffffffffffffffffffffffffffffff821661275f576040517f08c379a000000000000000000000000000000000000000000000000000000000815260206004820152602260248201527f45524332303a20617070726f766520746f20746865207a65726f20616464726560448201527f73730000000000000000000000000000000000000000000000000000000000006064820152608401610f96565b73ffffffffffffffffffffffffffffffffffffffff83811660008181526001602090815260408083209487168084529482529182902085905590518481527f8c5be1e5ebec7d5bd14f71427d1e84f3dd0314c0f7b2291e5b200ac8c7c3b925910160405180910390a3505050565b6000827fffffffffffffffffffffffffffffffffffffffffffffffffffffffffffffffff048411830215820261280257600080fd5b50910281810615159190040190565b73ffffffffffffffffffffffffffffffffffffffff8381166000908152600160209081526040808320938616835292905220547fffffffffffffffffffffffffffffffffffffffffffffffffffffffffffffffff8114611be557818110156128d5576040517f08c379a000000000000000000000000000000000000000000000000000000000815260206004820152601d60248201527f45524332303a20696e73756666696369656e7420616c6c6f77616e63650000006044820152606401610f96565b611be5848484840361261a565b73ffffffffffffffffffffffffffffffffffffffff8316612985576040517f08c379a000000000000000000000000000000000000000000000000000000000815260206004820152602560248201527f45524332303a207472616e736665722066726f6d20746865207a65726f20616460448201527f64726573730000000000000000000000000000000000000000000000000000006064820152608401610f96565b73ffffffffffffffffffffffffffffffffffffffff8216612a28576040517f08c379a000000000000000000000000000000000000000000000000000000000815260206004820152602360248201527f45524332303a207472616e7366657220746f20746865207a65726f206164647260448201527f65737300000000000000000000000000000000000000000000000000000000006064820152608401610f96565b73ffffffffffffffffffffffffffffffffffffffff831660009081526020819052604090205481811015612ade576040517f08c379a000000000000000000000000000000000000000000000000000000000815260206004820152602660248201527f45524332303a207472616e7366657220616d6f756e742065786365656473206260448201527f616c616e636500000000000000000000000000000000000000000000000000006064820152608401610f96565b73ffffffffffffffffffffffffffffffffffffffff848116600081815260208181526040808320878703905593871680835291849020805487019055925185815290927fddf252ad1be2c89b69c2b068fc378daa952ba7f163c4a11628f55a4df523b3ef910160405180910390a3611be5565b60003073ffffffffffffffffffffffffffffffffffffffff7f000000000000000000000000000000000000000000000000000000000000000016148015612bb757507f000000000000000000000000000000000000000000000000000000000000000046145b15612be157507f000000000000000000000000000000000000000000000000000000000000000090565b50604080517f00000000000000000000000000000000000000000000000000000000000000006020808301919091527f0000000000000000000000000000000000000000000000000000000000000000828401527f000000000000000000000000000000000000000000000000000000000000000060608301524660808301523060a0808401919091528351808403909101815260c0909201909252805191012090565b600080612d6367ffffffffffffffff60017f000000000000000000000000000000000000000000000000000000000000000073ffffffffffffffffffffffffffffffffffffffff1663b5c736e47f00000000000000000000000000000000000000000000000000000000000000006040518263ffffffff1660e01b8152600401612d1191815260200190565b602060405180830381865afa158015612d2e573d6000803e3d6000fd5b505050506040513d601f19601f82011682018060405250810190612d52919061487a565b901c16600860ff9082901c91161b90565b905064e8d4a51000612d7361231e565b820281612d8257612d826147b0565b0491505090565b600080612d95846123fe565b6008549193509150760100000000000000000000000000000000000000000000900460ff1680612dc25750825b15612edf5760085467ffffffffffffffff6801000000000000000090910481161115612e1e576040517f694bda1d000000000000000000000000000000000000000000000000000000008152614e296004820152602401610f96565b6008805467ffffffffffffffff8681167fffffffffffffffffffffff00000000000000000000000000000000000000000090921668010000000000000000918616919091027fffffffffffffffffffffff0000000000ffffffffffffffff00000000000000001617177001000000000000000000000000000000004264ffffffffff160217905560408051838152602081018690527f9dd85e9767d796973b86c6ccf3a294429cfd5e3e93fa23ac388b9277bb8283fd910160405180910390a15b8015611e9f57600880547fffffffffffffffffff00ffffffffffffffffffffffffffffffffffffffffffff1690555092915050565b60008060008351604114612f2757600080fd5b5050506020810151604082015160609092015160001a92909190565b80821115612f81576040517f694bda1d000000000000000000000000000000000000000000000000000000008152614e236004820152602401610f96565b5050565b6008547501000000000000000000000000000000000000000000900460ff16600114612fe1576040517f694bda1d000000000000000000000000000000000000000000000000000000008152614e286004820152602401610f96565b600880547fffffffffffffffffffff00ffffffffffffffffffffffffffffffffffffffffff167502000000000000000000000000000000000000000000179055565b600080600061306785858080601f016020809104026020016040519081016040528093929190818152602001838380828437600092019190915250612f1492505050565b92509250925061307c88338989878787611ea6565b5050505050505050565b6000826130928161349d565b6130b564e8d4a510006130ad6130a661231e565b6000612d89565b8791906127cd565b91506130c183836139bb565b6130cb8585613b7f565b50604080518681526020810184905273ffffffffffffffffffffffffffffffffffffffff808616929087169133917ffbde797d201c681b91056529119e0b02407c7bb96a4a2c75c01fc9667232c8db910160405180910390a4509392505050565b6040517f2520e7ff0000000000000000000000000000000000000000000000000000000081523360048201527f000000000000000000000000000000000000000000000000000000000000000073ffffffffffffffffffffffffffffffffffffffff1690632520e7ff90602401602060405180830381865afa1580156131b6573d6000803e3d6000fd5b505050506040513d601f19601f820116820180604052508101906131da9190614a29565b613214576040517f694bda1d000000000000000000000000000000000000000000000000000000008152614e266004820152602401610f96565b565b6000826132228161349d565b600061322e86856132fd565b905061323b816000612d89565b90508061324d64e8d4a5100088614799565b61325791906147df565b92506132638584613c3f565b604080518781526020810185905273ffffffffffffffffffffffffffffffffffffffff87169133917fdcbc1c05240f31ff3ad067ef1ee35ce4997762752e3a095284754544f4c709d7910160405180910390a350509392505050565b80821015612f81576040517f694bda1d000000000000000000000000000000000000000000000000000000008152614e226004820152602401610f96565b60007f000000000000000000000000000000000000000000000000000000000000000073ffffffffffffffffffffffffffffffffffffffff1663ad967e157f000000000000000000000000000000000000000000000000000000000000000061336586613d32565b6000806000886040518763ffffffff1660e01b815260040161338c96959493929190614a46565b60408051808303816000875af11580156133aa573d6000803e3d6000fd5b505050506040513d601f19601f820116820180604052508101906133ce9190614a9f565b509392505050565b60006040517f23b872dd00000000000000000000000000000000000000000000000000000000815273ffffffffffffffffffffffffffffffffffffffff8516600482015273ffffffffffffffffffffffffffffffffffffffff841660248201528260448201526020600060648360008a5af13d15601f3d1160016000511416171691505080613496576040517fdee51a8a000000000000000000000000000000000000000000000000000000008152620115596004820152602401610f96565b5050505050565b73ffffffffffffffffffffffffffffffffffffffff81166134ee576040517f694bda1d000000000000000000000000000000000000000000000000000000008152614e246004820152602401610f96565b50565b6040517fb5c736e40000000000000000000000000000000000000000000000000000000081527f00000000000000000000000000000000000000000000000000000000000000006004820152600090819073ffffffffffffffffffffffffffffffffffffffff7f0000000000000000000000000000000000000000000000000000000000000000169063b5c736e490602401602060405180830381865afa1580156135a0573d6000803e3d6000fd5b505050506040513d601f19601f820116820180604052508101906135c4919061487a565b9050600981901c66ffffffffffffff16600182901c60ff161b6135e78282613de8565b925060006135f361231e565b64e8d4a51000948102859004949202919091049050828111613616576000613620565b61362083826149b1565b9250600061362c613e7c565b905083811161363b578061363d565b835b935050505090565b73ffffffffffffffffffffffffffffffffffffffff811660009081526005602052604090208054600181018255906123f8565b6000610b0b613685612b51565b836040517f19010000000000000000000000000000000000000000000000000000000000006020820152602281018390526042810182905260009060620160405160208183030381529060405280519060200120905092915050565b60008060006136f287878787613f51565b915091506136ff81614040565b5095945050505050565b60006040517fa9059cbb00000000000000000000000000000000000000000000000000000000815273ffffffffffffffffffffffffffffffffffffffff84166004820152826024820152602060006044836000895af13d15601f3d1160016000511416171691505080611be5576040517fdee51a8a0000000000000000000000000000000000000000000000000000000081526201155a6004820152602401610f96565b67ffffffffffffffff605b82901c811690609b83901c168115806137cf575080155b1561380b576040517fd50d7512000000000000000000000000000000000000000000000000000000008152620111716004820152602401610f96565b61ffff8316603a84901c6401ffffffff16428181039160ea87901c617fff16911480613835575082155b806138405750806001145b1561384d57505050915091565b64496cebb80084840283020484019350617fff60db87901c1692508260010361387857505050915091565b826001166001036138cd5760019290921c91826c7e37be2022c0914b2680000000816138a6576138a66147b0565b049250612710601e87901c613fff166b033b2e3c9fd0803ce80000008501020492506138fa565b60019290921c916305f5e100601e87901c613fff166127108501026b033b2e3c9fd0803ce8000000020492505b806001166001036139315760011c61271081016b033b2e3c9fd0803ce8000000820281613929576139296147b0565b049050613967565b60011c61271081016b033b2e3c9fd0803ce8000000820281613955576139556147b0565b046b033b2e3c9fd0803ce80000000390505b760a70c3c40a64e6c51999090b65f67d92400000000000008382026127100261ffff881691900402601087901c613fff16612710030292506801b5a660ea44b8000085840283020485019450505050915091565b73ffffffffffffffffffffffffffffffffffffffff8216613a5e576040517f08c379a000000000000000000000000000000000000000000000000000000000815260206004820152602160248201527f45524332303a206275726e2066726f6d20746865207a65726f2061646472657360448201527f73000000000000000000000000000000000000000000000000000000000000006064820152608401610f96565b73ffffffffffffffffffffffffffffffffffffffff821660009081526020819052604090205481811015613b14576040517f08c379a000000000000000000000000000000000000000000000000000000000815260206004820152602260248201527f45524332303a206275726e20616d6f756e7420657863656564732062616c616e60448201527f63650000000000000000000000000000000000000000000000000000000000006064820152608401610f96565b73ffffffffffffffffffffffffffffffffffffffff83166000818152602081815260408083208686039055600280548790039055518581529192917fddf252ad1be2c89b69c2b068fc378daa952ba7f163c4a11628f55a4df523b3ef910160405180910390a3505050565b60007f000000000000000000000000000000000000000000000000000000000000000073ffffffffffffffffffffffffffffffffffffffff1663ad967e157f0000000000000000000000000000000000000000000000000000000000000000613be786613d32565b613bf090614ac3565b60408051600080825260208201928390527fffffffff0000000000000000000000000000000000000000000000000000000060e087901b1690925261338c939291908890829060248101614a46565b73ffffffffffffffffffffffffffffffffffffffff8216613cbc576040517f08c379a000000000000000000000000000000000000000000000000000000000815260206004820152601f60248201527f45524332303a206d696e7420746f20746865207a65726f2061646472657373006044820152606401610f96565b8060026000828254613cce9190614867565b909155505073ffffffffffffffffffffffffffffffffffffffff8216600081815260208181526040808320805486019055518481527fddf252ad1be2c89b69c2b068fc378daa952ba7f163c4a11628f55a4df523b3ef910160405180910390a35050565b60007f7fffffffffffffffffffffffffffffffffffffffffffffffffffffffffffffff821115613de4576040517f08c379a000000000000000000000000000000000000000000000000000000000815260206004820152602860248201527f53616665436173743a2076616c756520646f65736e27742066697420696e206160448201527f6e20696e743235360000000000000000000000000000000000000000000000006064820152608401610f96565b5090565b600066ffffffffffffff604984901c1660ff604185901c161b808203613e12576000915050610b0b565b612710613fff60a286901c168402046401ffffffff608186901c16420362ffffff60b087901c16613e438284614799565b613e4d91906147df565b9050808311613e5d576000613e61565b8083035b93505080840383811115613e73578093505b50505092915050565b6040517f70a0823100000000000000000000000000000000000000000000000000000000815273ffffffffffffffffffffffffffffffffffffffff7f0000000000000000000000000000000000000000000000000000000000000000811660048301526000917f0000000000000000000000000000000000000000000000000000000000000000909116906370a0823190602401602060405180830381865afa158015613f2d573d6000803e3d6000fd5b505050506040513d601f19601f82011682018060405250810190610b60919061487a565b6000807f7fffffffffffffffffffffffffffffff5d576e7357a4501ddfe92f46681b20a0831115613f885750600090506003614037565b6040805160008082526020820180845289905260ff881692820192909252606081018690526080810185905260019060a0016020604051602081039080840390855afa158015613fdc573d6000803e3d6000fd5b50506040517fffffffffffffffffffffffffffffffffffffffffffffffffffffffffffffffe0015191505073ffffffffffffffffffffffffffffffffffffffff811661403057600060019250925050614037565b9150600090505b94509492505050565b600081600481111561405457614054614afb565b0361405c5750565b600181600481111561407057614070614afb565b036140d7576040517f08c379a000000000000000000000000000000000000000000000000000000000815260206004820152601860248201527f45434453413a20696e76616c6964207369676e617475726500000000000000006044820152606401610f96565b60028160048111156140eb576140eb614afb565b03614152576040517f08c379a000000000000000000000000000000000000000000000000000000000815260206004820152601f60248201527f45434453413a20696e76616c6964207369676e6174757265206c656e677468006044820152606401610f96565b600381600481111561416657614166614afb565b036134ee576040517f08c379a000000000000000000000000000000000000000000000000000000000815260206004820152602260248201527f45434453413a20696e76616c6964207369676e6174757265202773272076616c60448201527f75650000000000000000000000000000000000000000000000000000000000006064820152608401610f96565b6000815180845260005b81811015614219576020818501810151868301820152016141fd565b5060006020828601015260207fffffffffffffffffffffffffffffffffffffffffffffffffffffffffffffffe0601f83011685010191505092915050565b602081526000610af060208301846141f3565b60006020828403121561427c57600080fd5b5035919050565b73ffffffffffffffffffffffffffffffffffffffff811681146134ee57600080fd5b600080604083850312156142b857600080fd5b82356142c381614283565b946020939093013593505050565b6000806000606084860312156142e657600080fd5b83356142f181614283565b9250602084013561430181614283565b929592945050506040919091013590565b60008083601f84011261432457600080fd5b50813567ffffffffffffffff81111561433c57600080fd5b60208301915083602082850101111561435457600080fd5b9250929050565b60008060008060008060a0878903121561437457600080fd5b86359550602087013561438681614283565b94506040870135935060608701359250608087013567ffffffffffffffff8111156143b057600080fd5b6143bc89828a01614312565b979a9699509497509295939492505050565b6000602082840312156143e057600080fd5b8135610af081614283565b60008060008060008060008060e0898b03121561440757600080fd5b8835975060208901359650604089013561442081614283565b9550606089013561443081614283565b94506080890135935060a0890135925060c089013567ffffffffffffffff81111561445a57600080fd5b6144668b828c01614312565b999c989b5096995094979396929594505050565b60008060008060008086880361014081121561449557600080fd5b8735965060208801356144a781614283565b95506040880135945060c07fffffffffffffffffffffffffffffffffffffffffffffffffffffffffffffffa0820112156144e057600080fd5b5060608701925061012087013567ffffffffffffffff8111156143b057600080fd5b6000806040838503121561451557600080fd5b82359150602083013561452781614283565b809150509250929050565b600080600080600080600060c0888a03121561454d57600080fd5b87359650602088013561455f81614283565b9550604088013561456f81614283565b9450606088013593506080880135925060a088013567ffffffffffffffff81111561459957600080fd5b6145a58a828b01614312565b989b979a50959850939692959293505050565b6000806000606084860312156145cd57600080fd5b83359250602084013561430181614283565b600080600080608085870312156145f557600080fd5b84359350602085013561460781614283565b9250604085013561461781614283565b9396929550929360600135925050565b6000806000806060858703121561463d57600080fd5b843561464881614283565b935060208501359250604085013567ffffffffffffffff81111561466b57600080fd5b61467787828801614312565b95989497509550505050565b60008060006060848603121561469857600080fd5b8335925060208401356146aa81614283565b915060408401356146ba81614283565b809150509250925092565b600080600080600080600060e0888a0312156146e057600080fd5b87356146eb81614283565b965060208801356146fb81614283565b95506040880135945060608801359350608088013560ff8116811461471f57600080fd5b9699959850939692959460a0840135945060c09093013592915050565b6000806040838503121561474f57600080fd5b823561475a81614283565b9150602083013561452781614283565b7f4e487b7100000000000000000000000000000000000000000000000000000000600052601160045260246000fd5b8082028115828204841417610b0b57610b0b61476a565b7f4e487b7100000000000000000000000000000000000000000000000000000000600052601260045260246000fd5b600082614815577f4e487b7100000000000000000000000000000000000000000000000000000000600052601260045260246000fd5b500490565b600181811c9082168061482e57607f821691505b6020821081036123f8577f4e487b7100000000000000000000000000000000000000000000000000000000600052602260045260246000fd5b80820180821115610b0b57610b0b61476a565b60006020828403121561488c57600080fd5b5051919050565b803565ffffffffffff811681146148a957600080fd5b919050565b8183528181602085013750600060208284010152600060207fffffffffffffffffffffffffffffffffffffffffffffffffffffffffffffffe0601f840116840101905092915050565b600061010073ffffffffffffffffffffffffffffffffffffffff8088168452863561492181614283565b818116602086015250602087013561493881614283565b81811660408601525061494d60408801614893565b65ffffffffffff80821660608701528061496960608b01614893565b1660808701525050608087013561497f81614283565b81811660a0860152505060a086013560c08401528060e08401526149a681840185876148ae565b979650505050505050565b81810381811115610b0b57610b0b61476a565b80151581146134ee57600080fd5b600080604083850312156149e557600080fd5b823561475a816149c4565b600080600060608486031215614a0557600080fd5b835192506020840151614a17816149c4565b80925050604084015190509250925092565b600060208284031215614a3b57600080fd5b8151610af0816149c4565b600073ffffffffffffffffffffffffffffffffffffffff8089168352876020840152866040840152808616606084015280851660808401525060c060a0830152614a9360c08301846141f3565b98975050505050505050565b60008060408385031215614ab257600080fd5b505080516020909101519092909150565b60007f80000000000000000000000000000000000000000000000000000000000000008203614af457614af461476a565b5060000390565b7f4e487b7100000000000000000000000000000000000000000000000000000000600052602160045260246000fdfea2646970667358221220cbe941b7fb5421befc7fe2f3be90dd8559606c0f7a395c12621134b378f8e83e64736f6c63430008150033"
}