{
  "address": "0x498E8cD451f255C7913DAa72Be24f57C602c4bE0",
  "abi": [
    {
      "inputs": [
        {
          "internalType": "contract ILiquidity",
          "name": "liquidity_",
          "type": "address"
        },
        {
          "internalType": "address",
          "name": "owner_",
          "type": "address"
        }
      ],
      "stateMutability": "nonpayable",
      "type": "constructor"
    },
    {
      "inputs": [
        {
          "internalType": "uint256",
          "name": "errorId_",
          "type": "uint256"
        }
      ],
      "name": "FluidLendingError",
      "type": "error"
    },
    {
      "anonymous": false,
      "inputs": [
        {
          "indexed": true,
          "internalType": "address",
          "name": "auth",
          "type": "address"
        },
        {
          "indexed": true,
          "internalType": "bool",
          "name": "allowed",
          "type": "bool"
        }
      ],
      "name": "LogSetAuth",
      "type": "event"
    },
    {
      "anonymous": false,
      "inputs": [
        {
          "indexed": true,
          "internalType": "address",
          "name": "deployer",
          "type": "address"
        },
        {
          "indexed": true,
          "internalType": "bool",
          "name": "allowed",
          "type": "bool"
        }
      ],
      "name": "LogSetDeployer",
      "type": "event"
    },
    {
      "anonymous": false,
      "inputs": [
        {
          "indexed": true,
          "internalType": "string",
          "name": "iTokenType",
          "type": "string"
        },
        {
          "indexed": true,
          "internalType": "address",
          "name": "creationCodePointer",
          "type": "address"
        }
      ],
      "name": "LogSetITokenCreationCode",
      "type": "event"
    },
    {
      "anonymous": false,
      "inputs": [
        {
          "indexed": true,
          "internalType": "address",
          "name": "token",
          "type": "address"
        },
        {
          "indexed": true,
          "internalType": "address",
          "name": "asset",
          "type": "address"
        },
        {
          "indexed": true,
          "internalType": "uint256",
          "name": "count",
          "type": "uint256"
        },
        {
          "indexed": false,
          "internalType": "string",
          "name": "iTokenType",
          "type": "string"
        }
      ],
      "name": "LogTokenCreated",
      "type": "event"
    },
    {
      "anonymous": false,
      "inputs": [
        {
          "indexed": true,
          "internalType": "address",
          "name": "user",
          "type": "address"
        },
        {
          "indexed": true,
          "internalType": "address",
          "name": "newOwner",
          "type": "address"
        }
      ],
      "name": "OwnershipTransferred",
      "type": "event"
    },
    {
      "inputs": [],
      "name": "LIQUIDITY",
      "outputs": [
        {
          "internalType": "contract ILiquidity",
          "name": "",
          "type": "address"
        }
      ],
      "stateMutability": "view",
      "type": "function"
    },
    {
      "inputs": [],
      "name": "allTokens",
      "outputs": [
        {
          "internalType": "address[]",
          "name": "",
          "type": "address[]"
        }
      ],
      "stateMutability": "view",
      "type": "function"
    },
    {
      "inputs": [
        {
          "internalType": "address",
          "name": "asset_",
          "type": "address"
        },
        {
          "internalType": "string",
          "name": "iTokenType_",
          "type": "string"
        }
      ],
      "name": "computeToken",
      "outputs": [
        {
          "internalType": "address",
          "name": "token_",
          "type": "address"
        }
      ],
      "stateMutability": "view",
      "type": "function"
    },
    {
      "inputs": [
        {
          "internalType": "address",
          "name": "asset_",
          "type": "address"
        },
        {
          "internalType": "string",
          "name": "iTokenType_",
          "type": "string"
        },
        {
          "internalType": "bool",
          "name": "isNativeUnderlying_",
          "type": "bool"
        }
      ],
      "name": "createToken",
      "outputs": [
        {
          "internalType": "address",
          "name": "token_",
          "type": "address"
        }
      ],
      "stateMutability": "nonpayable",
      "type": "function"
    },
    {
      "inputs": [
        {
          "internalType": "string",
          "name": "iTokenType_",
          "type": "string"
        }
      ],
      "name": "iTokenCreationCode",
      "outputs": [
        {
          "internalType": "bytes",
          "name": "",
          "type": "bytes"
        }
      ],
      "stateMutability": "view",
      "type": "function"
    },
    {
      "inputs": [],
      "name": "iTokenTypes",
      "outputs": [
        {
          "internalType": "string[]",
          "name": "",
          "type": "string[]"
        }
      ],
      "stateMutability": "view",
      "type": "function"
    },
    {
      "inputs": [
        {
          "internalType": "address",
          "name": "auth_",
          "type": "address"
        }
      ],
      "name": "isAuth",
      "outputs": [
        {
          "internalType": "bool",
          "name": "",
          "type": "bool"
        }
      ],
      "stateMutability": "view",
      "type": "function"
    },
    {
      "inputs": [
        {
          "internalType": "address",
          "name": "deployer_",
          "type": "address"
        }
      ],
      "name": "isDeployer",
      "outputs": [
        {
          "internalType": "bool",
          "name": "",
          "type": "bool"
        }
      ],
      "stateMutability": "view",
      "type": "function"
    },
    {
      "inputs": [],
      "name": "owner",
      "outputs": [
        {
          "internalType": "address",
          "name": "",
          "type": "address"
        }
      ],
      "stateMutability": "view",
      "type": "function"
    },
    {
      "inputs": [
        {
          "internalType": "address",
          "name": "auth_",
          "type": "address"
        },
        {
          "internalType": "bool",
          "name": "allowed_",
          "type": "bool"
        }
      ],
      "name": "setAuth",
      "outputs": [],
      "stateMutability": "nonpayable",
      "type": "function"
    },
    {
      "inputs": [
        {
          "internalType": "address",
          "name": "deployer_",
          "type": "address"
        },
        {
          "internalType": "bool",
          "name": "allowed_",
          "type": "bool"
        }
      ],
      "name": "setDeployer",
      "outputs": [],
      "stateMutability": "nonpayable",
      "type": "function"
    },
    {
      "inputs": [
        {
          "internalType": "string",
          "name": "iTokenType_",
          "type": "string"
        },
        {
          "internalType": "bytes",
          "name": "creationCode_",
          "type": "bytes"
        }
      ],
      "name": "setITokenCreationCode",
      "outputs": [],
      "stateMutability": "nonpayable",
      "type": "function"
    },
    {
      "inputs": [
        {
          "internalType": "address",
          "name": "newOwner",
          "type": "address"
        }
      ],
      "name": "transferOwnership",
      "outputs": [],
      "stateMutability": "nonpayable",
      "type": "function"
    }
  ],
  "transactionHash": "0xd39493e549e1e13173e4a51825ee00932c255ec19321243b30d3305b803af8f7",
  "args": [
    "0x52Ef3F34aE6Ed1B4B5044ee7Dc2b929461736254",
    "0x4F6F977aCDD1177DCD81aB83074855EcB9C2D49e"
  ],
  "numDeployments": 2,
  "solcInputHash": "a6aa1ee25f49d296a5af1b7359ecde08",
  "bytecode": "0x60a06040523480156200001157600080fd5b506040516200221b3803806200221b83398101604081905262000034916200013d565b600080546001600160a01b0319166001600160a01b03831690811782556040518492849283929091907f8be0079c531659141344cd1fd0a4f28419497f9722a3daafe3b4186f6b6457e0908290a3506001600160a01b038116620000b45760405163694bda1d60e01b81526155f260048201526024015b60405180910390fd5b506001600160a01b0390811660805282908116620000ea5760405163694bda1d60e01b81526155f26004820152602401620000ab565b6000546001600160a01b0316806200011a5760405163694bda1d60e01b81526155f26004820152602401620000ab565b505050506200017c565b6001600160a01b03811681146200013a57600080fd5b50565b600080604083850312156200015157600080fd5b82516200015e8162000124565b6020840151909250620001718162000124565b809150509250929050565b608051612075620001a66000396000818161014a015281816109f90152610ade01526120756000f3fe608060405234801561001057600080fd5b50600436106100df5760003560e01c80636ff97f1d1161008c578063bb4a64d311610066578063bb4a64d314610201578063e78e049a14610214578063e853a33d14610227578063f2fde38b1461023a57600080fd5b80636ff97f1d146101b95780638da5cb5b146101ce578063a34b5ee8146101ee57600080fd5b80632861c7d1116100bd5780632861c7d11461014557806350c358a414610191578063558e0f6f146101a457600080fd5b80630b44a218146100e45780631b6fe326146100f95780632520e7ff14610122575b600080fd5b6100f76100f2366004611659565b61024d565b005b61010c610107366004611766565b610391565b6040516101199190611809565b60405180910390f35b61013561013036600461181c565b610431565b6040519015158152602001610119565b61016c7f000000000000000000000000000000000000000000000000000000000000000081565b60405173ffffffffffffffffffffffffffffffffffffffff9091168152602001610119565b61013561019f36600461181c565b610487565b6101ac6104d8565b6040516101199190611837565b6101c16105b1565b60405161011991906118b7565b60005461016c9073ffffffffffffffffffffffffffffffffffffffff1681565b6100f76101fc366004611659565b610620565b61016c61020f36600461195a565b61075f565b61016c6102223660046119ad565b61077c565b6100f7610235366004611a12565b610c2d565b6100f761024836600461181c565b611024565b60005473ffffffffffffffffffffffffffffffffffffffff1633146102d3576040517f08c379a000000000000000000000000000000000000000000000000000000000815260206004820152600c60248201527f554e415554484f52495a4544000000000000000000000000000000000000000060448201526064015b60405180910390fd5b8173ffffffffffffffffffffffffffffffffffffffff8116610325576040517f694bda1d0000000000000000000000000000000000000000000000000000000081526155f260048201526024016102ca565b81610331576000610334565b60015b73ffffffffffffffffffffffffffffffffffffffff841660008181526001602052604080822060ff949094169093559151841515927f014b54fa6d2080e9aacd1c598c7689a625610d7d684dd41d10407e48aa8b120091a3505050565b6060600060056000846040516020016103aa9190611809565b604080517fffffffffffffffffffffffffffffffffffffffffffffffffffffffffffffffe08184030181529181528151602092830120835290820192909252016000205473ffffffffffffffffffffffffffffffffffffffff169050801561041a5761041581611115565b61042a565b6040805160008152602081019091525b9392505050565b6000805473ffffffffffffffffffffffffffffffffffffffff83811691161480610481575073ffffffffffffffffffffffffffffffffffffffff8216600090815260016020819052604090912054145b92915050565b6000805473ffffffffffffffffffffffffffffffffffffffff8381169116148061048157505073ffffffffffffffffffffffffffffffffffffffff1660009081526002602052604090205460011490565b60606004805480602002602001604051908101604052809291908181526020016000905b828210156105a857838290600052602060002001805461051b90611a6e565b80601f016020809104026020016040519081016040528092919081815260200182805461054790611a6e565b80156105945780601f1061056957610100808354040283529160200191610594565b820191906000526020600020905b81548152906001019060200180831161057757829003601f168201915b5050505050815260200190600101906104fc565b50505050905090565b6060600380548060200260200160405190810160405280929190818152602001828054801561061657602002820191906000526020600020905b815473ffffffffffffffffffffffffffffffffffffffff1681526001909101906020018083116105eb575b5050505050905090565b60005473ffffffffffffffffffffffffffffffffffffffff1633146106a1576040517f08c379a000000000000000000000000000000000000000000000000000000000815260206004820152600c60248201527f554e415554484f52495a4544000000000000000000000000000000000000000060448201526064016102ca565b8173ffffffffffffffffffffffffffffffffffffffff81166106f3576040517f694bda1d0000000000000000000000000000000000000000000000000000000081526155f260048201526024016102ca565b816106ff576000610702565b60015b73ffffffffffffffffffffffffffffffffffffffff841660008181526002602052604080822060ff949094169093559151841515927f48cc5b4660fae22eabe5e803ee595e63572773d114bcd54ecc118c1efa8d75af91a3505050565b600061077461076f858585611143565b611179565b949350505050565b60008473ffffffffffffffffffffffffffffffffffffffff81166107d0576040517f694bda1d0000000000000000000000000000000000000000000000000000000081526155f260048201526024016102ca565b6107d933610487565b610813576040517f694bda1d0000000000000000000000000000000000000000000000000000000081526155f560048201526024016102ca565b600060056000878760405160200161082c929190611b0a565b604080517fffffffffffffffffffffffffffffffffffffffffffffffffffffffffffffffe08184030181529181528151602092830120835290820192909252016000205473ffffffffffffffffffffffffffffffffffffffff169050806108c3576040517f694bda1d0000000000000000000000000000000000000000000000000000000081526155f160048201526024016102ca565b60006108d0888888611143565b90506108fa6108de82611179565b73ffffffffffffffffffffffffffffffffffffffff163b151590565b15610935576040517f694bda1d0000000000000000000000000000000000000000000000000000000081526155f360048201526024016102ca565b60006109c7600587610985576040805173ffffffffffffffffffffffffffffffffffffffff8d16602080830191909152818301939093528151808203830181526060909101909152805191012090565b6040805173eeeeeeeeeeeeeeeeeeeeeeeeeeeeeeeeeeeeeeee602080830191909152818301939093528151808203830181526060909101909152805191012090565b6040517fb5c736e4000000000000000000000000000000000000000000000000000000008152600481018290529091507f000000000000000000000000000000000000000000000000000000000000000073ffffffffffffffffffffffffffffffffffffffff169063b5c736e490602401602060405180830381865afa158015610a55573d6000803e3d6000fd5b505050506040513d601f19601f82011682018060405250810190610a799190611b1e565b600003610ab6576040517f694bda1d0000000000000000000000000000000000000000000000000000000081526155f460048201526024016102ca565b610b6982610ac385611115565b6040805173ffffffffffffffffffffffffffffffffffffffff7f0000000000000000000000000000000000000000000000000000000000000000811660208301523092820192909252908d166060820152608001604080517fffffffffffffffffffffffffffffffffffffffffffffffffffffffffffffffe081840301815290829052610b539291602001611b37565b60405160208183030381529060405260006112df565b6003805460018101825560008290527fc2575a0e9e593c00f959f8c92f12db2869c3395a3b0502d05e2516446f71f85b0180547fffffffffffffffffffffffff00000000000000000000000000000000000000001673ffffffffffffffffffffffffffffffffffffffff848116918217909255915460405193985092908c1691907f60c8487fc242a40cc8d2722cf9b3b5a14b316a50bf4ed30c9f0f1b0126728a3690610c19908d908d90611b0a565b60405180910390a450505050949350505050565b610c3633610431565b610c70576040517f694bda1d0000000000000000000000000000000000000000000000000000000081526155f560048201526024016102ca565b600454604051600090610c87908690602001611809565b60405160208183030381529060405280519060200120905083839050600003610e58576005600086604051602001610cbf9190611809565b604080517fffffffffffffffffffffffffffffffffffffffffffffffffffffffffffffffe0818403018152918152815160209283012083529082019290925201600090812080547fffffffffffffffffffffffff00000000000000000000000000000000000000001690555b82811015610e11578160048281548110610d4757610d47611b66565b90600052602060002001604051602001610d619190611b95565b6040516020818303038152906040528051906020012003610e01576004610d89600185611c6d565b81548110610d9957610d99611b66565b9060005260206000200160048281548110610db657610db6611b66565b906000526020600020019081610dcc9190611ccf565b506004805480610dde57610dde611e06565b600190038181906000526020600020016000610dfa91906115ca565b9055610e11565b610e0a81611e35565b9050610d2b565b50604051600090610e23908790611e6d565b604051908190038120907f81c98a8270065f4461b4a1cb2ce9f06c4aeb21e097e222205b059073ff5bf26c90600090a361101d565b6000610e9985858080601f0160208091040260200160405190810160405280939291908181526020018383808284376000920191909152506114b192505050565b9050806005600088604051602001610eb19190611809565b60405160208183030381529060405280519060200120815260200190815260200160002060006101000a81548173ffffffffffffffffffffffffffffffffffffffff021916908373ffffffffffffffffffffffffffffffffffffffff1602179055506000805b84811015610f81578360048281548110610f3357610f33611b66565b90600052602060002001604051602001610f4d9190611b95565b6040516020818303038152906040528051906020012003610f715760019150610f81565b610f7a81611e35565b9050610f17565b5080610fc557600480546001810182556000919091527f8a35acfbc15ff81a39ae7d344fd709f28e8600b4aa8c65c6b64bfe7fe36bd19b01610fc38882611e89565b505b8173ffffffffffffffffffffffffffffffffffffffff1687604051610fea9190611e6d565b604051908190038120907f81c98a8270065f4461b4a1cb2ce9f06c4aeb21e097e222205b059073ff5bf26c90600090a350505b5050505050565b60005473ffffffffffffffffffffffffffffffffffffffff1633146110a5576040517f08c379a000000000000000000000000000000000000000000000000000000000815260206004820152600c60248201527f554e415554484f52495a4544000000000000000000000000000000000000000060448201526064016102ca565b600080547fffffffffffffffffffffffff00000000000000000000000000000000000000001673ffffffffffffffffffffffffffffffffffffffff83169081178255604051909133917f8be0079c531659141344cd1fd0a4f28419497f9722a3daafe3b4186f6b6457e09190a350565b606061048182600161113e8173ffffffffffffffffffffffffffffffffffffffff84163b611c6d565b611589565b600083838360405160200161115a93929190611f9b565b6040516020818303038152906040528051906020012090509392505050565b604080518082018252601081527f67363d3d37363d34f03d5260086018f30000000000000000000000000000000060209182015290517fff00000000000000000000000000000000000000000000000000000000000000918101919091527fffffffffffffffffffffffffffffffffffffffff0000000000000000000000003060601b166021820152603581018290527f21c35dbe1b344a2488cf3321d6ce542f8e9f305544ff09e4993a62319a497c1f60558201526000908190611255906075015b6040516020818303038152906040528051906020012090565b6040517fd69400000000000000000000000000000000000000000000000000000000000060208201527fffffffffffffffffffffffffffffffffffffffff000000000000000000000000606083901b1660228201527f0100000000000000000000000000000000000000000000000000000000000000603682015290915061042a9060370161123c565b6000806040518060400160405280601081526020017f67363d3d37363d34f03d5260086018f30000000000000000000000000000000081525090506000858251602084016000f5905073ffffffffffffffffffffffffffffffffffffffff81166113a5576040517f08c379a000000000000000000000000000000000000000000000000000000000815260206004820152601160248201527f4445504c4f594d454e545f4641494c454400000000000000000000000000000060448201526064016102ca565b6113ae86611179565b925060008173ffffffffffffffffffffffffffffffffffffffff1685876040516113d89190611e6d565b60006040518083038185875af1925050503d8060008114611415576040519150601f19603f3d011682016040523d82523d6000602084013e61141a565b606091505b50509050808015611441575073ffffffffffffffffffffffffffffffffffffffff84163b15155b6114a7576040517f08c379a000000000000000000000000000000000000000000000000000000000815260206004820152601560248201527f494e495449414c495a4154494f4e5f4641494c4544000000000000000000000060448201526064016102ca565b5050509392505050565b600080826040516020016114c59190611fd4565b60405160208183030381529060405290506000816040516020016114e99190611ffa565b60405160208183030381529060405290508051602082016000f0925073ffffffffffffffffffffffffffffffffffffffff8316611582576040517f08c379a000000000000000000000000000000000000000000000000000000000815260206004820152601160248201527f4445504c4f594d454e545f4641494c454400000000000000000000000000000060448201526064016102ca565b5050919050565b60408051603f83017fffffffffffffffffffffffffffffffffffffffffffffffffffffffffffffffe0168101909152818152818360208301863c9392505050565b5080546115d690611a6e565b6000825580601f106115e6575050565b601f0160209004906000526020600020908101906116049190611607565b50565b5b8082111561161c5760008155600101611608565b5090565b803573ffffffffffffffffffffffffffffffffffffffff8116811461164457600080fd5b919050565b8035801515811461164457600080fd5b6000806040838503121561166c57600080fd5b61167583611620565b915061168360208401611649565b90509250929050565b7f4e487b7100000000000000000000000000000000000000000000000000000000600052604160045260246000fd5b600082601f8301126116cc57600080fd5b813567ffffffffffffffff808211156116e7576116e761168c565b604051601f83017fffffffffffffffffffffffffffffffffffffffffffffffffffffffffffffffe0908116603f0116810190828211818310171561172d5761172d61168c565b8160405283815286602085880101111561174657600080fd5b836020870160208301376000602085830101528094505050505092915050565b60006020828403121561177857600080fd5b813567ffffffffffffffff81111561178f57600080fd5b610774848285016116bb565b60005b838110156117b657818101518382015260200161179e565b50506000910152565b600081518084526117d781602086016020860161179b565b601f017fffffffffffffffffffffffffffffffffffffffffffffffffffffffffffffffe0169290920160200192915050565b60208152600061042a60208301846117bf565b60006020828403121561182e57600080fd5b61042a82611620565b6000602080830181845280855180835260408601915060408160051b870101925083870160005b828110156118aa577fffffffffffffffffffffffffffffffffffffffffffffffffffffffffffffffc08886030184526118988583516117bf565b9450928501929085019060010161185e565b5092979650505050505050565b6020808252825182820181905260009190848201906040850190845b8181101561190557835173ffffffffffffffffffffffffffffffffffffffff16835292840192918401916001016118d3565b50909695505050505050565b60008083601f84011261192357600080fd5b50813567ffffffffffffffff81111561193b57600080fd5b60208301915083602082850101111561195357600080fd5b9250929050565b60008060006040848603121561196f57600080fd5b61197884611620565b9250602084013567ffffffffffffffff81111561199457600080fd5b6119a086828701611911565b9497909650939450505050565b600080600080606085870312156119c357600080fd5b6119cc85611620565b9350602085013567ffffffffffffffff8111156119e857600080fd5b6119f487828801611911565b9094509250611a07905060408601611649565b905092959194509250565b600080600060408486031215611a2757600080fd5b833567ffffffffffffffff80821115611a3f57600080fd5b611a4b878388016116bb565b94506020860135915080821115611a6157600080fd5b506119a086828701611911565b600181811c90821680611a8257607f821691505b602082108103611abb577f4e487b7100000000000000000000000000000000000000000000000000000000600052602260045260246000fd5b50919050565b8183528181602085013750600060208284010152600060207fffffffffffffffffffffffffffffffffffffffffffffffffffffffffffffffe0601f840116840101905092915050565b602081526000610774602083018486611ac1565b600060208284031215611b3057600080fd5b5051919050565b60008351611b4981846020880161179b565b835190830190611b5d81836020880161179b565b01949350505050565b7f4e487b7100000000000000000000000000000000000000000000000000000000600052603260045260246000fd5b6000602080835260008454611ba981611a6e565b80848701526040600180841660008114611bca5760018114611c0257611c30565b7fffffffffffffffffffffffffffffffffffffffffffffffffffffffffffffff008516838a01528284151560051b8a01019550611c30565b896000528660002060005b85811015611c285781548b8201860152908301908801611c0d565b8a0184019650505b509398975050505050505050565b7f4e487b7100000000000000000000000000000000000000000000000000000000600052601160045260246000fd5b8181038181111561048157610481611c3e565b601f821115611cca57600081815260208120601f850160051c81016020861015611ca75750805b601f850160051c820191505b81811015611cc657828155600101611cb3565b5050505b505050565b818103611cda575050565b611ce48254611a6e565b67ffffffffffffffff811115611cfc57611cfc61168c565b611d1081611d0a8454611a6e565b84611c80565b6000601f821160018114611d625760008315611d2c5750848201545b7fffffffffffffffffffffffffffffffffffffffffffffffffffffffffffffffff600385901b1c1916600184901b17845561101d565b6000858152602090207fffffffffffffffffffffffffffffffffffffffffffffffffffffffffffffffe0841690600086815260209020845b83811015611dba5782860154825560019586019590910190602001611d9a565b5085831015611df657818501547fffffffffffffffffffffffffffffffffffffffffffffffffffffffffffffffff600388901b60f8161c191681555b5050505050600190811b01905550565b7f4e487b7100000000000000000000000000000000000000000000000000000000600052603160045260246000fd5b60007fffffffffffffffffffffffffffffffffffffffffffffffffffffffffffffffff8203611e6657611e66611c3e565b5060010190565b60008251611e7f81846020870161179b565b9190910192915050565b815167ffffffffffffffff811115611ea357611ea361168c565b611eb181611d0a8454611a6e565b602080601f831160018114611f045760008415611ece5750858301515b7fffffffffffffffffffffffffffffffffffffffffffffffffffffffffffffffff600386901b1c1916600185901b178555611cc6565b6000858152602081207fffffffffffffffffffffffffffffffffffffffffffffffffffffffffffffffe08616915b82811015611f5157888601518255948401946001909101908401611f32565b5085821015611df65793909601517fffffffffffffffffffffffffffffffffffffffffffffffffffffffffffffffff60f8600387901b161c19169092555050600190811b01905550565b73ffffffffffffffffffffffffffffffffffffffff84168152604060208201526000611fcb604083018486611ac1565b95945050505050565b6000815260008251611fed81600185016020870161179b565b9190910160010192915050565b7f600b5981380380925939f300000000000000000000000000000000000000000081526000825161203281600b85016020870161179b565b91909101600b019291505056fea264697066735822122065c515fc06c255961ecea76a7aec7c221d34bafd51e0c0deef76a76b5828387264736f6c63430008150033",
  "devdoc": {
    "details": "Note the deployed token starts out with no config at Liquidity contract. This must be done by Liquidity auths in a separate step, otherwise no deposits will be possible. This contract is not upgradeable. It supports adding new iToken creation codes for future new iToken types.",
    "kind": "dev",
    "methods": {
      "computeToken(address,string)": {
        "params": {
          "asset_": "address of the asset",
          "iTokenType_": "type of iToken: - if it's the native token, it should use `NativeUnderlying` - otherwise it should use `iToken` - could be more types available, check `iTokenTypes()`"
        },
        "returns": {
          "token_": "     detemrinistic address of the computed token"
        }
      },
      "createToken(address,string,bool)": {
        "params": {
          "asset_": "address of the asset",
          "iTokenType_": "type of iToken: - if it's the native token, it should use `NativeUnderlying` - otherwise it should use `iToken` - could be more types available, check `iTokenTypes()`",
          "isNativeUnderlying_": "flag to signal iToken type that uses native underlying at Liquidity"
        },
        "returns": {
          "token_": "             address of the created token"
        }
      },
      "setAuth(address,bool)": {
        "params": {
          "allowed_": "bool flag for whether address is allowed as auth or not",
          "auth_": "address to set auth value for"
        }
      },
      "setDeployer(address,bool)": {
        "params": {
          "allowed_": "bool flag for whether address is allowed as deployer or not",
          "deployer_": "address to set deployer value for"
        }
      },
      "setITokenCreationCode(string,bytes)": {
        "params": {
          "creationCode_": "contract creation code. can be set to bytes(0) to remove a previously available `iTokenType_`",
          "iTokenType_": "the iToken Type used to refer the creation code"
        }
      }
    },
    "title": "Fluid LendingFactory",
    "version": 1
  },
  "userdoc": {
    "events": {
      "LogSetAuth(address,bool)": {
        "notice": "emitted when an auth is modified by owner"
      },
      "LogSetDeployer(address,bool)": {
        "notice": "emitted when a deployer is modified by owner"
      },
      "LogSetITokenCreationCode(string,address)": {
        "notice": "emitted when the creation code for an iTokenType is set"
      },
      "LogTokenCreated(address,address,uint256,string)": {
        "notice": "emitted when a new iToken is created"
      }
    },
    "kind": "user",
    "methods": {
      "LIQUIDITY()": {
        "notice": "address of the Liquidity contract."
      },
      "allTokens()": {
        "notice": "list of all created tokens"
      },
      "computeToken(address,string)": {
        "notice": "computes deterministic token address for `asset_` for a lending protocol"
      },
      "constructor": {
        "notice": "initialize liquidity contract address & owner"
      },
      "createToken(address,string,bool)": {
        "notice": "creates token for `asset_` for a lending protocol with interest. Only callable by deployers."
      },
      "iTokenCreationCode(string)": {
        "notice": "returns the creation code for a certain `iTokenType_`"
      },
      "iTokenTypes()": {
        "notice": "list of all iToken types that can be deployed"
      },
      "isAuth(address)": {
        "notice": "reads if a certain `auth_` address is an allowed auth or not. Owner is auth by default."
      },
      "isDeployer(address)": {
        "notice": "reads if a certain `deployer_` address is an allowed deployer or not. Owner is deployer by default."
      },
      "setAuth(address,bool)": {
        "notice": "Sets an address as allowed auth or not. Only callable by owner."
      },
      "setDeployer(address,bool)": {
        "notice": "Sets an address as allowed deployer or not. Only callable by owner."
      },
      "setITokenCreationCode(string,bytes)": {
        "notice": "Sets the `creationCode_` bytecode for a certain `iTokenType_`. Only callable by auths."
      }
    },
    "notice": "creates Fluid lending protocol iTokens, which are interacting with Fluid Liquidity. iTokens are ERC20 & ERC4626 compatible tokens that allow to deposit to Fluid Liquidity to earn interest. Tokens are created at a deterministic address (see `computeToken()`), only executable by allow-listed auths.",
    "version": 1
  },
  "storageLayout": {
    "storage": [
      {
        "astId": 42431,
        "contract": "contracts/protocols/lending/lendingFactory/main.sol:LendingFactory",
        "label": "owner",
        "offset": 0,
        "slot": "0",
        "type": "t_address"
      },
      {
        "astId": 28789,
        "contract": "contracts/protocols/lending/lendingFactory/main.sol:LendingFactory",
        "label": "_auths",
        "offset": 0,
        "slot": "1",
        "type": "t_mapping(t_address,t_uint256)"
      },
      {
        "astId": 28794,
        "contract": "contracts/protocols/lending/lendingFactory/main.sol:LendingFactory",
        "label": "_deployers",
        "offset": 0,
        "slot": "2",
        "type": "t_mapping(t_address,t_uint256)"
      },
      {
        "astId": 28798,
        "contract": "contracts/protocols/lending/lendingFactory/main.sol:LendingFactory",
        "label": "_allTokens",
        "offset": 0,
        "slot": "3",
        "type": "t_array(t_address)dyn_storage"
      },
      {
        "astId": 28802,
        "contract": "contracts/protocols/lending/lendingFactory/main.sol:LendingFactory",
        "label": "_iTokenTypes",
        "offset": 0,
        "slot": "4",
        "type": "t_array(t_string_storage)dyn_storage"
      },
      {
        "astId": 28807,
        "contract": "contracts/protocols/lending/lendingFactory/main.sol:LendingFactory",
        "label": "_iTokenCreationCodePointers",
        "offset": 0,
        "slot": "5",
        "type": "t_mapping(t_bytes32,t_address)"
      }
    ],
    "types": {
      "t_address": {
        "encoding": "inplace",
        "label": "address",
        "numberOfBytes": "20"
      },
      "t_array(t_address)dyn_storage": {
        "base": "t_address",
        "encoding": "dynamic_array",
        "label": "address[]",
        "numberOfBytes": "32"
      },
      "t_array(t_string_storage)dyn_storage": {
        "base": "t_string_storage",
        "encoding": "dynamic_array",
        "label": "string[]",
        "numberOfBytes": "32"
      },
      "t_bytes32": {
        "encoding": "inplace",
        "label": "bytes32",
        "numberOfBytes": "32"
      },
      "t_mapping(t_address,t_uint256)": {
        "encoding": "mapping",
        "key": "t_address",
        "label": "mapping(address => uint256)",
        "numberOfBytes": "32",
        "value": "t_uint256"
      },
      "t_mapping(t_bytes32,t_address)": {
        "encoding": "mapping",
        "key": "t_bytes32",
        "label": "mapping(bytes32 => address)",
        "numberOfBytes": "32",
        "value": "t_address"
      },
      "t_string_storage": {
        "encoding": "bytes",
        "label": "string",
        "numberOfBytes": "32"
      },
      "t_uint256": {
        "encoding": "inplace",
        "label": "uint256",
        "numberOfBytes": "32"
      }
    }
  }
}