{
  "address": "0x1037231aD9773c8023334B17e8E988ce259BB50f",
  "abi": [
    {
      "inputs": [
        {
          "internalType": "contract ILendingFactory",
          "name": "lendingFactory_",
          "type": "address"
        },
        {
          "internalType": "contract ILiquidityResolver",
          "name": "liquidityResolver_",
          "type": "address"
        }
      ],
      "stateMutability": "nonpayable",
      "type": "constructor"
    },
    {
      "inputs": [],
      "name": "LendingResolver__AddressZero",
      "type": "error"
    },
    {
      "inputs": [],
      "name": "LENDING_FACTORY",
      "outputs": [
        {
          "internalType": "contract ILendingFactory",
          "name": "",
          "type": "address"
        }
      ],
      "stateMutability": "view",
      "type": "function"
    },
    {
      "inputs": [],
      "name": "LIQUIDITY_RESOLVER",
      "outputs": [
        {
          "internalType": "contract ILiquidityResolver",
          "name": "",
          "type": "address"
        }
      ],
      "stateMutability": "view",
      "type": "function"
    },
    {
      "inputs": [
        {
          "internalType": "address",
          "name": "asset_",
          "type": "address"
        },
        {
          "internalType": "string",
          "name": "iTokenType_",
          "type": "string"
        }
      ],
      "name": "computeIToken",
      "outputs": [
        {
          "internalType": "address",
          "name": "",
          "type": "address"
        }
      ],
      "stateMutability": "view",
      "type": "function"
    },
    {
      "inputs": [],
      "name": "getAllITokenTypes",
      "outputs": [
        {
          "internalType": "string[]",
          "name": "",
          "type": "string[]"
        }
      ],
      "stateMutability": "view",
      "type": "function"
    },
    {
      "inputs": [],
      "name": "getAllITokens",
      "outputs": [
        {
          "internalType": "address[]",
          "name": "",
          "type": "address[]"
        }
      ],
      "stateMutability": "view",
      "type": "function"
    },
    {
      "inputs": [
        {
          "internalType": "contract IIToken",
          "name": "iToken_",
          "type": "address"
        }
      ],
      "name": "getITokenDetails",
      "outputs": [
        {
          "components": [
            {
              "internalType": "address",
              "name": "tokenAddress",
              "type": "address"
            },
            {
              "internalType": "bool",
              "name": "eip2612Deposits",
              "type": "bool"
            },
            {
              "internalType": "bool",
              "name": "isNativeUnderlying",
              "type": "bool"
            },
            {
              "internalType": "string",
              "name": "name",
              "type": "string"
            },
            {
              "internalType": "string",
              "name": "symbol",
              "type": "string"
            },
            {
              "internalType": "uint256",
              "name": "decimals",
              "type": "uint256"
            },
            {
              "internalType": "address",
              "name": "asset",
              "type": "address"
            },
            {
              "internalType": "uint256",
              "name": "totalAssets",
              "type": "uint256"
            },
            {
              "internalType": "uint256",
              "name": "totalSupply",
              "type": "uint256"
            },
            {
              "internalType": "uint256",
              "name": "convertToShares",
              "type": "uint256"
            },
            {
              "internalType": "uint256",
              "name": "convertToAssets",
              "type": "uint256"
            },
            {
              "internalType": "uint256",
              "name": "rewardsRate",
              "type": "uint256"
            },
            {
              "internalType": "uint256",
              "name": "supplyRate",
              "type": "uint256"
            },
            {
              "internalType": "int256",
              "name": "rebalanceDifference",
              "type": "int256"
            },
            {
              "components": [
                {
                  "internalType": "bool",
                  "name": "modeWithInterest",
                  "type": "bool"
                },
                {
                  "internalType": "uint256",
                  "name": "supply",
                  "type": "uint256"
                },
                {
                  "internalType": "uint256",
                  "name": "withdrawalLimit",
                  "type": "uint256"
                },
                {
                  "internalType": "uint256",
                  "name": "lastUpdateTimestamp",
                  "type": "uint256"
                },
                {
                  "internalType": "uint256",
                  "name": "expandPercent",
                  "type": "uint256"
                },
                {
                  "internalType": "uint256",
                  "name": "expandDuration",
                  "type": "uint256"
                },
                {
                  "internalType": "uint256",
                  "name": "baseWithdrawalLimit",
                  "type": "uint256"
                },
                {
                  "internalType": "uint256",
                  "name": "withdrawableUntilLimit",
                  "type": "uint256"
                },
                {
                  "internalType": "uint256",
                  "name": "withdrawable",
                  "type": "uint256"
                }
              ],
              "internalType": "struct Structs.UserSupplyData",
              "name": "liquidityUserSupplyData",
              "type": "tuple"
            }
          ],
          "internalType": "struct Structs.ITokenDetails",
          "name": "iTokenDetails_",
          "type": "tuple"
        }
      ],
      "stateMutability": "view",
      "type": "function"
    },
    {
      "inputs": [
        {
          "internalType": "contract IIToken",
          "name": "iToken_",
          "type": "address"
        }
      ],
      "name": "getITokenInternalData",
      "outputs": [
        {
          "internalType": "contract ILiquidity",
          "name": "liquidity_",
          "type": "address"
        },
        {
          "internalType": "contract ILendingFactory",
          "name": "lendingFactory_",
          "type": "address"
        },
        {
          "internalType": "contract ILendingRewardsRateModel",
          "name": "lendingRewardsRateModel_",
          "type": "address"
        },
        {
          "internalType": "contract IAllowanceTransfer",
          "name": "permit2_",
          "type": "address"
        },
        {
          "internalType": "address",
          "name": "rebalancer_",
          "type": "address"
        },
        {
          "internalType": "bool",
          "name": "rewardsActive_",
          "type": "bool"
        },
        {
          "internalType": "uint256",
          "name": "liquidityBalance_",
          "type": "uint256"
        },
        {
          "internalType": "uint256",
          "name": "liquidityExchangePrice_",
          "type": "uint256"
        },
        {
          "internalType": "uint256",
          "name": "tokenExchangePrice_",
          "type": "uint256"
        }
      ],
      "stateMutability": "view",
      "type": "function"
    },
    {
      "inputs": [
        {
          "internalType": "contract IIToken",
          "name": "iToken_",
          "type": "address"
        }
      ],
      "name": "getITokenRewards",
      "outputs": [
        {
          "internalType": "contract ILendingRewardsRateModel",
          "name": "rewardsRateModel_",
          "type": "address"
        },
        {
          "internalType": "uint256",
          "name": "rewardsRate_",
          "type": "uint256"
        }
      ],
      "stateMutability": "view",
      "type": "function"
    },
    {
      "inputs": [
        {
          "internalType": "contract IIToken",
          "name": "iToken_",
          "type": "address"
        }
      ],
      "name": "getITokenRewardsRateModelConfig",
      "outputs": [
        {
          "components": [
            {
              "internalType": "uint256",
              "name": "assetDecimals",
              "type": "uint256"
            },
            {
              "internalType": "uint256",
              "name": "maxRate",
              "type": "uint256"
            },
            {
              "internalType": "uint256",
              "name": "startTime",
              "type": "uint256"
            },
            {
              "internalType": "uint256",
              "name": "endTime",
              "type": "uint256"
            },
            {
              "internalType": "uint256",
              "name": "kink1",
              "type": "uint256"
            },
            {
              "internalType": "uint256",
              "name": "kink2",
              "type": "uint256"
            },
            {
              "internalType": "uint256",
              "name": "kink3",
              "type": "uint256"
            },
            {
              "internalType": "uint256",
              "name": "rateZeroAtTVL",
              "type": "uint256"
            },
            {
              "internalType": "uint256",
              "name": "slope1",
              "type": "uint256"
            },
            {
              "internalType": "uint256",
              "name": "slope2",
              "type": "uint256"
            },
            {
              "internalType": "uint256",
              "name": "slope3",
              "type": "uint256"
            },
            {
              "internalType": "uint256",
              "name": "slope4",
              "type": "uint256"
            },
            {
              "internalType": "uint256",
              "name": "constant1",
              "type": "uint256"
            },
            {
              "internalType": "uint256",
              "name": "constant2",
              "type": "uint256"
            },
            {
              "internalType": "uint256",
              "name": "constant3",
              "type": "uint256"
            },
            {
              "internalType": "uint256",
              "name": "constant4",
              "type": "uint256"
            }
          ],
          "internalType": "struct Structs.Config",
          "name": "rewardsRateModelConfig_",
          "type": "tuple"
        }
      ],
      "stateMutability": "view",
      "type": "function"
    },
    {
      "inputs": [],
      "name": "getITokensEntireData",
      "outputs": [
        {
          "components": [
            {
              "internalType": "address",
              "name": "tokenAddress",
              "type": "address"
            },
            {
              "internalType": "bool",
              "name": "eip2612Deposits",
              "type": "bool"
            },
            {
              "internalType": "bool",
              "name": "isNativeUnderlying",
              "type": "bool"
            },
            {
              "internalType": "string",
              "name": "name",
              "type": "string"
            },
            {
              "internalType": "string",
              "name": "symbol",
              "type": "string"
            },
            {
              "internalType": "uint256",
              "name": "decimals",
              "type": "uint256"
            },
            {
              "internalType": "address",
              "name": "asset",
              "type": "address"
            },
            {
              "internalType": "uint256",
              "name": "totalAssets",
              "type": "uint256"
            },
            {
              "internalType": "uint256",
              "name": "totalSupply",
              "type": "uint256"
            },
            {
              "internalType": "uint256",
              "name": "convertToShares",
              "type": "uint256"
            },
            {
              "internalType": "uint256",
              "name": "convertToAssets",
              "type": "uint256"
            },
            {
              "internalType": "uint256",
              "name": "rewardsRate",
              "type": "uint256"
            },
            {
              "internalType": "uint256",
              "name": "supplyRate",
              "type": "uint256"
            },
            {
              "internalType": "int256",
              "name": "rebalanceDifference",
              "type": "int256"
            },
            {
              "components": [
                {
                  "internalType": "bool",
                  "name": "modeWithInterest",
                  "type": "bool"
                },
                {
                  "internalType": "uint256",
                  "name": "supply",
                  "type": "uint256"
                },
                {
                  "internalType": "uint256",
                  "name": "withdrawalLimit",
                  "type": "uint256"
                },
                {
                  "internalType": "uint256",
                  "name": "lastUpdateTimestamp",
                  "type": "uint256"
                },
                {
                  "internalType": "uint256",
                  "name": "expandPercent",
                  "type": "uint256"
                },
                {
                  "internalType": "uint256",
                  "name": "expandDuration",
                  "type": "uint256"
                },
                {
                  "internalType": "uint256",
                  "name": "baseWithdrawalLimit",
                  "type": "uint256"
                },
                {
                  "internalType": "uint256",
                  "name": "withdrawableUntilLimit",
                  "type": "uint256"
                },
                {
                  "internalType": "uint256",
                  "name": "withdrawable",
                  "type": "uint256"
                }
              ],
              "internalType": "struct Structs.UserSupplyData",
              "name": "liquidityUserSupplyData",
              "type": "tuple"
            }
          ],
          "internalType": "struct Structs.ITokenDetails[]",
          "name": "",
          "type": "tuple[]"
        }
      ],
      "stateMutability": "view",
      "type": "function"
    },
    {
      "inputs": [
        {
          "internalType": "contract IIToken",
          "name": "iToken_",
          "type": "address"
        },
        {
          "internalType": "uint256",
          "name": "assets_",
          "type": "uint256"
        },
        {
          "internalType": "uint256",
          "name": "shares_",
          "type": "uint256"
        }
      ],
      "name": "getPreviews",
      "outputs": [
        {
          "internalType": "uint256",
          "name": "previewDeposit_",
          "type": "uint256"
        },
        {
          "internalType": "uint256",
          "name": "previewMint_",
          "type": "uint256"
        },
        {
          "internalType": "uint256",
          "name": "previewWithdraw_",
          "type": "uint256"
        },
        {
          "internalType": "uint256",
          "name": "previewRedeem_",
          "type": "uint256"
        }
      ],
      "stateMutability": "view",
      "type": "function"
    },
    {
      "inputs": [
        {
          "internalType": "contract IIToken",
          "name": "iToken_",
          "type": "address"
        },
        {
          "internalType": "address",
          "name": "user_",
          "type": "address"
        }
      ],
      "name": "getUserPosition",
      "outputs": [
        {
          "components": [
            {
              "internalType": "uint256",
              "name": "iTokenShares",
              "type": "uint256"
            },
            {
              "internalType": "uint256",
              "name": "underlyingAssets",
              "type": "uint256"
            },
            {
              "internalType": "uint256",
              "name": "underlyingBalance",
              "type": "uint256"
            },
            {
              "internalType": "uint256",
              "name": "allowance",
              "type": "uint256"
            }
          ],
          "internalType": "struct Structs.UserPosition",
          "name": "userPosition",
          "type": "tuple"
        }
      ],
      "stateMutability": "view",
      "type": "function"
    },
    {
      "inputs": [
        {
          "internalType": "address",
          "name": "user_",
          "type": "address"
        }
      ],
      "name": "getUserPositions",
      "outputs": [
        {
          "components": [
            {
              "components": [
                {
                  "internalType": "address",
                  "name": "tokenAddress",
                  "type": "address"
                },
                {
                  "internalType": "bool",
                  "name": "eip2612Deposits",
                  "type": "bool"
                },
                {
                  "internalType": "bool",
                  "name": "isNativeUnderlying",
                  "type": "bool"
                },
                {
                  "internalType": "string",
                  "name": "name",
                  "type": "string"
                },
                {
                  "internalType": "string",
                  "name": "symbol",
                  "type": "string"
                },
                {
                  "internalType": "uint256",
                  "name": "decimals",
                  "type": "uint256"
                },
                {
                  "internalType": "address",
                  "name": "asset",
                  "type": "address"
                },
                {
                  "internalType": "uint256",
                  "name": "totalAssets",
                  "type": "uint256"
                },
                {
                  "internalType": "uint256",
                  "name": "totalSupply",
                  "type": "uint256"
                },
                {
                  "internalType": "uint256",
                  "name": "convertToShares",
                  "type": "uint256"
                },
                {
                  "internalType": "uint256",
                  "name": "convertToAssets",
                  "type": "uint256"
                },
                {
                  "internalType": "uint256",
                  "name": "rewardsRate",
                  "type": "uint256"
                },
                {
                  "internalType": "uint256",
                  "name": "supplyRate",
                  "type": "uint256"
                },
                {
                  "internalType": "int256",
                  "name": "rebalanceDifference",
                  "type": "int256"
                },
                {
                  "components": [
                    {
                      "internalType": "bool",
                      "name": "modeWithInterest",
                      "type": "bool"
                    },
                    {
                      "internalType": "uint256",
                      "name": "supply",
                      "type": "uint256"
                    },
                    {
                      "internalType": "uint256",
                      "name": "withdrawalLimit",
                      "type": "uint256"
                    },
                    {
                      "internalType": "uint256",
                      "name": "lastUpdateTimestamp",
                      "type": "uint256"
                    },
                    {
                      "internalType": "uint256",
                      "name": "expandPercent",
                      "type": "uint256"
                    },
                    {
                      "internalType": "uint256",
                      "name": "expandDuration",
                      "type": "uint256"
                    },
                    {
                      "internalType": "uint256",
                      "name": "baseWithdrawalLimit",
                      "type": "uint256"
                    },
                    {
                      "internalType": "uint256",
                      "name": "withdrawableUntilLimit",
                      "type": "uint256"
                    },
                    {
                      "internalType": "uint256",
                      "name": "withdrawable",
                      "type": "uint256"
                    }
                  ],
                  "internalType": "struct Structs.UserSupplyData",
                  "name": "liquidityUserSupplyData",
                  "type": "tuple"
                }
              ],
              "internalType": "struct Structs.ITokenDetails",
              "name": "iTokenDetails",
              "type": "tuple"
            },
            {
              "components": [
                {
                  "internalType": "uint256",
                  "name": "iTokenShares",
                  "type": "uint256"
                },
                {
                  "internalType": "uint256",
                  "name": "underlyingAssets",
                  "type": "uint256"
                },
                {
                  "internalType": "uint256",
                  "name": "underlyingBalance",
                  "type": "uint256"
                },
                {
                  "internalType": "uint256",
                  "name": "allowance",
                  "type": "uint256"
                }
              ],
              "internalType": "struct Structs.UserPosition",
              "name": "userPosition",
              "type": "tuple"
            }
          ],
          "internalType": "struct Structs.ITokenDetailsUserPosition[]",
          "name": "",
          "type": "tuple[]"
        }
      ],
      "stateMutability": "view",
      "type": "function"
    },
    {
      "inputs": [
        {
          "internalType": "address",
          "name": "auth_",
          "type": "address"
        }
      ],
      "name": "isLendingFactoryAuth",
      "outputs": [
        {
          "internalType": "bool",
          "name": "",
          "type": "bool"
        }
      ],
      "stateMutability": "view",
      "type": "function"
    },
    {
      "inputs": [
        {
          "internalType": "address",
          "name": "deployer_",
          "type": "address"
        }
      ],
      "name": "isLendingFactoryDeployer",
      "outputs": [
        {
          "internalType": "bool",
          "name": "",
          "type": "bool"
        }
      ],
      "stateMutability": "view",
      "type": "function"
    }
  ],
  "transactionHash": "0x895f3d0f8006baa746a7452cac22c4acaa7c6342f8a52bb36670604f4b1908dc",
  "args": [
    "0x498E8cD451f255C7913DAa72Be24f57C602c4bE0",
    "0x296E34C78F509DD938cF015c137bd74Cc014f054"
  ],
  "numDeployments": 3,
  "solcInputHash": "067d8303d65a03096f648fd50a0c11f9",
  "bytecode": "0x60c06040523480156200001157600080fd5b5060405162002c0c38038062002c0c8339810160408190526200003491620000a2565b6001600160a01b03821615806200005257506001600160a01b038116155b156200007157604051631144ad5760e21b815260040160405180910390fd5b6001600160a01b039182166080521660a052620000e1565b6001600160a01b03811681146200009f57600080fd5b50565b60008060408385031215620000b657600080fd5b8251620000c38162000089565b6020840151909250620000d68162000089565b809150509250929050565b60805160a051612adb620001316000396000818161024101526113210152600081816103bf015281816104180152818161067101528181610beb01528181610e3b01526119640152612adb6000f3fe608060405234801561001057600080fd5b50600436106100f55760003560e01c80636d6862471161009757806392a576e61161006657806392a576e61461039a57806396bac931146103ba5780639e0be8aa146103e1578063ae1792db1461040157600080fd5b80636d6862471461028857806370f53bc01461029d57806371ab8c8d146102c05780637a923a4d1461038757600080fd5b806335f967f9116100d357806335f967f9146101b55780633caa319f146101ca57806362433050146101fd5780636902f79f1461023c57600080fd5b8063150a3c97146100fa578063248dd330146101185780632a6bc2dd14610195575b600080fd5b610102610414565b60405161010f9190611b1d565b60405180910390f35b61012b610126366004611b9c565b6104cc565b6040805173ffffffffffffffffffffffffffffffffffffffff9a8b168152988a1660208a0152968916968801969096529387166060870152959091166080850152151560a084015260c083019390935260e08201929092526101008101919091526101200161010f565b6101a86101a3366004611b9c565b610569565b60405161010f9190611d97565b6101bd61066d565b60405161010f9190611e58565b6101dd6101d8366004611ecb565b610720565b60408051948552602085019390935291830152606082015260800161010f565b61021061020b366004611b9c565b610963565b6040805173ffffffffffffffffffffffffffffffffffffffff909316835260208301919091520161010f565b6102637f000000000000000000000000000000000000000000000000000000000000000081565b60405173ffffffffffffffffffffffffffffffffffffffff909116815260200161010f565b610290610ae3565b60405161010f9190611f00565b6102b06102ab366004611b9c565b610ba3565b604051901515815260200161010f565b6102d36102ce366004611b9c565b610c5f565b60405161010f9190815181526020808301519082015260408083015190820152606080830151908201526080808301519082015260a0808301519082015260c0808301519082015260e08083015190820152610100808301519082015261012080830151908201526101408083015190820152610160808301519082015261018080830151908201526101a080830151908201526101c080830151908201526101e091820151918101919091526102000190565b6102b0610395366004611b9c565b610df3565b6103ad6103a8366004611f73565b610e6c565b60405161010f9190611fac565b6102637f000000000000000000000000000000000000000000000000000000000000000081565b6103f46103ef366004611b9c565b61116f565b60405161010f9190611fd7565b61026361040f366004611fea565b611924565b60607f000000000000000000000000000000000000000000000000000000000000000073ffffffffffffffffffffffffffffffffffffffff16636ff97f1d6040518163ffffffff1660e01b8152600401600060405180830381865afa158015610481573d6000803e3d6000fd5b505050506040513d6000823e601f3d9081017fffffffffffffffffffffffffffffffffffffffffffffffffffffffffffffffe01682016040526104c791908101906121a5565b905090565b60008060008060008060008060008973ffffffffffffffffffffffffffffffffffffffff16633bc5de306040518163ffffffff1660e01b815260040161012060405180830381865afa158015610526573d6000803e3d6000fd5b505050506040513d601f19601f8201168201806040525081019061054a9190612259565b9850985098509850985098509850985098509193959799909294969850565b60606000610575610ae3565b90506000815167ffffffffffffffff8111156105935761059361206f565b6040519080825280602002602001820160405280156105cc57816020015b6105b96119e6565b8152602001906001900390816105b15790505b50905060005b8251811015610665578281815181106105ed576105ed6122fa565b6020026020010151828281518110610607576106076122fa565b60200260200101516000018190525061063d83828151811061062b5761062b6122fa565b60200260200101516000015186610e6c565b82828151811061064f5761064f6122fa565b60209081029190910181015101526001016105d2565b509392505050565b60607f000000000000000000000000000000000000000000000000000000000000000073ffffffffffffffffffffffffffffffffffffffff1663558e0f6f6040518163ffffffff1660e01b8152600401600060405180830381865afa1580156106da573d6000803e3d6000fd5b505050506040513d6000823e601f3d9081017fffffffffffffffffffffffffffffffffffffffffffffffffffffffffffffffe01682016040526104c791908101906123ab565b6000806000808673ffffffffffffffffffffffffffffffffffffffff1663ef8b30f7876040518263ffffffff1660e01b815260040161076191815260200190565b602060405180830381865afa15801561077e573d6000803e3d6000fd5b505050506040513d601f19601f820116820180604052508101906107a2919061245c565b6040517fb3d7f6b90000000000000000000000000000000000000000000000000000000081526004810187905290945073ffffffffffffffffffffffffffffffffffffffff88169063b3d7f6b990602401602060405180830381865afa158015610810573d6000803e3d6000fd5b505050506040513d601f19601f82011682018060405250810190610834919061245c565b6040517f0a28a4770000000000000000000000000000000000000000000000000000000081526004810188905290935073ffffffffffffffffffffffffffffffffffffffff881690630a28a47790602401602060405180830381865afa1580156108a2573d6000803e3d6000fd5b505050506040513d601f19601f820116820180604052508101906108c6919061245c565b6040517f4cdad5060000000000000000000000000000000000000000000000000000000081526004810187905290925073ffffffffffffffffffffffffffffffffffffffff881690634cdad50690602401602060405180830381865afa158015610934573d6000803e3d6000fd5b505050506040513d601f19601f82011682018060405250810190610958919061245c565b905093509350935093565b60008060008373ffffffffffffffffffffffffffffffffffffffff16633bc5de306040518163ffffffff1660e01b815260040161012060405180830381865afa1580156109b4573d6000803e3d6000fd5b505050506040513d601f19601f820116820180604052508101906109d89190612259565b509499509096505085159450610add9350505050578273ffffffffffffffffffffffffffffffffffffffff1663577640948573ffffffffffffffffffffffffffffffffffffffff166301e1d1146040518163ffffffff1660e01b8152600401602060405180830381865afa158015610a54573d6000803e3d6000fd5b505050506040513d601f19601f82011682018060405250810190610a78919061245c565b6040518263ffffffff1660e01b8152600401610a9691815260200190565b606060405180830381865afa158015610ab3573d6000803e3d6000fd5b505050506040513d601f19601f82011682018060405250810190610ad79190612475565b50909250505b50915091565b60606000610aef610414565b90506000815167ffffffffffffffff811115610b0d57610b0d61206f565b604051908082528060200260200182016040528015610b4657816020015b610b33611a2e565b815260200190600190039081610b2b5790505b50905060005b8251811015610b9c57610b77838281518110610b6a57610b6a6122fa565b602002602001015161116f565b828281518110610b8957610b896122fa565b6020908102919091010152600101610b4c565b5092915050565b6040517f2520e7ff00000000000000000000000000000000000000000000000000000000815273ffffffffffffffffffffffffffffffffffffffff82811660048301526000917f000000000000000000000000000000000000000000000000000000000000000090911690632520e7ff906024015b602060405180830381865afa158015610c35573d6000803e3d6000fd5b505050506040513d601f19601f82011682018060405250810190610c5991906124aa565b92915050565b610cdf604051806102000160405280600081526020016000815260200160008152602001600081526020016000815260200160008152602001600081526020016000815260200160008152602001600081526020016000815260200160008152602001600081526020016000815260200160008152602001600081525090565b60008273ffffffffffffffffffffffffffffffffffffffff16633bc5de306040518163ffffffff1660e01b815260040161012060405180830381865afa158015610d2d573d6000803e3d6000fd5b505050506040513d601f19601f82011682018060405250810190610d519190612259565b50949750505073ffffffffffffffffffffffffffffffffffffffff8616159450610ded9350505050578073ffffffffffffffffffffffffffffffffffffffff1663c3f909d46040518163ffffffff1660e01b815260040161020060405180830381865afa158015610dc6573d6000803e3d6000fd5b505050506040513d601f19601f82011682018060405250810190610dea91906124c5565b91505b50919050565b6040517f50c358a400000000000000000000000000000000000000000000000000000000815273ffffffffffffffffffffffffffffffffffffffff82811660048301526000917f0000000000000000000000000000000000000000000000000000000000000000909116906350c358a490602401610c18565b610e976040518060800160405280600081526020016000815260200160008152602001600081525090565b60008373ffffffffffffffffffffffffffffffffffffffff166338d52e0f6040518163ffffffff1660e01b8152600401602060405180830381865afa158015610ee4573d6000803e3d6000fd5b505050506040513d601f19601f82011682018060405250810190610f08919061258b565b6040517f70a0823100000000000000000000000000000000000000000000000000000000815273ffffffffffffffffffffffffffffffffffffffff8581166004830152919250908516906370a0823190602401602060405180830381865afa158015610f78573d6000803e3d6000fd5b505050506040513d601f19601f82011682018060405250810190610f9c919061245c565b8083526040517f07a2d13a000000000000000000000000000000000000000000000000000000008152600481019190915273ffffffffffffffffffffffffffffffffffffffff8516906307a2d13a90602401602060405180830381865afa15801561100b573d6000803e3d6000fd5b505050506040513d601f19601f8201168201806040525081019061102f919061245c565b60208301526040517f70a0823100000000000000000000000000000000000000000000000000000000815273ffffffffffffffffffffffffffffffffffffffff84811660048301528216906370a0823190602401602060405180830381865afa1580156110a0573d6000803e3d6000fd5b505050506040513d601f19601f820116820180604052508101906110c4919061245c565b604083810191909152517fdd62ed3e00000000000000000000000000000000000000000000000000000000815273ffffffffffffffffffffffffffffffffffffffff8481166004830152858116602483015282169063dd62ed3e90604401602060405180830381865afa15801561113f573d6000803e3d6000fd5b505050506040513d601f19601f82011682018060405250810190611163919061245c565b60608301525092915050565b611177611a2e565b60008273ffffffffffffffffffffffffffffffffffffffff166338d52e0f6040518163ffffffff1660e01b8152600401602060405180830381865afa1580156111c4573d6000803e3d6000fd5b505050506040513d601f19601f820116820180604052508101906111e8919061258b565b905060008373ffffffffffffffffffffffffffffffffffffffff1663df2ebdbb6040518163ffffffff1660e01b8152600401602060405180830381865afa925050508015611271575060408051601f3d9081017fffffffffffffffffffffffffffffffffffffffffffffffffffffffffffffffe016820190925261126e9181019061258b565b60015b1561127c5750600190505b60008273ffffffffffffffffffffffffffffffffffffffff16633644e5156040518163ffffffff1660e01b8152600401602060405180830381865afa925050508015611303575060408051601f3d9081017fffffffffffffffffffffffffffffffffffffffffffffffffffffffffffffffe01682019092526113009181019061245c565b60015b1561130e5750600190505b600061131986610963565b9150506000807f000000000000000000000000000000000000000000000000000000000000000073ffffffffffffffffffffffffffffffffffffffff1663e72ef91b8987611367578861137d565b73eeeeeeeeeeeeeeeeeeeeeeeeeeeeeeeeeeeeeeee5b6040517fffffffff0000000000000000000000000000000000000000000000000000000060e085901b16815273ffffffffffffffffffffffffffffffffffffffff9283166004820152911660248201526044016104a060405180830381865afa1580156113ee573d6000803e3d6000fd5b505050506040513d601f19601f8201168201806040525081019061141291906127bf565b9150915060008873ffffffffffffffffffffffffffffffffffffffff166301e1d1146040518163ffffffff1660e01b8152600401602060405180830381865afa158015611463573d6000803e3d6000fd5b505050506040513d601f19601f82011682018060405250810190611487919061245c565b9050604051806101e001604052808a73ffffffffffffffffffffffffffffffffffffffff168152602001861515815260200187151581526020018a73ffffffffffffffffffffffffffffffffffffffff166306fdde036040518163ffffffff1660e01b8152600401600060405180830381865afa15801561150c573d6000803e3d6000fd5b505050506040513d6000823e601f3d9081017fffffffffffffffffffffffffffffffffffffffffffffffffffffffffffffffe01682016040526115529190810190612865565b81526020018a73ffffffffffffffffffffffffffffffffffffffff166395d89b416040518163ffffffff1660e01b8152600401600060405180830381865afa1580156115a2573d6000803e3d6000fd5b505050506040513d6000823e601f3d9081017fffffffffffffffffffffffffffffffffffffffffffffffffffffffffffffffe01682016040526115e89190810190612865565b81526020018a73ffffffffffffffffffffffffffffffffffffffff1663313ce5676040518163ffffffff1660e01b8152600401602060405180830381865afa158015611638573d6000803e3d6000fd5b505050506040513d601f19601f8201168201806040525081019061165c919061289a565b60ff1681526020018873ffffffffffffffffffffffffffffffffffffffff1681526020018281526020018a73ffffffffffffffffffffffffffffffffffffffff166318160ddd6040518163ffffffff1660e01b8152600401602060405180830381865afa1580156116d1573d6000803e3d6000fd5b505050506040513d601f19601f820116820180604052508101906116f5919061245c565b81526020018a73ffffffffffffffffffffffffffffffffffffffff1663c6e6f5928c73ffffffffffffffffffffffffffffffffffffffff1663313ce5676040518163ffffffff1660e01b8152600401602060405180830381865afa158015611761573d6000803e3d6000fd5b505050506040513d601f19601f82011682018060405250810190611785919061289a565b61179090600a612a0c565b6040518263ffffffff1660e01b81526004016117ae91815260200190565b602060405180830381865afa1580156117cb573d6000803e3d6000fd5b505050506040513d601f19601f820116820180604052508101906117ef919061245c565b81526020018a73ffffffffffffffffffffffffffffffffffffffff166307a2d13a8c73ffffffffffffffffffffffffffffffffffffffff1663313ce5676040518163ffffffff1660e01b8152600401602060405180830381865afa15801561185b573d6000803e3d6000fd5b505050506040513d601f19601f8201168201806040525081019061187f919061289a565b61188a90600a612a0c565b6040518263ffffffff1660e01b81526004016118a891815260200190565b602060405180830381865afa1580156118c5573d6000803e3d6000fd5b505050506040513d601f19601f820116820180604052508101906118e9919061245c565b81526020018581526020018360200151815260200182856020015161190e9190612a1b565b8152602001939093525090979650505050505050565b6040517fbb4a64d300000000000000000000000000000000000000000000000000000000815260009073ffffffffffffffffffffffffffffffffffffffff7f0000000000000000000000000000000000000000000000000000000000000000169063bb4a64d39061199d90879087908790600401612a3b565b602060405180830381865afa1580156119ba573d6000803e3d6000fd5b505050506040513d601f19601f820116820180604052508101906119de919061258b565b949350505050565b60405180604001604052806119f9611a2e565b8152602001611a296040518060800160405280600081526020016000815260200160008152602001600081525090565b905290565b604051806101e00160405280600073ffffffffffffffffffffffffffffffffffffffff168152602001600015158152602001600015158152602001606081526020016060815260200160008152602001600073ffffffffffffffffffffffffffffffffffffffff16815260200160008152602001600081526020016000815260200160008152602001600081526020016000815260200160008152602001611a2960405180610120016040528060001515815260200160008152602001600081526020016000815260200160008152602001600081526020016000815260200160008152602001600081525090565b6020808252825182820181905260009190848201906040850190845b81811015611b6b57835173ffffffffffffffffffffffffffffffffffffffff1683529284019291840191600101611b39565b50909695505050505050565b73ffffffffffffffffffffffffffffffffffffffff81168114611b9957600080fd5b50565b600060208284031215611bae57600080fd5b8135611bb981611b77565b9392505050565b60005b83811015611bdb578181015183820152602001611bc3565b50506000910152565b60008151808452611bfc816020860160208601611bc0565b601f017fffffffffffffffffffffffffffffffffffffffffffffffffffffffffffffffe0169290920160200192915050565b805173ffffffffffffffffffffffffffffffffffffffff16825260006102e06020830151611c60602086018215159052565b506040830151611c74604086018215159052565b506060830151816060860152611c8c82860182611be4565b91505060808301518482036080860152611ca68282611be4565b91505060a083015160a085015260c0830151611cda60c086018273ffffffffffffffffffffffffffffffffffffffff169052565b5060e08381015185820152610100808501518187015261012080860151908701526101408086015190870152610160808601519087015261018080860151908701526101a080860151908701526101c080860151805115158289015260208101516101e089015260408101516102008901526060810151610220890152608081015161024089015260a081015161026089015260c0810151610280890152928301516102a0880152908201516102c0870152905090949350505050565b6000602080830181845280855180835260408601915060408160051b870101925083870160005b82811015611e4b577fffffffffffffffffffffffffffffffffffffffffffffffffffffffffffffffc0888603018452815160a08151818852611e0282890182611c2e565b915050878201519150611e3888880183805182526020810151602083015260408101516040830152606081015160608301525050565b9550509285019290850190600101611dbe565b5092979650505050505050565b6000602080830181845280855180835260408601915060408160051b870101925083870160005b82811015611e4b577fffffffffffffffffffffffffffffffffffffffffffffffffffffffffffffffc0888603018452611eb9858351611be4565b94509285019290850190600101611e7f565b600080600060608486031215611ee057600080fd5b8335611eeb81611b77565b95602085013595506040909401359392505050565b6000602080830181845280855180835260408601915060408160051b870101925083870160005b82811015611e4b577fffffffffffffffffffffffffffffffffffffffffffffffffffffffffffffffc0888603018452611f61858351611c2e565b94509285019290850190600101611f27565b60008060408385031215611f8657600080fd5b8235611f9181611b77565b91506020830135611fa181611b77565b809150509250929050565b8151815260208083015190820152604080830151908201526060808301519082015260808101610c59565b602081526000611bb96020830184611c2e565b600080600060408486031215611fff57600080fd5b833561200a81611b77565b9250602084013567ffffffffffffffff8082111561202757600080fd5b818601915086601f83011261203b57600080fd5b81358181111561204a57600080fd5b87602082850101111561205c57600080fd5b6020830194508093505050509250925092565b7f4e487b7100000000000000000000000000000000000000000000000000000000600052604160045260246000fd5b604051610200810167ffffffffffffffff811182821017156120c2576120c261206f565b60405290565b6040516060810167ffffffffffffffff811182821017156120c2576120c261206f565b60405160a0810167ffffffffffffffff811182821017156120c2576120c261206f565b604051610120810167ffffffffffffffff811182821017156120c2576120c261206f565b604051601f82017fffffffffffffffffffffffffffffffffffffffffffffffffffffffffffffffe016810167ffffffffffffffff811182821017156121795761217961206f565b604052919050565b600067ffffffffffffffff82111561219b5761219b61206f565b5060051b60200190565b600060208083850312156121b857600080fd5b825167ffffffffffffffff8111156121cf57600080fd5b8301601f810185136121e057600080fd5b80516121f36121ee82612181565b612132565b81815260059190911b8201830190838101908783111561221257600080fd5b928401925b8284101561223957835161222a81611b77565b82529284019290840190612217565b979650505050505050565b8051801515811461225457600080fd5b919050565b60008060008060008060008060006101208a8c03121561227857600080fd5b895161228381611b77565b60208b015190995061229481611b77565b60408b01519098506122a581611b77565b60608b01519097506122b681611b77565b60808b01519096506122c781611b77565b94506122d560a08b01612244565b935060c08a0151925060e08a015191506101008a015190509295985092959850929598565b7f4e487b7100000000000000000000000000000000000000000000000000000000600052603260045260246000fd5b600082601f83011261233a57600080fd5b815167ffffffffffffffff8111156123545761235461206f565b61238560207fffffffffffffffffffffffffffffffffffffffffffffffffffffffffffffffe0601f84011601612132565b81815284602083860101111561239a57600080fd5b6119de826020830160208701611bc0565b600060208083850312156123be57600080fd5b825167ffffffffffffffff808211156123d657600080fd5b818501915085601f8301126123ea57600080fd5b81516123f86121ee82612181565b81815260059190911b8301840190848101908883111561241757600080fd5b8585015b8381101561244f578051858111156124335760008081fd5b6124418b89838a0101612329565b84525091860191860161241b565b5098975050505050505050565b60006020828403121561246e57600080fd5b5051919050565b60008060006060848603121561248a57600080fd5b8351925061249a60208501612244565b9150604084015190509250925092565b6000602082840312156124bc57600080fd5b611bb982612244565b600061020082840312156124d857600080fd5b6124e061209e565b825181526020808401519082015260408084015190820152606080840151908201526080808401519082015260a0808401519082015260c0808401519082015260e08084015190820152610100808401519082015261012080840151908201526101408084015190820152610160808401519082015261018080840151908201526101a080840151908201526101c080840151908201526101e0928301519281019290925250919050565b60006020828403121561259d57600080fd5b8151611bb981611b77565b600060e082840312156125ba57600080fd5b60405160e0810181811067ffffffffffffffff821117156125dd576125dd61206f565b806040525080915082516125f081611b77565b808252506020830151602082015260408301516040820152606083015160608201526080830151608082015260a083015160a082015260c083015160c08201525092915050565b60008183036101a081121561264b57600080fd5b6126536120c8565b91508251825260a07fffffffffffffffffffffffffffffffffffffffffffffffffffffffffffffffe08201121561268957600080fd5b506126926120eb565b60208301516126a081611b77565b8082525060408301516020820152606083015160408201526080830151606082015260a08301516080820152806020830152506126e08360c084016125a8565b604082015292915050565b600061038082840312156126fe57600080fd5b61270661209e565b9050815181526020820151602082015260408201516040820152606082015160608201526080820151608082015260a082015160a082015260c082015160c082015260e082015160e08201526101008083015181830152506101208083015181830152506101408083015181830152506101608083015181830152506101808083015181830152506101a08083015181830152506101c08083015181830152506101e06127b584828501612637565b9082015292915050565b6000808284036104a08112156127d457600080fd5b610120808212156127e457600080fd5b6127ec61210e565b91506127f785612244565b82526020850151602083015260408501516040830152606085015160608301526080850151608083015260a085015160a083015260c085015160c083015260e085015160e083015261010080860151818401525081935061285a868287016126eb565b925050509250929050565b60006020828403121561287757600080fd5b815167ffffffffffffffff81111561288e57600080fd5b6119de84828501612329565b6000602082840312156128ac57600080fd5b815160ff81168114611bb957600080fd5b7f4e487b7100000000000000000000000000000000000000000000000000000000600052601160045260246000fd5b600181815b8085111561294557817fffffffffffffffffffffffffffffffffffffffffffffffffffffffffffffffff0482111561292b5761292b6128bd565b8085161561293857918102915b93841c93908002906128f1565b509250929050565b60008261295c57506001610c59565b8161296957506000610c59565b816001811461297f5760028114612989576129a5565b6001915050610c59565b60ff84111561299a5761299a6128bd565b50506001821b610c59565b5060208310610133831016604e8410600b84101617156129c8575081810a610c59565b6129d283836128ec565b807fffffffffffffffffffffffffffffffffffffffffffffffffffffffffffffffff04821115612a0457612a046128bd565b029392505050565b6000611bb960ff84168361294d565b8181036000831280158383131683831282161715610b9c57610b9c6128bd565b73ffffffffffffffffffffffffffffffffffffffff8416815260406020820152816040820152818360608301376000818301606090810191909152601f9092017fffffffffffffffffffffffffffffffffffffffffffffffffffffffffffffffe01601019291505056fea26469706673582212207d4b40ac6d1ea474fbaec1ea54583eb7d588af38e0f61ab5192ddfe2d1b9df8b64736f6c63430008150033",
  "devdoc": {
    "kind": "dev",
    "methods": {
      "computeIToken(address,string)": {
        "params": {
          "asset_": "address of the asset",
          "iTokenType_": "type of iToken: - if underlying asset supports EIP-2612, the iToken should be type `EIP2612Deposits` - otherwise it should use `Permit2Deposits` - if it's the native token, it should use `NativeUnderlying` - could be more types available, check `iTokenTypes()`"
        },
        "returns": {
          "_0": "token_      detemrinistic address of the computed token"
        }
      },
      "getITokenDetails(address)": {
        "params": {
          "iToken_": "the iToken to get the details for"
        },
        "returns": {
          "iTokenDetails_": " retrieved ITokenDetails struct"
        }
      },
      "getITokenInternalData(address)": {
        "params": {
          "iToken_": "the iToken to get the data for"
        },
        "returns": {
          "lendingFactory_": "address of the Lending factory contract.",
          "lendingRewardsRateModel_": "address of the rewards rate model contract. changeable by LendingFactory auths.",
          "liquidityBalance_": "current Liquidity supply balance of `address(this)` for the underyling asset",
          "liquidityExchangePrice_": "(updated) exchange price for the underlying assset in the liquidity protocol (without rewards)",
          "liquidity_": "address of the Liquidity contract.",
          "permit2_": "address of the Permit2 contract used for deposits / mint with signature",
          "rebalancer_": "address of the rebalancer allowed to execute `rebalance()`",
          "rewardsActive_": "true if rewards are currently active",
          "tokenExchangePrice_": "(updated) exchange price between iToken and the underlying assset (with rewards)"
        }
      },
      "getPreviews(address,uint256,uint256)": {
        "returns": {
          "previewDeposit_": "preview for deposit of `assets_`",
          "previewMint_": "preview for mint of `shares_`",
          "previewRedeem_": "preview for redeem of `shares_`",
          "previewWithdraw_": "preview for withdraw of `assets_`"
        }
      },
      "getUserPosition(address,address)": {
        "returns": {
          "userPosition": "user position struct"
        }
      }
    },
    "stateVariables": {
      "_NATIVE_TOKEN_ADDRESS": {
        "details": "address that is mapped to the chain native token"
      }
    },
    "version": 1
  },
  "userdoc": {
    "errors": {
      "LendingResolver__AddressZero()": [
        {
          "notice": "thrown if an input param address is zero"
        }
      ]
    },
    "kind": "user",
    "methods": {
      "LENDING_FACTORY()": {
        "notice": "returns the lending factory address"
      },
      "LIQUIDITY_RESOLVER()": {
        "notice": "returns the liquidity resolver address"
      },
      "computeIToken(address,string)": {
        "notice": "computes deterministic token address for `asset_` for a lending protocol"
      },
      "constructor": {
        "notice": "constructor sets the immutable `LENDING_FACTORY` address"
      },
      "getAllITokenTypes()": {
        "notice": "returns all iToken types at the `LENDING_FACTORY`"
      },
      "getAllITokens()": {
        "notice": "returns all created iTokens at the `LENDING_FACTORY`"
      },
      "getITokenDetails(address)": {
        "notice": "gets all public details for a certain `iToken_`, such as iToken type, name, symbol, decimals, underlying asset, total amounts, convertTo values, rewards. Note it also returns whether the iToken supports deposits / mints via EIP-2612, but it is not a 100% guarantee! To make sure, check for the underlying if it supports EIP-2612 manually."
      },
      "getITokenInternalData(address)": {
        "notice": "returns config, rewards and exchange prices data of an iToken."
      },
      "getITokenRewards(address)": {
        "notice": "gets rewards related data: the `rewardsRateModel_` contract and the current `rewardsRate_` for the `iToken_`"
      },
      "getITokenRewardsRateModelConfig(address)": {
        "notice": "gets rewards rate model config: the `rewardsRateModelConfig_` for the `iToken_`"
      },
      "getITokensEntireData()": {
        "notice": "gets all public details for all itokens, such as iToken type, name, symbol, decimals, underlying asset, total amounts, convertTo values, rewards"
      },
      "getPreviews(address,uint256,uint256)": {
        "notice": "gets `iToken_` preview amounts for `assets_` or `shares_`."
      },
      "getUserPosition(address,address)": {
        "notice": "gets a `user_` position for an `iToken_`."
      },
      "getUserPositions(address)": {
        "notice": "gets all public details for all itokens, such as iToken type, name, symbol, decimals, underlying asset, total amounts, convertTo values, rewards and user position for each token"
      },
      "isLendingFactoryAuth(address)": {
        "notice": "reads if a certain `auth_` address is an allowed auth or not. Owner is auth by default."
      },
      "isLendingFactoryDeployer(address)": {
        "notice": "reads if a certain `deployer_` address is an allowed deployer or not. Owner is deployer by default."
      }
    },
    "notice": "Fluid Lending protocol (iTokens) resolver Implements various view-only methods to give easy access to Lending protocol data.",
    "version": 1
  },
  "storageLayout": {
    "storage": [],
    "types": null
  }
}