{
  "address": "0x7B64Df0F3F1373E6c41aCa151F0E56dC71e0159D",
  "abi": [
    {
      "inputs": [
        {
          "internalType": "contract IWstETH",
          "name": "wstETH_",
          "type": "address"
        },
        {
          "internalType": "uint8",
          "name": "mainSource_",
          "type": "uint8"
        },
        {
          "components": [
            {
              "internalType": "uint8",
              "name": "hops",
              "type": "uint8"
            },
            {
              "components": [
                {
                  "internalType": "contract IChainlinkAggregatorV3",
                  "name": "feed",
                  "type": "address"
                },
                {
                  "internalType": "bool",
                  "name": "invertRate",
                  "type": "bool"
                },
                {
                  "internalType": "uint256",
                  "name": "token0Decimals",
                  "type": "uint256"
                }
              ],
              "internalType": "struct ChainlinkOracleImpl.ChainlinkFeedData",
              "name": "feed1",
              "type": "tuple"
            },
            {
              "components": [
                {
                  "internalType": "contract IChainlinkAggregatorV3",
                  "name": "feed",
                  "type": "address"
                },
                {
                  "internalType": "bool",
                  "name": "invertRate",
                  "type": "bool"
                },
                {
                  "internalType": "uint256",
                  "name": "token0Decimals",
                  "type": "uint256"
                }
              ],
              "internalType": "struct ChainlinkOracleImpl.ChainlinkFeedData",
              "name": "feed2",
              "type": "tuple"
            },
            {
              "components": [
                {
                  "internalType": "contract IChainlinkAggregatorV3",
                  "name": "feed",
                  "type": "address"
                },
                {
                  "internalType": "bool",
                  "name": "invertRate",
                  "type": "bool"
                },
                {
                  "internalType": "uint256",
                  "name": "token0Decimals",
                  "type": "uint256"
                }
              ],
              "internalType": "struct ChainlinkOracleImpl.ChainlinkFeedData",
              "name": "feed3",
              "type": "tuple"
            }
          ],
          "internalType": "struct ChainlinkOracleImpl.ChainlinkConstructorParams",
          "name": "chainlinkParams_",
          "type": "tuple"
        },
        {
          "components": [
            {
              "internalType": "contract IRedstoneOracle",
              "name": "oracle",
              "type": "address"
            },
            {
              "internalType": "bool",
              "name": "invertRate",
              "type": "bool"
            },
            {
              "internalType": "uint256",
              "name": "token0Decimals",
              "type": "uint256"
            }
          ],
          "internalType": "struct RedstoneOracleImpl.RedstoneOracleData",
          "name": "redstoneOracle_",
          "type": "tuple"
        }
      ],
      "stateMutability": "nonpayable",
      "type": "constructor"
    },
    {
      "inputs": [
        {
          "internalType": "uint256",
          "name": "errorId_",
          "type": "uint256"
        }
      ],
      "name": "FluidOracleError",
      "type": "error"
    },
    {
      "inputs": [],
      "name": "FALLBACK_ORACLE_MAIN_SOURCE",
      "outputs": [
        {
          "internalType": "uint8",
          "name": "",
          "type": "uint8"
        }
      ],
      "stateMutability": "view",
      "type": "function"
    },
    {
      "inputs": [],
      "name": "chainlinkOracleData",
      "outputs": [
        {
          "internalType": "uint256",
          "name": "chainlinkExchangeRate_",
          "type": "uint256"
        },
        {
          "internalType": "contract IChainlinkAggregatorV3",
          "name": "chainlinkFeed1_",
          "type": "address"
        },
        {
          "internalType": "bool",
          "name": "chainlinkInvertRate1_",
          "type": "bool"
        },
        {
          "internalType": "uint256",
          "name": "chainlinkExchangeRate1_",
          "type": "uint256"
        },
        {
          "internalType": "contract IChainlinkAggregatorV3",
          "name": "chainlinkFeed2_",
          "type": "address"
        },
        {
          "internalType": "bool",
          "name": "chainlinkInvertRate2_",
          "type": "bool"
        },
        {
          "internalType": "uint256",
          "name": "chainlinkExchangeRate2_",
          "type": "uint256"
        },
        {
          "internalType": "contract IChainlinkAggregatorV3",
          "name": "chainlinkFeed3_",
          "type": "address"
        },
        {
          "internalType": "bool",
          "name": "chainlinkInvertRate3_",
          "type": "bool"
        },
        {
          "internalType": "uint256",
          "name": "chainlinkExchangeRate3_",
          "type": "uint256"
        }
      ],
      "stateMutability": "view",
      "type": "function"
    },
    {
      "inputs": [],
      "name": "getExchangeRate",
      "outputs": [
        {
          "internalType": "uint256",
          "name": "exchangeRate_",
          "type": "uint256"
        }
      ],
      "stateMutability": "view",
      "type": "function"
    },
    {
      "inputs": [],
      "name": "redstoneOracleData",
      "outputs": [
        {
          "internalType": "uint256",
          "name": "redstoneExchangeRate_",
          "type": "uint256"
        },
        {
          "internalType": "contract IRedstoneOracle",
          "name": "redstoneOracle_",
          "type": "address"
        },
        {
          "internalType": "bool",
          "name": "redstoneInvertRate_",
          "type": "bool"
        }
      ],
      "stateMutability": "view",
      "type": "function"
    },
    {
      "inputs": [],
      "name": "wstETHOracleData",
      "outputs": [
        {
          "internalType": "uint256",
          "name": "wstETHExchangeRate_",
          "type": "uint256"
        },
        {
          "internalType": "contract IWstETH",
          "name": "wstETH_",
          "type": "address"
        }
      ],
      "stateMutability": "view",
      "type": "function"
    }
  ],
  "transactionHash": "0x32a457117473a12466687aa0f65c03d5c83ebfb7dab97dbd690b1e2ee35c3993",
  "args": [
    "0x7f39C581F595B53c5cb19bD0b3f8dA6c935E2Ca0",
    1,
    {
      "hops": 2,
      "feed1": {
        "feed": "0xcfe54b5cd566ab89272946f602d76ea879cab4a8",
        "invertRate": false,
        "token0Decimals": 18
      },
      "feed2": {
        "feed": "0x8fffffd4afb6115b954bd326cbe7b4ba576818f6",
        "invertRate": true,
        "token0Decimals": 6
      },
      "feed3": {
        "feed": "0x0000000000000000000000000000000000000000",
        "invertRate": false,
        "token0Decimals": 0
      }
    },
    {
      "oracle": "0x0000000000000000000000000000000000000000",
      "invertRate": false,
      "token0Decimals": 0
    }
  ],
  "numDeployments": 1,
  "solcInputHash": "7ebf887c0beb7c416bcdd9525d42c955",
  "bytecode": "0x61030060405261dead610140523480156200001957600080fd5b50604051620017a8380380620017a88339810160408190526200003c916200057c565b805183908390839082906001600160a01b0316156200005c578162000088565b6040518060600160405280610140516001600160a01b0316815260200160001515815260200160018152505b886001600160a01b038116620000ba5760405163c82fc46560e01b815261f61960048201526024015b60405180910390fd5b6001600160a01b03811660a052620000d56012601b62000697565b620000e290600a620007b0565b6080525080516001600160a01b031615806200010057506040810151155b15620001245760405163c82fc46560e01b815261fa016004820152602401620000b1565b80516001600160a01b0390811660c0526020820151151560e0526101405182518216911614620001735760408101516200016090601b62000697565b6200016d90600a620007b0565b62000176565b60015b610100526101405181516001600160a01b03908116911614620001b8576040810151620001a590601b620007c5565b620001b290600a620007b0565b620001bb565b60015b61012052508051600160ff9091161080620001dd57506003816000015160ff16115b806200020657506020810151516001600160a01b03161580620002065750602081015160400151155b806200024157506001816000015160ff161180156200024157506040810151516001600160a01b031615806200024157506040808201510151155b806200027d57506002816000015160ff161180156200027d57506060810151516001600160a01b031615806200027d5750606081015160400151155b15620002a15760405163c82fc46560e01b815261ee496004820152602401620000b1565b60208082018051516001600160a01b03908116610160526040808501805151831661018052606086018051519093166101a052835185015115156101c0525184015115156101e0529051909201511515610200525101516200030590601b62000697565b6200031290600a620007b0565b610220526020810151604001516200032c90601b620007c5565b6200033990600a620007b0565b610240528051600160ff909116116200035457600162000376565b60408082015101516200036990601b62000697565b6200037690600a620007b0565b610260528051600160ff9091161162000391576001620003b3565b6040808201510151620003a690601b620007c5565b620003b390600a620007b0565b610280528051600260ff90911611620003ce576001620003f1565b606081015160400151620003e490601b62000697565b620003f190600a620007b0565b6102a0528051600260ff909116116200040c5760016200042f565b6060810151604001516200042290601b620007c5565b6200042f90600a620007b0565b6102c05250600160ff841610806200044a575060038360ff16115b156200046e5760405163c82fc46560e01b815261fde96004820152602401620000b1565b505060ff166102e05250620007db92505050565b6001600160a01b03811681146200049857600080fd5b50565b805160ff81168114620004ad57600080fd5b919050565b604051606081016001600160401b0381118282101715620004e357634e487b7160e01b600052604160045260246000fd5b60405290565b604051608081016001600160401b0381118282101715620004e357634e487b7160e01b600052604160045260246000fd5b80518015158114620004ad57600080fd5b6000606082840312156200053e57600080fd5b62000548620004b2565b90508151620005578162000482565b815262000567602083016200051a565b60208201526040820151604082015292915050565b6000806000808486036101e08112156200059557600080fd5b8551620005a28162000482565b9450620005b2602087016200049b565b9350610140603f1982011215620005c857600080fd5b620005d2620004e9565b620005e0604088016200049b565b8152620005f188606089016200052b565b6020820152620006058860c089016200052b565b60408201526200061a8861012089016200052b565b606082015280935050606061017f19820112156200063757600080fd5b5062000642620004b2565b610180860151620006538162000482565b8152620006646101a087016200051a565b60208201526101c086015160408201528091505092959194509250565b634e487b7160e01b600052601160045260246000fd5b81810381811115620006ad57620006ad62000681565b92915050565b600181815b80851115620006f4578160001904821115620006d857620006d862000681565b80851615620006e657918102915b93841c9390800290620006b8565b509250929050565b6000826200070d57506001620006ad565b816200071c57506000620006ad565b8160018114620007355760028114620007405762000760565b6001915050620006ad565b60ff84111562000754576200075462000681565b50506001821b620006ad565b5060208310610133831016604e8410600b841016171562000785575081810a620006ad565b620007918383620006b3565b8060001904821115620007a857620007a862000681565b029392505050565b6000620007be8383620006fc565b9392505050565b80820180821115620006ad57620006ad62000681565b60805160a05160c05160e05161010051610120516101405161016051610180516101a0516101c0516101e05161020051610220516102405161026051610280516102a0516102c0516102e051610e2e6200097a60003960008181607301528181610b2a0152610b5d015260008181610434015261084701526000818161041301526108260152600081816103420152610750015260008181610321015261072f015260008181610258015261066d015260008181610237015261064c015260008181610391015281816103f2015261080501526000818161029f01528181610300015261070e0152600081816101d101528181610216015261062b015260008181610370015281816103d10152818161079401526107e401526000818161027e015281816102df0152818161069d01526106ed0152600081816101b0015281816101f5015261060a0152600061048701526000610a1301526000610a4201526000818161052e01526109e90152600081816104be0152818161050b015261093a0152600081816105610152610a8f01526000610a6e0152610e2e6000f3fe608060405234801561001057600080fd5b50600436106100675760003560e01c806388c352091161005057806388c3520914610115578063dfaba9b51461014f578063e6aa216c1461018157600080fd5b80633437eac41461006c5780637557ca41146100a2575b600080fd5b60405160ff7f00000000000000000000000000000000000000000000000000000000000000001681526020015b60405180910390f35b6100aa610197565b604080519a8b5273ffffffffffffffffffffffffffffffffffffffff998a1660208c0152971515978a01979097526060890195909552928616608088015290151560a087015260c086015290921660e084015290151561010083015261012082015261014001610099565b61011d610480565b6040805193845273ffffffffffffffffffffffffffffffffffffffff9092166020840152151590820152606001610099565b610157610553565b6040805192835273ffffffffffffffffffffffffffffffffffffffff909116602083015201610099565b610189610586565b604051908152602001610099565b6000806000806000806000806000806101ae610603565b7f00000000000000000000000000000000000000000000000000000000000000007f000000000000000000000000000000000000000000000000000000000000000061027c7f00000000000000000000000000000000000000000000000000000000000000007f00000000000000000000000000000000000000000000000000000000000000007f00000000000000000000000000000000000000000000000000000000000000007f0000000000000000000000000000000000000000000000000000000000000000610875565b7f00000000000000000000000000000000000000000000000000000000000000007f000000000000000000000000000000000000000000000000000000000000000073ffffffffffffffffffffffffffffffffffffffff82161561036b576103667f00000000000000000000000000000000000000000000000000000000000000007f00000000000000000000000000000000000000000000000000000000000000007f00000000000000000000000000000000000000000000000000000000000000007f0000000000000000000000000000000000000000000000000000000000000000610875565b61036e565b60005b7f00000000000000000000000000000000000000000000000000000000000000007f000000000000000000000000000000000000000000000000000000000000000073ffffffffffffffffffffffffffffffffffffffff82161561045d576104587f00000000000000000000000000000000000000000000000000000000000000007f00000000000000000000000000000000000000000000000000000000000000007f00000000000000000000000000000000000000000000000000000000000000007f0000000000000000000000000000000000000000000000000000000000000000610875565b610460565b60005b995099509950995099509950995099509950995090919293949596979899565b60008060007f000000000000000000000000000000000000000000000000000000000000000073ffffffffffffffffffffffffffffffffffffffff167f000000000000000000000000000000000000000000000000000000000000000073ffffffffffffffffffffffffffffffffffffffff161461050557610500610936565b610508565b60005b937f000000000000000000000000000000000000000000000000000000000000000093507f000000000000000000000000000000000000000000000000000000000000000092509050565b60008061055e610a6a565b927f000000000000000000000000000000000000000000000000000000000000000092509050565b6000610590610b26565b9050806000036105d5576040517fc82fc465000000000000000000000000000000000000000000000000000000008152620105b9600482015260240160405180910390fd5b6105e1601b600a610d0b565b816105ea610a6a565b6105f49190610d1e565b6105fe9190610d35565b905090565b60006106917f00000000000000000000000000000000000000000000000000000000000000007f00000000000000000000000000000000000000000000000000000000000000007f00000000000000000000000000000000000000000000000000000000000000007f0000000000000000000000000000000000000000000000000000000000000000610875565b90508015806106d457507f000000000000000000000000000000000000000000000000000000000000000073ffffffffffffffffffffffffffffffffffffffff16155b156106dc5790565b6106e8601b600a610d0b565b6107747f00000000000000000000000000000000000000000000000000000000000000007f00000000000000000000000000000000000000000000000000000000000000007f00000000000000000000000000000000000000000000000000000000000000007f0000000000000000000000000000000000000000000000000000000000000000610875565b61077e9083610d1e565b6107889190610d35565b90508015806107cb57507f000000000000000000000000000000000000000000000000000000000000000073ffffffffffffffffffffffffffffffffffffffff16155b156107d35790565b6107df601b600a610d0b565b61086b7f00000000000000000000000000000000000000000000000000000000000000007f00000000000000000000000000000000000000000000000000000000000000007f00000000000000000000000000000000000000000000000000000000000000007f0000000000000000000000000000000000000000000000000000000000000000610875565b6105f49083610d1e565b60008473ffffffffffffffffffffffffffffffffffffffff1663feaf968c6040518163ffffffff1660e01b815260040160a060405180830381865afa9250505080156108fc575060408051601f3d9081017fffffffffffffffffffffffffffffffffffffffffffffffffffffffffffffffe01682019092526108f991810190610d8f565b60015b6109085750600061092e565b8815610924576109188488610d35565b9550505050505061092e565b6109188885610d1e565b949350505050565b60007f000000000000000000000000000000000000000000000000000000000000000073ffffffffffffffffffffffffffffffffffffffff1663e6aa216c6040518163ffffffff1660e01b8152600401602060405180830381865afa9250505080156109dd575060408051601f3d9081017fffffffffffffffffffffffffffffffffffffffffffffffffffffffffffffffe01682019092526109da91810190610ddf565b60015b6109e75750600090565b7f000000000000000000000000000000000000000000000000000000000000000015610a3d57610a37817f0000000000000000000000000000000000000000000000000000000000000000610d35565b91505090565b610a377f000000000000000000000000000000000000000000000000000000000000000082610d1e565b90565b60007f00000000000000000000000000000000000000000000000000000000000000007f000000000000000000000000000000000000000000000000000000000000000073ffffffffffffffffffffffffffffffffffffffff1663035faf826040518163ffffffff1660e01b8152600401602060405180830381865afa158015610af8573d6000803e3d6000fd5b505050506040513d601f19601f82011682018060405250810190610b1c9190610ddf565b6105fe9190610d1e565b60007f000000000000000000000000000000000000000000000000000000000000000060ff16600103610b5b576105fe610603565b7f000000000000000000000000000000000000000000000000000000000000000060ff16600203610ba057610b8e610603565b905080600003610a67576105fe610936565b610ba8610936565b905080600003610a67576105fe610603565b7f4e487b7100000000000000000000000000000000000000000000000000000000600052601160045260246000fd5b600181815b80851115610c4257817fffffffffffffffffffffffffffffffffffffffffffffffffffffffffffffffff04821115610c2857610c28610bba565b80851615610c3557918102915b93841c9390800290610bee565b509250929050565b600082610c5957506001610d05565b81610c6657506000610d05565b8160018114610c7c5760028114610c8657610ca2565b6001915050610d05565b60ff841115610c9757610c97610bba565b50506001821b610d05565b5060208310610133831016604e8410600b8410161715610cc5575081810a610d05565b610ccf8383610be9565b807fffffffffffffffffffffffffffffffffffffffffffffffffffffffffffffffff04821115610d0157610d01610bba565b0290505b92915050565b6000610d178383610c4a565b9392505050565b8082028115828204841417610d0557610d05610bba565b600082610d6b577f4e487b7100000000000000000000000000000000000000000000000000000000600052601260045260246000fd5b500490565b805169ffffffffffffffffffff81168114610d8a57600080fd5b919050565b600080600080600060a08688031215610da757600080fd5b610db086610d70565b9450602086015193506040860151925060608601519150610dd360808701610d70565b90509295509295909350565b600060208284031215610df157600080fd5b505191905056fea2646970667358221220d16090907a2bda9ed5d158f06b9b78873b790aef506e3a8801bbaf65b54eb97c64736f6c63430008150033",
  "devdoc": {
    "kind": "dev",
    "methods": {
      "constructor": {
        "params": {
          "chainlinkParams_": "chainlink Oracle constructor params struct.",
          "mainSource_": "which oracle to use as main source: 1 = Chainlink, 2 = Redstone (other one is fallback).",
          "redstoneOracle_": "Redstone Oracle data. (address can be set to zero address if using Chainlink only)",
          "wstETH_": "address of the wstETH contract"
        }
      }
    },
    "title": "WstETH Chainlink / Redstone Oracle (with fallback)",
    "version": 1
  },
  "userdoc": {
    "kind": "user",
    "methods": {
      "FALLBACK_ORACLE_MAIN_SOURCE()": {
        "notice": "which oracle to use as main source: 1 = Chainlink, 2 = Redstone (other one is fallback)."
      },
      "chainlinkOracleData()": {
        "notice": "returns all Chainlink oracle related data as utility for easy off-chain use / block explorer in a single view method"
      },
      "constructor": {
        "notice": "sets the wstETH address, main source, Chainlink Oracle and Redstone Oracle data."
      },
      "getExchangeRate()": {
        "notice": "Get the `exchangeRate_` between the underlying asset and the peg asset in 1e27"
      },
      "redstoneOracleData()": {
        "notice": "returns all Redstone oracle related data as utility for easy off-chain use / block explorer in a single view method"
      },
      "wstETHOracleData()": {
        "notice": "returns all wWtETH oracle related data as utility for easy off-chain use / block explorer in a single view method"
      }
    },
    "notice": "Gets the exchange rate between the underlying asset and the peg asset by using:          wstETH Oracle price in combination with rate from Chainlink price feeds (or Redstone as fallback),          hopping the 2 rates into 1 rate.          e.g. when going from wstETH to USDT:          wstETH -> stETH wstETH Oracle, stETH -> ETH Chainlink feed, ETH -> USDT Chainlink feed.",
    "version": 1
  },
  "storageLayout": {
    "storage": [],
    "types": null
  }
}